:100000000C9455030C949C030C949C030C949C033B
:100010000C949C030C949C030C949C030C949C03E4
:100020000C949C030C949C030C9428250C94FA25A6
:100030000C94ED1F0C949C030C949C030C949C0357
:100040000C949C030C949C030C949C030C949C03B4
:100050000C949C030C9455200C949C030C949C03CE
:100060000C949C030C949C030C949C030C949C0394
:100070000C949C030C949C030C949C030C949C0384
:100080000C949C030C949C030C949C030C949C0374
:100090000C949C030C949C030C949C030C949C0364
:1000A0000C949C030C949C030C949C039B0E9E0E3E
:1000B000A60EAB0EB00EB50EBA0EBF0EC40EC90E14
:1000C000CE0ED30ED50ED80EDB0EDE0EE10EE40EF4
:1000D000E60EEB0E81158115B315B31500166317E7
:1000E000631763172016BD16CE16CE162F173817B6
:1000F00063175C17E117E117F317F317EA17F31704
:10010000F317F317E117E117EF17F317F317EF17CB
:1001100067268E2680278E268027DA26FD268027D2
:100120005327622729003A003B003C003D003E0077
:100130003F004000410042004300440045004600AB
:1001400049004C0035001E001F0020002100220045
:10015000230024002500260027002D002E002A0061
:100160002A004A002B00000014001A0008001500A5
:1001700017001C0018000C00120013002F003000A4
:1001800031004D003941000004001600070009004D
:100190000A000B000D000E000F0033003400280091
:1001A00000004B00E100E1001D001B0006001900EB
:1001B0000500110010003600370038000000E5008F
:1001C00052004E00E000E3000000E2002C000000BE
:1001D0002C0000002C000000E600E400E4005000C9
:1001E00051004F00294200000000680069006A00C9
:1001F0006B006C006D006E006F00700071000000FD
:10020000470048000000000000000000000000005F
:1002100000000000000000000000000000000000DE
:100220000000000000000000A800A900000000007D
:1002300000000000000000000000000000000000BE
:1002400000000000000000000000AA000000000004
:10025000000000000000000000000000000000009E
:10026000000000000100010000000000000000008C
:10027000000000000000000000000000000000007E
:10028000000000000100000000000100000000006C
:100290000000000000000000010065006500000093
:1002A000000000000000000000000000000000004E
:1002B000000000000000000000000000000000003E
:1002C000000000000000000000000000000000002E
:1002D000000000000000000000000000000000001E
:1002E000005C000000000000C25CC35CC65CC55C32
:1002F000C85CC75CCA5CC95C00000000000000006C
:1003000000000000000000000000000000000000ED
:1003100000000000000000000000000000000000DD
:100320000000000001000100BF5CC15CBD5CBE5C60
:1003300000000000000000000000000000000100BC
:1003400000000000010000000000010000000000AB
:10035000000000000000000001000100010000009A
:100360000000000000047F3F1F64321464321478E0
:100370003C1E1E140A052223252628292A2C2D2F4F
:100380003032333536383A3B3D3E404243454749AB
:100390004A4C4E5051535557595A5C5E60626466E0
:1003A00068696B6D6F71737577797B7D7F818385EC
:1003B00087898A8C8E90929496989A9C9E9FA1A3EE
:1003C000A5A7A8AAACAEAFB1B3B4B6B8B9BBBCBE12
:1003D000BFC1C2C3C5C6C7C9CACBCCCDCED0D1D28E
:1003E000D2D3D4D5D6D7D7D8D9D9DADADBDBDBDC90
:1003F000DCDCDCDCDDDDDDDDDCDCDCDCDCDBDBDB3C
:10040000DADAD9D9D8D7D7D6D5D4D3D2D2D1D0CE9B
:10041000CDCCCBCAC9C7C6C5C3C2C1BFBEBCBBB9A0
:10042000B8B6B4B3B1AFAEACAAA8A7A5A3A19F9E1E
:100430009C9A98969492908E8C8A89878583817FE6
:100440007D7B79777573716F6D6B696866646260C7
:100450005E5C5A5957555351504E4C4A4947454393
:1004600042403E3D3B3A3836353332302F2D2C2A30
:10047000292826252322FFAA7F55400001010101DA
:10048000010101010102020202020202020203034F
:10049000030303030303040404040404040505051F
:1004A00005050606060606070707070708080808E1
:1004B000090909090A0A0A0B0B0B0C0C0C0D0D0D8E
:1004C0000E0E0E0F0F0F1010111111121213131424
:1004D00014151516161717181819191A1A1B1B1C9C
:1004E0001D1D1E1E1F2020212222232424252626F6
:1004F000272829292A2B2C2D2D2E2F30313232332B
:100500003435363738393A3B3C3D3E3F4041424333
:100510004445464748494A4C4D4E4F505153545517
:100520005658595A5B5D5E5F616264656668696BC7
:100530006C6D6F7072737577787A7B7D7E80828345
:100540008587888A8C8E8F91939596989A9C9EA089
:10055000A2A3A5A7A9ABADAFB1B3B5B7BABCBEC096
:10056000C2C4C6C9CBCDCFD1D4D6D8DBDDDFE2E45F
:10057000E7E9EBEEF0F3F5F8FAFDFF0403300000D5
:10058000000C034B00420044003700350000001609
:100590000371006D006B006200750069006C0064FF
:1005A000006500720000000403090409023B000218
:1005B0000100A0FA09040000010301010009211152
:1005C0000100012240000705810308000A09040117
:1005D0000001030000000921110100012271000740
:1005E00005820320000A1201100100000008EDFE40
:1005F000606001000102030105010980A10185037A
:100600001A81002A83001601002603009501751047
:100610008100C0050C0901A10185041A01002A9C72
:1006200002160100269C02950175108100C005018B
:100630000906A1018505050719E029E7150025012F
:100640009508750181020507190029EF150025019C
:1006500095F07501810205081901290595057501B7
:100660009102950175039101C005010906A10105DB
:100670000719E029E7150025019508750181029504
:1006800001750881010507190029FF150026FF00E3
:10069000950675088100050819012905950575015C
:1006A0009102950175039101C00011241FBECFEF87
:1006B000DAE0DEBFCDBF04B603FE27C08091AA02F8
:1006C0009091AB02A091AC02B091AD028730904BFB
:1006D000A740B04BD1F41092AA021092AB02109234
:1006E000AC021092AD0214BE84B7877F84BF0FB6F0
:1006F000F894A895809160008861809360001092C2
:1007000060000FBEE0E0F8E3099511E0A0E0B1E081
:10071000EAE0F1E502C005900D92A835B107D9F7DE
:1007200022E0A8E5B1E001C01D92AA3AB207E1F7C4
:100730000E944F220C9483280C94000081FF02C079
:100740002A9801C02A9A0C940A04229A0C946B07E6
:1007500081E0089581E008950C94AA031F93CF933C
:10076000DF9300D000D01F92CDB7DEB749835A8304
:100770002091980189819A81211112C0662349F044
:100780000E94061D182F682F89819A810E94AB1C38
:1007900003C00E94DA1C182F69817A81812F04C05E
:1007A0000E94061D69817A810F900F900F900F9023
:1007B0000F90DF91CF911F910C949604FC01408122
:1007C00051816281738184810C94AE030E94C407BD
:1007D0008FE39CE90197F1F700C000000E94C40775
:1007E00081E00E946F0796FF04C00E94361E0C94A1
:1007F0007B2008950E94E6030E943C1E811102C0E6
:100800000E94E51E0E943D100C94A5030E943C101E
:100810000C946D07089581E008950C940B04CF9318
:10082000C82F0E949E038C2F0E940D04CF91089523
:1008300008950E94D1170E9418042FEF84E39CE0D2
:10084000215080409040E1F700C000000C947B20D4
:100850000F931F93CF93DF93EC010E94DE038C0173
:10086000BE010E94AC03882309F456C0BE01C80132
:100870000E94F110882309F44FC0BE01C8010E94F4
:100880003211882309F448C0BE01C8010E94840EB9
:10089000882309F441C08A81882371F001158CE511
:1008A000180739F00E3D8CE5180731F40E94E51E5B
:1008B00033C00E94190430C006311C4531F50E9436
:1008C000861D282F8A8140911001509111018823A3
:1008D00079F02A7A91E009F490E09093580191110F
:1008E00002C069E201C065E3CA010E94511F0AC04B
:1008F00080915801811102C069E201C065E3CA011B
:100900000E945C1F0E94D21D07C0CE01DF91CF91D3
:100910001F910F910C94A80380E0DF91CF911F915C
:100920000F91089580E090E008950895E72FF0E09A
:1009300096E0899FE00DF11D112484E0EE0FFF1F6A
:100940008A95E1F7E60FF11DEE0FFF1FEC5DFE4FFC
:10095000859194910895880F991FFC01EC59FC4FE3
:10096000859194910895CF93DF930E9496040E94FD
:100970009406EC01811522E5920708F046C0811526
:1009800031E5930708F052C1883E910500F5803E9D
:10099000910508F0C5C1883A910570F4853A910532
:1009A00008F0B1C08130910509F4BAC108F46BC1F7
:1009B000049708F0B5C167C18F3B910508F4AEC03C
:1009C000803C910508F45FC1805C910906C18115E6
:1009D00040E4940790F4C11580E3D80708F001C102
:1009E000C11521E0D20708F44EC1C11530E2D3078A
:1009F00008F496C1CE019F70F0C0811540E59407C0
:100A000008F0F9C0DF70D06A8BC1C11589E5D8073D
:100A1000B8F5C11528E5D20708F021C1C11534E5A4
:100A2000D307D0F42C2F26952695CE0183709927D5
:100A3000C115D34508F0FFC040E2249F9001112466
:100A4000C1E0D0E002C0CC0FDD1F8A95E2F72C2B6D
:100A50003D2BE901DC6864C1C11585E5D80708F4C0
:100A6000F9C0C11526E5D20708F00DC18C2F0E94F0
:100A700028078F71C82FD0E0DC2FCC27D06250C15F
:100A8000CD3B3CE5D30709F4F5C0E0F4CB3B8CE566
:100A9000D80709F4E9C008F0EAC0C1153AE5D30760
:100AA00008F0F1C08C2F8F700E94280794E0D69533
:100AB000C7959A95E1F7CF70D0E0DC2FCC27D069AD
:100AC000C82B2EC1C03C4CE5D40709F4D9C060F452
:100AD000CE3B2CE5D20709F4D0C0CF3BDC4509F072
:100AE000D2C0C0E0D2ED1CC1CE019056811590421B
:100AF00008F0C9C08D2F8F710E942807DD27D062B2
:100B00008F71D82B0DC1853A910509F4BFC0863A83
:100B1000910509F0BEC0C2E8D0E402C1883A91054F
:100B200009F4BAC0893A910509F4B9C08A3A910525
:100B300009F4B8C08B3A910509F4B7C08C3A910515
:100B400009F4B6C08B3B910509F4B5C08C3B910507
:100B500009F4B4C08D3A910509F4B3C0803B910506
:100B600009F4B2C08E3A910509F4B1C08F3A9105EB
:100B700009F4B0C0813B910509F4AFC0823B9105F7
:100B800009F4AEC0833B910509F4ADC0843B9105E7
:100B900009F4ACC0853B910509F4ABC0863B9105D7
:100BA00009F4AAC0873B910509F4A9C0883B9105C7
:100BB00009F4A8C0893B910509F4A7C08D3B9105B4
:100BC00009F4A6C08E3B910509F4A5C08A3B9105A6
:100BD00009F4A4C0C0E0D4E4A3C00E94AB04EC01BB
:100BE0009FC0CE019927D3FF03C0EC01D86C98C0F9
:100BF000EC01D06C95C0837021E030E002C0220F80
:100C0000331F8A95E2F73C68CE0174E0969587958C
:100C10007A95E1F78370382BCF70C695C69580E240
:100C2000C89FE0011124C22BD32B7AC0D82FCC2728
:100C3000C16FD06A75C040E2249F90011124C1E0C9
:100C4000D0E002C0CC0FDD1F8A95E2F7C22BD32B78
:100C5000DA6866C0DC2FCC27C46FD06A61C0DC2F95
:100C6000CC27C06FD06A5CC0C0E0D4ED59C0C0E0F2
:100C7000D5ED56C0C0E0D1ED53C0C0E0D0ED50C0BE
:100C8000C0E0D3ED4DC0C0E0D0E04AC0C1E8D0E440
:100C900047C0C3E8D0E444C0C2EED4E441C0C9EECA
:100CA000D4E43EC0CAEED4E43BC0C5EBD4E438C0C3
:100CB000C6EBD4E435C0C3EBD4E432C0C4EBD4E417
:100CC0002FC0C7EBD4E42CC0CCECD4E429C0CDECCD
:100CD000D4E426C0C3E8D5E423C0CAE8D5E420C0E4
:100CE000C2E9D5E41DC0C4E9D5E41AC0C1E2D6E426
:100CF00017C0C3E2D6E414C0C4E2D6E411C0C5E212
:100D0000D6E40EC0C6E2D6E40BC0C7E2D6E408C003
:100D1000CFE6D4E405C0C0E7D4E402C0CAE2D6E41A
:100D2000CE01DF91CF9108958238910569F1B0F439
:100D30008133910509F46DC048F48932910509F4B5
:100D400063C08A32910509F469C00895853391051D
:100D500009F455C089339105B9F00895833E910592
:100D600069F138F4803E9105B1F0823E910509F1B8
:100D70000895863E9105A9F1873E9105B9F1843E1B
:100D8000910509F064C023C020919B0220FD4FC053
:100D900021FD4DC0089580919B0280FD44C080914B
:100DA0009C0280FF44C080919B0284FD42C083EE80
:100DB0004DC080919B0282FF38C0F5CF80919B028D
:100DC00082FD33C080919C0280FD31C0ECCF8091C8
:100DD0009C0281FF32C080919B0284FD2AC087EE75
:100DE00035C080919B0283FF26C0F5CF80919B0286
:100DF00083FD21C080919C0281FD1FC0ECCF8091BA
:100E00009B0285FD1CC01DC080919B0285FD19C001
:100E100016C080919B0286FD16C017C080919B0270
:100E200086FD13C010C089E311C082EE0FC080EEB2
:100E30000DC080E00BC086EE09C084EE07C089E2D9
:100E400005C085E303C08AE201C081E390E0089514
:100E500090919B0292FF0DC0282F2871283019F421
:100E6000877F846006C0282F2471243011F48B7F83
:100E7000886093FF0DC0282F2871283119F4877ED0
:100E8000846106C0282F2471243111F48B7E88617F
:100E900020919C0220FF0DC0382F3871383019F492
:100EA000877F816006C0382F3171313011F48E7F19
:100EB000886021FF0DC0282F2871283119F4877E02
:100EC000816106C0282F2171213111F48E7E886145
:100ED00094FD877E0895089508950C946C07E82F7B
:100EE000F0E0EE0FFF1FE75AFE4F808191810895D9
:100EF0000895ADE2B1E041E050E026E02A0F8D9187
:100F0000E82FE295EF70F0E031A18F70BA0102C0D6
:100F1000660F771F8A95E2F7CB01962F9095932362
:100F200091A392A1892B82A32A13E9CFADE1B1E06D
:100F300041E050E020E12A0F8D91E82FE295EF701B
:100F4000F0E031A18F70BA0102C0660F771F8A9559
:100F5000E2F7CB01962F9095932391A392A1892B31
:100F600082A32A13E9CFE5E6F1E0A9E5B1E0119209
:100F700011921D921D9271E0E137F707C1F786E0EB
:100F80000E945B080C94FA035F926F927F928F929B
:100F90009F92AF92BF92CF92DF92EF92FF920F9308
:100FA0001F93CF93DF930DE211E0A5E6B1E0612C32
:100FB000EE24E394F12C5D018D909C901197119695
:100FC0001C921E92E80189918E01E82FE295EF7044
:100FD000F0E091A18F70A70101C0440F8A95EAF754
:100FE000892F842B81A382A1542E5094852182A322
:100FF000D0EADA95F1F78DE1C82E81E0D82E80E0B5
:1010000090E0E60179906E01272D22952F7030E057
:10101000E90168A12D913C91119770E0D72DDF7007
:1010200002C075956795DA95E2F760FD08C0B701D3
:10103000082E02C0660F771F0A94E2F702C060E034
:1010400070E0262B372B11963C932E93019680311E
:101050009105B9F681A1D52DD823D1A382A1482B22
:1010600042A3129681E0F501208131818216930618
:1010700009F480E0682AF1E0A137BF0709F09BCFAF
:10108000262D46E069E571E085E691E00E945C0866
:101090000E940604862DDF91CF911F910F91FF9042
:1010A000EF90DF90CF90BF90AF909F908F907F9008
:1010B0006F905F9008950895FF920F931F93CF93C1
:1010C000DF93F82E092F162FD72FC42F222349F094
:1010D00081E0809373010E941F209093720180939E
:1010E0007101809173018823D9F0809171019091F1
:1010F00072010E942B20069798F0EF2DF02FA12F60
:10110000BD2F80E090E04C2F50E08417950734F419
:10111000219131912D933D930196F7CF1092730158
:10112000DF91CF911F910F91FF900895AF92BF92E1
:10113000CF92DF92FF920F931F93CF93DF93D62E20
:10114000372FE82FF0E0711106C0E558FB4F64918E
:10115000762F862F75C0C72FD0E0E558FB4F24911E
:10116000F22E022F10E046E0649FC0011124EFEF41
:10117000F0E0BF010E94C427AB016BEA6403C00129
:10118000659F900D11248D0D911D8D0D911D982F32
:10119000990F890FDF01AC1BBD0B0A9FB0010B9F9C
:1011A000700D1A9F700D1124972F839FD001112469
:1011B000AB2FBB276F01CA1ADB0A0C9DD0010D9D16
:1011C000B00D1C9DB00D11245F01A81AB108AC9E92
:1011D0006001AD9ED00CBC9ED00C1124CD2DDD271E
:1011E000EC1BFD0B0E9FE0010F9FD00D1E9FD00D3D
:1011F0001124ED2F4230510591F04CF44115510569
:10120000E1F041305105B9F4E22F2B2F16C04430E4
:10121000510569F044F04630510579F00CC0E22FD9
:10122000272F9D2F0AC0272F9F2DEB2F06C0E72FBA
:10123000922F2D2F02C0E72F9B2F6E2F722F892FF9
:10124000DF91CF911F910F91FF90DF90CF90BF90D2
:10125000AF9008950895CF93DF93762FE901682F1B
:10126000842F0E949608798368838A83DF91CF91C7
:10127000089580916102282F269530E021153105CF
:1012800019F48170826005C02532310524F0817027
:10129000886480936102089588E090E00C9443286C
:1012A000CF93DF9300D000D0CDB7DEB7AB01BC0148
:1012B00049835A836B837C830E94390949815A810F
:1012C0006B817C8188E090E00F900F900F900F90E1
:1012D000DF91CF910C946128E1E6F2E083E0808316
:1012E00011828FEF82838383148260817181828176
:1012F00093810C9450098091610280FF02C0869511
:10130000089580E0089580916502833018F48F5F1E
:101310008093650260916102709162028091630224
:10132000909164020C94500980916502882319F011
:101330008150809365026091610270916202809198
:101340006302909164020C9450096091040170E072
:101350008091610280FF0AC08091780123E0829F22
:10136000C00111248A599D4F0C94811080917701FE
:1013700090910301891780F7E82FF0E09F01220F79
:10138000331FE20FF31FEA59FD4F118210821282C0
:101390008F5FF0CF9091610290FF16C0909177011E
:1013A00020910301921770F4E92FF0E0DF01AA0FFA
:1013B000BB1FEA0FFB1FEA59FD4F81836083428305
:1013C0009F5FF0CF0C94A5090895CF93DF9300D0D1
:1013D0001F92CDB7DEB79091610290FF0AC09E01C7
:1013E0002F5F3F4F0E942B094B8169818A810E94A8
:1013F000CA090F900F900F90DF91CF910895CF936E
:10140000DF93EC01EC81F0E0EA58FC4F4491E1E617
:10141000F2E0628181810E94E5098C818F5F8C837B
:10142000DF91CF910895CF93DF93EC01E1E6F2E0F5
:10143000438162818C810E94E5098C818F5F8C835E
:10144000DF91CF9108950F931F93CF93DF9300D037
:101450001F92CDB7DEB78C018091740181110AC053
:101460009E012F5F3F4F4FEF6FEF0E942B098A8144
:1014700080937401F8018481813051F028F082302A
:1014800061F4409174010AC08091740140E007C08A
:101490006091740140E080E003C040E080E060E0E3
:1014A0000E94CA09F801248130E0C901019663E075
:1014B00070E00E94D82784830F900F900F90DF91E7
:1014C000CF911F910F910895AF92BF92CF92DF926B
:1014D000EF92FF920F931F93CF93DF9300D01F9251
:1014E000CDB7DEB7182FF62E042FE22E90916102B1
:1014F00090FF6EC0E92FE695AE2FB0E0AD5CBE4F19
:101500008C91809380019E7F923061F49E012F5FC9
:101510003F4F812F0E942B094B8169818A810E9454
:10152000CA0944C0823019F4009164023FC0863079
:1015300019F4109162023AC08930D9F38931B1F5BA
:10154000E9518E2F8170D82EE695F0E0EA58FB4FD6
:10155000A590B490C12CBB2460910201C61620F561
:10156000EC2DF0E0EA9DC001EB9D900DFA9D900DF1
:10157000112470E00E94C427812FD11002C0860F71
:1015800001C0861B90917701E90FF11D9F01220F89
:10159000331FE20FF31F9F012A593D4F402F6F2D3C
:1015A0000E942B09C394D8CF0E94A5091093620210
:1015B000F092630200936402EE2051F060916102A8
:1015C0007091620280916302909164020E945009BE
:1015D0000F900F900F90DF91CF911F910F91FF907F
:1015E000EF90DF90CF90BF90AF900895E1E6F2E0EA
:1015F0009181282F4381628188E0890F0C94640ACD
:1016000081E00C94F60AE1E6F2E09181282F438113
:10161000628188EF890F0C94640A81E00C94030BBB
:10162000E1E6F2E0628128E0620F08F46FEF282F14
:10163000438181810C94640A81E00C94100BE1E6F3
:10164000F2E0628128E0621B08F460E0282F438109
:1016500081810C94640A81E00C941F0BE1E6F2E0B6
:10166000438128E0420F08F44FEF282F62818181E7
:101670000C94640A81E00C942E0BE1E6F2E04381C5
:1016800028E0421B08F440E0282F628181810C94FD
:10169000640A81E00C943D0B20E00C94640AFF92F4
:1016A0000F931F93CF93DF93EC01F12C0FEF10E01A
:1016B00060910201F616E8F42091770130E02F0DD9
:1016C000311DC901880F991F280F391F2A593D4F15
:1016D00070E0C8010E94D827962F8C814091640247
:1016E00060916302F99E800D11240E942B09F394EE
:1016F000DFCF0E94A5099A818C8190FF02C08F5F85
:1017000001C081508C83DF91CF911F910F91FF9089
:101710000895BF92CF92DF92EF92FF920F931F93A3
:10172000CF93DF93FC01828180FF02C00FEF01C0E5
:1017300001E010E080910201181708F040C0C12EAE
:10174000D12C80917701E601C80FD11DCE01880F01
:10175000991FC80FD91FCA59DD4F198218821A82E2
:1017600034E0E32EF12CB12C809176018B0D813188
:1017700014F08F7005C087FF03C090910201890F9C
:10178000082E000C990BC816D90691F480916402BA
:101790008E9DA0018F9D500D11245595479555950F
:1017A00047959E0160916302809162020E942B091D
:1017B000B00EF1E0EF1AF108B9F61F5FBBCF0E943F
:1017C000A50980917601013031F4811102C0809128
:1017D0000201815007C090E001966091020170E023
:1017E0000E94D82780937601DF91CF911F910F91AE
:1017F000FF90EF90DF90CF90BF900895CF938091AE
:10180000770190910301891770F4E82FF0E09F01B0
:10181000220F331FE20FF31FEA59FD4F118210828E
:1018200012828F5FF0CFC0E060910201C617B8F559
:10183000EC2FF0E070E0CF010E94D82740917701B3
:10184000480F80917501082E000C990B50E0E817A5
:10185000F907C4F020910101022E000C330B2E1762
:101860003F0784F09A01220F331F240F351F2A5996
:101870003D4F4091640260916302809162020E9438
:101880002B090BC0FA01EE0FFF1F4E0F5F1FFA016D
:10189000EA59FD4F118210821282CF5FC5CF0E949C
:1018A000A5092091000180917501820F8093750137
:1018B00090910101920F9093010119165CF4082E8A
:1018C000000C990B4091020150E0415051098417DE
:1018D00095071CF0219520930001CF9108950F9357
:1018E0001F93CF93DF938C01FC0184819581019636
:1018F0008170992795838483C0E0D5E580910201AA
:10190000C817F8F42091770130E02C0F311DC90180
:10191000880F991F280F391F2A593D4F4C2F469584
:10192000F80184819581840F911D8170409164023A
:10193000609163028D9F802D11240E942B09CF5F3F
:10194000DDCFDF91CF911F910F910C94A5090F93DB
:101950001F93CF93DF93EC0100E010E08091020130
:10196000282F30E00217130724F590917701980192
:10197000290F311DA901440F551F240F351F2A5966
:101980003D4F869590E04C81081719071CF44423BD
:1019900031F002C0411103C04091640201C040E037
:1019A00060916302809162020E942B090F5F1F4FBA
:1019B000D5CF0E94A5092C8130E02F5F3F4F2170C9
:1019C00033272C83DF91CF911F910F910895E1E68A
:1019D000F2E080818E7F808360817181828193813A
:1019E0000E945009109281012FEF80E792E0215070
:1019F00080409040E1F700C000000C94A509E1E6AA
:101A0000F2E080818E7F8083109281012FEF80E74A
:101A100092E0215080409040E1F700C000000C941B
:101A2000A50960916102669570E04BE050E085E0A9
:101A300091E00E942E28892B19F481E08093810186
:101A40000E941F2090937A018093790108959091CC
:101A5000610290FF35C09170811102C0926006C092
:101A6000853210F0986402C0880F982B9093610221
:101A7000662351F06091610270916202809163026D
:101A8000909164020E94500960916102669570E035
:101A90004BE050E085E091E00E942E28892B19F060
:101AA0001092810102C00E94110D81E080937C019F
:101AB0004091640260916302809162020C944C0B2D
:101AC0000895682F90916102969581E0890F853283
:101AD00008F081E00C94270D81E00C94610D682FD3
:101AE0009091610296958FEF890F09F484E20C942E
:101AF000270D81E00C946F0D61E00C94270DE1E659
:101B0000F2E080818160808386950C947C0D8091C9
:101B1000610280FD0C94E70C0C947F0D60E00C9446
:101B2000270D80917F0181112EC00E943C1E8111E2
:101B300004C00E94E51E0E946C090E944C0960933B
:101B400061027093620280936302909364026E7FDD
:101B500061F40E946C090E944C09609361027093C9
:101B6000620280936302909364020E94390910928A
:101B700081018091610280FF03C086950E948E0DD5
:101B800081E080937F010895E1E6F2E08081816049
:101B9000808386950C948E0D1092810108950F9389
:101BA0001F93CF93DF9380918101882309F48CC028
:101BB00080918001E0916102E695E81BE0937B0152
:101BC000823049F4F0E0EE58FC4FE491CE2FD0E0A3
:101BD0000FEF19E049C0863049F4F0E0E159FC4FBD
:101BE000E491CE2FD0E003E11AE03EC0893051F4F9
:101BF000E695F0E0E459FC4FE491CE2FD0E00FE4FD
:101C00001BE032C08F3051F4E695F0E0E759FC4F0D
:101C1000E491CE2FD0E009E81BE026C0853149F4DD
:101C2000F0E0EA59FC4FE491CE2FD0E00EEF1BE03C
:101C30001BC0883181F0833239F4E4E6F3E0C591CA
:101C4000D49103E21AE010C0843251F4C4EFD1E021
:101C500007EA1CE009C0C8EED3E00FE61CE004C0B0
:101C6000C0EDD7E00AE219E080917C01882389F079
:101C700010927C010E941F209E0120953095820FBA
:101C8000931F90937A018093790110927E011092B4
:101C90007D018091790190917A010E942B208C170F
:101CA0009D0790F0E0917901F0917A01CE0FDF1F4E
:101CB000D0937A01C093790189E791E0F801DF912F
:101CC000CF911F910F910994DF91CF911F910F91A7
:101CD0000895882311F0FA0101C0FB010994CF9304
:101CE000DF93C82FD62F0E947B098C1740F00E94EB
:101CF0007B098D1720F4DF91CF910C946C0D8C2F04
:101D0000DF91CF910C947C0D0F931F93CF93FB0128
:101D1000C281CC2309F463C08C010E94861D8272AB
:101D2000F801E25CFC45E431F10508F059C0EA5ADB
:101D3000FF4F0C940E280E94870D06C049E75DE016
:101D40006CE67DE00E94690EC0E04AC04CE65DE0B2
:101D500069E77DE0F7CF4DE05BE060E07BE0F2CF4C
:101D600040E05BE06DE07BE0EDCF4BE25BE06CE1FF
:101D70007BE0E8CF4CE15BE06BE27BE0E3CF49E462
:101D80005BE06AE37BE0DECF4AE35BE069E47BE0B3
:101D9000D9CF44E959E063E879E0D4CF43E859E08A
:101DA00064E979E0CFCF81E017C065E082E010C040
:101DB00068E086E00DC06EE089E00AC064E18FE073
:101DC00007C067E185E104C088E106C062E289E1FD
:101DD0000E946F0EB9CF83E20E947C0DB5CFC1E0A7
:101DE0008C2FCF911F910F9108950E943C1E81115D
:101DF00002C00E94E51E0E946D1E80939602282F4D
:101E000026952695269530E02630310524F08770FA
:101E10008862809396028091960280FF04C0869526
:101E20008695869501C080E00C94E00F2091960283
:101E3000822F869586958695482F50E0453051052E
:101E400054F48F5F982F990F990F990F822F8770F5
:101E5000892B8093960280919602816080939602EE
:101E60000E94711E809196028695869586950C94A7
:101E7000E00F80919602982F969596959695A1F0F1
:101E8000915E990F990F990F8770892B8093960215
:101E9000887F91E009F490E08091960290FB80F9B0
:101EA000809396020E94711E809196028695869577
:101EB00086950C94E00F8091960280FD13C081609E
:101EC00080939602813019F489E080939602809184
:101ED00096020E94711E809196028695869586953F
:101EE0000C94E00F08958091960280FF08C08E7FC9
:101EF000809396020E94711E80E00C94E00F08957A
:101F00008091960280FD0C94730F0C945B0F90915E
:101F10009602892F8695869586958F5F8F7197702B
:101F2000863038F4880F880F880F892B80939602AB
:101F300002C09093960280919602887F91E009F406
:101F400090E08091960290FB80F9809396020E9427
:101F5000711E809196028695869586950C94E00F69
:101F6000863008F085E0880F880F880F90919602E0
:101F70009770892B80939602887F91E009F490E016
:101F80008091960290FB80F9809396020E94711EC8
:101F9000809196028695869586950C94E00FE82FA1
:101FA000E295EF70F0E032A1282F2F7081E090E0F1
:101FB00001C0880F2A95EAF78095832382A30895AC
:101FC000CF92DF92EF92FF92863030F4811105C0FC
:101FD000909180009F7D04C085E090918000906288
:101FE00090938000282F30E0AFEFBFEF0E941428BD
:101FF00025E030E040E050E00E94EC272C3784E1FF
:1020000038074105510530F4C90169E070E00E94CC
:10201000C42729C0DA01C9018A50974DAF4FBF4F7D
:102020006627782F892F9A2F25EF38E241E050E07C
:102030000E94EC2769017A01CA01B9010E94B42704
:102040009B01AC01C701B6010E94B427BB27A92F91
:10205000982F872F009721E0A207B10511F0BC014E
:1020600002C06FEF7FEF70938B0060938A00FF9048
:10207000EF90DF90CF9008950895269A86E30E940E
:10208000CF0F82E28093800089E1809381008FEFFF
:102090009FEF90938700809386000C94F50E2EB1ED
:1020A000342F309523233EB1432B3FB7F894FC01E6
:1020B000680F791FE617F70789F0819198E04EB90C
:1020C000000000C087FF2EB9880F000000C000C0CC
:1020D00000C02EB900C09A9591F7ECCF3FBF08958C
:1020E0002DB1242B2DB99B01220F331F620F731FBB
:1020F0000E944F1087EC90E00197F1F700C00000BC
:10210000089544E00C9470100F931F93CF93DF93C6
:10211000C62FD42F022FFC0182818823C9F060933F
:1021200084010E941F20909383018093820180E2AA
:102130008C0F883008F050C0C77081E001C0880F54
:10214000CA95EAF7DF91CF911F910F910C94411539
:1021500010918401161330C0809182019091830107
:102160000E942B20883C910538F5C0E2CD0F1D1749
:10217000B9F080E2810F883040F4177081E001C02F
:10218000880F1A95EAF70E944815C83048F481E094
:102190009D2F977001C0880F9A95EAF70E9441150C
:1021A000802F0E942E15C830B8F4D77081E001C08E
:1021B000880FDA95EAF70AC080E28C0F883060F465
:1021C000C77081E001C0880FCA95EAF7DF91CF910F
:1021D0001F910F910C944815DF91CF911F910F9192
:1021E00008959C01CB01233F4CE53407F9F078F4C6
:1021F000283DFCE53F07B9F0293D4CE5340711F1D6
:10220000273D3C4531F526E241EE61EE1EC0253FFB
:10221000FCE53F0799F070F0263F3C45D1F427E2FA
:1022200045EE66EE12C027E245EE0EC026E241EE14
:1022300060EE0BC027E245EE64EE07C026E241EEF9
:1022400062EE03C028E241E065EE0E94841080E067
:102250000895FC018281882319F010928401089569
:1022600081E00895CF93DF93EC01FB018281882305
:1022700009F41FC1C230FCE5DF0708F41BC1C631F9
:102280009CE5D90738F09E012A5F3C45293031058D
:1022900008F010C10E944F1E90939C0280939B02F5
:1022A000C031ECE5DE0709F4C3C008F041C0C83016
:1022B0008CE5D80709F49AC0F0F4C430ECE5DE07E9
:1022C00009F487C068F4C2308CE5D80709F477C0F8
:1022D000C330DC4509F0E3C080919B02826076C088
:1022E000C630ECE5DE0709F46EC008F07BC08091D3
:1022F0009B0288606BC0CC308CE5D80709F485C0A0
:1023000068F4CA30ECE5DE0709F474C008F079C05F
:102310000E94D11780919B02806858C0CE308CE516
:10232000D80709F476C008F07FC080919B028BC06B
:10233000CB3FECE5DE0709F44FC018F5C3318CE55F
:10234000D80709F47DC078F4C131ECE5DE0709F463
:1023500073C0C231DC4509F0A2C00E94D117809140
:102360009B028F7733C0C5318CE5D80709F472C062
:1023700008F486C0CA3FDC4509F091C080919C02F8
:102380003EC0CF3FFCE5DF0709F45FC058F4CD3F06
:102390009CE5D90709F444C008F43FC080919C0231
:1023A00082602DC0C130FDE5DF0709F475C008F477
:1023B0005DC0C230DD4509F072C080E06EC0809122
:1023C0009B02816003C080919B02806180939B028D
:1023D00066C080919B0211C080919C0282608093B4
:1023E0009C025DC080919B028062F0CF80919B0235
:1023F0008064ECCF80919B0288608460E7CF81602D
:10240000EECF80919B028E7FE1CF80919B028D7FEA
:10241000DDCF80919B02877FD9CF80919C0218C02D
:1024200080919C028D7FDBCF80919B028F7ECECFEF
:1024300080919B028F7DCACF80919B028F7BC6CFFC
:1024400080919B02877F8B7FC1CF80919C028D7F83
:102450008E7FC5CF80919B0282FB222720F991E0DD
:10246000922790FB82F990FB83F9B0CF80919C0278
:10247000982F909591708E7F892B90FB81F9AFCF2B
:102480000E94D11780919B0287FB222720F991E0BF
:10249000922790FB87F99ACF81E00E94E71E8091F6
:1024A0009B0290919C020E94601E0E94D11780E0C6
:1024B00001C081E0DF91CF91089590938A018093CC
:1024C00089010895E0918901F0918A01309721F006
:1024D0000190F081E02D099480E00895E091890158
:1024E000F0918A01309799F020911C01222359F034
:1024F00020919B0227FF07C0DC012C9111962C93A1
:10250000119725E02C930280F381E02D0994089522
:1025100020918701309188018217930771F0909381
:10252000880180938701E0918901F0918A013097B9
:1025300021F00680F781E02D09940895209185010E
:10254000309186018217930771F0909386018093F2
:102550008501E0918901F0918A01309721F0008492
:10256000F185E02D0994089585B7806885BF85B70A
:10257000806885BF0895089508950C94BC1208954D
:102580000C94BF120E94B4120E94BB120C94BD1294
:1025900081E008950E9416200E9479070E949F20E2
:1025A0000E94F50E0E94910D0C94C0127F928F92A2
:1025B0009F92AF92BF92CF92DF92EF92FF920F93D2
:1025C0001F93CF93DF93CDB7DEB72A970FB6F8945A
:1025D000DEBF0FBECDBF0E94C4070E94C81281118A
:1025E00011C08FEF89838A831B820E941F20816024
:1025F000782F9D838C8349815A816B818D810E94C4
:1026000084134FC03CE8832E31E0932E00E010E0AD
:10261000702E802F0E946F076C01F401A190B19081
:102620004F01A826B926A114B10431F40F5F1F4F42
:102630000630110569F7D5CF80913A0281FD0E94DD
:10264000780790E0EE24E394F12C97012A213B21B6
:10265000232B09F19E837F82CE20DF2091E0CD28BD
:1026600009F490E098870E941F208160782F9A8754
:1026700089874E815F8168858A850E948413000F57
:10268000111FF801E457FE4F80819181E826F92659
:10269000F182E08206C09F5FEE0CFF1C9031A9F62C
:1026A000C5CF10918B010E9462121817C9F00E94C9
:1026B000621280938B012A960FB6F894DEBF0FBE8C
:1026C000CDBFDF91CF911F910F91FF90EF90DF90E1
:1026D000CF90BF90AF909F908F907F900C940F04FD
:1026E0002A960FB6F894DEBF0FBECDBFDF91CF9113
:1026F0001F910F91FF90EF90DF90CF90BF90AF9020
:102700009F908F907F900895CF93DF93CDB7DEB7E2
:102710002B970FB6F894DEBF0FBECDBF4F835887FF
:1027200069877A878B87DE01119686E0FD01119219
:102730008A95E9F785E0FE01379601900D928A951A
:10274000E1F749815A816B817C818D819E810E9454
:102750007B1A2B960FB6F894DEBF0FBECDBFDF916C
:10276000CF910895FC01808191810E94471D0895B9
:10277000882309F413C1682F8238C1F40E946212C1
:1027800081FD0CC169E380911001909111010E94BB
:10279000511F0E94D21D2FEF81EE94E02150804006
:1027A0009040E1F700C0000069E319C08338F9F4F4
:1027B0000E94621280FDF2C063E580911001909149
:1027C00011010E94511F0E94D21D2FEF81EE94E053
:1027D000215080409040E1F700C0000063E5809107
:1027E0001001909111010E945C1F0C94D21D84383D
:1027F000C1F40E94621282FDD1C067E48091100191
:10280000909111010E94511F0E94D21D2FEF81EE65
:1028100094E0215080409040E1F700C0000067E460
:10282000DECF8CEF860F813A38F4809110019091C1
:1028300011010E94511FD9CF80E2860F883048F4E1
:10284000677081E001C0880F6A95EAF70E94891DD0
:10285000CCCF8BE5860F833070F4653A29F0663A69
:1028600031F083E890E005C081E890E002C082E8A2
:1028700090E00C94881288E5860F873108F08EC0AE
:10288000683A09F445C0693A09F445C06A3A09F45E
:1028900045C06B3A09F445C06C3A09F445C06B3B3E
:1028A00009F445C06C3B09F445C06D3A09F445C0D4
:1028B000603B09F445C06E3A09F445C06F3A09F42B
:1028C00045C0613B09F445C0623B09F445C0633B28
:1028D00009F445C0643B09F445C0653B09F445C0B3
:1028E000663B09F445C0673B09F445C0683B09F401
:1028F00045C0693B09F445C06D3B09F445C06E3BDA
:1029000009F445C06A3B09F445C080E090E044C04A
:1029100082EE90E041C089EE90E03EC08AEE90E009
:102920003BC085EB90E038C086EB90E035C083EB90
:1029300090E032C084EB90E02FC087EB90E02CC099
:102940008CEC90E029C08DEC90E026C083E891E00B
:1029500023C08AE891E020C082E991E01DC084E9AB
:1029600091E01AC081E292E017C083E292E014C0C5
:1029700084E292E011C085E292E00EC086E292E02D
:102980000BC087E292E008C08FE690E005C080E7C8
:1029900090E002C08AE292E00C949E12089588238F
:1029A00009F45BC0682F823879F40E94621281FFBB
:1029B00054C069E380911001909111010E94511F50
:1029C0000E94D21D69E310C08338B1F40E946212E4
:1029D00080FF43C063E580911001909111010E9436
:1029E000511F0E94D21D63E5809110019091110149
:1029F0000E945C1F0C94D21D843879F40E946212EC
:102A000082FF2BC067E480911001909111010E9418
:102A1000511F0E94D21D67E4E7CF8CEF860F813AE9
:102A200018F380E2860F883048F4677081E001C0B7
:102A3000880F6A95EAF70E948F1DDCCF8BE5860F21
:102A4000833020F480E090E00C948812685A67315B
:102A500020F480E090E00C949E120895CF93C82F4C
:102A60000E94B813C93349F42FEF87EE93E0215049
:102A700080409040E1F700C000008C2FCF910C9473
:102A8000CF14882321F00E94891D0C94D21D089533
:102A9000882321F00E948F1D0C94D21D0895BF92AF
:102AA000CF92DF92EF92FF920F931F93CF93DF931A
:102AB0007C01062FC72FFC01158112951F70D28152
:102AC000D1110E94A61D0E947F1D882379F0DD236D
:102AD00069F080E2800F883048F082E00E941D1E7D
:102AE0000E947F1D91E0B82EB92601C0B12CCC2EDA
:102AF000C2948FE0C822D12CF601E659FF4F0C9406
:102B00000E288C2F807FCF70882311F0C295C07F54
:102B1000DD2399F0CC2309F48DC180E2800F883049
:102B200010F0011104C08C2F0E94891D03C08C2F4E
:102B30000E94991D0E94D21D7DC1802F0E94CF143A
:102B4000CC2309F4C0C180E2800F883010F001115D
:102B500004C08C2F0E948F1D03C08C2F0E949F1DCC
:102B60000E94D21DB0C18C2F807FCF70803211F0B7
:102B7000C295C07F002319F00130C9F022C0DD23C7
:102B800071F0112341F0113031F40E94B91D8C2BEA
:102B90000E94BF1D98C10E94B91D8C2B1DC011231E
:102BA00019F0113009F48FC10E94C81D25C0DD2322
:102BB00021F0163008F087C10EC0153008F083C12F
:102BC0001BC0DD2361F0112331F0F701858180FF07
:102BD00031C18F7085838C2F0E94411574C11123E0
:102BE00059F0093309F037C1FFEF27EE83E0F150C8
:102BF00020408040E1F72DC18C2F0E94481563C111
:102C00008C2F86958695837090E0009719F0019738
:102C100061F059C1DD2321F0802F9C2F937002C0F9
:102C200080E090E00E94881259C1DD2321F0802FBE
:102C30009C2F937002C080E090E00E949E124EC1D3
:102C40008C2F837009F049C0D11144C1402F4295A7
:102C500046954770440F440F602F6F70862F90E0A9
:102C6000A0E0B0E0042E04C0880F991FAA1FBB1F6C
:102C70000A94D2F704FF10C00FE010E020E030E02B
:102C800004C0000F111F221F331F4A95D2F7009571
:102C900010952095309503C000E010E09801C6958E
:102CA000C695C370D0E0BC01CD01602B712B822B87
:102CB000932BC230D10559F0C330D10559F021977B
:102CC00019F00E94C01B06C10E94AE1B03C10E94E6
:102CD000D21B00C10E94AC1BFDC0DD2319F08C2F5C
:102CE000817001C08695882309F4F4C0402F429575
:102CF00046954770440F440F602F6F70862F90E009
:102D0000A0E0B0E0042E04C0880F991FAA1FBB1FCB
:102D10000A94D2F704FF10C00FE010E020E030E08A
:102D200004C0000F111F221F331F4A95D2F70095D0
:102D300010952095309503C000E010E09801C695ED
:102D4000C695C370D0E0BC01CD01602B712B822BE6
:102D5000932BC230D10559F0C330D10559F02197DA
:102D600019F00E94861CB6C00E94741CB3C00E9459
:102D7000981CB0C00E94E71BADC0CF70DD2339F0B6
:102D80008C2F0E940D1C802F0E944115A3C0802F04
:102D90000E9448158C2F0E942E1C9CC0023F01F1FE
:102DA00028F4003F41F0013FA1F040C0033FF9F09B
:102DB000043F39F13BC0DD2341F0153008F083C0FA
:102DC0008C2F8F710E94531C7EC0163008F07BC080
:102DD000F7CFDD2339F08C2F8F710E940D1C73C04B
:102DE000DD23C9F38C2F8F710E942E1C6CC0DD2354
:102DF00029F08C2F8F710E94F81B65C00E94F31B75
:102E000062C0DD2349F0CF718C2F0E940D1C63E05E
:102E10008C2F0E94081E57C081E00E941D1E123098
:102E200008F451C082E00E941D1E4DC0DD2331F028
:102E3000112389F2802F0E94B81345C0112391F20B
:102E4000093349F49FEFE7EEF3E09150E040F040A2
:102E5000E1F700C00000802F0E94CF1434C04C2F37
:102E60004F70602FC7010E9492040E941F1B36C042
:102E7000D11134C0CF70D0E0C230D10599F03CF40C
:102E8000209769F02197F9F40E94390F27C0C430C8
:102E9000D10571F054F02597B1F480E00AC00E948A
:102EA000160F1CC00E94800F19C00E94870F16C009
:102EB00085E00E94B00F12C04C2F4F70602FC701E9
:102EC0000E9495040BC028E0C21AD10884E0C816FD
:102ED000D10420F40E9462120E940F04BB20D1F0A2
:102EE0000E947B1D80FD16C0F70112820E94751D95
:102EF0000E940D1CC7010E9494170E94751DDF914E
:102F0000CF911F910F91FF90EF90DF90CF90BF90E6
:102F10000C942E1CDF91CF911F910F91FF90EF9099
:102F2000DF90CF90BF9008950F931F93CF93DF93BF
:102F3000EC01888199812B813C81232BB9F09F3F43
:102F400011F48F3F99F0CE010E942804882371F07C
:102F5000688179818A810E94521D8C010E94AA1C7D
:102F60000E94AB1BB801CE010E944F15DF91CF919B
:102F70001F910F9108950E94A61D0E94B61D0E94E8
:102F8000D21D80E090E00E94881280E090E00C94D6
:102F90009E1280911001909111010E94671F0C9464
:102FA000BB170E94961D0C94C917E92FE295EF708C
:102FB000F0E03297EE30F105B0F4E658FF4F0C9494
:102FC0000E28803F91F018F4883E68F40EC0843FCC
:102FD00051F40BC0883E48F0813F29F406C093FBB2
:102FE000882780F9089580E0089581E008950E947F
:102FF000471D0E94D5170895CF93DF9300D000D0CE
:103000001F92CDB7DEB70F900F900F900F900F90DB
:10301000DF91CF910895CF93DF9300D000D000D0FF
:10302000CDB7DEB726960FB6F894DEBF0FBECDBF84
:10303000DF91CF9108951F93CF93DF93C0919901B2
:1030400016E080919A01C81799F0D0E01C9FF0011A
:103050001D9FF00D1124E556FE4F40815181628184
:103060007381848195810E940B182196C770E9CFE6
:10307000DF91CF911F9108954091CB015091CC01E8
:103080006091CD017091CE018091CF019091D001DE
:103090000C940B188091D00182958F7009F054C068
:1030A0008091CD01882309F44FC080919901A091AE
:1030B0009A016091CB017091CC014091CE01509169
:1030C000CF01B6E08A1709F43FC090E041155105E1
:1030D000C1F17F3F11F46F3FA1F1B89FF001B99F9B
:1030E000F00D1124E556FE4F218172132AC0208174
:1030F000621327C02281211124C023813481241727
:10310000350710F421503109241B350B283C3105BB
:10311000C0F42091D0012F7020612093D00126E0CF
:10312000289FF001299FF00D1124E056FE4F808169
:103130008F70806180838BEC91E00E9494170C94D7
:103140001B1801968770BECF0895CF92DF92EF9241
:10315000FF920F931F93CF93DF93CDB7DEB76297A4
:103160000FB6F894DEBF0FBECDBF8C0185E0F8012D
:10317000DE011D9601900D928A95E1F7D8014C91E0
:1031800011965C91119712966C9112971396CD90AF
:10319000DC9014973091CB017091CC018091CE01DD
:1031A0009091CF01009709F46BC17F3F19F43F3F25
:1031B00009F466C1E090CD01EE2009F4C0C0209171
:1031C000D001C816D90628F0F601E81BF90BCF018B
:1031D00004C0809590958C0D9D1DFF24F394883C30
:1031E000910578F0F12C207F09F0C6C07C2DD98A9A
:1031F000C88A89890E94FC178BEC91E00E94941781
:10320000B1C0822F807F09F046C0751314C03413FB
:1032100012C0611110C02F7020612093D0010E9454
:103220003C188BEC91E00E9494178091D001D8015A
:1032300015968C932EC0CD2819F15F3F11F44F3FA6
:10324000F9F0F62E61111CC08091990120919A012C
:1032500036E0821709F45AC090E0389FF001399F98
:10326000F00D1124E556FE4F7181571306C0708191
:10327000471303C07281711103C001968770E9CFB3
:10328000F62E662309F427C18091D00181608093D6
:10329000D001F12C20C1751308C0341306C0611190
:1032A00004C08091D001D801C3C04D875E878D8551
:1032B0009E856A8B0E94F7176A898823E1F166234D
:1032C000D1F12091D001822F82958F7090E00297EA
:1032D00074F08091CB019091CC0198878F831986EF
:1032E000DB86CA862C87CE0107960E94941786E05B
:1032F000F801ABECB1E001900D928A95E1F70E94E4
:103300004A180E943C18FF24F394E5C04D875E875D
:103310008D859E850E94471D292F22952F7030E0B4
:10332000223031050CF0CBC09F7009F0C5C0805E23
:10333000883008F4D0C0C8010E949417E4CFC816A2
:10334000D90608F453C0F601E81BF90BCF01883CFD
:10335000910508F450C0F12C7C2DD98AC88A89893E
:103360000E94FC17EBECF1E086E0DF011D928A95EC
:10337000E9F70E943C18AFC0751314C0341312C093
:10338000611110C08091D001F8018583C8010E94AD
:10339000941786E0EBECF1E0DF011D928A95E9F7E6
:1033A000FE2C99C04D875E878D859E856A8B0E9415
:1033B000F7176A89882309F4BECF662309F4BBCFC7
:1033C0002091D001822F82958F7090E002970CF4AB
:1033D0008ECF8091CB019091CC019A8389831B82FF
:1033E000DD82CC822E83CE0101967FCF8095909591
:1033F0008C0D9D1DACCFF62E662309F49CCF751362
:103400002EC034132CC02091D00120FD1FC0822F6C
:1034100082958F70D9F0D80115962C9315978F301F
:1034200049F08F5F982F9295907F822F8F70892B14
:1034300015968C93C8010E94941786E0F801ABECB6
:10344000B1E001900D928A95E1F793CF86E0F80103
:10345000ABECB1E001900D928A95E1F73CC04D874D
:103460005E878D859E850E94F717811140CF8091E0
:10347000D00181608093D001C8010E9494172BC0B5
:10348000662309F458CF4D875E878D859E850E94FF
:10349000F717F82E882309F44ECF86E0F801ABEC3D
:1034A000B1E001900D928A95E1F78BEC91E00E94DA
:1034B000B2130E944A185DCF811139CF0CC024305D
:1034C00031050CF038CF9F7009F431CFF8019581A8
:1034D000907F09F02CCF8F2D62960FB6F894DEBF47
:1034E0000FBECDBFDF91CF911F910F91FF90EF9055
:1034F000DF90CF9008951F93CF93DF93CDB7DEB7C2
:103500002C970FB6F894DEBF0FBECDBF4F83588700
:1035100069877A878B879C87CE0107960E94A518BA
:10352000882369F08F8198852A853B85232BF1F1CB
:103530009F3F09F063C08F3F09F060C037C086E04D
:10354000FE013796DE01119601900D928A95E1F702
:103550006F817885EA85FB85309741F17F3F11F4D3
:103560006F3F21F120919A0130E0C90101968770E7
:1035700099274091990150E08417950709F447C0B5
:1035800069837A83FD83EC8396E0929FD001939FB9
:10359000B00D1124A556BE4FFE01319601900D923B
:1035A0009A95E1F780939A010E941B1816E080918A
:1035B000990190919A018917C1F1189FC0011124B6
:1035C00085569E4F0E94A518882379F1E0919901B4
:1035D0001E9FF0011124E556FE4F4081518162810A
:1035E0007381848195810E940B188091990190E0EC
:1035F00001968770992780939901D9CF4F8158857B
:1036000069857A858B859C850E940B18CFCF0E9497
:10361000D11710929A0110929901EBECF1E086E03B
:10362000DF011D928A95E9F7C1CF2C960FB6F89469
:10363000DEBF0FBECDBFDF91CF911F910895EF92F6
:10364000FF920F931F93CF93DF938C01892B09F483
:103650006CC0F12CEE24E394E8012196F8018491EA
:10366000843740F4843008F051C0813081F08230DA
:1036700019F15BC0853709F444C0A8F19CE7980FA5
:10368000903708F052C08F770E94CF1441C00E5F70
:103690001F4FFE01C49180E28C0F883048F4C77040
:1036A0008E2D01C0880FCA95EAF70E94A91D14C08B
:1036B0008C2F0E94B8132DC00E5F1F4FFE01C491C6
:1036C00080E28C0F883058F4C7708E2D01C0880FAF
:1036D000CA95EAF70E94AF1D0E94D21D1AC08C2F16
:1036E0000E94CF1416C00E5F1F4FFE01C491CC2361
:1036F00081F08FE99FE00197F1F700C00000C15011
:10370000F6CF0E5F1F4FFE01F49003C00E94B81366
:103710008E018F2D882309F49FCFEFE9FFE03197C9
:10372000F1F700C000008150F5CFDF91CF911F91DC
:103730000F91FF90EF90089508950C949C1B0E94A8
:103740009D1B609311027093120280931302909359
:1037500014020C94BB1708950C949F1B0F931F9396
:103760000091110210911202209113023091140263
:10377000602B712B822B932B1F910F910C949F1B0D
:103780000F931F93009111021091120220911302C6
:103790003091140260237123822393231F910F9190
:1037A0000C949F1B0F931F93009111021091120212
:1037B00020911302309114026027712782279327EA
:1037C0001F910F910C949F1B08950C94E41B0E9471
:1037D000E51B60930D0270930E0280930F0290938D
:1037E00010020C94BB1760E070E0CB010C94E71B57
:1037F0000F931F9341E050E060E070E08A019B016D
:1038000004C0000F111F221F331F8A95D2F7C90170
:10381000B8011F910F910C94E71B0F931F9341E088
:1038200050E060E070E004C0440F551F661F771F32
:103830008A95D2F780910D0290910E02A0910F020D
:10384000B09110028A019B01082B192B2A2B3B2BCC
:10385000C901B8011F910F910C94E71B0F931F939F
:1038600041E050E060E070E004C0440F551F661F67
:10387000771F8A95D2F74095509560957095809105
:103880000D0290910E02A0910F02B09110028A01D8
:103890009B01082319232A233B23C901B8011F9147
:1038A0000F910C94E71B0F931F9341E050E060E0F1
:1038B00070E004C0440F551F661F771F8A95D2F72A
:1038C00080910D0290910E02A0910F02B091100212
:1038D0008A019B01082719272A273B27C901B8011C
:1038E0001F910F910C94E71B0F931F9300910D02F2
:1038F00010910E0220910F0230911002602B712B5B
:10390000822B932B1F910F910C94E71B0F931F9306
:1039100000910D0210910E0220910F0230911002C1
:1039200060237123822393231F910F910C94E71B33
:103930000F931F9300910D0210910E0220910F0220
:103940003091100260277127822793271F910F91D2
:103950000C94E71B089520E1929F800D1124A82F5D
:10396000A695A695A695877051E001C0550F8A953A
:10397000EAF785E0A89FD001112420E030E070E054
:10398000F901EA0FFB1FEF52FE4F4081CB01022EDF
:1039900002C0969587950A94E2F7817099278195E0
:1039A00084278523842780832F5F3F4F253031056F
:1039B00039F7089520E1929F800D1124682F6695B4
:1039C00066956695982F977085E0689FB0011124E1
:1039D00040E050E080E0FA01E60FF71FEF52FE4FA3
:1039E000208130E0092E02C0369527950A94E2F72F
:1039F00021703327042E01C0220F0A94EAF7822B8C
:103A00004F5F5F4F4530510531F70895BF92CF9218
:103A1000DF92EF92FF920F931F93CF93DF938C016E
:103A2000C0901102D0901202E0901302F0901402A4
:103A300080910D0290910E02A0910F02B0911002A0
:103A4000C82AD92AEA2AFB2ACFE1D0E0D701C60149
:103A50000C2E04C0B695A795979587950A94D2F732
:103A600080FF07C0BC2EB8018C2F0E94B3040197C1
:103A700019F4219758F7B12C8B2DDF91CF911F911D
:103A80000F91FF90EF90DF90CF90BF900895CF936C
:103A9000DF93EC010E94061DBE010E94B304DF917A
:103AA000CF9108951F93CF93DF93EB0190919801ED
:103AB000992321F0CB010E94471D13C0882349F0B0
:103AC000CB010E94061D182F682FCE010E94AB1C4F
:103AD00004C0CB010E94DA1C182FBE01812F0E9466
:103AE000B304DF91CF911F910895809115028595C0
:103AF0008595859508958091150287700895909118
:103B00001502977081E009F480E0089580913902F0
:103B1000089590913902892B8093390208958095F8
:103B200090913902892380933902089510923902C5
:103B3000089590913802892B8093380208958095DA
:103B400090913802892380933802089510923802A8
:103B5000089590913702892B8093370208958095BC
:103B6000909137028923809337020895109237028B
:103B7000089580911602089508950C94BC1D9091AB
:103B80001602981721F0809316020C94BD1D08951B
:103B900080911602882329F01092160280E00C947E
:103BA000BD1D0895E0911001F0911101809139023D
:103BB0008083E0911001F091110190818091380291
:103BC000892B8083E0911001F09111019081809107
:103BD0003702892B808380911602882381F0E0913F
:103BE0001001F09111019081892B80838091100147
:103BF000909111010E94EC1E81110E94C81D8091BC
:103C00001001909111010C946E1208950C94051EF0
:103C100098E0899F90011124262B209315020E9481
:103C20000D1C809115028595859585950C94061E31
:103C30001092150280E00C94061E209115028095CA
:103C4000822380931502982F977079F430E0482FE3
:103C5000082E000C550B2417350739F085958595EE
:103C600085950E942E1C0C94181E08956FEF7FEF0F
:103C700080E090E00C946D2880E090E00E9449285C
:103C800021E08C3E9E4F09F020E0822F089582E0D3
:103C900090E00C943B2883E090E00C943B28CF9379
:103CA00084E090E00E943B28C82F81E290E00E94CF
:103CB0003B282C2F30E0A901582BCA01CF91089541
:103CC000CF93C92F682F84E090E00E944F286C2F7B
:103CD00081E290E0CF910C944F2886E090E00C9424
:103CE0003B28682F86E090E00C944F28AB01BC0184
:103CF0008FE090E00C946128AB01BC0183E190E07F
:103D00000C94612860E070E0CB010C947C1E60E0B4
:103D100070E0CB010E94761E0C94821E6CEE7EEF4A
:103D200080E090E00E946D2860E082E090E00E94D8
:103D30004F2860E083E090E00E944F28109211022B
:103D400010921202109213021092140260E084E0AA
:103D500090E00E944F2860E081E290E00E944F28AE
:103D600060E085E090E00E944F2860E086E090E00F
:103D70000E944F286FEF87E090E00E944F2840E0BC
:103D800050E0BA0188E090E00E94612860E08DE098
:103D900090E00E944F2840E050E0BA0188E190E0B6
:103DA0000E94612860E087E190E00E944F2840E097
:103DB00050E0BA018CE190E00E94612860E080E26E
:103DC00090E00E944F280C94871E0C948E1E682F42
:103DD0008EE090E00C944F28FC01329680911C01FB
:103DE000882331F080919B0287FF02C09EE101C0D1
:103DF00096E080E0915028F021912223D9F38F5F43
:103E0000F9CF08959C01FC0132969FEF80E041912B
:103E1000461789F09F3F19F4411101C0982F8F5F19
:103E20008630A9F79F3F39F0F901E90FF11D97FDA1
:103E3000FA95628308950895FC01329608962081D0
:103E4000261301C010823196E817F907C1F70895CB
:103E5000262F2695269526952E3168F4FC01E20F33
:103E6000F11D677021E030E001C0220F6A95EAF78A
:103E70008281282B22830895262F26952695269524
:103E80002E3170F4FC01E20FF11D677021E030E08B
:103E900001C0220F6A95EAF72095828128232283A8
:103EA000089520911C01222329F020919B0227FDD7
:103EB0000C94281F0C94021F20911C01222329F02E
:103EC00020919B0227FD0C943C1F0C941C1F2091F9
:103ED0001C01FC013296222331F080919B0287FF66
:103EE00002C08EE101C086E0DF011D928A95E9F7EC
:103EF000089508950C94791F0E947A1F8091A10261
:103F0000843009F43CC010923B0220E488E190E048
:103F10000FB6F894A895809360000FBE20936000C0
:103F200080E00E94E00F80E00E940F040E94CC0D10
:103F300080913C0281110AC081E080933C02809113
:103F40006102817080933D020E94FF0C0E947A1FE3
:103F500083B7817F846083BF83B7816083BF789498
:103F6000889583B78E7F83BF0FB6F894A89580910C
:103F70006000886180936000109260000FBE089519
:103F800008950895CF930E94C01F0E94C4070E9405
:103F9000C11FC0E08C2F0E946F07892B29F4CF5FCF
:103FA000C630C1F780E001C081E0CF910895089547
:103FB0000C94D71F0E94D1170E94F50E0E94621226
:103FC0000E940F0410923C0280913D0281110E94D8
:103FD000C40D0E94110D0C94D81F1F920F920FB6A2
:103FE0000F9211248F939F93AF93BF9380913B02C5
:103FF000811113C08091970290919802A09199022B
:10400000B0919A024196A11DB11D809397029093A1
:104010009802A0939902B0939A02BF91AF919F9199
:104020008F910F900FBE0F901F90189582E084BD66
:1040300093E095BD9AEF97BD80936E0008952FB7DA
:10404000F8948091970290919802A0919902B09172
:104050009A022FBF0895CF92DF92EF92FF920F93B3
:104060001F932FB7F8944091970250919802609156
:10407000990270919A022FBF6A017B01EE24FF24FE
:104080008C0120E030E0C016D106E206F30610F401
:10409000415051099A01281B390BC9011F910F91F9
:1040A000FF90EF90DF90CF90089578941F920F9239
:1040B0000FB60F9211248F939F93AF93BF9380916C
:1040C000970290919802A0919902B0919A0201965C
:1040D000A11DB11D8093970290939802A09399021D
:1040E000B0939A02BF91AF919F918F910F900FBEA5
:1040F0000F901F90189581E08093E00080E28093FC
:10410000D8001092C9008FE19EE40197F1F700C03A
:10411000000087E090EBDC018093AA029093AB0251
:10412000A093AC02B093AD029CE088E10FB6F89486
:10413000A895809360000FBE90936000FFCF0E940F
:104140003C1E811102C00E94E51E0E94471E809302
:104150003A020E944F1E90939C0280939B020E9401
:104160004B1E682F70E080E090E00C94AC1B8091B7
:104170005E02089508950F931F93CF93DF9300D0AD
:104180001F92CDB7DEB78C010E94FB22823011F066
:10419000843021F584E089831B830A8382E0809345
:1041A000E9008FEF9091E800815095FD06C095EDF4
:1041B0009A95F1F700008111F5CF8091E80085FF15
:1041C0000DC040E050E063E070E0CE0101960E9437
:1041D00018238091E8008E778093E8000F900F906D
:1041E0000F90DF91CF911F910F910895CF93DF939F
:1041F00000D01F92CDB7DEB72091A102243031F557
:1042000023E02983805891099B838A8382E08093ED
:10421000E9008FEF9091E800815095FD06C095ED83
:104220009A95F1F700008111F5CF8091E80085FFA4
:104230000DC040E050E063E070E0CE0101960E94C6
:1042400018238091E8008E778093E8000F900F90FC
:104250000F90DF91CF910895CF93DF93EC010E94EF
:10426000FB22823011F08430D9F580911C01882323
:1042700039F080919B0287FF03C060E282E002C0B8
:1042800068E081E08093E9008FEF9091E800815031
:1042900095FD06C095ED9A95F1F700008111F5CFD7
:1042A0008091E80085FF1CC080911C01811105C030
:1042B00040E050E068E070E003C070E040E050E0B3
:1042C000CE010E9418238091E8008E778093E80049
:1042D00080E2FE01AEE3B2E001900D928A95E1F733
:1042E000DF91CF9108958091A002811109C00E94B1
:1042F000AD240E940A258091E20084608093E20050
:1043000008951092A0020895089508950C94DA1F5C
:1043100042E061EC81E00E94272442E261EC82E00D
:104320000C9427248091A302833009F460C030F4F8
:10433000813071F0823009F499C008958A3009F40F
:1043400085C08B3009F46BC0893009F0A7C020C04C
:104350008091A202813A09F0A1C08091E800877F94
:104360008093E8008091A6029091A702892B21F406
:1043700060E28EE392E003C060E080E090E070E0F5
:104380000E9463238091E8008B778093E800089572
:104390008091A202813209F081C08091A6029091A1
:1043A000A702029708F07AC08091E800877F809387
:1043B000E8008091E80082FD05C08091A102811192
:1043C000F8CF6CC02091F3008091F20090E0922B26
:1043D000029729F48091F1008B7F813021F4809144
:1043E000F10080935E028091E8008B7753C080914A
:1043F000A202813A09F052C08091A6029091A702D0
:10440000892B09F04BC08091E800877F8093E800FA
:104410008091E80080FFFCCF80911C0136C0809124
:10442000A2028132D9F58091A6029091A702892B30
:10443000A9F58091E800877F8093E8000E945C24C2
:104440008091A40280931C010C94D1178091A20248
:10445000813221F58091E800877F8093E8000E94F7
:104460005C248091A50280935F0208958091A2024E
:10447000813AA1F48091E800877F8093E8008091E1
:10448000E80080FFFCCF80915F028093F100809173
:10449000E8008E778093E8000C945C24089584B73C
:1044A000877F84BF0FB6F894A895809160008861DB
:1044B00080936000109260000FBE90E080E80FB61D
:1044C000F89480936100909361000FBE0E94C21225
:1044D0000E94AD240E940A258091E20084608093AE
:1044E000E20078940E9499270E94CA1282E191E02A
:1044F0000E945D128091A102853069F40E947C1FA8
:1045000080919F028823B1F30E94C21F882391F3F8
:104510000E940223EFCF0E94D6120E94CF0DEACF55
:104520000C949222292F332723303105C9F064F4EB
:104530002130310581F02230310509F04CC08BE388
:1045400090E02BEA35E04BC02132310521F12232D7
:10455000310589F140C082E190E026EE35E03FC0B0
:1045600099278130910571F02CF4892BA1F5E7EAA8
:10457000F5E00DC08230910541F0039761F5EBE75E
:10458000F5E005C0EFE8F5E002C0E1E8F5E0849170
:1045900090E09F0124C06115710541F06130710503
:1045A000D1F489E090E026ED35E019C089E090E093
:1045B0002DEB35E014C06115710541F061307105D6
:1045C00051F481E790E028EF35E009C080E490E005
:1045D00029E636E004C080E090E020E030E0FA0117
:1045E0003183208308958091A102843011F081E00D
:1045F000089582E0089580916002811102C00C94B8
:10460000F322089580E189BD82E189BD09B400FEED
:10461000FDCF8091D8008F7D8093D8008091E000FD
:1046200082608093E0008091E00081FDFCCF0895DE
:10463000CF92DF92EF92FF920F931F93CF93DF936E
:10464000EC018B016A010E947B24811133C0C114EB
:10465000D10439F0F60180819181081B190BC80F34
:10466000D91FE12CF12C0115110519F18091E800F9
:1046700085FD16C08091E8008E778093E800C11414
:10468000D10449F0F60180819181E80EF91EF18292
:10469000E08285E00FC00E947B24882321F30AC0BA
:1046A00089918093F10001501109FFEFEF1AFF0A81
:1046B000DACF80E0DF91CF911F910F91FF90EF90C3
:1046C000DF90CF9008952091A8023091A90226177B
:1046D000370748F06115710539F42091E8002E770D
:1046E0002093E80001C0B90140E061157105A9F10E
:1046F0002091A102222309F443C0253009F442C0CD
:104700002091E80023FD40C02091E80022FD32C046
:104710002091E80020FFE9CF4091F3002091F200C2
:1047200030E0342BFC01CF016115710559F02830C0
:10473000310540F481918093F100615071092F5F40
:104740003F4FF1CF41E02830310509F040E02091A2
:10475000E8002E772093E800C8CF4111C9CF0AC0E6
:104760008091A102882361F0853061F08091E8009A
:1047700083FD0AC08091E80082FFF2CF80E00895B7
:1047800082E0089583E0089581E008952091A802D1
:104790003091A9022617370748F06115710539F4E1
:1047A0002091E8002E772093E80001C0B901FC01B8
:1047B00020E06115710591F18091A102882309F42F
:1047C00040C0853009F43FC08091E80083FD3DC0C2
:1047D0008091E80082FD2FC08091E80080FFE9CF42
:1047E0002091F3008091F20090E0922B6115710509
:1047F00059F08830910540F424912093F1003196CE
:10480000615071090196F2CF21E0089709F020E08C
:104810008091E8008E778093E800CBCF2111CCCF38
:104820000AC08091A102882361F0853061F08091F7
:10483000E80083FD0AC08091E80082FFF2CF80E0AB
:10484000089582E0089583E0089581E00895982F07
:10485000973058F59093E900981739F07091EC0073
:104860002091ED005091F00003C0242F762F50E0EE
:1048700021FF19C03091EB003E7F3093EB00309167
:10488000ED003D7F3093ED003091EB0031603093CF
:10489000EB007093EC002093ED005093F00020911A
:1048A000EE0027FF07C09F5FD3CF8F708093E90092
:1048B00081E0089580E008958091A20287FF11C0F1
:1048C0008091E80082FD05C08091A1028111F8CF9E
:1048D00011C08091E8008B770BC08091A1028823E2
:1048E00049F08091E80080FFF8CF8091E8008E7752
:1048F0008093E80008952091E4003091E50095E66A
:104900004091EC00842F817040FF22C08091E8002C
:1049100080FD1CC08091A102882391F0853091F028
:104920008091EB0085FD10C04091E4005091E500BE
:104930004217530729F39A01915011F784E0089523
:1049400082E0089583E0089581E0089580E008956D
:104950004091E80042FFDECF08950E941B250E948F
:104960002325E0EEF0E0808181608083E8EDF0E0D7
:1049700080818F77808319BCA7EDB0E08C918E7F0A
:104980008C9380818F7E80831092A00208950F9374
:104990001F93CF93DF930E941B250E942325C8ED10
:1049A000D0E088818F778883888180688883888138
:1049B0008F7D888319BC1092A10210929D021092E3
:1049C0009F0210929E0200EE10E0F80180818B7F22
:1049D000808388818160888342E060E080E00E947B
:1049E0002724E1EEF0E080818E7F8083E2EEF0E02C
:1049F000808181608083808188608083F8018081EC
:104A00008E7F8083888180618883DF91CF911F9121
:104A10000F910895E8EDF0E080818F7E8083E7EDCF
:104A2000F0E080818160808384E082BF81E08093B8
:104A3000A0020C94C724E8EDF0E080818E7F808393
:104A40001092E20008951092DA001092E1000895A9
:104A50001F920F920FB60F9211242F933F934F93F3
:104A60005F936F937F938F939F93AF93BF93EF93D6
:104A7000FF938091E10082FF0BC08091E20082FFF2
:104A800007C08091E1008B7F8093E1000E9498270E
:104A90008091DA0080FF1FC08091D80080FF1BC08A
:104AA0008091DA008E7F8093DA008091D90080FFB8
:104AB0000DC080E189BD82E189BD09B400FEFDCF52
:104AC00081E08093A1020E94732105C019BC10925D
:104AD000A1020E9481218091E10080FF19C0809194
:104AE000E20080FF15C08091E2008E7F8093E2009B
:104AF0008091E20080618093E2008091D800806222
:104B00008093D80019BC85E08093A1020E94852182
:104B10008091E10084FF30C08091E20084FF2CC0CE
:104B200080E189BD82E189BD09B400FEFDCF80919D
:104B3000D8008F7D8093D8008091E1008F7E809394
:104B4000E1008091E2008F7E8093E2008091E2009C
:104B500081608093E20080919D02882311F084E0BF
:104B600007C08091E30087FD02C081E001C083E0BF
:104B70008093A1020E9486218091E10083FF29C0D9
:104B80008091E20083FF25C08091E100877F8093C0
:104B9000E10082E08093A10210929D028091E100E9
:104BA0008E7F8093E1008091E2008E7F8093E2000F
:104BB0008091E20080618093E20042E060E080E06A
:104BC0000E9427248091F00088608093F0000E946A
:104BD0008421FF91EF91BF91AF919F918F917F9130
:104BE0006F915F914F913F912F910F900FBE0F905A
:104BF0001F9018951F920F920FB60F9211242F93AA
:104C00003F934F935F936F937F938F939F93AF9354
:104C1000BF93CF93DF93EF93FF93C091E900CF70E1
:104C20008091EC00D82FD17080FDD0E81092E9007F
:104C30008091F000877F8093F00078940E943E2658
:104C40001092E9008091F00088608093F000CD2BF5
:104C5000CF70C093E900FF91EF91DF91CF91BF91A9
:104C6000AF919F918F917F916F915F914F913F9104
:104C70002F910F900FBE0F901F9018951F93CF93F9
:104C8000DF93CDB7DEB7AA970FB6F894DEBF0FBE9D
:104C9000CDBFE2EAF2E088E08E0F9091F1009193AF
:104CA0008E13FBCF0E9492218091E80083FF28C1E0
:104CB0008091A2029091A302492F50E04A30510501
:104CC00008F01EC1FA01E857FF4F0C940E288038F7
:104CD00021F0823809F014C108C080919E029091A1
:104CE0009F02992389F082600FC08091A6028F7085
:104CF000873008F005C18093E9008091EB0085FBC7
:104D0000882780F91092E9009091E800977F9093AE
:104D1000E8008093F1001092F100D0C0282F2D7F81
:104D200009F0EEC0882319F0823061F0E9C080916B
:104D3000A402813009F0E4C0933009F080E0809350
:104D40009F022EC08091A40281112AC08091A602E8
:104D50008F702FEF280F263008F0D2C08093E90023
:104D60002091EB0020FF1CC0933021F48091EB00D8
:104D7000806214C09091EB0090619093EB0021E071
:104D800030E0A90102C0440F551F8A95E2F7409315
:104D9000EA001092EA008091EB0088608093EB00BB
:104DA0001092E9008091E800877F8093E8000E94DC
:104DB0005C24A6C08111A4C01091A4021F77809129
:104DC000E3008078812B8093E3008091E800877F67
:104DD0008093E8000E945C248091E80080FFFCCF73
:104DE0008091E30080688093E300111102C082E0AB
:104DF00001C083E08093A10283C08058823008F014
:104E00007FC08091A4029091A5028C3D53E095074C
:104E100079F583E08A838AE289834FB7F894DE01CB
:104E2000139620E03EE051E2E32FF0E0509357006C
:104E3000E49120FF03C0E295EF703F5FEF708E2F8B
:104E400090E0EA3010F0C79601C0C0968D939D9314
:104E50002F5F243149F74FBF8091E800877F80930F
:104E6000E8006AE270E0CE0101960E94632315C05B
:104E70006091A6027091A702AE014F5F5F4F0E9442
:104E80009022BC01892BE1F19091E800977F9093EB
:104E9000E80089819A810E94C6238091E8008B777F
:104EA0008093E8002DC0803859F58091E800877F15
:104EB0008093E80080919D028093F1008091E8004A
:104EC0008E7773CF81111CC09091A4029230C0F4F0
:104ED0008091E800877F8093E80090939D020E9474
:104EE0005C2480919D02811106C08091E30087FDC2
:104EF00002C081E001C084E08093A1020E94882169
:104F00008091E80083FF0AC08091E800877F80934A
:104F1000E8008091EB0080628093EB00AA960FB6C8
:104F2000F894DEBF0FBECDBFDF91CF911F910895E2
:104F30000895CF938091A1028823A1F0C091E90048
:104F4000CF709091EC00892F817090FD80E8C82B84
:104F50001092E9008091E80083FD0E943E26CF7008
:104F6000C093E900CF910895DB018F939F930E9436
:104F70002328BF91AF91A29F800D911DA39F900DFB
:104F8000B29F900D11240895AA1BBB1B51E107C0CD
:104F9000AA1FBB1FA617B70710F0A61BB70B881FC9
:104FA000991F5A95A9F780959095BC01CD01089558
:104FB00097FB072E16F4009407D077FD09D00E94C6
:104FC000C42707FC05D03EF4909581959F4F089526
:104FD000709561957F4F0895A1E21A2EAA1BBB1B05
:104FE000FD010DC0AA1FBB1FEE1FFF1FA217B307B5
:104FF000E407F50720F0A21BB30BE40BF50B661FCB
:10500000771F881F991F1A9469F76095709580958E
:1050100090959B01AC01BD01CF010895EE0FFF1FDC
:105020000590F491E02D0994A29FB001B39FC001B7
:10503000A39F700D811D1124911DB29F700D811DC4
:105040001124911D08950E941428A59F900DB49FCE
:10505000900DA49F800D911D11240895FC014150D5
:10506000504030F001900616D1F73197CF010895E6
:10507000882799270895F999FECF92BD81BDF89AA6
:10508000992780B50895A6E1B0E044E050E00C9483
:105090007528A8E1B0E042E050E00C947528262F76
:1050A000F999FECF92BD81BDF89A019700B402161E
:1050B00039F01FBA20BD0FB6F894FA9AF99A0FBECC
:1050C00008950396272F0E9450280E944F28252FCD
:1050D0000E945028242F0C9450280196272F0E94BC
:1050E00050280C944F28DC01CB01FC01F999FECF2C
:1050F00006C0F2BDE1BDF89A319600B40D92415060
:0A5100005040B8F70895F894FFCF6F
:10510A00010210101001191A1B1C1D1E1F2021223A
:10511A001702B7202C21BA20F620BB2001F0F1C6D5
:10512A006766F59431303534979633F4F690919258
:10513A0093953700010202020206060609090909C7
:10514A0009090F0F0F0F0F0F15151518191919192E
:08515A00191919191919232470
:00000001FF
