:100000000C9474030C94BB030C94BB030C94BB03BF
:100010000C94BB030C94BB030C94BB030C94BB0368
:100020000C94BB030C94BB030C9464260C943727EC
:100030000C94A3210C94BB030C94BB030C94BB0342
:100040000C94BB030C94BB030C94BB030C94BB0338
:100050000C94BB030C940E220C94BB030C94BB03B6
:100060000C94BB030C94BB030C94BB030C94BB0318
:100070000C94BB030C94BB030C94BB030C94BB0308
:100080000C94BB030C94BB030C94BB030C94BB03F8
:100090000C94BB030C94BB030C94BB030C94BB03E8
:1000A0000C94BB030C94BB030C94BB0329003A00D3
:1000B0003B003C003D003E003F004000410042004C
:1000C000430044004500460049004C0035001E0036
:1000D0001F0020002100220023002400250026000C
:1000E00027002D002E002A002A004A002B000000C5
:1000F00014001A000800150017001C0018000C005E
:10010000120013002F00300031004D003942000072
:1001100004001600070009000A000B000D000E0085
:100120000F0033003400280000004B00E100E10024
:100130001D001B000600190005001100100036000C
:10014000370038000000E50052004E00E000E300F8
:100150000000E2002C0000002C0000002C00000039
:10016000E600E400E400500051004F0001000100EF
:100170000100010001000100010001000100010077
:100180000100010001000100010001000100010067
:100190000100010001000100010001000100010057
:1001A0000100010001000100010001000100000048
:1001B0000100010001000100010001000100010037
:1001C0000100010001000100010001000100000028
:1001D0000100010001000100010001000100010017
:1001E0000100010001000100000001000100010008
:1001F00001000100010001000100010001000100F7
:1002000001000100000001000100010001000100E7
:1002100000000100010000000100000001000000DA
:10022000E700010001000100010001002943000076
:100230000000680069006A006B006C006D006E00D1
:100240006F007000710048000000000000005900BD
:100250005A005B005C005D005E005F0060006100B2
:10026000620000000000000000000000000000002C
:10027000A9000000000000000000000000000000D5
:1002800000000000AC00AB00AE0000000000000069
:10029000AA000000000000000000000000000000B4
:1002A00000000000000058000000000001000100F4
:1002B000A800000000000000000000000000000096
:1002C000000000000000000000000000010001002C
:1002D000000001000000000000000000000000001D
:1002E00001536500650000000000000000000000F0
:1002F00000000000000000000000000000000000FE
:1003000000000000005C00000000A60000000000EB
:1003100000000000000000000000000000000000DD
:1003200000000000000000000000000000000000CD
:10033000C35CC45CC75CC65CC95CC85CCB5CCA5CA3
:1003400000000000000000000000000000000000AD
:10035000000000000000000000000000000000009D
:10036000000000000000000000000000010001008B
:10037000C05CC25CBE5CBF5C00000000000000000E
:10038000000000000000010000000000010000006B
:10039000000001000000000000000000000000005C
:1003A00001000100010000000000000000047F3F88
:1003B0001F643214643214783C1E1E140A05222372
:1003C000252628292A2C2D2F3032333536383A3B32
:1003D0003D3E4042434547494A4C4E505153555784
:1003E000595A5C5E6062646668696B6D6F717375A3
:1003F00077797B7D7F81838587898A8C8E909294A3
:1004000096989A9C9E9FA1A3A5A7A8AAACAEAFB1AF
:10041000B3B4B6B8B9BBBCBEBFC1C2C3C5C6C7C9F9
:10042000CACBCCCDCED0D1D2D2D3D4D5D6D7D7D8B3
:10043000D9D9DADADBDBDBDCDCDCDCDCDDDDDDDD05
:10044000DCDCDCDCDCDBDBDBDADAD9D9D8D7D7D60D
:10045000D5D4D3D2D2D1D0CECDCCCBCAC9C7C6C5C4
:10046000C3C2C1BFBEBCBBB9B8B6B4B3B1AFAEAC0A
:10047000AAA8A7A5A3A19F9E9C9A98969492908EB5
:100480008C8A89878583817F7D7B79777573716F8E
:100490006D6B6968666462605E5C5A59575553516A
:1004A000504E4C4A4947454342403E3D3B3A383620
:1004B000353332302F2D2C2A292826252322FFAA36
:1004C0007F55400001010101010101010102020209
:1004D00002020202020203030303030303030404F0
:1004E00004040404040505050505060606060607BA
:1004F0000707070708080808090909090A0A0A0B73
:100500000B0B0C0C0C0D0D0D0E0E0E0F0F0F101013
:10051000111111121213131414151516161717189A
:100520001819191A1A1B1B1C1D1D1E1E1F20202105
:100530002222232424252626272829292A2B2C2D4C
:100540002D2E2F30313232333435363738393A3B6D
:100550003C3D3E3F404142434445464748494A4C62
:100560004D4E4F50515354555658595A5B5D5E5F2E
:10057000616264656668696B6C6D6F7072737577C4
:10058000787A7B7D7E8082838587888A8C8E8F9126
:10059000939596989A9C9EA0A2A3A5A7A9ABADAF50
:1005A000B1B3B5B7BABCBEC0C2C4C6C9CBCDCFD13A
:1005B000D4D6D8DBDDDFE2E4E7E9EBEEF0F3F5F8E3
:1005C000FAFDFF0C034B00420044003700350000E9
:1005D00000160371006D006B006200750069006C0D
:1005E0000064006500720000000403090409023B76
:1005F00000020100A0FA0904000001030101000942
:1006000021110100012240000705810308000A09A9
:100610000401000103000000092111010001226D05
:10062000000705820320000A1201000200000008F2
:10063000424B616002000102000105010980A10135
:10064000850319012AB700150126B7009501751019
:100650008100C0050C0901A101850419012AA0022D
:10066000150126A002950175108100C0050109063B
:10067000A1018505050719E029E715002501950861
:10068000750181020507190029EF1500250195F074
:100690007501810205081901290595057501910269
:1006A000950175039101C005010906A1010507190E
:1006B000E029E7150025019508750181029501756E
:1006C0000881010507190029FF150026FF0095067E
:1006D0007508810005081901290595057501910224
:1006E000950175039101C00011241FBECFEFDAE020
:1006F000DEBFCDBF04B603FE27C0809114039091E6
:100700001503A0911603B09117038730904BA740B3
:10071000B04BD1F4109214031092150310921603EB
:100720001092170314BE84B7877F84BF0FB6F89466
:10073000A8958091600088618093600010926000AD
:100740000FBEE0E0F8E3099511E0A0E0B1E0EAE4D3
:10075000F4E502C005900D92A83BB107D9F723E05C
:10076000A8EBB1E001C01D92A431B207E1F70E94ED
:1007700020150C94DB290C94000080FD06C083E555
:100780000E94F90483E50C948205089581E00895A0
:1007900081E008950C94C80308950C94CC031F9332
:1007A000CF93DF9300D000D00F92CDB7DEB749834F
:1007B0005A836B833091BA0189819A8131111DC0AE
:1007C0006623B9F02223A9F00E941D0B182F682F71
:1007D00089819A810E94C90A69817A81812F0F904B
:1007E0000F900F900F900F90DF91CF911F910C946D
:1007F00060110E94F50A182FEFCF0E941D0B69812E
:100800007A81EDCFFC01262F408151816281738175
:1008100084810C94CF0381E00895CF93DF93D82F88
:10082000C92F60E00E9402046D2F7C2FDF91CF91D1
:100830000C94CD030E947F130E94A4040E941B1EEF
:100840000C94B8130C94BB1308950E94A2080E9444
:1008500024042FEF84E39CE0215080409040E1F796
:1008600000C000000C9432220F931F93CF93DF93AC
:100870008C0161E00E940204EC01B8010E94CA03ED
:10088000882309F441C0B801CE010E94751D882358
:10089000D9F1B801CE010E94C51E8823A9F1B80183
:1008A000CE010E941A1F882379F1B801CE010E945F
:1008B0000320882349F1B801CE010E941C1C882323
:1008C00019F1F8018281882361F0CB35FDE5DF075E
:1008D00021F170F4C115ECE5DE07A1F0CF3DDC4558
:1008E000C9F0C801DF91CF911F910F910C94C603FD
:1008F000CC358DE5D807A1F0CD35DD4591F70E94C7
:10090000ED0EEFCF0E94250480E0DF91CF911F9183
:100910000F9108950E946710F7CF0E94F60EE1CF65
:100920000E94F90EDECF0C94BD0381E00895CF93B1
:10093000C82F0E949504882319F0C1FD03C02A9A8C
:10094000CF9108952A98FCCF229A2A9A0895CF939E
:10095000C82F0E9493048C2FCF910C949704EF9290
:10096000FF920F931F93CF93DF93CDB7DEB72B97F3
:100970000FB6F894DEBF0FBECDBF042F4F83152FE7
:10098000588769877A878B87EA84FB8461110E9484
:100990001E0F1E8285E0FE013796DE011196019042
:1009A0000D928A95E1F7EF28A9F449815A816B816C
:1009B0007C818D819E810E941C0E2B960FB6F8942F
:1009C000DEBF0FBECDBFDF91CF911F910F91FF9082
:1009D000EF90089510231F3F41F3CE0101960E942E
:1009E0000B048111E2CFE9CFFC01808191810C944D
:1009F0005F0BCF93C82F882309F482C08238C1F4DB
:100A00000E94322081FD7CC089E30E94B60E0E94C4
:100A10004F0F2FEF31EE84E0215030408040E1F75E
:100A200000C0000089E30E94BD0ECF910C944F0FCF
:100A30008338A1F40E94322080FD62C083E50E94C9
:100A4000B60E0E944F0F9FEF21EE34E091502040F0
:100A50003040E1F700C0000083E5E5CF8438A1F421
:100A60000E94322082FD4CC087E40E94B60E0E9494
:100A70004F0F8FEF91EE24E0815090402040E1F73E
:100A800000C0000087E4CFCF8CEF8C0F813A90F448
:100A90006C2F80910001909101010E949920882380
:100AA00029F08C2F0E94BD0E0E944F0F8C2F0E94A8
:100AB000B60EBBCF80E28C0F883048F4C77081E05F
:100AC00001C0880FCA95EAF70E94FF0EAECF8BE5F2
:100AD0008C0F833038F42C2F2452330BC901CF9163
:100AE0000C945920C85AC73158F4EC2FF0E0EE0F9F
:100AF000FF1FE05EFE4F80819181CF910C946F20AB
:100B0000CF910895882309F44BC0823871F40E9474
:100B1000322081FF45C089E30E94B60E0E944F0F2C
:100B200089E30E94BD0E0C944F0F833859F40E9444
:100B3000322080FF35C083E50E94B60E0E944F0F21
:100B400083E5EFCF843859F40E94322082FF28C019
:100B500087E40E94B60E0E944F0F87E4E2CF9CEF1D
:100B6000980F913AF0F290E2980F983050F4877015
:100B700091E001C0990F8A95EAF7892F0E94050F2D
:100B8000D2CF9BE5980F933020F490E080E00C9456
:100B90005920885A873120F490E080E00C946F202F
:100BA00008951F93CF93DF93182FEB010E94F90450
:100BB000209731F4812FDF91CF911F910C94820502
:100BC0008FE99FE00197F1F700C000002197F0CF77
:100BD00070E060E0893311F460E570E00C94D105B9
:100BE000882321F00E94FF0E0C944F0F0895882354
:100BF00021F00E94050F0C944F0F0895AF92BF9201
:100C0000CF92DF92EF92FF920F931F93CF93DF93D8
:100C100000D000D00F92CDB7DEB76C016D83798321
:100C2000FC011281058102950F700E94D40EE82EFE
:100C30008823A1F0E12E112389F08981807F8034FF
:100C400029F08D81805EE12C883040F082E00E94A6
:100C5000A00F0E94D40E91E0E82EE926A980A2946C
:100C60009FE0A922B12CF501E352F64D0C944229E4
:100C700009810F70F981F07F11F00295007F112337
:100C8000B1F0002361F08D81805E883018F02D81F5
:100C9000211109C0802F0E94FF0E0E944F0F8D81ED
:100CA0000E94F90415C0802F0E94100FF6CF8D818D
:100CB0000E948205002361F08D81805E883018F0EB
:100CC0004D81411133C0802F0E94050F0E944F0FAC
:100CD00048E0A41AB10854E0A516B10420F40E941B
:100CE00032200E94A704EE2009F4CBC10E94D00E4E
:100CF00080FDC7C1F60112820E94CA0E0E94B90986
:100D0000C6010E9468080E94CA0E0F900F900F90B3
:100D10000F900F90DF91CF911F910F91FF90EF9067
:100D2000DF90CF90BF90AF900C94EA09802F0E9483
:100D3000160FCCCF59815F70F52E6981607F6032CC
:100D400019F0F29480EFF8227D81772369F07130F9
:100D500049F1112391F1002351F1F601858180FFC2
:100D60009ECF8F70858323C0112381F0011106C0AF
:100D70000E94320F8F290E94F005AACF0130C1F7DF
:100D80000E94320F8F290E94380FA2CF011106C096
:100D90000E94450F8F2D0E94F7059ACF013009F46C
:100DA00097CFF6CF112329F0063008F091CF8F2D81
:100DB000E2CF053008F08CCFEDCF002359F3FD8151
:100DC000F93349F42FEF47EE53E0215040405040B3
:100DD000E1F700C000008D810E94820579CF8981F2
:100DE00086958695837069F0813009F071CF8D8189
:100DF00099819370111102C090E080E00E946F20F1
:100E000067CF8D8199819370111102C090E080E0CD
:100E10000E9459205DCF8981837009F050C0111163
:100E200057CF4D81429546954770440F440F8D81B1
:100E30008F7090E0B0E0A0E0042E04C0880F991FEE
:100E4000AA1FBB1F0A94D2F76D8100E010E0980141
:100E500064FF0FC00FE010E020E030E004C0000F9E
:100E6000111F221F331F4A95D2F700951095209528
:100E7000309579817695769573707D83B901A80157
:100E8000482B592B6A2B7B2B49835A836B837C839A
:100E90005D8169817A818B819C81523051F0533020
:100EA00059F0513019F00E942F0912CF0E94070902
:100EB0000FCF0E9457090CCF0E94050909CF1123BB
:100EC00009F445C0698160FF03CF4D814295469585
:100ED0004770440F440F8D818F7090E0B0E0A0E028
:100EE000042E04C0880F991FAA1FBB1F0A94D2F7B3
:100EF000ED8100E010E09801E4FF0FC00FE010E08A
:100F000020E030E004C0000F111F221F331F4A955C
:100F1000D2F70095109520953095F981F695F695C4
:100F2000F370FD83B901A801482B592B6A2B7B2B49
:100F300049835A836B837C83F230A1F0F330C9F08C
:100F4000F13049F0CB01BA010E94780AC1CE798113
:100F500071FFBECEBACF69817A818B819C810E945C
:100F6000500AB6CE69817A818B819C810E94A00A49
:100F7000AFCE69817A818B819C810E948309A8CE42
:100F800059815F705983112329F0852F0E94B90977
:100F90008D81F1CE8D810E94F70589810E94EA0939
:100FA00097CE6D81623F99F160F4603FD9F0613F67
:100FB00039F1112309F444C0011171CE89818F7177
:100FC00023C07D81733F41F1743F99F7112371F183
:100FD00089818F7189830E94B90963E089810E94A8
:100FE000850F76CE112341F0053008F071CE89814E
:100FF0008F710E941F0A6CCE063008F069CEF7CFC1
:1010000089818F71112351F20E94B90961CE8981C2
:101010008F711123C9F3C2CF112329F089818F71F8
:101020000E94940955CE0E948F0952CE81E00E9401
:10103000A00F023008F44CCE82E00E94A00F48CEF0
:10104000002361F09D81993309F0C5CEEFEFF7EEF3
:1010500023E0E150F0402040E1F7BBCE89818F7161
:101060009DCF49814F706D81C6010E945C110E9425
:10107000950B2ECE49814F706D81C6010E945F1184
:1010800027CE0F900F900F900F900F90DF91CF9180
:101090001F910F91FF90EF90DF90CF90BF90AF9096
:1010A00008950F931F93CF93DF93EC0168817981AB
:1010B0008A810E946B0B8C010E94C80A0E9404095D
:1010C000B801CE01DF91CF911F910F910C94FE05D5
:1010D000CF93DF93EC018B819C81892B29F089814F
:1010E000988189238F3F59F4DF91CF910895CE01E4
:1010F0000E945108CE01DF91CF910C940D04CE01D6
:101100000E9434048111F3CF0E94D40E882361F32E
:101110008A81882349F382E0DF91CF910C94A00F5C
:1011200090E080E00E94592090E080E00E946F20D3
:101130000E941E0F0E942F0F0C944F0F0E94C40E8E
:101140000C9490080E940D0F0C949E08282F892F54
:1011500082958F70903C80F48A30B0F4843020F413
:10116000823090F480E008958630E1F781E0283EF7
:1011700088F0213FB9F70EC08C3011F08F3091F715
:1011800093FB882780F9089581E0203F39F018F417
:10119000283E40F70895243F29F7FCCF0895FC012D
:1011A000808191810E945F0B0C94A608CF93DF93FE
:1011B00000D000D00F92CDB7DEB70F900F900F90F8
:1011C0000F900F90DF91CF910895CF93DF9300D0D0
:1011D00000D000D0CDB7DEB726960FB6F894DEBFAC
:1011E0000FBECDBFDF91CF91089508950C94F508FF
:1011F0000E94F6086093FB017093FC018093FD014F
:101200009093FE010C94900808950C94F808CF93E5
:10121000DF9300D000D0CDB7DEB769837A838B83AC
:101220009C838091FB019091FC01A091FD01B09104
:10123000FE0129813A814B815C81282B392B4A2B75
:101240005B2B29833A834B835C83CA01B9010F90DE
:101250000F900F900F90DF91CF910C94F808CF93DF
:10126000DF9300D000D0CDB7DEB769837A838B835C
:101270009C838091FB019091FC01A091FD01B091B4
:10128000FE0129813A814B815C81282339234A233D
:101290005B2329833A834B835C83CA01B9010F9096
:1012A0000F900F900F90DF91CF910C94F808CF938F
:1012B000DF9300D000D0CDB7DEB769837A838B830C
:1012C0009C838091FB019091FC01A091FD01B09164
:1012D000FE0129813A814B815C81282739274A27E1
:1012E0005B2729833A834B835C83CA01B9010F9042
:1012F0000F900F900F90DF91CF910C94F8080C9401
:10130000F5080C947F090E9481096093F70170939E
:10131000F8018093F9019093FA010C94900860E031
:1013200070E0CB010C9483090F931F93CF93DF934D
:1013300000D000D0CDB7DEB741E050E060E070E013
:101340008A019B0104C0000F111F221F331F8A95C1
:10135000D2F709831A832B833C83C901B8010F900C
:101360000F900F900F90DF91CF911F910F910C94E0
:1013700083090F931F93CF93DF9300D000D0CDB795
:10138000DEB741E050E060E070E004C0440F551F5C
:10139000661F771F8A95D2F78091F7019091F80127
:1013A000A091F901B091FA018A019B01082B192B38
:1013B0002A2B3B2B09831A832B833C83C901B80159
:1013C0000F900F900F900F90DF91CF911F910F9181
:1013D0000C9483090F931F93CF93DF9300D000D019
:1013E000CDB7DEB741E050E060E070E004C0440FEC
:1013F000551F661F771F8A95D2F7409550956095C7
:1014000070958091F7019091F801A091F901B09148
:10141000FA018A019B01082319232A233B2309830C
:101420001A832B833C83C901B8010F900F900F9052
:101430000F90DF91CF911F910F910C9483090F931F
:101440001F93CF93DF9300D000D0CDB7DEB741E03C
:1014500050E060E070E004C0440F551F661F771F26
:101460008A95D2F78091F7019091F801A091F90146
:10147000B091FA018A019B01082719272A273B27E7
:1014800009831A832B833C83C901B8010F900F9005
:101490000F900F90DF91CF911F910F910C948309C2
:1014A000CF93DF9300D000D0CDB7DEB769837A83C6
:1014B0008B839C838091F7019091F801A091F901B1
:1014C000B091FA0129813A814B815C81282B392B1B
:1014D0004A2B5B2B29833A834B835C83CA01B90176
:1014E0000F900F900F900F90DF91CF910C94830984
:1014F000CF93DF9300D000D0CDB7DEB769837A8376
:101500008B839C838091F7019091F801A091F90160
:10151000B091FA0129813A814B815C8128233923DA
:101520004A235B2329833A834B835C83CA01B90135
:101530000F900F900F900F90DF91CF910C94830933
:10154000CF93DF9300D000D0CDB7DEB769837A8325
:101550008B839C838091F7019091F801A091F90110
:10156000B091FA0129813A814B815C812827392782
:101570004A275B2729833A834B835C83CA01B901DD
:101580000F900F900F900F90DF91CF910C948309E3
:1015900008959295907FE92FE80F877041E001C090
:1015A000440F8A95EAF7E695E695E69585E0E89F8B
:1015B000F0011124E554FE4F30E020E070E051913D
:1015C000DF011197CB01022E02C0969587950A94F0
:1015D000E2F7817081958527842385278C932F5F7F
:1015E0003F4F2530310559F70895E92FE295E07F07
:1015F000E80F982F9770E695E695E69585E0E89FC9
:10160000F0011124E554FE4F50E040E080E02191CC
:1016100030E0092E02C0369527950A94E2F7217032
:101620003327042E01C0220F0A94EAF7822B4F5F62
:101630005F4F4530510559F70895BF92CF92DF9221
:10164000EF92FF920F931F93CF93DF938C01C09083
:10165000F701D090F801E090F901F090FA01809143
:10166000FB019091FC01A091FD01B091FE01C82AFF
:10167000D92AEA2AFB2ACFE1D0E0BC2ED701C60145
:101680000C2E04C0B695A795979587950A94D2F726
:1016900080FD0EC0219788F7B12C8B2DDF91CF9163
:1016A0001F910F91FF90EF90DF90CF90BF90089522
:1016B000B8018C2F0E948612019761F3EECFCF9371
:1016C000DF93D82FC92F0E941D0B6D2F7C2FDF9128
:1016D000CF910C9486121F93CF93DF93162FD72FA1
:1016E0009091BA01992339F0862F972FDF91CF91EE
:1016F0001F910C945F0B882391F0862F972F0E94E7
:101700001D0BC82F682F812F9D2F0E94C90A612FA2
:101710007D2F8C2FDF91CF911F910C948612862FF5
:10172000972F0E94F50AC82FF2CFEF92FF920F93E6
:101730001F93CF93DF938C01892B89F0F12CEE243A
:10174000E394E8012196F8018491843709F458C0A4
:10175000A0F4823009F43FC048F48130D1F0DF9129
:10176000CF911F910F91FF90EF9008959CEF980FEC
:101770009037A8F70E94F9040AC0853709F44EC0D3
:101780009CE7980F903758F78F770E9482058E015B
:1017900016C00E5F1F4FFE01849190E2980F9830A3
:1017A00060F48770FE2D01C0FF0F8A95EAF78F2F36
:1017B0000E94210F0E944F0F02C00E94F9048F2D3A
:1017C000882309F4BECFEFE9FFE03197F1F700C0BD
:1017D00000008150F5CF0E5F1F4FFE01849190E213
:1017E000980F983050F48770FE2D01C0FF0F8A9536
:1017F000EAF78F2F0E94270FDDCF0E948205DFCFEF
:101800000E5F1F4FFE01C491CC23C9F28FE99FE008
:101810000197F1F700C00000C150F6CF0E5F1F4FD7
:10182000FE01F490CCCF1F93CF93DF93E091FF01A3
:1018300016E0809100028E1304C0DF91CF911F91BA
:101840000895CE2FD0E01E9FF0011124EF5FFD4FD1
:101850004081518162817381848195810E94E50874
:10186000FE013196E770E5CF40913102509132028E
:10187000609133027091340280913502909136026A
:101880000C94E5081F93CF93DF9380913602807FFD
:10189000A9F480913302882389F08091FF01C091DF
:1018A00000027091310260913202A0913402B09135
:1018B0003502D62FD72316E0C81304C0DF91CF918D
:1018C0001F91089590E0109711F0DF3F19F40196F1
:1018D0008770F2CF189F9001199F300D1124F901E4
:1018E000EF5FFD4F41816413F2CF40814713EFCF8B
:1018F00042814111ECCF438154814A1B5B0B483C30
:10190000510528F7809136028F70806180933602EE
:10191000F901EA5FFD4F80818F708061808381E3F0
:1019200092E00E946808DF91CF911F910C94130CF4
:10193000AF92BF92CF92DF92EF92FF920F931F93DD
:10194000CF93DF93CDB7DEB72B970FB6F894DEBFFA
:101950000FBECDBF8C0185E0F801DE011796019026
:101960000D928A95E1F7F801E28081E3A82E82E0EA
:10197000B82E60913402709135026115710549F0FD
:101980002091310290913202892F82238F3F09F0FA
:101990003CC1EE2009F44CC1C8010E94CF08F82ECA
:1019A000882309F445C186E0F801A1E3B2E0019083
:1019B0000D928A95E1F781E392E00E94F4040E947F
:1019C000420C20C180913602382F307F683C71056F
:1019D00008F07CC03111B2C0FE2C951324C0241332
:1019E00022C0E11020C08F708061809336020E9477
:1019F000340C81E392E00E94680880913602F8017D
:101A000085838F2D2B960FB6F894DEBF0FBECDBF0A
:101A1000DF91CF911F910F91FF90EF90DF90CF90CA
:101A2000BF90AF9008954F835887CD2829F0842F19
:101A300085238F3F09F07FC080E0F82FF170DF2E03
:101A4000E091FF012091000236E080FD1CC0EE20F5
:101A5000C1F280913602816080933602F12CD1CFA1
:101A60008E2F90E03E9FF0011124EF5FFD4F6181CA
:101A7000651306C06081641303C062816E11E7CFF5
:101A8000FC013196E770E213EBCF8F8198850E94BD
:101A90005F0B292F22952F70903260F0225F2F70FC
:101AA000223078F49F7051F0F8019581907F31F4E5
:101AB000D12C0AC09F7011F08823D1F3805E88304A
:101AC000B8F3C8010E946808FD2C9BCF311168C093
:101AD0006E2D7A858B850E94D60881E392E00E9464
:101AE000680886E0F50111928A95E9F70E94340CA6
:101AF000B5CF86E0F801A1E3B2E001900D928A959E
:101B0000E1F77FCFC8010E94CF0881113AC08091D0
:101B10003602816080933602C8010E94680871CF46
:101B20006E2D7A858B850E94D60886E0F50111928C
:101B30008A95E9F767C081E08E257FCF951306C0AF
:101B4000241304C0F801EE2009F450C0C8010E941B
:101B5000CF08882309F46CC0EE2009F469C0809195
:101B60003602803270F020913102309132023A8395
:101B700029831B82DD82CC828E83CE0101960E9456
:101B8000680886E0F801A1E3B2E001900D928A9521
:101B9000E1F70E94420C0E94340CFF24F39431CFF1
:101BA0009513D4CF2413D2CFE110D0CFF801858381
:101BB000C8010E94680886E0F50111928A95E9F74C
:101BC00020CF95139FCF24139DCF8091360280FDA7
:101BD00090CF982F907F09F48CCFF8018583903FA8
:101BE00031F0982F907F905F8F70892B8583C8018B
:101BF0000E94680886E0F801A1E3B2E001900D922E
:101C00008A95E1F70E94340CFCCE40815181C3805B
:101C1000D480F0903302F601E61BF70BBF01F11000
:101C2000D1CE683C710508F07BCFFE2CE110C9CF06
:101C3000C8010E946808B1CF1F93CF93DF93CDB73F
:101C4000DEB72C970FB6F894DEBF0FBECDBF4F8323
:101C5000588769877A878B879C87CE0107960E9471
:101C6000980C882369F08A859B85892B39F05885E3
:101C70004F81852F84238F3F09F071C016E05FC02C
:101C800086E0FE013796DE01119601900D928A954D
:101C9000E1F78A859B85892B89F38F819885892334
:101CA0008F3F61F32091000230E0C90101968770F7
:101CB00099274091FF014817190671F40E94A20864
:101CC000109200021092FF0186E0E1E3F2E0DF01F2
:101CD0001D928A95E9F7D2CF96E0929FD001939F0B
:101CE000B00D1124AF5FBD4FFE01319601900D92F2
:101CF0009A95E1F7809300020E94130CBFCF819F59
:101D0000C00111248F5F9D4F0E94980C8823E9F039
:101D1000E091FF011E9FF0011124EF5FFD4F408114
:101D2000518162817381848195810E94E50880914F
:101D3000FF0190E00196877099278093FF018091C1
:101D4000FF01909100028913DACF2C960FB6F89418
:101D5000DEBF0FBECDBFDF91CF911F910895698582
:101D60007A858B859C850E94E50888CF682F8091B5
:101D70000001909101010C941D21682F80910001B8
:101D8000909101010C942821809100019091010112
:101D90000C9433218091370285958595859508951A
:101DA000809137028770089590913702977081E093
:101DB00009F480E008959091B40292FB222720F963
:101DC000281751F080FB92F99093B4028091B302EE
:101DD0009091B4020C94E30F08958091B40282FBB9
:101DE000882780F991E089270C94DB0E81E00C9420
:101DF000DB0E80E00C94DB0E80915B0208959091E5
:101E00005B02982B90935B020895982F9095809198
:101E10005B02892380935B02089510925B02089510
:101E200090915A02982B90935A020895982F90956A
:101E300080915A02892380935A02089510925A027F
:101E4000089590915902982B909359020895982FD4
:101E50009095809159028923809359020895109298
:101E60005902089580913802089508950C94350F11
:101E70009091B40292FD08C090913802981721F019
:101E8000809338020C94360F08958091380288238D
:101E900029F01092380280E00C94360F0895E091FA
:101EA0000001F091010180915B028083E0910001CB
:101EB000F0910101808190915A02892B8083E091F9
:101EC0000001F0910101808190915902892B80835A
:101ED00090913802992381F0E0910001F091010185
:101EE0008081892B808380910001909101010E9463
:101EF000852081110E94450F809100019091010180
:101F00000C943E2008950C94820F9091B40292FD9F
:101F100010C098E0899F90011124622B60933702D2
:101F20000E94B909809137028595859585950C9415
:101F3000830F0C94B9091092370280E00C94830F40
:101F4000909137028095892380933702282F27703C
:101F500039F4282F082E000C330B9217130621F4A6
:101F60009091B40292FF07C08595859585950E9452
:101F7000EA090C949B0F08956FEF7FEF90E080E0EB
:101F80000C94C52990E080E00E94A1299C0181E089
:101F9000293E3E4F09F080E0089582E090E00C94E5
:101FA000932983E090E00C949329CF9384E090E010
:101FB0000E949329C82F82E290E00E949329982FD3
:101FC0008C2FCF910895CF93682FC92F84E090E094
:101FD0000E94A7296C2F82E290E0CF910C94A72950
:101FE000AB01BC018FE090E00C94B929AB01BC01BE
:101FF00083E190E00C94B92960E070E0CB010C948F
:10200000F60F60E070E0CB010E94F00F0C94FC0F23
:1020100069EE7EEF90E080E00E94C52960E082E0FA
:1020200090E00E94A72960E083E090E00E94A72949
:102030001092FB011092FC011092FD011092FE0122
:1020400060E084E090E00E94A72960E082E290E0F6
:102050000E94A72960E085E090E00E94A72960E047
:1020600086E090E00E94A7296FEF87E090E00E9451
:10207000A72940E050E0BA0188E090E00E94B92929
:1020800060E08DE090E00E94A72940E050E0BA01B6
:1020900088E190E00E94B92960E087E190E00E9429
:1020A000A72940E050E0BA018CE190E00E94B929F4
:1020B00070E060E080E290E00E94C52940E050E0DE
:1020C000BA0188E190E00E94B9290C9401100C94A7
:1020D0000810682F8EE090E00C94A7290E94DF2161
:1020E00060936D0270936E0280936F029093700202
:1020F0006093690270936A0280936B0290936C0202
:10210000089585B7806885BF85B7806885BF0895C5
:10211000089508950C94881008950C948C100E94D2
:10212000811085E693E10E9456220E9489100C944A
:102130008A1081E008950C949910089508950E94E2
:102140009D100C949E100E94CA210E9483140E942C
:10215000AA1C0E942A1B0C948D108F929F92AF9202
:10216000BF92CF92DF92EF92FF920F931F93CF9384
:10217000DF9300D000D00F92CDB7DEB70E94981445
:1021800081110E946E105DE5852E52E0952E10E0C3
:1021900000E0A02E802F0E94BD137C01F401C190AD
:1021A000D1904F01C816D90609F45DC08091710223
:1021B00081FD0E94C613C6018E259F25B12CCC241B
:1021C000C394D12C9C012C213D21232B09F445C023
:1021D0000E949B108823A9F0B982AA82EC20FD20DE
:1021E00081E0EF2809F480E08B830E94D321816095
:1021F000782F9D838C8349815A816B818D810E94C8
:10220000AF04000F111FF801E35AFD4F8081918147
:10221000C826D926D182C0820E946E1B0E941A1E37
:102220000E94322090915C028917A1F10E94322015
:1022300080935C020F900F900F900F900F90DF91A2
:10224000CF911F910F91FF90EF90DF90CF90BF90B3
:10225000AF909F908F900C94A704B394CC0CDD1C8E
:10226000F0E1BF12AFCF0F5F1F4F0630110509F02D
:1022700090CF8FEF89838A831B820E94D321816054
:10228000782F9D838C8349815A816B818D810E9437
:10229000AF04C2CF0F900F900F900F900F90DF916F
:1022A000CF911F910F91FF90EF90DF90CF90BF9053
:1022B000AF909F908F90089590E080E008950895EA
:1022C000E72FF0E096E0899FE00DF11D112484E0F6
:1022D000EE0FFF1F8A95E1F7E60FF11DEE0FFF1FCE
:1022E000E455FF4F859194910895FC01EE0FFF1F77
:1022F000E455FC4F859194910895CF93DF930E940C
:102300008A12EC01811521E5920708F048C0811579
:1023100030E5930708F0AFC0803E910518F5803C8A
:10232000910508F096C0883A910570F4853A9105B8
:1023300008F08CC08130910531F10497813A910504
:1023400010F1D0E0C0E01FC08F3B9105D1F3C85A17
:10235000D0E0CC0FDD1FC25BDE4F0990D881C02DCD
:10236000D46411C0811540E3940788F4C11580E25C
:10237000D80708F074C0C83ED10528F0CE019A9560
:1023800081159F41F0F6CE01DF91CF91089581151F
:1023900030E4930708F466C0DF70D06AF4CF81158B
:1023A000964560F5C11585E5D80708F096C0C115BA
:1023B00094E5D907F0F4C11523E5D20708F079C0F8
:1023C000C11532E5D30708F46FC0CE018370992799
:1023D00021E030E002C0220F331F8A95E2F7C69554
:1023E000C69540E2C49FE0011124C22BD32BDC68C8
:1023F000CACFDC2FCC27C46FD06AC5CFC1158AE500
:10240000D80788F4C11599E5D90708F071C0CE0145
:1024100098558F3F910511F008F093CFDC2FCC2712
:10242000C06FD06AB0CFCE0190568115904208F0AF
:1024300088CF8D2F8F710E94221390E0982F8827CC
:1024400088279F719C012C2BE90150C0A497D06470
:102450009ACF805C91090E947511EC0194CFCE0156
:102460009F70F9CF9927D3FF03C0EC01D86C8BCFB5
:10247000EC01D06C88CF74E0969587957A95E1F75A
:1024800083702C2F26952695237040E2249F90017F
:102490001124382B8C2F8370C1E0D0E002C0CC0F08
:1024A000DD1F8A95E2F7A1CFDC2FCC27C16FD06A60
:1024B0006ACFCE018370992721E030E002C0220F5D
:1024C000331F8A95E2F7C695C69580E2C89FE00162
:1024D0001124C22BD32BDA6856CF8C2F0E942213E3
:1024E000C82FD0E0DC2FCC27CC27DF71D0624BCFB8
:1024F0008C2F8F700E94221334E0D695C7953A95A1
:10250000E1F7CF70DC2FC82FD0693DCF0E9460115A
:102510000C947D11803E910599F1C8F481339105A9
:1025200009F476C048F48932910509F46AC08A3208
:10253000910509F474C0089589339105D1F082386A
:102540009105B9F08533910509F454C00895843E8E
:10255000910599F138F4823E9105F9F0833E910599
:1025600009F10895863E910599F1873E9105B9F1EB
:1025700008952091B3022370A1F080EE90E00895B9
:102580002091B30220FD52C03091B40230FF09C047
:1025900024FF4FC090E080E004C02091B30222FDF0
:1025A000F7CF08952091B30222FD46C03091B402C6
:1025B00030FDE3CF24FFF5CFEDCF2091B40221FF12
:1025C000F0CF8091B30284FDE5CF87EE90E00895CF
:1025D0002091B30223FFE5CF24FDDCCFF6CF20917D
:1025E000B30223FD2CC03091B40231FFE3CF84EE5F
:1025F00090E008952091B30225FFD3CF89E290E0C7
:1026000008952091B30225FFCCCF85E390E0089593
:102610002091B30226FFC5CF8AE290E00895209171
:10262000B30226FFBECF81E390E0089589E390E0F6
:10263000089583EE90E0089582EE90E0089586EE8E
:1026400090E008959091B30292FF06C0282F287160
:102650002830F9F4877F846093FF06C0282F287103
:102660002831F1F4877E84612091B40220FF06C0F6
:10267000382F38713830D9F4877F816021FF06C048
:10268000282F28712831D1F4877E816194FD877EBF
:102690000895282F24712430F9F68B7F8860DCCFD1
:1026A000282F2471243101F78B7E8861DDCF382FEC
:1026B0003171313019F78E7F8860E0CF282F21717A
:1026C000213121F78E7E8861E1CF80E008950C945E
:1026D000BC0F0E9498148FE39CE90197F1F700C0AA
:1026E00000000E94981481E00E94BD1396FF04C070
:1026F0000E9467130C94322208950C946913CF93AF
:10270000DF9300D000D0CDB7DEB70E94C20F811199
:1027100002C00E9467100E94CD0F809371020E9438
:10272000D50F9093B4028093B3020E947D130E9450
:10273000D10F282F30E050E040E0CA01B9010E94DB
:1027400005098091F7019091F801A091F901B091EC
:10275000FA0189839A83AB83BC83BC01CD010F90BE
:102760000F900F900F90DF91CF910C9481090895F5
:102770000C94B71308950C94BA13E82FF0E0EE0F01
:10278000FF1FEF53FD4F808191810895089580EAE6
:102790008A95F1F7089500C008950C94C713F89432
:1027A000E82FE295EF70A1E2AE0FB0E04C918F7090
:1027B00021E030E0B90102C0660F771F8A95E2F789
:1027C000CB01962F909594239C93EE5DF0E0908141
:1027D000892B808378940895CF93DF93CCE8D1E060
:1027E00089918F3F11F00E94CF1381E0C239D80741
:1027F000B9F7CCE7D1E089918F3F11F00E94CF1358
:1028000081E0CC38D807B9F7DF91CF910895AF9226
:10281000BF92CF92DF92EF92FF920F931F93CF93CD
:10282000DF93EC01D62E062F10E0C80184579E4F8F
:102830007C01FC0180818F3F09F457C0F894E82F98
:10284000E295EF70A1E2AE0FB0E09C918F7021E0B5
:1028500030E001C0220F8A95EAF7892F822B8C93F2
:10286000EE5DF0E0808120952823208378940E94FB
:10287000CB13ECE7F1E050E040E0B12CA12C61E09B
:1028800070E081918F3FE1F1A82FA295AF70A05E1B
:10289000B0E02C9130E08F7002C0359527958A9575
:1028A000E2F720FD2DC09B01042E02C0220F331F32
:1028B0000A94E2F7A22AB32A4F5F5F4F40315105D5
:1028C00001F7F70180818F3F11F00E94CF1361E083
:1028D000A114B10409F460E08D2D0E94CD13000F06
:1028E000111FC00FD11FB982A882DF91CF911F9114
:1028F0000F91FF90EF90DF90CF90BF90AF90089531
:1029000020E030E0D7CF0E94EC138CE0E5EBF2E062
:10291000DF01982F1D929A95E9F7E1ECF2E0DF01D3
:102920001D928A95E9F786E00E94E6140C941A0439
:10293000FF920F931F93CF93DF93CDB7DEB72C9702
:102940000FB6F894DEBF0FBECDBFFE0131968CE00E
:10295000DF011D928A95E9F710E0FE2E0F2F612FFF
:102960008F2D902F0E9407141F5F1630C1F74CE087
:1029700050E06F2D702F85EB92E00E9486299C011C
:1029800011E0892B09F410E0232B49F08CE0EF2DA6
:10299000F02FA5EBB2E001900D928A95E1F7212F7F
:1029A00046E061EC72E085EB92E00E94E7140E9441
:1029B0002204812F2C960FB6F894DEBF0FBECDBF38
:1029C000DF91CF911F910F91FF9008950895FF928D
:1029D0000F931F93CF93DF93F82E092F162FD72F26
:1029E000C42F222349F081E0809374020E94D321F6
:1029F0009093730280937202809174028823A1F0F5
:102A000080917202909173020E94FF21059760F0FD
:102A1000EF2DF02FA12FBD2F90E080E0D0E08C179C
:102A20009D0744F010927402DF91CF911F910F9196
:102A3000FF900895219131912D933D930196EFCF11
:102A40000E9445210E94A9230E94C2230E94D423F0
:102A50000E949F10FBCFCF92DF92EF92FF920F93D5
:102A60001F93CF93DF93D62FC72F982F711113C0C9
:102A7000442329F0E82FF0E0ED53FB4F9491692FA8
:102A8000792F892FDF91CF911F910F91FF90EF90B8
:102A9000DF90CF900895272F30E0E82FF0E0442317
:102AA00021F0ED53FB4FE491F0E086E0D89F7001F8
:102AB00011240FEF10E0C701B8010E94F8288D2FF4
:102AC00090E0880F991FA5E5A69FA001A79F500D34
:102AD0001124841B950BD82EDD0CD80EC801821B47
:102AE000930B8E9FA0018F9F500D9E9F500D112420
:102AF000952FDC9EE0011124CD2FDD27D801AC1BE2
:102B0000BD0BED01CE9FD001CF9FB00DDE9FB00D6C
:102B100011248B2FE801CD19D1096E01C29EE0016D
:102B2000C39ED00DD29ED00D1124CD2FDD270C1BBE
:102B30001D0B0E9FE0010F9FD00D1E9FD00D112485
:102B40002E2F63307105D9F03CEFE31633E0F30626
:102B500068F461307105B9F062307105C1F0AFEF12
:102B6000EA16F10448F4852F9D2F06C064307105E4
:102B700089F066307105B9F3692F722F83CF9B2FCF
:102B80008E2F252FF9CF9E2F2B2F852FF5CF8D2F11
:102B90009E2FF7CF8E2F2D2FEFCF41E00C942B15CA
:102BA00008950C94CD15CF93DF93982F762F842F13
:102BB000E901692F0E94D115798368838A83DF91A7
:102BC000CF9108958091CD02982F9E7F29F4817036
:102BD00082608093CD0208958A34E8F3817088641E
:102BE000F8CF88E090E00C949B290F931F93CF932C
:102BF000DF938B01D82FC92F0E94E215A8016D2FFA
:102C00007C2F88E090E0DF91CF911F910F910C9481
:102C1000B929EDECF2E083E0808311828FEF8283AB
:102C20008383148263E070E08FEF9FEF0C94F515BF
:102C30008091CD0280FF02C08695089580E00895BE
:102C4000CF93DF9300D000D0CDB7DEB79091D10203
:102C5000933018F49F5F9093D1028823B1F0809154
:102C6000CD029091CE02A091CF02B091D002898383
:102C70009A83AB83BC83BC01CD010F900F900F9062
:102C80000F90DF91CF910C94F5150F900F900F904E
:102C90000F90DF91CF91089581E00C942016CF938F
:102CA000DF9300D000D0CDB7DEB79091D102992349
:102CB00019F091509093D1028823B1F08091CD0208
:102CC0009091CE02A091CF02B091D00289839A83D5
:102CD000AB83BC83BC01CD010F900F900F900F9080
:102CE000DF91CF910C94F5150F900F900F900F90EE
:102CF000DF91CF91089581E00C944F1670E00C9411
:102D00002B1E609106018091CD0280FF0AC0809148
:102D1000050123E0829FC00111248E529D4F0C9427
:102D20007E16809107019091080123E0829FF001B7
:102D30001124EE52FD4F891750F711821082128232
:102D40008F5F3396F8CF9091CD0290FF14C0909191
:102D500007012091080133E0939FF0011124EE5206
:102D6000FD4F921710F00C9481168183608342838B
:102D70009F5F3396F6CF0895CF93DF9300D00F92E5
:102D8000CDB7DEB79091CD0290FF0AC09E012F5FB4
:102D90003F4F0E94D3154B8169818A810E94A316FF
:102DA0000F900F900F90DF91CF910895CF93DF9305
:102DB000EC01EC81F0E0E254FC4F4491EDECF2E0E8
:102DC000628181810E94BC168C818F5F8C83DF9130
:102DD000CF910895CF93DF93EC01EDECF2E04381C6
:102DE00062818C810E94BC168C818F5F8C83DF9105
:102DF000CF9108950F931F93CF93DF9300D00F923D
:102E0000CDB7DEB78C018091750281110AC09E0199
:102E10002F5F3F4F4FEF6FEF0E94D3158A81809352
:102E20007502F8016481613049F06230F1F08091FF
:102E3000750240E0662331F040E019C060917502F0
:102E400040E080E00E94A316F801848190E00196A2
:102E500063E070E00E940C2984830F900F900F9024
:102E6000DF91CF911F910F9108954091750280E0FD
:102E700060E0E8CFAF92BF92CF92DF92EF92FF92E5
:102E80000F931F93CF93DF9300D000D000D00F9209
:102E9000CDB7DEB7182FF62E042FD22E9091CD028B
:102EA00090FF83C0E92FE695AE2FB0E0AE56BE4F3F
:102EB0008C91809381029E7F9230A1F59E012F5FBD
:102EC0003F4F812F0E94D3154B8169818A810E94D7
:102ED000A3161093CE02F092CF020093D002DD2011
:102EE00009F463C08091CD029091CE02A091CF02EF
:102EF000B091D0028C839D83AE83BF83BC01CD0192
:102F000027960FB6F894DEBF0FBECDBFDF91CF91ED
:102F10001F910F91FF90EF90DF90CF90BF90AF90F7
:102F20000C94F515823019F40091D002D2CF86307E
:102F300019F41091CE02CDCF8930D9F3893149F6F9
:102F4000E9518E2F8170C82EE695F0E0E254FB4FD8
:102F5000A590B490E12CBB2460910901E61618F00D
:102F60000E948116B6CF2E2D30E0EA9CC001EB9C6A
:102F7000900D112470E00E94F828812FC11013C019
:102F8000860F90910701A901490F511D9A01220F47
:102F9000331F240F351F2E523D4F402F6F2D0E949F
:102FA000D315E394D9CF861BECCF27960FB6F894B0
:102FB000DEBF0FBECDBFDF91CF911F910F91FF906C
:102FC000EF90DF90CF90BF90AF900895282FEDEC59
:102FD000F2E0818143816281885F0C943A1781E03D
:102FE0000C94E617282FEDECF2E081814381628199
:102FF00088500C943A1781E00C94F217282FEDECCE
:10300000F2E0628138E0630F08F46FEF4381818161
:103010000C943A1781E00C94FE17282FEDECF2E0A7
:10302000628138E0631B08F460E0438181810C9485
:103030003A1781E00C940D18282FEDECF2E0438153
:1030400038E0430F08F44FEF628181810C943A1706
:1030500081E00C941C18282FEDECF2E0438138E05D
:10306000431B08F440E0628181810C943A1781E0AF
:103070000C942B1820E00C943A17EF92FF921F93B8
:10308000CF93DF93EC0110E0EE24EA94F12C6091F1
:103090000901161770F00E9481169A818C8190FFA9
:1030A00027C08F5F8C83DF91CF911F91FF90EF90AE
:1030B000089520910701422F410F5527551FCA013E
:1030C0009A01220F331F280F391F2E523D4F70E0F7
:1030D000C7010E940C29962F8C814091D0026091EB
:1030E000CF02199F800D11240E94D3151F5FCFCFEF
:1030F0008150D8CFBF92CF92DF92EF92FF920F9381
:103100001F93CF93DF93FC0182810FEF80FF01E0DB
:1031100010E0809109011817C0F00E94811680917B
:103120007702013009F051C0811102C0809109017C
:10313000815080937702DF91CF911F910F91FF9083
:10314000EF90DF90CF90BF90089580910701C12E3E
:10315000D12C8C0D9D2D911DEC01CC0FDD1FC80FC6
:10316000D91FCE52DD4F198218821A8234E0E32E25
:10317000F12CB12C809177028B0D813104F18F708D
:10318000082E000C990BC816D90691F48091D00234
:103190008E9DA0018F9D500D1124559547955595F5
:1031A00047959E016091CF028091CE020E94D31577
:1031B000B00EF1E0EF1AF108E9F61F5FAACF87FF22
:1031C000DFCF90910901890FDBCF90E001966091EC
:1031D000090170E00E940C29ACCF0F931F93CF938D
:1031E000DF93809107019091080123E0829FF00115
:1031F0001124EE52FD4F891740F1C0E0D3E06091F9
:103200000901C61740F10E948116209103018091A7
:103210007602820F8093760290910401920F909330
:103220000401191654F4082E000C990B4091090161
:103230004150550B841795071CF0219520930301ED
:10324000DF91CF911F910F91089511821082128208
:103250008F5F3396D0CF0C2F10E070E0C8010E9432
:103260000C2920910701820F482F50E0209176020F
:10327000022E000C330B02171307BCF0209104013F
:10328000022E000C330B201731077CF08D9F90012C
:1032900011242E523D4F4091D0026091CF02809177
:1032A000CE020E94D315CF5FAACFFA01EE0FFF1F07
:1032B000E40FF51FEE52FD4F118210821282F3CF00
:1032C000EF92FF920F931F93CF93DF93CDB7DEB7AB
:1032D0002E970FB6F894DEBF0FBECDBF8D879E87A9
:1032E000AD85BE8514961C91212F30E0D9010E9436
:1032F00050299B01AC010E94662969837A838B83E4
:103300009C83E0E2F0E0E11BF109A5E5B0E09B0160
:10331000AC010E94662969877A878B879C879F0109
:10332000DF010E9448296D837E838F8398879B01EC
:10333000AC010E9471299B01AC0169817A818B816A
:103340009C81260F371F481F591F69857A858B85F9
:103350009C850E942029F22E822F90E079E272173C
:1033600088F183E0289F9001112435952795122F2D
:10337000109500E085E5E82EEF1880910901081707
:1033800080F10E948116AD85BE8514969C9181E0E6
:10339000992319F0903219F48FEF809302018091F4
:1033A0000201890FED85FE8584832E960FB6F89471
:1033B000DEBF0FBECDBFDF91CF911F910F91FF9068
:1033C000EF90089525E530E0D901A81BB90B9D01C8
:1033D000220F331F2A0F3B1F37FFC7CF2F5F3F4FEF
:1033E000C4CF8E2D01FD8F2D20910701E22FE00F1C
:1033F000FF27FF1F9F01220F331F2E0F3F1F2E524B
:103400003D4F412F6091CF020E94D3150F5FB5CF82
:103410000F931F93CF93DF93EC0110E000E09091A6
:1034200009019017110609F06CF40E9481168C8135
:1034300090E00196817099278C83DF91CF911F9145
:103440000F91089580910701A801480F511D9A011D
:10345000220F331F240F351F2E523D4F4C81609198
:10346000CF028091CE0296959017110651F04CF044
:10347000442349F04091D0020E94D3150F5F1F4FA3
:10348000CECF4423B9F340E0F7CFCF93DF9300D002
:1034900000D0CDB7DEB7EDECF2E080818E7F808387
:1034A00080819181A281B38189839A83AB83BC831C
:1034B000BC01CD010E94F515109282029FEFA0E79A
:1034C000B2E09150A040B040E1F700C000000F9082
:1034D0000F900F900F90DF91CF910C948116EDEC2F
:1034E000F2E080818E7F8083109282022FEF80E74E
:1034F00092E0215080409040E1F700C000000C9421
:1035000081161092820280917F0281110AC081E0AF
:1035100080937F028091CD02817080937E020C9413
:103520006F1A08956091CD02669570E04BE050E00F
:103530008AE091E00E947929892B19F481E0809337
:1035400082020E94D3219093790280937802089599
:10355000CF93DF9300D000D0CDB7DEB79091CD02EE
:1035600090FF41C09170811134C092609093CD0260
:10357000662381F08091CD029091CE02A091CF027E
:10358000B091D00289839A83AB83BC83BC01CD0107
:103590000E94F5156091CD02669570E04BE050E019
:1035A0008AE091E00E947929892BD1F01092820261
:1035B00081E080937B024091D0026091CF028091A4
:1035C000CE020F900F900F900F90DF91CF910C943F
:1035D0003A18853210F09864C9CF880F982BC6CF5F
:1035E0000E94921AE5CF0F900F900F900F90DF91ED
:1035F000CF910895682F8091CD0286958F5F853297
:1036000008F081E00C94A81A81E00C94FA1A682F53
:103610009091CD0296958FEF890F913009F484E255
:103620000C94A81A81E00C94071B61E00C94A81A72
:10363000EDECF2E080818160808386950C94151B0F
:103640008091CD0280FD0C94451A0C94181B60E00B
:103650000C94A81A8091800281112EC00E94C20F82
:10366000811104C00E9467100E9409160E94F11582
:103670006093CD027093CE028093CF029093D002DC
:103680006E7F61F40E9409160E94F1156093CD02CD
:103690007093CE028093CF029093D0020E94E215E5
:1036A000109282028091CD0280FF03C086950E9415
:1036B000271B81E0809380020895EDECF2E0808189
:1036C0008160808386950C94271B10927F028091E5
:1036D0007E0281110E945D1B0C94921A0F931F931E
:1036E000CF93DF9380918202882309F486C0809172
:1036F0008102E091CD02E695E81BE0937A028230E8
:1037000091F5F0E0E654FC4FE491CE2FD0E006EDC9
:1037100016E180917B02882361F010927B020E9467
:10372000D321909379028093780210927D021092B7
:103730007C020E94D321E0917802F09179028E1BE5
:103740009F0B8F3F9F4708F058C0EC0FFD1FF09371
:103750007902E093780288E792E0F801DF91CF9157
:103760001F910F910994863049F4F0E0E954FC4F21
:10377000E491CE2FD0E00AEE16E1CBCF893051F4A0
:10378000E695F0E0EC54FC4FE491CE2FD0E00DE351
:1037900018E1BFCF8F3051F4E695F0E0EF54FC4FC5
:1037A000E491CE2FD0E00AE718E1B3CF853149F498
:1037B000F0E0E255FC4FE491CE2FD0E00DEE18E1A1
:1037C000A8CFC8E2D0E000E619E1883109F4A1CF22
:1037D000833239F4ECEAF3E0C591D4910AEF16E1B3
:1037E00098CFC4EFD1E008E01AE1843209F491CF18
:1037F000C0EDD7E000ED15E18CCFDF91CF911F91A7
:103800000F910895FA0181110994FB01FDCFCF9327
:10381000DF93C82FD62F0E9418168C1740F00E94F5
:1038200018168D1720F4DF91CF910C94041B8C2F68
:10383000DF91CF910C94151B0F931F93CF938C01A5
:10384000FB01C281CC2309F472C00E94FC0E82727B
:10385000073DFCE51F0770F4033C9CE5190778F071
:10386000F801E45CFC45E331F10570F4E351F64DF9
:103870000C944229C1E00E351D4509F4C0E08C2F9F
:10388000CF911F910F9108950E94201BF7CF42E125
:103890005BE164E07BE10E94021CF0CF44E05BE16D
:1038A00062E17BE1F8CF4BEF57E16FEE77E1F3CFC9
:1038B0004FEE57E16BEF77E1EECF49E158E16AE077
:1038C00078E1E9CF4AE058E169E178E1E4CF47E304
:1038D00058E168E278E1DFCF48E258E167E378E158
:1038E000DACF4BE756E16CE476E1D5CF4CE456E114
:1038F0006BE776E1D0CF81E00E94151BBFCF65E07A
:1039000082E00E94071CBACF68E086E0FACF6EE042
:1039100089E0F7CF64E18FE0F4CF67E185E1F1CF93
:1039200088E1EACF62E289E1ECCF83E2E5CFC1E052
:10393000A6CF86E090E00C949329682F86E090E073
:103940000C94A729E2E0F3E080818470896280838F
:103950000C949D1C0E94C20F811104C00E9467102C
:103960000E94A21C0E94991C80930203803320F0C5
:10397000877088628093020390910203892F81707F
:1039800090FF04C0892F8695869586950C94AD1D71
:1039900080910203982F969596959695883240F4DB
:1039A0009F5F990F990F990F8770892B809302035E
:1039B000809102038160809302030E949D1C80918C
:1039C00002038695869586950C94AD1D8091020321
:1039D000982F987F79F0885080930203887F91E038
:1039E00009F490E08091020390FB80F98093020338
:1039F0000E949D1C809102038695869586950C9465
:103A0000AD1D8091020380FD13C08160809302038D
:103A1000813019F489E080930203809102030E94AF
:103A20009D1C809102038695869586950C94AD1D0C
:103A300008958091020380FF08C08E7F8093020367
:103A40000E949D1C80E00C94AD1D0895809102039E
:103A500080FD0C94191D0C94011D90910203892F77
:103A60008695869586958F5F8F7197708630D8F48E
:103A7000880F880F880F892B80930203809102039F
:103A8000887F91E009F490E08091020390FB80F937
:103A9000809302030E949D1C809102038695869567
:103AA00086950C94AD1D90930203E8CF863008F004
:103AB00085E0909102039770282F220F220F220F8A
:103AC000922B90930203987F21E009F420E09091DB
:103AD000020320FB90F9909302030C94AD1D0E9409
:103AE000561D809102030C949D1C9C01FB01828158
:103AF000882361F12F3BFCE53F07F9F060F42D3B93
:103B0000ECE53E07A9F02E3BFCE53F0799F02C3B86
:103B10003C4549F00895203CECE53E0789F0213C06
:103B20003C4589F0089585E00E946F1D80E008956E
:103B300080E0FACF0E94E61CF9CF0E94C81CF6CFA5
:103B40000E94261DF3CF0E942D1DF0CF81E0089525
:103B5000269A2E9808952E980895CF93DF93CDB787
:103B6000DEB728970FB6F894DEBF0FBECDBF8983AE
:103B7000863060F581112CC0809180008F7D80930C
:103B800080000E94AB1D4981242F30E0AFEFBFEFD2
:103B90000E94502925E030E040E050E00E942029BA
:103BA000C9012C3764E13607C8F469E070E00E946F
:103BB000F82870938B0060938A0028960FB6F894CB
:103BC000DEBF0FBECDBFDF91CF91089525E02983E1
:103BD00080918000806280938000D5CF2A50374D3D
:103BE0004F4F5F4FB42FA32F922F8827BC01CD01D9
:103BF00025EF38E241E050E00E94202929833A83F2
:103C00004B835C83CA01B9010E94E8289B01AC0187
:103C100069817A818B819C810E94E828BB27A92F2A
:103C2000982F872FBC010097A140B10511F66FEFC7
:103C30007FEFBFCF08950E94A81D82E2809380008D
:103C400089E1809381008FEF9FEF909387008093AD
:103C500086000C94AA1C9C01AB016A9A6EB16B7F22
:103C60007EB17460EFB7F894CA01880F991F840F72
:103C7000951F820F931F8217930741F4EFBF8FE5C3
:103C800094E00197F1F700C000000895D9014D912B
:103C90009D0158E07EB9000000C047FF6EB9440F97
:103CA000000000C000C000C06EB900C05A9591F776
:103CB000E2CF0F931F93CF93DF93C42FD22FFC013A
:103CC00082818823C9F0409385020E94D32190937A
:103CD00084028093830280E28C0F883008F050C009
:103CE000C77081E001C0880FCA95EAF7DF91CF91D4
:103CF0001F910F910C94F00510918502141335C09B
:103D000080918302909184020E94FF21883C91055A
:103D100060F5C0E2CD0F1D17B9F080E2810F883049
:103D200040F4177081E001C0880F1A95EAF70E94ED
:103D3000F705C83048F481E09D2F977001C0880FC7
:103D40009A95EAF70E94F005802F0E94E805C83096
:103D5000B8F4D77081E001C0880FDA95EAF7DF91F7
:103D6000CF911F910F910C94F70580E28C0F883052
:103D700038F4C77081E001C0880FCA95EAF7EFCF29
:103D8000DF91CF911F910F9108950F939C01CB016B
:103D9000243F4CE53407A1F190F4293DFCE53F07B1
:103DA00049F12A3D4CE53407E9F1283D3C45C1F095
:103DB000FC0182818823E1F11092850219C0263F1F
:103DC000FCE53F0719F1273F4CE5340729F1253F72
:103DD0003C4571F707E225EE44EE65EF7CE505C052
:103DE00006E221EE41EE68ED7CE50E94591E80E07E
:103DF0000F91089507E225EE45EE69ED7CE5F5CFDC
:103E000006E221EE40EE64EF7CE5EFCF06E221EE24
:103E100042EE66EF7CE5E9CF07E225EE46EE67EF7E
:103E20007CE5E3CF08E221E045EE6AED7CE5DDCFFD
:103E300081E0DECFCF93DF93EC01FB018281882309
:103E400009F4DFC0C430FDE5DF0710F5CB3F9CE58A
:103E5000D90730F49E0122503C4524313105E0F46D
:103E60000E94D50F9093B4028093B302C631FCE553
:103E7000DF0710F5C2308CE5D80788F48091B302D3
:103E80009091B4020E94E30F0E94A20880E004C057
:103E9000C236EDE5DE0721F3DF91CF910895FE01F3
:103EA000E350FC458091B3028160E331F10518F5E0
:103EB000E050F64D0C944229C4309DE5D90770F4CA
:103EC000CB3FECE5DE07D0F2FE01EC5FFC45E830CD
:103ED000F105E0F4ED5EF54D0C944229C236DD4566
:103EE00069F69091B302892F8F7E94FF806103C0A1
:103EF0008091B30282608093B302C0CF8091B302FD
:103F00008460F9CF8091B3028860F5CF8091B402CC
:103F100081608093B402B2CF8091B4028260F9CF05
:103F20008091B3028061E7CF8091B3028062E3CFDA
:103F30008091B3028064DFCF0E94A2088091B30217
:103F40008068D9CF8091B3028C60D5CF8091B402C4
:103F50008360DFCF8091B3028E7FCDCF8091B3029B
:103F60008D7FC9CF8091B3028B7FC5CF8091B30283
:103F7000877FC1CF8091B4028E7FCBCF8091B40276
:103F80008D7FC7CF8091B3028F7EB5CF8091B30272
:103F90008F7DB1CF8091B3028F7BADCF0E94A208FD
:103FA0008091B3028F77A7CF8091B302837FA3CF95
:103FB0008091B4028C7FADCF8091B30282FB9927B0
:103FC00090F921E0922790FB82F990FB83F993CF3F
:103FD0008091B402982F909591708E7F892B90FBE1
:103FE00081F997CF0E94A2089091B302892F97FB85
:103FF00087F9805880CF81E00E9469103FCF80E030
:10400000FBCF81E049CFCF93DF93EB0186319C4515
:1040100011F50E94FC0E9A81992399F08A7A91E019
:1040200009F490E090938602811109C089E20E9410
:10403000B60E0E944F0F80E0DF91CF91089585E387
:10404000F6CF80918602811104C089E20E94BD0EE4
:10405000F0CF85E3FBCF81E0EFCF90938C0280938C
:104060008B020895E0918B02F0918C02309721F041
:104070000190F081E02D099480E00895DC01E09149
:104080008B02F0918C02309799F080911F01882368
:1040900051F08091B30287FF06C08C9111968C93EA
:1040A000119785E08C930280F381E02DCD01099476
:1040B00008952091890230918A022817390771F0FA
:1040C00090938A0280938902E0918B02F0918C0296
:1040D000309721F00680F781E02D09940895209112
:1040E0008702309188022817390771F0909388026F
:1040F00080938702E0918B02F0918C02309721F03F
:104100000084F185E02D09940895FC013296809198
:104110001F01882321F08091B3029EE187FF96E082
:1041200080E0915008F4089521912223D1F38F5F0C
:10413000F8CF9C01662301F180911F018823F1F0E3
:104140008091B30287FF1AC0462F46954695469543
:10415000603F90F4677081E090E002C0880F991F83
:104160006A95E2F7240F311DF901228130E02823FE
:10417000392381E0232B71F480E00895F901329610
:10418000285F3F4F8191861721F0E217F307D1F79F
:10419000F3CF81E008959C01FC0132968FEF90E00F
:1041A0004191461751F08F3F19F4411101C0892FF9
:1041B0009F5F9630A9F78F3F09F40895280F311DAE
:1041C00087FD3A95F901628308959C01FC013296BE
:1041D000285F3F4F8191861303C0DF0111971C9226
:1041E000E217F307B9F70895FC01862F86958695A7
:1041F0008695603F60F4E80FF11D677021E030E0C4
:1042000001C0220F6A95EAF78281822B828308958A
:10421000FC01862F869586958695603F68F4E80FA9
:10422000F11D677081E090E001C0880F6A95EAF7A0
:104230008095928189238283089520911F012223F2
:1042400029F02091B30227FD0C94F4200C94CB208C
:1042500020911F01222329F02091B30227FD0C9405
:1042600008210C94E520FC01329680911F018823DF
:1042700051F08091B30287FF06C08EE1DF011D92ED
:104280008A95E9F7089586E0F9CF0895089508958D
:104290000C94472180910B03843009F42EC00E94B6
:1042A000482180E00E94AD1D80E00E94A7040E948A
:1042B000811A10928D0288E190E020E40FB6F89404
:1042C000A895809360000FBE2093600083B7817F24
:1042D000846083BF83B7816083BF7894889583B7F8
:1042E0008E7F83BF0FB6F894A89580916000886197
:1042F00080936000109260000FBE08950895CF93E0
:104300000E9446210E9498140E947E21C0E08C2FBA
:104310000E94BD13892B31F4CF5FC630C1F780E016
:10432000CF91089581E0FCCF08950C9494210E94D0
:10433000A2080E94AA1C0E9432200E94A7040E9488
:10434000651B0C9495211F921FB61F9211248F9309
:104350009F93AF93BF9380918D02811113C0809181
:10436000030390910403A0910503B09106034196C5
:10437000A11DB11D8093030390930403A093050333
:10438000B0930603BF91AF919F918F911F901FBE75
:104390001F90189582E084BD93E095BD9AEF97BD7C
:1043A00080936E0008952FB7F89480910303909145
:1043B0000403A0910503B09106032FBF0895CF9386
:1043C000DF9300D000D0CDB7DEB78FB7F89420913F
:1043D00003033091040340910503509106032983A0
:1043E0003A834B835C838FBF69817A818B819C8107
:1043F0000F900F900F900F90DF91CF9108959C0137
:104400004FB7F8948091030390910403A0910503A2
:10441000B09106034FBF821B930B089578941F92AF
:104420001FB61F9211248F939F93AF93BF938091D8
:10443000030390910403A0910503B0910603019634
:10444000A11DB11D8093030390930403A093050362
:10445000B0930603BF91AF919F918F911F901FBEA4
:104460001F90189581E08093E00080E28093D8004F
:104470001092C9008FE19EE40197F1F700C000009F
:1044800087E090EBDC018093140390931503A093D5
:104490001603B093170388E19CE00FB6F894A89533
:1044A000809360000FBE90936000FFCF9093B9019E
:1044B0008093B80108958091B102089590910B0303
:1044C000943031F580938E0260938F027093900246
:1044D00082E08093E9008FEF9091E800815095FD94
:1044E00006C095ED9A95F1F700008111F5CF809106
:1044F000E80085FF0DC050E040E063E070E08EE82A
:1045000092E00E9461248091E8008E778093E80019
:104510000895BC0184E00C945E22BC0183E00C94FD
:104520005E22CF93DF93D82FC92F80911F0188235C
:10453000C1F18091B30287FF34C060E282E08093D2
:10454000E9008FEF9091E800815095FD06C095ED50
:104550009A95F1F700008111F5CF8091E80085FF71
:104560001DC080911F0170E050E040E0811104C047
:1045700050E040E068E070E08D2F9C2F0E946124A5
:104580008091E8008E778093E80080E2ED2FFC2F89
:10459000A1E9B2E001900D928A95E1F7DF91CF9108
:1045A000089568E081E0CBCF089580910A038111DE
:1045B00009C00E94E9250E9446268091E20084609D
:1045C0008093E200089510920A03089508950895D3
:1045D000089542E061EC81E00E94652542E261ECD1
:1045E00082E00C94652580910D03893089F148F4AF
:1045F000823009F49DC0833009F458C0813041F005
:1046000008958A3009F484C08B3009F46AC0089593
:1046100080910C03813A09F048C08091E800877FBF
:104620008093E8008091100390911103892B61F42D
:1046300060E281E992E070E00E94B0248091E8009D
:104640008B778093E800089560E090E080E0F3CFFE
:1046500080910C03813249F58091100390911103F0
:10466000029718F58091E800877F8093E800809199
:10467000E80082FF16C09091F3008091F20002974B
:1046800029F48091F1008B7F813021F48091F10039
:104690008093B1028091E8008B778093E8000C94BE
:1046A000992580910B038111E2CF089580910C032D
:1046B000813AD9F78091100390911103892BA9F7C2
:1046C0008091E800877F8093E8008091E80080FF78
:1046D000FCCF80911F018093F1008091E8008E77DC
:1046E000DCCF80910C03813201F78091100390910F
:1046F0001103892BD1F68091E800877F8093E80031
:104700000E94992580910E0380931F010C94A208AA
:1047100080910C03813249F68091E800877F809375
:10472000E8000E94992580910F038093B2020895BA
:1047300080910C03813A09F0B8CF8091E800877F1F
:104740008093E8008091E80080FFFCCF8091B20266
:10475000C2CF84B7877F84BF0FB6F894A8958091A5
:104760006000886180936000109260000FBE80E856
:1047700090E00FB6F89480936100909361000FBEB3
:104780000C948F100E94E9250E944626E2EEF0E08C
:1047900080818460808378940E94CD280E94A31039
:1047A00085E191E00C942D2080910B03853031F44C
:1047B00080910B03853021F00E9497210C94AD105D
:1047C0000E944A2180910903882391F30E947F214E
:1047D000882371F30E944B240E94A208E9CF0C9415
:1047E000F123FC01CB01DA012F2F332723303105D0
:1047F000D1F070F42130310509F43EC0223031058A
:1048000069F48BE390E02DEE35E02D933C93089511
:1048100021323105E9F02232310521F190E080E0CA
:1048200030E020E0F2CFCF019927E13059F082301B
:10483000910559F0E9EEF5E0892B81F7849190E03C
:104840009F01E3CFE1EDF5E0F9CFE3ECF5E0F6CF42
:10485000892BB9F06130710509F789E090E028E112
:1048600036E0D3CF892B91F061307105B9F68DE632
:1048700090E02AE336E0C9CF82E190E028E236E01A
:10488000C4CF89E090E02FEF35E0BFCF80E490E027
:1048900027EA36E0BACF80E189BD82E189BD09B45B
:1048A00000FEFDCF8091D8008F7D8093D80080914D
:1048B000E00082608093E0008091E00081FDFCCF09
:1048C0000895AF92BF92CF92DF92FF920F931F9302
:1048D000CF93DF936C01EB018A010E94B825F82E7B
:1048E000811123C00115110539F0F80180819181F2
:1048F000C81BD90BC80ED91EB12CA12C2097A9F02A
:104900008091E80085FD22C08091E8008E77809339
:10491000E80001151105A1F0F80180819181A80E30
:10492000B91EB182A08285E0F82E8F2DDF91CF9144
:104930001F910F91FF90DF90CF90BF90AF9008959F
:104940000E94B8258823D1F2F82EEFCFF60181918D
:104950006F018093F1002197FFEFAF1ABF0ACECF0E
:10496000FC01CB0120911203309113032617370766
:1049700090F0009729F42091E8002E772093E8002A
:1049800040E0009751F4411108C08091E80082FF97
:1049900031C080E00895C901F3CF20910B03222399
:1049A000A9F12530A9F12091E80023FD2DC0209127
:1049B000E80022FDEACF2091E80020FFE2CF30910D
:1049C000F3002091F200009719F02830310558F0DB
:1049D00041E02830310509F040E02091E8002E77D1
:1049E0002093E800CECF41914093F10001972F5FD3
:1049F0003F4FE9CF80910B03882341F0853041F090
:104A00008091E80083FFC1CF81E0089582E008959E
:104A100083E00895FC01CB01209112033091130330
:104A20002617370790F0009729F42091E8002E7799
:104A30002093E80040E0009751F4411108C08091B4
:104A4000E80082FF32C080E00895C901F3CF2091D1
:104A50000B032223B1F12530B1F12091E80023FDB1
:104A60002EC02091E80022FDEACF2091E80020FF2F
:104A7000E2CF3091F3002091F200009719F0283036
:104A8000310558F041E02830310509F040E020912F
:104A9000E8002E772093E800CECF44914093F100B8
:104AA000319601972F5F3F4FE8CF80910B0388230A
:104AB00041F0853041F08091E80083FFC0CF81E074
:104AC000089582E0089583E00895982F973028F0A4
:104AD0008F708093E90081E008959093E900242F7E
:104AE000762F50E0981731F07091EC002091ED0096
:104AF0005091F00021FD02C09F5FE8CF3091EB00A4
:104B00003E7F3093EB003091ED003D7F3093ED0020
:104B10003091EB0031603093EB007093EC00209308
:104B2000ED005093F0002091EE0027FDE5CF80E0EE
:104B3000089580910C0387FF13C08091E80082FFE5
:104B400006C08091E8008B778093E80004C08091D4
:104B50000B038111F2CF089580910B038823D9F3C1
:104B60008091E80080FFF8CF8091E8008E77ECCF4D
:104B70002091E4003091E50095E6A9012091EC0038
:104B8000822F817020FF06C08091E80080FF06C060
:104B900080E008952091E80022FD1AC080910B0367
:104BA000882389F0853089F08091EB0085FD0FC066
:104BB0002091E4003091E50042175307F9F291503B
:104BC000E1F684E0089582E0089583E0089581E0AD
:104BD00008950E9457260E945F26E0EEF0E0808153
:104BE00081608083E8EDF0E080818F77808319BC5D
:104BF000A7EDB0E08C918E7F8C9380818F7E808337
:104C000010920A0308950F931F93CF93DF930E948E
:104C100057260E945F26C8EDD0E088818F77888371
:104C200088818068888388818F7D888319BC1092F1
:104C30000B0310920703109209031092080300EE71
:104C400010E0F80180818B7F808388818160888378
:104C500042E060E080E00E946525E1EEF0E08081C6
:104C60008E7F8083E2EEF0E08081816080838081AE
:104C700088608083F80180818E7F80838881806155
:104C80008883DF91CF911F910F910895E8EDF0E0B7
:104C900080818F7E8083E7EDF0E08081816080837A
:104CA00084E082BF81E080930A030C940326E8ED40
:104CB000F0E080818E7F80831092E2000895109250
:104CC000DA001092E10008951F920F920FB60F9232
:104CD00011242F933F934F935F936F937F938F9301
:104CE0009F93AF93BF93EF93FF938091E10082FF77
:104CF0000BC08091E20082FF07C08091E1008B7FB2
:104D00008093E1000E94CC288091DA0080FF19C0D6
:104D10008091D80080FF15C08091DA008E7F80934B
:104D2000DA008091D90080FF94C080E189BD82E1E2
:104D300089BD09B400FEFDCF81E080930B030E9482
:104D4000D5228091E10080FF19C08091E20080FFB0
:104D500015C08091E2008E7F8093E2008091E20096
:104D600080618093E2008091D80080628093D800B7
:104D700019BC85E080930B030E94E7228091E1003B
:104D800084FF29C08091E20084FF25C080E189BDB5
:104D900082E189BD09B400FEFDCF8091D8008F7DEE
:104DA0008093D8008091E1008F7E8093E100809114
:104DB000E2008F7E8093E2008091E2008160809328
:104DC000E20080910703882309F449C084E08093BE
:104DD0000B030E94E8228091E10083FF29C08091AB
:104DE000E20083FF25C08091E100877F8093E1008E
:104DF00082E080930B03109207038091E1008E7F85
:104E00008093E1008091E2008E7F8093E2008091A8
:104E1000E20080618093E20042E060E080E00E9476
:104E200065258091F00088608093F0000E94E62262
:104E3000FF91EF91BF91AF919F918F917F916F9172
:104E40005F914F913F912F910F900FBE0F901F9048
:104E5000189519BC10920B030E94E32272CF809127
:104E6000E30087FD02C081E0B2CF83E0B0CF1F92A4
:104E70000F920FB60F9211242F933F934F935F938E
:104E80006F937F938F939F93AF93BF93CF93DF9352
:104E9000EF93FF93D091E900DF708091EC00C82F71
:104EA000C17080FDC0E81092E9008091F000877F1A
:104EB0008093F00078940E947B271092E900809103
:104EC000F00088608093F000CD2BCF70C093E90094
:104ED000FF91EF91DF91CF91BF91AF919F918F9112
:104EE0007F916F915F914F913F912F910F900FBEE6
:104EF0000F901F9018951F93CF93DF93CDB7DEB718
:104F0000AA970FB6F894DEBF0FBECDBF8CE093E03A
:104F1000FC0101962091F100208323E08431920767
:104F2000B9F70E94F3228091E80083FF1DC18091B0
:104F30000C0390910D039A3008F016C1E92FF0E0B0
:104F4000E55EF54D0C944229803899F0823809F0DD
:104F50000BC1809110038F70873008F005C18093DA
:104F6000E9008091EB0085FB882780F91092E90029
:104F700006C080910803909109039111826090917D
:104F8000E800977F9093E8008093F1001092F10081
:104F90008091E8008E77E4C0882309F4D2C0823083
:104FA00009F0E2C080910E038111D5C080911003F9
:104FB0008F702FEF280F263008F0D6C08093E900BD
:104FC0002091EB0020FFC7C0933031F48091EB00BB
:104FD00080628093EB00BFC09091EB009061909352
:104FE000EB0021E030E001C0220F8A95EAF7209320
:104FF000EA001092EA008091EB008860EACF81110C
:10500000B3C010910E031F778091E3008078812B4D
:105010008093E3008091E800877F8093E8000E94FE
:1050200099258091E80080FFFCCF8091E3008068A3
:105030008093E30082E0111183E080930B0394C01E
:105040008058823008F090C080910E0390910F0339
:105050008C3D23E0920799F583E08A838AE2898375
:105060004FB7F894DE01139620E03EE051E2E32FC3
:10507000F0E050935700849120FF03C082958F7019
:105080003F5F8F708A30C8F0895C90E08D939D936C
:105090002F5F243161F74FBF8091E800877F8093B5
:1050A000E8006AE270E0CE0101960E94B02480918F
:1050B000E8008B778093E80057C0805DE6CF609171
:1050C000100370911103AE014F5F5F4F0E94EF23F9
:1050D000BC01892B09F448C08091E800877F809348
:1050E000E80089819A810E940A25E1CF8038E1F5A4
:1050F0008091E800877F8093E80080910703809388
:10510000F10046CF811130C090910E03923060F5CE
:105110008091E800877F8093E800909307030E94C6
:10512000992580910703882311F084E005C08091C0
:10513000E30087FDFACF81E080930B030E94E92210
:1051400013C080910E03813079F481E0933009F02F
:1051500080E0809309031092E9008091E800877F46
:105160008093E8000E9499258091E80083FF0AC09F
:105170008091E800877F8093E8008091EB00806257
:105180008093EB00AA960FB6F894DEBF0FBECDBF9A
:10519000DF91CF911F9108950895CF9380910B03D4
:1051A0008823A1F0C091E900CF709091EC00892F85
:1051B000817090FD80E8C82B1092E9008091E80092
:1051C00083FD0E947B27CF70C093E900CF910895A3
:1051D000DB018F939F930E946629BF91AF91A29F9D
:1051E000800D911DA39F900DB29F900D11240895E5
:1051F000AA1BBB1B51E107C0AA1FBB1FA617B707FD
:1052000010F0A61BB70B881F991F5A95A9F7809518
:105210009095BC01CD01089597FB072E16F40094DC
:1052200007D077FD09D00E94F82807FC05D03EF48E
:10523000909581959F4F0895709561957F4F089542
:10524000A1E21A2EAA1BBB1BFD010DC0AA1FBB1F8A
:10525000EE1FFF1FA217B307E407F50720F0A21BFC
:10526000B30BE40BF50B661F771F881F991F1A9469
:1052700069F760957095809590959B01AC01BD0193
:10528000CF010895EE0FFF1F0590F491E02D0994D2
:105290000E945029332312F48A1B9B0B0C94612922
:1052A000A29FB001B39FC001A39F700D811D112467
:1052B000911DB29F700D811D1124911D08950E94B2
:1052C0005029B7FF0895821B930B08950E9450291F
:1052D000A59F900DB49F900DA49F800D911D11244A
:1052E0000895B7FF0C9466290E946629821B930BD0
:1052F0000895FC014150504030F001900616D1F75E
:105300003197CF010895882799270895FB01DC0183
:1053100004C08D910190801921F441505040C8F78C
:10532000881B990B0895F999FECF92BD81BDF89A1B
:10533000992780B50895A6E1B0E044E050E00C94D0
:10534000CD29A8E1B0E042E050E00C94CD29262F11
:10535000F999FECF92BD81BDF89A019700B402166B
:1053600039F01FBA20BD0FB6F894FA9AF99A0FBE19
:1053700008950396272F0E94A8290E94A729252F68
:105380000E94A829242F0C94A8290196272F0E9457
:10539000A8290C94A729DC01CB01FC01F999FECFC7
:1053A00006C0F2BDE1BDF89A319600B40D924150AD
:1053B0005040B8F70895F894FFCF380638069A069B
:1053C0009A06EF066806680668060B07C007D1074D
:1053D000D1073108680668063A08471C4E1C531C62
:1053E000581C5D1C621C671C6C1C711C761C7B1C91
:1053F0007F1C841C871C8A1C8D1C901C921C951C75
:10540000781F7E1F821F901F941F981F9C1FA21F32
:10541000AA1FAE1FB21FB61FC21FC61FCA1FCE1FB4
:10542000D41FF21FDC1F8C1FBA1FBE1FA61FD81F60
:10543000E81FFB1FFF1FA427CC27B428CC27B428C4
:0A544000FF272028B42876288228D0
:10544A003902010102001000101001191A1B1C1D5B
:10545A001E1F2021225B229122D4228D2289220121
:10546A00E200E900EA00B500B600B700CD0083010A
:10547A00CC008A019201940121022302240225020E
:10548A00260227022A02B300B4006F007000E2006D
:10549A00E900EA00B500B600B700CD008301CC00F0
:1054AA008A01920194012102230224022502260282
:1054BA0027022A02B300B4006F007000F0F1C66739
:1054CA0066F59431303534979633F4F69091929389
:1054DA0095370001020202020606060909090909AE
:1054EA00090F0F0F0F0F0F1515151819191919197B
:0854FA001919191919232400E6
:00000001FF
