:100000000C9414030C945B030C945B030C945B033F
:100010000C945B030C945B030C945B030C945B03E8
:100020000C945B030C945B030C9404260C94D7266D
:100030000C9443210C945B030C945B030C945B03C2
:100040000C945B030C945B030C945B030C945B03B8
:100050000C945B030C94AE210C945B030C945B0337
:100060000C945B030C945B030C945B030C945B0398
:100070000C945B030C945B030C945B030C945B0388
:100080000C945B030C945B030C945B030C945B0378
:100090000C945B030C945B030C945B030C945B0368
:1000A0000C945B030C945B030C945B0329003A00F3
:1000B0003B003C003D003E003F004000410042004C
:1000C000430044004500460049004C0035001E0036
:1000D0001F0020002100220023002400250026000C
:1000E00027002D002E002A002A004A002B000000C5
:1000F00014001A000800150017001C0018000C005E
:10010000120013002F00300031004D003941000073
:1001100004001600070009000A000B000D000E0085
:100120000F0033003400280000004B00E100E10024
:100130001D001B000600190005001100100036000C
:10014000370038000000E50052004E00E000E300F8
:100150000000E2002C0000002C0000002C00000039
:10016000E600E400E400500051004F002942000086
:10017000000000000000000000000000000000007F
:100180000000000000004800000000000000000027
:10019000000000000000000000000000000000005F
:1001A000000000000000000000000000000000004F
:1001B000A900000000000000000000000000000096
:1001C00000000000AC00AB00AE000000000000002A
:1001D000AA00000000000000000000000000000075
:1001E00000000000000058000000000001000100B5
:1001F000A800000000000000000000000000000057
:1002000000000000000001000000000001000100EB
:1002100000000100000000000000000000000000DD
:1002200001000100010000000000000000000000CB
:1002300000000000000000000000000000000000BE
:1002400000000000005C00000000A60000000000AC
:10025000000000000000000000000000000000009E
:10026000000000000000000000000000000000008E
:10027000C35CC45CC75CC65CC95CC85CCB5CCA5C64
:10028000000000000000000000000000000000006E
:10029000000000000000000000000000000000005E
:1002A000000000000000000000000000010001004C
:1002B000C05CC25CBE5CBF5C0000000000000000CF
:1002C000000000000000010000000000010000002C
:1002D000000001000000000000000000000000001D
:1002E00001000100010000000000000000047F3F49
:1002F0001F643214643214783C1E1E140A05222333
:10030000252628292A2C2D2F3032333536383A3BF2
:100310003D3E4042434547494A4C4E505153555744
:10032000595A5C5E6062646668696B6D6F71737563
:1003300077797B7D7F81838587898A8C8E90929463
:1003400096989A9C9E9FA1A3A5A7A8AAACAEAFB170
:10035000B3B4B6B8B9BBBCBEBFC1C2C3C5C6C7C9BA
:10036000CACBCCCDCED0D1D2D2D3D4D5D6D7D7D874
:10037000D9D9DADADBDBDBDCDCDCDCDCDDDDDDDDC6
:10038000DCDCDCDCDCDBDBDBDADAD9D9D8D7D7D6CE
:10039000D5D4D3D2D2D1D0CECDCCCBCAC9C7C6C585
:1003A000C3C2C1BFBEBCBBB9B8B6B4B3B1AFAEACCB
:1003B000AAA8A7A5A3A19F9E9C9A98969492908E76
:1003C0008C8A89878583817F7D7B79777573716F4F
:1003D0006D6B6968666462605E5C5A59575553512B
:1003E000504E4C4A4947454342403E3D3B3A3836E1
:1003F000353332302F2D2C2A292826252322FFAAF7
:100400007F554000010101010101010101020202C9
:1004100002020202020203030303030303030404B0
:10042000040404040405050505050606060606077A
:100430000707070708080808090909090A0A0A0B33
:100440000B0B0C0C0C0D0D0D0E0E0E0F0F0F1010D4
:10045000111111121213131414151516161717185B
:100460001819191A1A1B1B1C1D1D1E1E1F202021C6
:100470002222232424252626272829292A2B2C2D0D
:100480002D2E2F30313232333435363738393A3B2E
:100490003C3D3E3F404142434445464748494A4C23
:1004A0004D4E4F50515354555658595A5B5D5E5FEF
:1004B000616264656668696B6C6D6F707273757785
:1004C000787A7B7D7E8082838587888A8C8E8F91E7
:1004D000939596989A9C9EA0A2A3A5A7A9ABADAF11
:1004E000B1B3B5B7BABCBEC0C2C4C6C9CBCDCFD1FB
:1004F000D4D6D8DBDDDFE2E4E7E9EBEEF0F3F5F8A4
:10050000FAFDFF0C034B00420044003700350000A9
:1005100000160371006D006B006200750069006CCD
:100520000064006500720000000403090409023B36
:1005300000020100A0FA0904000001030101000902
:1005400021110100012240000705810308000A096A
:100550000401000103000000092111010001226DC6
:10056000000705820320000A1201000200000008B3
:10057000424B616002000102000105010980A101F6
:10058000850319012AB700150126B70095017510DA
:100590008100C0050C0901A101850419012AA002EE
:1005A000150126A002950175108100C005010906FC
:1005B000A1018505050719E029E715002501950822
:1005C000750181020507190029EF1500250195F035
:1005D000750181020508190129059505750191022A
:1005E000950175039101C005010906A101050719CF
:1005F000E029E7150025019508750181029501752F
:100600000881010507190029FF150026FF0095063E
:1006100075088100050819012905950575019102E4
:10062000950175039101C00011241FBECFEFDAE0E0
:10063000DEBFCDBF04B603FE27C0809114039091A6
:100640001503A0911603B09117038730904BA74074
:10065000B04BD1F4109214031092150310921603AC
:100660001092170314BE84B7877F84BF0FB6F89427
:10067000A89580916000886180936000109260006E
:100680000FBEE0E0F8E3099511E0A0E0B1E0EAE890
:10069000F3E502C005900D92A83BB107D9F723E01E
:1006A000A8EBB1E001C01D92A431B207E1F70E94AE
:1006B000C0140C947B290C94000080FD06C083E5D7
:1006C0000E94990483E50C942205089581E0089521
:1006D00081E008950C94680308950C946C031F93B3
:1006E000CF93DF9300D000D00F92CDB7DEB7498310
:1006F0005A836B833091BA0189819A8131111DC06F
:100700006623B9F02223A9F00E94BD0A182F682F92
:1007100089819A810E94690A69817A81812F0F906B
:100720000F900F900F900F90DF91CF911F910C942D
:1007300000110E94950A182FEFCF0E94BD0A69810F
:100740007A81EDCFFC01262F408151816281738136
:1007500084810C946F0381E00895CF93DF93D82FA9
:10076000C92F60E00E94A2036D2F7C2FDF91CF91F3
:100770000C946D030E941F130E9444040E94BB1D31
:100780000C9458130C945B1308950E9442080E9425
:10079000C4032FEF84E39CE0215080409040E1F7B8
:1007A00000C000000C94D2210F931F93CF93DF93CE
:1007B0008C0161E00E94A203EC01B8010E946A036F
:1007C000882309F441C0B801CE010E94151D882379
:1007D000D9F1B801CE010E94651E8823A9F1B801A4
:1007E000CE010E94BA1E882379F1B801CE010E9481
:1007F000A31F882349F1B801CE010E94BC1B8823A6
:1008000019F1F8018281882361F0CB35FDE5DF071E
:1008100021F170F4C115ECE5DE07A1F0CF3DDC4518
:10082000C9F0C801DF91CF911F910F910C9466031D
:10083000CC358DE5D807A1F0CD35DD4591F70E9487
:100840008D0EEFCF0E94C50380E0DF91CF911F9105
:100850000F9108950E940710F7CF0E94960EE1CFE6
:100860000E94990EDECF0C945D0381E00895CF9332
:10087000C82F0E943504882319F0C1FD03C02A9AAD
:10088000CF9108952A98FCCF229A2A9A0895CF935F
:10089000C82F0E9433048C2FCF910C943704EF9211
:1008A000FF920F931F93CF93DF93CDB7DEB72B97B4
:1008B0000FB6F894DEBF0FBECDBF042F4F83152FA8
:1008C000588769877A878B87EA84FB8461110E9445
:1008D000BE0E1E8285E0FE013796DE011196019064
:1008E0000D928A95E1F7EF28A9F449815A816B812D
:1008F0007C818D819E810E94BC0D2B960FB6F89451
:10090000DEBF0FBECDBFDF91CF911F910F91FF9042
:10091000EF90089510231F3F41F3CE0101960E94EE
:10092000AB038111E2CFE9CFFC01808191810C946E
:10093000FF0ACF93C82F882309F482C08238C1F4FC
:100940000E94D21F81FD7CC089E30E94560E0E9446
:10095000EF0E2FEF31EE84E0215030408040E1F780
:1009600000C0000089E30E945D0ECF910C94EF0E51
:100970008338A1F40E94D21F80FD62C083E50E94EB
:10098000560E0E94EF0E9FEF21EE34E09150204072
:100990003040E1F700C0000083E5E5CF8438A1F4E2
:1009A0000E94D21F82FD4CC087E40E94560E0E9416
:1009B000EF0E8FEF91EE24E0815090402040E1F760
:1009C00000C0000087E4CFCF8CEF8C0F813A90F409
:1009D0006C2F80910001909101010E9439208823A1
:1009E00029F08C2F0E945D0E0E94EF0E8C2F0E942A
:1009F000560EBBCF80E28C0F883048F4C77081E080
:100A000001C0880FCA95EAF70E949F0EAECF8BE512
:100A10008C0F833038F42C2F2452330BC901CF9123
:100A20000C94F91FC85AC73158F4EC2FF0E0EE0FC0
:100A3000FF1FE05EFE4F80819181CF910C940F20CB
:100A4000CF910895882309F44BC0823871F40E9435
:100A5000D21F81FF45C089E30E94560E0E94EF0E0F
:100A600089E30E945D0E0C94EF0E833859F40E94C6
:100A7000D21F80FF35C083E50E94560E0E94EF0E04
:100A800083E5EFCF843859F40E94D21F82FF28C03B
:100A900087E40E94560E0E94EF0E87E4E2CF9CEF9F
:100AA000980F913AF0F290E2980F983050F48770D6
:100AB00091E001C0990F8A95EAF7892F0E94A50E4F
:100AC000D2CF9BE5980F933020F490E080E00C9417
:100AD000F91F885A873120F490E080E00C940F20B1
:100AE00008951F93CF93DF93182FEB010E94990471
:100AF000209731F4812FDF91CF911F910C94220523
:100B00008FE99FE00197F1F700C000002197F0CF37
:100B100070E060E0893311F460E570E00C947105D9
:100B2000882321F00E949F0E0C94EF0E08958823D5
:100B300021F00E94A50E0C94EF0E0895AF92BF9283
:100B4000CF92DF92EF92FF920F931F93CF93DF9399
:100B500000D000D00F92CDB7DEB76C016D837983E2
:100B6000FC011281058102950F700E94740EE82E1F
:100B70008823A1F0E12E112389F08981807F8034C0
:100B800029F08D81805EE12C883040F082E00E9467
:100B9000400F0E94740E91E0E82EE926A980A294ED
:100BA0009FE0A922B12CF501E358F64D0C94E22800
:100BB00009810F70F981F07F11F00295007F1123F8
:100BC000B1F0002361F08D81805E883018F02D81B6
:100BD000211109C0802F0E949F0E0E94EF0E8D816F
:100BE0000E94990415C0802F0E94B00EF6CF8D810F
:100BF0000E942205002361F08D81805E883018F00C
:100C00004D81411133C0802F0E94A50E0E94EF0E2E
:100C100048E0A41AB10854E0A516B10420F40E94DB
:100C2000D21F0E944704EE2009F4CBC10E94700E2F
:100C300080FDC7C1F60112820E946A0E0E94590906
:100C4000C6010E9408080E946A0E0F900F900F9034
:100C50000F900F90DF91CF911F910F91FF90EF9028
:100C6000DF90CF90BF90AF900C948A09802F0E94A4
:100C7000B60ECCCF59815F70F52E6981607F6032EE
:100C800019F0F29480EFF8227D81772369F07130BA
:100C900049F1112391F1002351F1F601858180FF83
:100CA0009ECF8F70858323C0112381F0011106C070
:100CB0000E94D20E8F290E949005AACF0130C1F761
:100CC0000E94D20E8F290E94D80EA2CF011106C019
:100CD0000E94E50E8F2D0E9497059ACF013009F4EE
:100CE00097CFF6CF112329F0063008F091CF8F2D42
:100CF000E2CF053008F08CCFEDCF002359F3FD8112
:100D0000F93349F42FEF47EE53E021504040504073
:100D1000E1F700C000008D810E94220579CF898112
:100D200086958695837069F0813009F071CF8D8149
:100D300099819370111102C090E080E00E940F2011
:100D400067CF8D8199819370111102C090E080E08E
:100D50000E94F91F5DCF8981837009F050C0111185
:100D600057CF4D81429546954770440F440F8D8172
:100D70008F7090E0B0E0A0E0042E04C0880F991FAF
:100D8000AA1FBB1F0A94D2F76D8100E010E0980102
:100D900064FF0FC00FE010E020E030E004C0000F5F
:100DA000111F221F331F4A95D2F7009510952095E9
:100DB000309579817695769573707D83B901A80118
:100DC000482B592B6A2B7B2B49835A836B837C835B
:100DD0005D8169817A818B819C81523051F05330E1
:100DE00059F0513019F00E94CF0812CF0E94A70885
:100DF0000FCF0E94F7080CCF0E94A50809CF11233E
:100E000009F445C0698160FF03CF4D814295469545
:100E10004770440F440F8D818F7090E0B0E0A0E0E8
:100E2000042E04C0880F991FAA1FBB1F0A94D2F773
:100E3000ED8100E010E09801E4FF0FC00FE010E04A
:100E400020E030E004C0000F111F221F331F4A951D
:100E5000D2F70095109520953095F981F695F69585
:100E6000F370FD83B901A801482B592B6A2B7B2B0A
:100E700049835A836B837C83F230A1F0F330C9F04D
:100E8000F13049F0CB01BA010E94180AC1CE798134
:100E900071FFBECEBACF69817A818B819C810E941D
:100EA000F009B6CE69817A818B819C810E94400ACB
:100EB000AFCE69817A818B819C810E942309A8CE63
:100EC00059815F705983112329F0852F0E94590998
:100ED0008D81F1CE8D810E94970589810E948A09BA
:100EE00097CE6D81623F99F160F4603FD9F0613F28
:100EF00039F1112309F444C0011171CE89818F7138
:100F000023C07D81733F41F1743F99F7112371F143
:100F100089818F7189830E94590963E089810E94C8
:100F2000250F76CE112341F0053008F071CE89816E
:100F30008F710E94BF096CCE063008F069CEF7CFE2
:100F400089818F71112351F20E94590961CE8981E3
:100F50008F711123C9F3C2CF112329F089818F71B9
:100F60000E94340955CE0E942F0952CE81E00E9482
:100F7000400F023008F44CCE82E00E94400F48CE71
:100F8000002361F09D81993309F0C5CEEFEFF7EEB4
:100F900023E0E150F0402040E1F7BBCE89818F7122
:100FA0009DCF49814F706D81C6010E94FC100E9447
:100FB000350B2ECE49814F706D81C6010E94FF1006
:100FC00027CE0F900F900F900F900F90DF91CF9141
:100FD0001F910F91FF90EF90DF90CF90BF90AF9057
:100FE00008950F931F93CF93DF93EC01688179816C
:100FF0008A810E940B0B8C010E94680A0E94A4083F
:10100000B801CE01DF91CF911F910F910C949E05F5
:10101000CF93DF93EC018B819C81892B29F089810F
:10102000988189238F3F59F4DF91CF910895CE01A4
:101030000E94F107CE01DF91CF910C94AD03CE0158
:101040000E94D4038111F3CF0E94740E882361F3B0
:101050008A81882349F382E0DF91CF910C94400F7D
:1010600090E080E00E94F91F90E080E00E940F2055
:101070000E94BE0E0E94CF0E0C94EF0E0E94640ED2
:101080000C9430080E94AD0E0C943E08282F892F36
:1010900082958F70903C80F48A30B0F4843020F4D4
:1010A000823090F480E008958630E1F781E0283EB8
:1010B00088F0213FB9F70EC08C3011F08F3091F7D6
:1010C00093FB882780F9089581E0203F39F018F4D8
:1010D000283E40F70895243F29F7FCCF0895FC01EE
:1010E000808191810E94FF0A0C944608CF93DF9380
:1010F00000D000D00F92CDB7DEB70F900F900F90B9
:101100000F900F90DF91CF910895CF93DF9300D090
:1011100000D000D0CDB7DEB726960FB6F894DEBF6C
:101120000FBECDBFDF91CF91089508950C9495081F
:101130000E9496086093FB017093FC018093FD016F
:101140009093FE010C94300808950C949808CF9366
:10115000DF9300D000D0CDB7DEB769837A838B836D
:101160009C838091FB019091FC01A091FD01B091C5
:10117000FE0129813A814B815C81282B392B4A2B36
:101180005B2B29833A834B835C83CA01B9010F909F
:101190000F900F900F90DF91CF910C949808CF9300
:1011A000DF9300D000D0CDB7DEB769837A838B831D
:1011B0009C838091FB019091FC01A091FD01B09175
:1011C000FE0129813A814B815C81282339234A23FE
:1011D0005B2329833A834B835C83CA01B9010F9057
:1011E0000F900F900F90DF91CF910C949808CF93B0
:1011F000DF9300D000D0CDB7DEB769837A838B83CD
:101200009C838091FB019091FC01A091FD01B09124
:10121000FE0129813A814B815C81282739274A27A1
:101220005B2729833A834B835C83CA01B9010F9002
:101230000F900F900F90DF91CF910C9498080C9421
:1012400095080C941F090E9421096093F70170937F
:10125000F8018093F9019093FA010C94300860E052
:1012600070E0CB010C9423090F931F93CF93DF936E
:1012700000D000D0CDB7DEB741E050E060E070E0D4
:101280008A019B0104C0000F111F221F331F8A9582
:10129000D2F709831A832B833C83C901B8010F90CD
:1012A0000F900F900F90DF91CF911F910F910C94A1
:1012B00023090F931F93CF93DF9300D000D0CDB7B6
:1012C000DEB741E050E060E070E004C0440F551F1D
:1012D000661F771F8A95D2F78091F7019091F801E8
:1012E000A091F901B091FA018A019B01082B192BF9
:1012F0002A2B3B2B09831A832B833C83C901B8011A
:101300000F900F900F900F90DF91CF911F910F9141
:101310000C9423090F931F93CF93DF9300D000D039
:10132000CDB7DEB741E050E060E070E004C0440FAC
:10133000551F661F771F8A95D2F740955095609587
:1013400070958091F7019091F801A091F901B09109
:10135000FA018A019B01082319232A233B230983CD
:101360001A832B833C83C901B8010F900F900F9013
:101370000F90DF91CF911F910F910C9423090F9340
:101380001F93CF93DF9300D000D0CDB7DEB741E0FD
:1013900050E060E070E004C0440F551F661F771FE7
:1013A0008A95D2F78091F7019091F801A091F90107
:1013B000B091FA018A019B01082719272A273B27A8
:1013C00009831A832B833C83C901B8010F900F90C6
:1013D0000F900F90DF91CF911F910F910C942309E3
:1013E000CF93DF9300D000D0CDB7DEB769837A8387
:1013F0008B839C838091F7019091F801A091F90172
:10140000B091FA0129813A814B815C81282B392BDB
:101410004A2B5B2B29833A834B835C83CA01B90136
:101420000F900F900F900F90DF91CF910C942309A4
:10143000CF93DF9300D000D0CDB7DEB769837A8336
:101440008B839C838091F7019091F801A091F90121
:10145000B091FA0129813A814B815C81282339239B
:101460004A235B2329833A834B835C83CA01B901F6
:101470000F900F900F900F90DF91CF910C94230954
:10148000CF93DF9300D000D0CDB7DEB769837A83E6
:101490008B839C838091F7019091F801A091F901D1
:1014A000B091FA0129813A814B815C812827392743
:1014B0004A275B2729833A834B835C83CA01B9019E
:1014C0000F900F900F900F90DF91CF910C94230904
:1014D00008959295907FE92FE80F877041E001C051
:1014E000440F8A95EAF7E695E695E69585E0E89F4C
:1014F000F0011124E554FE4F30E020E070E05191FE
:10150000DF011197CB01022E02C0969587950A94B0
:10151000E2F7817081958527842385278C932F5F3F
:101520003F4F2530310559F70895E92FE295E07FC7
:10153000E80F982F9770E695E695E69585E0E89F89
:10154000F0011124E554FE4F50E040E080E021918D
:1015500030E0092E02C0369527950A94E2F72170F3
:101560003327042E01C0220F0A94EAF7822B4F5F23
:101570005F4F4530510559F70895BF92CF92DF92E2
:10158000EF92FF920F931F93CF93DF938C01C09044
:10159000F701D090F801E090F901F090FA01809104
:1015A000FB019091FC01A091FD01B091FE01C82AC0
:1015B000D92AEA2AFB2ACFE1D0E0BC2ED701C60106
:1015C0000C2E04C0B695A795979587950A94D2F7E7
:1015D00080FD0EC0219788F7B12C8B2DDF91CF9124
:1015E0001F910F91FF90EF90DF90CF90BF900895E3
:1015F000B8018C2F0E942612019761F3EECFCF9392
:10160000DF93D82FC92F0E94BD0A6D2F7C2FDF9149
:10161000CF910C9426121F93CF93DF93162FD72FC1
:101620009091BA01992339F0862F972FDF91CF91AE
:101630001F910C94FF0A882391F0862F972F0E9408
:10164000BD0AC82F682F812F9D2F0E94690A612F24
:101650007D2F8C2FDF91CF911F910C942612862F16
:10166000972F0E94950AC82FF2CFEF92FF920F9307
:101670001F93CF93DF938C01892B89F0F12CEE24FB
:10168000E394E8012196F8018491843709F458C065
:10169000A0F4823009F43FC048F48130D1F0DF91EA
:1016A000CF911F910F91FF90EF9008959CEF980FAD
:1016B0009037A8F70E9499040AC0853709F44EC0F4
:1016C0009CE7980F903758F78F770E9422058E017C
:1016D00016C00E5F1F4FFE01849190E2980F983064
:1016E00060F48770FE2D01C0FF0F8A95EAF78F2FF7
:1016F0000E94C10E0E94EF0E02C00E9499048F2D1D
:10170000882309F4BECFEFE9FFE03197F1F700C07D
:1017100000008150F5CF0E5F1F4FFE01849190E2D3
:10172000980F983050F48770FE2D01C0FF0F8A95F6
:10173000EAF78F2F0E94C70EDDCF0E942205DFCF70
:101740000E5F1F4FFE01C491CC23C9F28FE99FE0C9
:101750000197F1F700C00000C150F6CF0E5F1F4F98
:10176000FE01F490CCCF1F93CF93DF93E091FF0164
:1017700016E0809100028E1304C0DF91CF911F917B
:101780000895CE2FD0E01E9FF0011124EF5FFD4F92
:101790004081518162817381848195810E94850895
:1017A000FE013196E770E5CF40913102509132024F
:1017B000609133027091340280913502909136022B
:1017C0000C9485081F93CF93DF9380913602807F1E
:1017D000A9F480913302882389F08091FF01C091A0
:1017E00000027091310260913202A0913402B091F6
:1017F0003502D62FD72316E0C81304C0DF91CF914E
:101800001F91089590E0109711F0DF3F19F40196B1
:101810008770F2CF189F9001199F300D1124F901A4
:10182000EF5FFD4F41816413F2CF40814713EFCF4B
:1018300042814111ECCF438154814A1B5B0B483CF0
:10184000510528F7809136028F70806180933602AF
:10185000F901EA5FFD4F80818F708061808381E3B1
:1018600092E00E940808DF91CF911F910C94B30B76
:10187000AF92BF92CF92DF92EF92FF920F931F939E
:10188000CF93DF93CDB7DEB72B970FB6F894DEBFBB
:101890000FBECDBF8C0185E0F801DE0117960190E7
:1018A0000D928A95E1F7F801E28081E3A82E82E0AB
:1018B000B82E60913402709135026115710549F0BE
:1018C0002091310290913202892F82238F3F09F0BB
:1018D0003CC1EE2009F44CC1C8010E946F08F82EEB
:1018E000882309F445C186E0F801A1E3B2E0019044
:1018F0000D928A95E1F781E392E00E9494040E94A0
:10190000E20B20C180913602382F307F683C710590
:1019100008F07CC03111B2C0FE2C951324C02413F2
:1019200022C0E11020C08F708061809336020E9437
:10193000D40B81E392E00E94080880913602F801FE
:1019400085838F2D2B960FB6F894DEBF0FBECDBFCB
:10195000DF91CF911F910F91FF90EF90DF90CF908B
:10196000BF90AF9008954F835887CD2829F0842FDA
:1019700085238F3F09F07FC080E0F82FF170DF2EC4
:10198000E091FF012091000236E080FD1CC0EE20B6
:10199000C1F280913602816080933602F12CD1CF62
:1019A0008E2F90E03E9FF0011124EF5FFD4F61818B
:1019B000651306C06081641303C062816E11E7CFB6
:1019C000FC013196E770E213EBCF8F8198850E947E
:1019D000FF0A292F22952F70903260F0225F2F701E
:1019E000223078F49F7051F0F8019581907F31F4A6
:1019F000D12C0AC09F7011F08823D1F3805E88300B
:101A0000B8F3C8010E940808FD2C9BCF311168C0B3
:101A10006E2D7A858B850E94760881E392E00E9484
:101A2000080886E0F50111928A95E9F70E94D40B27
:101A3000B5CF86E0F801A1E3B2E001900D928A955E
:101A4000E1F77FCFC8010E946F0881113AC08091F1
:101A50003602816080933602C8010E94080871CF67
:101A60006E2D7A858B850E94760886E0F5011192AD
:101A70008A95E9F767C081E08E257FCF951306C070
:101A8000241304C0F801EE2009F450C0C8010E94DC
:101A90006F08882309F46CC0EE2009F469C08091B6
:101AA0003602803270F020913102309132023A8356
:101AB00029831B82DD82CC828E83CE0101960E9417
:101AC000080886E0F801A1E3B2E001900D928A9542
:101AD000E1F70E94E20B0E94D40BFF24F39431CF74
:101AE0009513D4CF2413D2CFE110D0CFF801858342
:101AF000C8010E94080886E0F50111928A95E9F76D
:101B000020CF95139FCF24139DCF8091360280FD67
:101B100090CF982F907F09F48CCFF8018583903F68
:101B200031F0982F907F905F8F70892B8583C8014B
:101B30000E94080886E0F801A1E3B2E001900D924E
:101B40008A95E1F70E94D40BFCCE40815181C3807D
:101B5000D480F0903302F601E61BF70BBF01F110C1
:101B6000D1CE683C710508F07BCFFE2CE110C9CFC7
:101B7000C8010E940808B1CF1F93CF93DF93CDB760
:101B8000DEB72C970FB6F894DEBF0FBECDBF4F83E4
:101B9000588769877A878B879C87CE0107960E9432
:101BA000380C882369F08A859B85892B39F0588504
:101BB0004F81852F84238F3F09F071C016E05FC0ED
:101BC00086E0FE013796DE01119601900D928A950E
:101BD000E1F78A859B85892B89F38F8198858923F5
:101BE0008F3F61F32091000230E0C90101968770B8
:101BF00099274091FF014817190671F40E94420885
:101C0000109200021092FF0186E0E1E3F2E0DF01B2
:101C10001D928A95E9F7D2CF96E0929FD001939FCB
:101C2000B00D1124AF5FBD4FFE01319601900D92B2
:101C30009A95E1F7809300020E94B30BBFCF819F7A
:101C4000C00111248F5F9D4F0E94380C8823E9F05A
:101C5000E091FF011E9FF0011124EF5FFD4F4081D5
:101C6000518162817381848195810E948508809170
:101C7000FF0190E00196877099278093FF01809182
:101C8000FF01909100028913DACF2C960FB6F894D9
:101C9000DEBF0FBECDBFDF91CF911F910895698543
:101CA0007A858B859C850E94850888CF682F8091D6
:101CB0000001909101010C94BD20682F80910001DA
:101CC000909101010C94C820809100019091010134
:101CD0000C94D3208091370285958595859508953C
:101CE000809137028770089590913702977081E054
:101CF00009F480E008959091B40292FB222720F924
:101D0000281751F080FB92F99093B4028091B302AE
:101D10009091B4020C94830F08958091B40282FBD9
:101D2000882780F991E089270C947B0E81E00C9440
:101D30007B0E80E00C947B0E80915B020895909165
:101D40005B02982B90935B020895982F9095809159
:101D50005B02892380935B02089510925B020895D1
:101D600090915A02982B90935A020895982F90952B
:101D700080915A02892380935A02089510925A0240
:101D8000089590915902982B909359020895982F95
:101D90009095809159028923809359020895109259
:101DA0005902089580913802089508950C94D50E33
:101DB0009091B40292FD08C090913802981721F0DA
:101DC000809338020C94D60E0895809138028823AF
:101DD00029F01092380280E00C94D60E0895E0911C
:101DE0000001F091010180915B028083E09100018C
:101DF000F0910101808190915A02892B8083E091BA
:101E00000001F0910101808190915902892B80831A
:101E100090913802992381F0E0910001F091010145
:101E20008081892B808380910001909101010E9423
:101E3000252081110E94E50E809100019091010101
:101E40000C94DE1F08950C94220F9091B40292FD21
:101E500010C098E0899F90011124622B6093370293
:101E60000E945909809137028595859585950C9436
:101E7000230F0C9459091092370280E00C94230F21
:101E8000909137028095892380933702282F2770FD
:101E900039F4282F082E000C330B9217130621F467
:101EA0009091B40292FF07C08595859585950E9413
:101EB0008A090C943B0F08956FEF7FEF90E080E06C
:101EC0000C94652990E080E00E9441299C0181E00A
:101ED000293E3E4F09F080E0089582E090E00C94A6
:101EE000332983E090E00C943329CF9384E090E091
:101EF0000E943329C82F82E290E00E943329982F54
:101F00008C2FCF910895CF93682FC92F84E090E054
:101F10000E9447296C2F82E290E0CF910C944729D0
:101F2000AB01BC018FE090E00C945929AB01BC01DE
:101F300083E190E00C94592960E070E0CB010C94AF
:101F4000960F60E070E0CB010E94900F0C949C0F04
:101F500069EE7EEF90E080E00E94652960E082E01B
:101F600090E00E94472960E083E090E00E944729CA
:101F70001092FB011092FC011092FD011092FE01E3
:101F800060E084E090E00E94472960E082E290E017
:101F90000E94472960E085E090E00E94472960E0C8
:101FA00086E090E00E9447296FEF87E090E00E9472
:101FB000472940E050E0BA0188E090E00E945929AA
:101FC00060E08DE090E00E94472940E050E0BA01D7
:101FD00088E190E00E94592960E087E190E00E944A
:101FE000472940E050E0BA018CE190E00E94592975
:101FF00070E060E080E290E00E94652940E050E0FF
:10200000BA0188E190E00E9459290C94A10F0C9428
:10201000A80F682F8EE090E00C9447290E947F2142
:1020200060936D0270936E0280936F0290937002C2
:102030006093690270936A0280936B0290936C02C2
:10204000089585B7806885BF85B7806885BF089586
:10205000089508950C94281008950C942C100E9453
:10206000211085E093E10E94F6210E9429100C9432
:102070002A1081E008950C943910089508950E9463
:102080003D100C943E100E946A210E9423140E946D
:102090004A1C0E94CA1A0C942D108F929F92AF92E4
:1020A000BF92CF92DF92EF92FF920F931F93CF9345
:1020B000DF9300D000D00F92CDB7DEB70E94381466
:1020C00081110E940E105DE5852E52E0952E10E0E4
:1020D00000E0A02E802F0E945D137C01F401C190CE
:1020E000D1904F01C816D90609F45DC080917102E4
:1020F00081FD0E946613C6018E259F25B12CCC243C
:10210000C394D12C9C012C213D21232B09F445C0E3
:102110000E943B108823A9F0B982AA82EC20FD20FE
:1021200081E0EF2809F480E08B830E9473218160B5
:10213000782F9D838C8349815A816B818D810E9488
:102140004F04000F111FF801E35AFD4F8081918168
:10215000C826D926D182C0820E940E1B0E94BA1DB9
:102160000E94D21F90915C028917A1F10E94D21F98
:1021700080935C020F900F900F900F900F90DF9163
:10218000CF911F910F91FF90EF90DF90CF90BF9074
:10219000AF909F908F900C944704B394CC0CDD1CAF
:1021A000F0E1BF12AFCF0F5F1F4F0630110509F0EE
:1021B00090CF8FEF89838A831B820E947321816075
:1021C000782F9D838C8349815A816B818D810E94F8
:1021D0004F04C2CF0F900F900F900F900F90DF9190
:1021E000CF911F910F91FF90EF90DF90CF90BF9014
:1021F000AF909F908F90089590E080E008950895AB
:10220000E72FF0E096E0899FE00DF11D112484E0B6
:10221000EE0FFF1F8A95E1F7E60FF11DEE0FFF1F8E
:10222000E455FF4F859194910895FC01EE0FFF1F37
:10223000E451FD4F859194910895CF93DF930E94CF
:102240002A12EC01811521E5920708F048C081159A
:1022500030E5930708F0AFC0803E910518F5803C4B
:10226000910508F096C0883A910570F4853A910579
:1022700008F08CC08130910531F10497813A9105C5
:1022800010F1D0E0C0E01FC08F3B9105D1F3C85AD8
:10229000D0E0CC0FDD1FC25BDE4F0990D881C02D8E
:1022A000D46411C0811540E3940788F4C11580E21D
:1022B000D80708F074C0C83ED10528F0CE019A9521
:1022C00081159F41F0F6CE01DF91CF9108958115E0
:1022D00030E4930708F466C0DF70D06AF4CF81154C
:1022E000964560F5C11585E5D80708F096C0C1157B
:1022F00094E5D907F0F4C11523E5D20708F079C0B9
:10230000C11532E5D30708F46FC0CE018370992759
:1023100021E030E002C0220F331F8A95E2F7C69514
:10232000C69540E2C49FE0011124C22BD32BDC6888
:10233000CACFDC2FCC27C46FD06AC5CFC1158AE5C0
:10234000D80788F4C11599E5D90708F071C0CE0106
:1023500098558F3F910511F008F093CFDC2FCC27D3
:10236000C06FD06AB0CFCE0190568115904208F070
:1023700088CF8D2F8F710E94C21290E0982F8827EE
:1023800088279F719C012C2BE90150C0A497D06431
:102390009ACF805C91090E941511EC0194CFCE0177
:1023A0009F70F9CF9927D3FF03C0EC01D86C8BCF76
:1023B000EC01D06C88CF74E0969587957A95E1F71B
:1023C00083702C2F26952695237040E2249F900140
:1023D0001124382B8C2F8370C1E0D0E002C0CC0FC9
:1023E000DD1F8A95E2F7A1CFDC2FCC27C16FD06A21
:1023F0006ACFCE018370992721E030E002C0220F1E
:10240000331F8A95E2F7C695C69580E2C89FE00122
:102410001124C22BD32BDA6856CF8C2F0E94C21204
:10242000C82FD0E0DC2FCC27CC27DF71D0624BCF78
:102430008C2F8F700E94C21234E0D695C7953A95C2
:10244000E1F7CF70DC2FC82FD0693DCF0E9400117B
:102450000C941D11803E910599F1C8F481339105CA
:1024600009F476C048F48932910509F46AC08A32C9
:10247000910509F474C0089589339105D1F082382B
:102480009105B9F08533910509F454C00895843E4F
:10249000910599F138F4823E9105F9F0833E91055A
:1024A00009F10895863E910599F1873E9105B9F1AC
:1024B00008952091B3022370A1F080EE90E008957A
:1024C0002091B30220FD52C03091B40230FF09C008
:1024D00024FF4FC090E080E004C02091B30222FDB1
:1024E000F7CF08952091B30222FD46C03091B40287
:1024F00030FDE3CF24FFF5CFEDCF2091B40221FFD3
:10250000F0CF8091B30284FDE5CF87EE90E008958F
:102510002091B30223FFE5CF24FDDCCFF6CF20913D
:10252000B30223FD2CC03091B40231FFE3CF84EE1F
:1025300090E008952091B30225FFD3CF89E290E087
:1025400008952091B30225FFCCCF85E390E0089554
:102550002091B30226FFC5CF8AE290E00895209132
:10256000B30226FFBECF81E390E0089589E390E0B7
:10257000089583EE90E0089582EE90E0089586EE4F
:1025800090E008959091B30292FF06C0282F287121
:102590002830F9F4877F846093FF06C0282F2871C4
:1025A0002831F1F4877E84612091B40220FF06C0B7
:1025B000382F38713830D9F4877F816021FF06C009
:1025C000282F28712831D1F4877E816194FD877E80
:1025D0000895282F24712430F9F68B7F8860DCCF92
:1025E000282F2471243101F78B7E8861DDCF382FAD
:1025F0003171313019F78E7F8860E0CF282F21713B
:10260000213121F78E7E8861E1CF80E008950C941E
:102610005C0F0E9438148FE39CE90197F1F700C02A
:1026200000000E94381481E00E945D1396FF04C0F0
:102630000E9407130C94D22108950C940913CF9390
:10264000DF9300D000D0CDB7DEB70E94620F8111BA
:1026500002C00E9407100E946D0F809371020E94B9
:10266000750F9093B4028093B3020E941D130E94D1
:10267000710F282F30E050E040E0CA01B9010E94FC
:10268000A5088091F7019091F801A091F901B0910E
:10269000FA0189839A83AB83BC83BC01CD010F907F
:1026A0000F900F900F90DF91CF910C942109089516
:1026B0000C94571308950C945A13E82FF0E0EE0F82
:1026C000FF1FEF53FD4F808191810895089580EAA7
:1026D0008A95F1F7089500C008950C946713F89453
:1026E000E82FE295EF70A1E2AE0FB0E04C918F7051
:1026F00021E030E0B90102C0660F771F8A95E2F74A
:10270000CB01962F909594239C93EE5DF0E0908101
:10271000892B808378940895CF93DF93CCE8D1E020
:1027200089918F3F11F00E946F1381E0C239D80761
:10273000B9F7CCE7D1E089918F3F11F00E946F1378
:1027400081E0CC38D807B9F7DF91CF910895AF92E7
:10275000BF92CF92DF92EF92FF920F931F93CF938E
:10276000DF93EC01D62E062F10E0C80184579E4F50
:102770007C01FC0180818F3F09F457C0F894E82F59
:10278000E295EF70A1E2AE0FB0E09C918F7021E076
:1027900030E001C0220F8A95EAF7892F822B8C93B3
:1027A000EE5DF0E0808120952823208378940E94BC
:1027B0006B13ECE7F1E050E040E0B12CA12C61E0BC
:1027C00070E081918F3FE1F1A82FA295AF70A05EDC
:1027D000B0E02C9130E08F7002C0359527958A9536
:1027E000E2F720FD2DC09B01042E02C0220F331FF3
:1027F0000A94E2F7A22AB32A4F5F5F4F4031510596
:1028000001F7F70180818F3F11F00E946F1361E0A3
:10281000A114B10409F460E08D2D0E946D13000F26
:10282000111FC00FD11FB982A882DF91CF911F91D4
:102830000F91FF90EF90DF90CF90BF90AF900895F1
:1028400020E030E0D7CF0E948C138CE0E5EBF2E083
:10285000DF01982F1D929A95E9F7E1ECF2E0DF0194
:102860001D928A95E9F786E00E9486140C94BA03BB
:10287000FF920F931F93CF93DF93CDB7DEB72C97C3
:102880000FB6F894DEBF0FBECDBFFE0131968CE0CF
:10289000DF011D928A95E9F710E0FE2E0F2F612FC0
:1028A0008F2D902F0E94A7131F5F1630C1F74CE0A9
:1028B00050E06F2D702F85EB92E00E9426299C013D
:1028C00011E0892B09F410E0232B49F08CE0EF2D67
:1028D000F02FA5EBB2E001900D928A95E1F7212F40
:1028E00046E061EC72E085EB92E00E9487140E9462
:1028F000C203812F2C960FB6F894DEBF0FBECDBF5A
:10290000DF91CF911F910F91FF9008950895FF924D
:102910000F931F93CF93DF93F82E092F162FD72FE6
:10292000C42F222349F081E0809374020E94732116
:102930009093730280937202809174028823A1F0B5
:1029400080917202909173020E949F21059760F01E
:10295000EF2DF02FA12FBD2F90E080E0D0E08C175D
:102960009D0744F010927402DF91CF911F910F9157
:10297000FF900895219131912D933D930196EFCFD2
:102980000E94E5200E9449230E9462230E94742332
:102990000E943F10FBCFCF92DF92EF92FF920F93F6
:1029A0001F93CF93DF93D62FC72F982F711113C08A
:1029B000442329F0E82FF0E0ED5FFB4F9491692F5D
:1029C000792F892FDF91CF911F910F91FF90EF9079
:1029D000DF90CF900895272F30E0E82FF0E04423D8
:1029E00021F0ED5FFB4FE491F0E086E0D89F7001AD
:1029F00011240FEF10E0C701B8010E9498288D2F15
:102A000090E0880F991FA5E5A69FA001A79F500DF4
:102A10001124841B950BD82EDD0CD80EC801821B07
:102A2000930B8E9FA0018F9F500D9E9F500D1124E0
:102A3000952FDC9EE0011124CD2FDD27D801AC1BA2
:102A4000BD0BED01CE9FD001CF9FB00DDE9FB00D2D
:102A500011248B2FE801CD19D1096E01C29EE0012E
:102A6000C39ED00DD29ED00D1124CD2FDD270C1B7F
:102A70001D0B0E9FE0010F9FD00D1E9FD00D112446
:102A80002E2F63307105D9F03CEFE31633E0F306E7
:102A900068F461307105B9F062307105C1F0AFEFD3
:102AA000EA16F10448F4852F9D2F06C064307105A5
:102AB00089F066307105B9F3692F722F83CF9B2F90
:102AC0008E2F252FF9CF9E2F2B2F852FF5CF8D2FD2
:102AD0009E2FF7CF8E2F2D2FEFCF41E00C94CB14EC
:102AE00008950C946D15CF93DF93982F762F842F34
:102AF000E901692F0E947115798368838A83DF91C8
:102B0000CF9108958091CD02982F9E7F29F48170F6
:102B100082608093CD0208958A34E8F381708864DE
:102B2000F8CF88E090E00C943B290F931F93CF934C
:102B3000DF938B01D82FC92F0E948215A8016D2F1A
:102B40007C2F88E090E0DF91CF911F910F910C9442
:102B50005929EDECF2E083E0808311828FEF8283CC
:102B60008383148263E070E08FEF9FEF0C949515E0
:102B70008091CD0280FF02C08695089580E008957F
:102B8000CF93DF9300D000D0CDB7DEB79091D102C4
:102B9000933018F49F5F9093D1028823B1F0809115
:102BA000CD029091CE02A091CF02B091D002898344
:102BB0009A83AB83BC83BC01CD010F900F900F9023
:102BC0000F90DF91CF910C9495150F900F900F906F
:102BD0000F90DF91CF91089581E00C94C015CF93B1
:102BE000DF9300D000D0CDB7DEB79091D10299230A
:102BF00019F091509093D1028823B1F08091CD02C9
:102C00009091CE02A091CF02B091D00289839A8395
:102C1000AB83BC83BC01CD010F900F900F900F9040
:102C2000DF91CF910C9495150F900F900F900F900E
:102C3000DF91CF91089581E00C94EF1570E00C9432
:102C4000CB1D609106018091CD0280FF0AC080916A
:102C5000050123E0829FC00111248E529D4F0C94E8
:102C60001E16809107019091080123E0829FF001D8
:102C70001124EE52FD4F891750F7118210821282F3
:102C80008F5F3396F8CF9091CD0290FF14C0909152
:102C900007012091080133E0939FF0011124EE52C7
:102CA000FD4F921710F00C942116818360834283AC
:102CB0009F5F3396F6CF0895CF93DF9300D00F92A6
:102CC000CDB7DEB79091CD0290FF0AC09E012F5F75
:102CD0003F4F0E9473154B8169818A810E94431680
:102CE0000F900F900F90DF91CF910895CF93DF93C6
:102CF000EC01EC81F0E0E250FD4F4491EDECF2E0AC
:102D0000628181810E945C168C818F5F8C83DF9150
:102D1000CF910895CF93DF93EC01EDECF2E0438186
:102D200062818C810E945C168C818F5F8C83DF9125
:102D3000CF9108950F931F93CF93DF9300D00F92FD
:102D4000CDB7DEB78C018091750281110AC09E015A
:102D50002F5F3F4F4FEF6FEF0E9473158A81809373
:102D60007502F8016481613049F06230F1F08091C0
:102D7000750240E0662331F040E019C060917502B1
:102D800040E080E00E944316F801848190E00196C3
:102D900063E070E00E94AC2884830F900F900F9046
:102DA000DF91CF911F910F9108954091750280E0BE
:102DB00060E0E8CFAF92BF92CF92DF92EF92FF92A6
:102DC0000F931F93CF93DF9300D000D000D00F92CA
:102DD000CDB7DEB7182FF62E042FD22E9091CD024C
:102DE00090FF83C0E92FE695AE2FB0E0AE56BE4F00
:102DF0008C91809381029E7F9230A1F59E012F5F7E
:102E00003F4F812F0E9473154B8169818A810E94F7
:102E100043161093CE02F092CF020093D002DD2031
:102E200009F463C08091CD029091CE02A091CF02AF
:102E3000B091D0028C839D83AE83BF83BC01CD0152
:102E400027960FB6F894DEBF0FBECDBFDF91CF91AE
:102E50001F910F91FF90EF90DF90CF90BF90AF90B8
:102E60000C949515823019F40091D002D2CF86309F
:102E700019F41091CE02CDCF8930D9F3893149F6BA
:102E8000E9518E2F8170C82EE695F0E0E250FC4F9C
:102E9000A590B490E12CBB2460910901E61618F0CE
:102EA0000E942116B6CF2E2D30E0EA9CC001EB9C8B
:102EB000900D112470E00E949828812FC11013C03A
:102EC000860F90910701A901490F511D9A01220F08
:102ED000331F240F351F2E523D4F402F6F2D0E9460
:102EE0007315E394D9CF861BECCF27960FB6F894D1
:102EF000DEBF0FBECDBFDF91CF911F910F91FF902D
:102F0000EF90DF90CF90BF90AF900895282FEDEC19
:102F1000F2E0818143816281885F0C94DA1681E05E
:102F20000C948617282FEDECF2E0818143816281B9
:102F300088500C94DA1681E00C949217282FEDEC4F
:102F4000F2E0628138E0630F08F46FEF4381818122
:102F50000C94DA1681E00C949E17282FEDECF2E029
:102F6000628138E0631B08F460E0438181810C9446
:102F7000DA1681E00C94AD17282FEDECF2E04381D6
:102F800038E0430F08F44FEF628181810C94DA1628
:102F900081E00C94BC17282FEDECF2E0438138E07F
:102FA000431B08F440E0628181810C94DA1681E0D1
:102FB0000C94CB1720E00C94DA16EF92FF921F933B
:102FC000CF93DF93EC0110E0EE24EA94F12C6091B2
:102FD0000901161770F00E9421169A818C8190FFCA
:102FE00027C08F5F8C83DF91CF911F91FF90EF906F
:102FF000089520910701422F410F5527551FCA01FF
:103000009A01220F331F280F391F2E523D4F70E0B7
:10301000C7010E94AC28962F8C814091D00260910C
:10302000CF02199F800D11240E9473151F5FCFCF0F
:103030008150D8CFBF92CF92DF92EF92FF920F9341
:103040001F93CF93DF93FC0182810FEF80FF01E09C
:1030500010E0809109011817C0F00E94211680919C
:103060007702013009F051C0811102C0809109013D
:10307000815080937702DF91CF911F910F91FF9044
:10308000EF90DF90CF90BF90089580910701C12EFF
:10309000D12C8C0D9D2D911DEC01CC0FDD1FC80F87
:1030A000D91FCE52DD4F198218821A8234E0E32EE6
:1030B000F12CB12C809177028B0D813104F18F704E
:1030C000082E000C990BC816D90691F48091D002F5
:1030D0008E9DA0018F9D500D1124559547955595B6
:1030E00047959E016091CF028091CE020E94731598
:1030F000B00EF1E0EF1AF108E9F61F5FAACF87FFE3
:10310000DFCF90910901890FDBCF90E001966091AC
:10311000090170E00E94AC28ACCF0F931F93CF93AE
:10312000DF93809107019091080123E0829FF001D5
:103130001124EE52FD4F891740F1C0E0D3E06091B9
:103140000901C61740F10E942116209103018091C8
:103150007602820F8093760290910401920F9093F1
:103160000401191654F4082E000C990B4091090122
:103170004150550B841795071CF0219520930301AE
:10318000DF91CF911F910F910895118210821282C9
:103190008F5F3396D0CF0C2F10E070E0C8010E94F3
:1031A000AC2820910701820F482F50E02091760231
:1031B000022E000C330B02171307BCF02091040100
:1031C000022E000C330B201731077CF08D9F9001ED
:1031D00011242E523D4F4091D0026091CF02809138
:1031E000CE020E947315CF5FAACFFA01EE0FFF1F28
:1031F000E40FF51FEE52FD4F118210821282F3CFC1
:10320000EF92FF920F931F93CF93DF93CDB7DEB76B
:103210002E970FB6F894DEBF0FBECDBF8D879E8769
:10322000AD85BE8514961C91212F30E0D9010E94F6
:10323000F0289B01AC010E94062969837A838B8365
:103240009C83E0E2F0E0E11BF109A5E5B0E09B0121
:10325000AC010E94062969877A878B879C879F012A
:10326000DF010E94E8286D837E838F8398879B010E
:10327000AC010E9411299B01AC0169817A818B818B
:103280009C81260F371F481F591F69857A858B85BA
:103290009C850E94C028F22E822F90E079E272175E
:1032A00088F183E0289F9001112435952795122FEE
:1032B000109500E085E5E82EEF18809109010817C8
:1032C00080F10E942116AD85BE8514969C9181E007
:1032D000992319F0903219F48FEF809302018091B5
:1032E0000201890FED85FE8584832E960FB6F89432
:1032F000DEBF0FBECDBFDF91CF911F910F91FF9029
:10330000EF90089525E530E0D901A81BB90B9D0188
:10331000220F331F2A0F3B1F37FFC7CF2F5F3F4FAF
:10332000C4CF8E2D01FD8F2D20910701E22FE00FDC
:10333000FF27FF1F9F01220F331F2E0F3F1F2E520B
:103340003D4F412F6091CF020E9473150F5FB5CFA3
:103350000F931F93CF93DF93EC0110E000E0909167
:1033600009019017110609F06CF40E9421168C8156
:1033700090E00196817099278C83DF91CF911F9106
:103380000F91089580910701A801480F511D9A01DE
:10339000220F331F240F351F2E523D4F4C81609159
:1033A000CF028091CE0296959017110651F04CF005
:1033B000442349F04091D0020E9473150F5F1F4FC4
:1033C000CECF4423B9F340E0F7CFCF93DF9300D0C3
:1033D00000D0CDB7DEB7EDECF2E080818E7F808348
:1033E00080819181A281B38189839A83AB83BC83DD
:1033F000BC01CD010E949515109282029FEFA0E7BB
:10340000B2E09150A040B040E1F700C000000F9042
:103410000F900F900F90DF91CF910C942116EDEC4F
:10342000F2E080818E7F8083109282022FEF80E70E
:1034300092E0215080409040E1F700C000000C94E1
:1034400021161092820280917F0281110AC081E0D0
:1034500080937F028091CD02817080937E020C94D4
:103460000F1A08956091CD02669570E04BE050E030
:103470008AE091E00E941929892B19F481E0809358
:1034800082020E94732190937902809378020895BA
:10349000CF93DF9300D000D0CDB7DEB79091CD02AF
:1034A00090FF41C09170811134C092609093CD0221
:1034B000662381F08091CD029091CE02A091CF023F
:1034C000B091D00289839A83AB83BC83BC01CD01C8
:1034D0000E9495156091CD02669570E04BE050E03A
:1034E0008AE091E00E941929892BD1F01092820282
:1034F00081E080937B024091D0026091CF02809165
:10350000CE020F900F900F900F90DF91CF910C94FF
:10351000DA17853210F09864C9CF880F982BC6CF80
:103520000E94321AE5CF0F900F900F900F90DF910D
:10353000CF910895682F8091CD0286958F5F853257
:1035400008F081E00C94481A81E00C949A1A682FD4
:103550009091CD0296958FEF890F913009F484E216
:103560000C94481A81E00C94A71A61E00C94481A54
:10357000EDECF2E080818160808386950C94B51A31
:103580008091CD0280FD0C94E5190C94B81A60E08E
:103590000C94481A8091800281112EC00E94620F03
:1035A000811104C00E9407100E94A9150E94911564
:1035B0006093CD027093CE028093CF029093D0029D
:1035C0006E7F61F40E94A9150E9491156093CD024F
:1035D0007093CE028093CF029093D0020E94821506
:1035E000109282028091CD0280FF03C086950E94D6
:1035F000C71A81E0809380020895EDECF2E08081AB
:103600008160808386950C94C71A10927F02809106
:103610007E0281110E94FD1A0C94321A0F931F939F
:10362000CF93DF9380918202882309F486C0809132
:103630008102E091CD02E695E81BE0937A028230A8
:1036400091F5F0E0E650FD4FE491CE2FD0E006E793
:1036500016E180917B02882361F010927B020E9428
:103660007321909379028093780210927D021092D8
:103670007C020E947321E0917802F09179028E1B06
:103680009F0B8F3F9F4708F058C0EC0FFD1FF09332
:103690007902E093780288E792E0F801DF91CF9118
:1036A0001F910F910994863049F4F0E0E950FD4FE5
:1036B000E491CE2FD0E00AE816E1CBCF893051F467
:1036C000E695F0E0EC50FD4FE491CE2FD0E00DED0B
:1036D00017E1BFCF8F3051F4E695F0E0EF50FD4F8A
:1036E000E491CE2FD0E00AE118E1B3CF853149F45F
:1036F000F0E0E251FD4FE491CE2FD0E00DE818E16B
:10370000A8CFC8E2D0E000E019E1883109F4A1CFE8
:10371000833239F4ECEEF2E0C591D4910AE916E176
:1037200098CFC4EFD1E008EA19E1843209F491CFCF
:10373000C0EDD7E000E715E18CCFDF91CF911F916D
:103740000F910895FA0181110994FB01FDCFCF93E8
:10375000DF93C82FD62F0E94B8158C1740F00E9417
:10376000B8158D1720F4DF91CF910C94A41A8C2FEB
:10377000DF91CF910C94B51A0F931F93CF938C01C7
:10378000FB01C281CC2309F472C00E949C0E82729C
:10379000073DFCE51F0770F4033C9CE5190778F032
:1037A000F801E45CFC45E331F10570F4E357F64DB4
:1037B0000C94E228C1E00E351D4509F4C0E08C2FC1
:1037C000CF911F910F9108950E94C01AF7CF42EB3D
:1037D0005AE164EA7AE10E94A21BF0CF44EA5AE17E
:1037E00062EB7AE1F8CF4BE957E16FE877E1F3CF8D
:1037F0004FE857E16BE977E1EECF49EB57E16AEA31
:1038000077E1E9CF4AEA57E169EB77E1E4CF47EDA9
:1038100057E168EC77E1DFCF48EC57E167ED77E1FE
:10382000DACF4BE156E16CEE75E1D5CF4CEE55E1C8
:103830006BE176E1D0CF81E00E94B51ABFCF65E0A1
:1038400082E00E94A71BBACF68E086E0FACF6EE064
:1038500089E0F7CF64E18FE0F4CF67E185E1F1CF54
:1038600088E1EACF62E289E1ECCF83E2E5CFC1E013
:10387000A6CF86E090E00C943329682F86E090E094
:103880000C944729E2E0F3E08081847089628083B0
:103890000C943D1C0E94620F811104C00E9407100D
:1038A0000E94421C0E94391C80930203803320F046
:1038B000877088628093020390910203892F817040
:1038C00090FF04C0892F8695869586950C944D1D92
:1038D00080910203982F969596959695883240F49C
:1038E0009F5F990F990F990F8770892B809302031F
:1038F000809102038160809302030E943D1C8091AD
:1039000002038695869586950C944D1D8091020341
:10391000982F987F79F0885080930203887F91E0F8
:1039200009F490E08091020390FB80F980930203F8
:103930000E943D1C809102038695869586950C9485
:103940004D1D8091020380FD13C0816080930203AE
:10395000813019F489E080930203809102030E9470
:103960003D1C809102038695869586950C944D1D8D
:1039700008958091020380FF08C08E7F8093020328
:103980000E943D1C80E00C944D1D0895809102031F
:1039900080FD0C94B91C0C94A11C90910203892FFA
:1039A0008695869586958F5F8F7197708630D8F44F
:1039B000880F880F880F892B809302038091020360
:1039C000887F91E009F490E08091020390FB80F9F8
:1039D000809302030E943D1C809102038695869588
:1039E00086950C944D1D90930203E8CF863008F025
:1039F00085E0909102039770282F220F220F220F4B
:103A0000922B90930203987F21E009F420E090919B
:103A1000020320FB90F9909302030C944D1D0E9429
:103A2000F61C809102030C943D1C9C01FB018281D9
:103A3000882361F12F3BFCE53F07F9F060F42D3B53
:103A4000ECE53E07A9F02E3BFCE53F0799F02C3B47
:103A50003C4549F00895203CECE53E0789F0213CC7
:103A60003C4589F0089585E00E940F1D80E008958F
:103A700080E0FACF0E94861CF9CF0E94681CF6CF26
:103A80000E94C61CF3CF0E94CD1CF0CF81E00895A8
:103A9000269A2E9808952E980895CF93DF93CDB748
:103AA000DEB728970FB6F894DEBF0FBECDBF89836F
:103AB000863060F581112CC0809180008F7D8093CD
:103AC00080000E944B1D4981242F30E0AFEFBFEFF3
:103AD0000E94F02825E030E040E050E00E94C0283D
:103AE000C9012C3764E13607C8F469E070E00E9430
:103AF000982870938B0060938A0028960FB6F894EC
:103B0000DEBF0FBECDBFDF91CF91089525E02983A1
:103B100080918000806280938000D5CF2A50374DFD
:103B20004F4F5F4FB42FA32F922F8827BC01CD0199
:103B300025EF38E241E050E00E94C02829833A8313
:103B40004B835C83CA01B9010E9488289B01AC01A8
:103B500069817A818B819C810E948828BB27A92F4B
:103B6000982F872FBC010097A140B10511F66FEF88
:103B70007FEFBFCF08950E94481D82E280938000AE
:103B800089E1809381008FEF9FEF9093870080936E
:103B900086000C944A1C9C01AB016A9A6EB16B7F43
:103BA0007EB17460EFB7F894CA01880F991F840F33
:103BB000951F820F931F8217930741F4EFBF8FE584
:103BC00094E00197F1F700C000000895D9014D91EC
:103BD0009D0158E07EB9000000C047FF6EB9440F58
:103BE000000000C000C000C06EB900C05A9591F737
:103BF000E2CF0F931F93CF93DF93C42FD22FFC01FB
:103C000082818823C9F0409385020E94732190939A
:103C100084028093830280E28C0F883008F050C0C9
:103C2000C77081E001C0880FCA95EAF7DF91CF9194
:103C30001F910F910C94900510918502141335C0BB
:103C400080918302909184020E949F21883C91057B
:103C500060F5C0E2CD0F1D17B9F080E2810F88300A
:103C600040F4177081E001C0880F1A95EAF70E94AE
:103C70009705C83048F481E09D2F977001C0880FE8
:103C80009A95EAF70E949005802F0E948805C83017
:103C9000B8F4D77081E001C0880FDA95EAF7DF91B8
:103CA000CF911F910F910C94970580E28C0F883073
:103CB00038F4C77081E001C0880FCA95EAF7EFCFEA
:103CC000DF91CF911F910F9108950F939C01CB012C
:103CD000243F4CE53407A1F190F4293DFCE53F0772
:103CE00049F12A3D4CE53407E9F1283D3C45C1F056
:103CF000FC0182818823E1F11092850219C0263FE0
:103D0000FCE53F0719F1273F4CE5340729F1253F32
:103D10003C4571F707E225EE44EE65EF7CE505C012
:103D200006E221EE41EE68ED7CE50E94F91D80E09F
:103D30000F91089507E225EE45EE69ED7CE5F5CF9C
:103D400006E221EE40EE64EF7CE5EFCF06E221EEE5
:103D500042EE66EF7CE5E9CF07E225EE46EE67EF3F
:103D60007CE5E3CF08E221E045EE6AED7CE5DDCFBE
:103D700081E0DECFCF93DF93EC01FB0182818823CA
:103D800009F4DFC0C430FDE5DF0710F5CB3F9CE54B
:103D9000D90730F49E0122503C4524313105E0F42E
:103DA0000E94750F9093B4028093B302C631FCE574
:103DB000DF0710F5C2308CE5D80788F48091B30294
:103DC0009091B4020E94830F0E94420880E004C0D8
:103DD000C236EDE5DE0721F3DF91CF910895FE01B4
:103DE000E350FC458091B3028160E331F10518F5A1
:103DF000E056F64D0C94E228C4309DE5D90770F4E6
:103E0000CB3FECE5DE07D0F2FE01EC5FFC45E8308D
:103E1000F105E0F4ED54F64D0C94E228C236DD4590
:103E200069F69091B302892F8F7E94FF806103C061
:103E30008091B30282608093B302C0CF8091B302BD
:103E40008460F9CF8091B3028860F5CF8091B4028D
:103E500081608093B402B2CF8091B4028260F9CFC6
:103E60008091B3028061E7CF8091B3028062E3CF9B
:103E70008091B3028064DFCF0E9442088091B30238
:103E80008068D9CF8091B3028C60D5CF8091B40285
:103E90008360DFCF8091B3028E7FCDCF8091B3025C
:103EA0008D7FC9CF8091B3028B7FC5CF8091B30244
:103EB000877FC1CF8091B4028E7FCBCF8091B40237
:103EC0008D7FC7CF8091B3028F7EB5CF8091B30233
:103ED0008F7DB1CF8091B3028F7BADCF0E9442081E
:103EE0008091B3028F77A7CF8091B302837FA3CF56
:103EF0008091B4028C7FADCF8091B30282FB992771
:103F000090F921E0922790FB82F990FB83F993CFFF
:103F10008091B402982F909591708E7F892B90FBA1
:103F200081F997CF0E9442089091B302892F97FBA5
:103F300087F9805880CF81E00E9409103FCF80E050
:103F4000FBCF81E049CFCF93DF93EB0186319C45D6
:103F500011F50E949C0E9A81992399F08A7A91E03A
:103F600009F490E090938602811109C089E20E94D1
:103F7000560E0E94EF0E80E0DF91CF91089585E309
:103F8000F6CF80918602811104C089E20E945D0E05
:103F9000F0CF85E3FBCF81E0EFCF90938C0280934D
:103FA0008B020895E0918B02F0918C02309721F002
:103FB0000190F081E02D099480E00895DC01E0910A
:103FC0008B02F0918C02309799F080911F01882329
:103FD00051F08091B30287FF06C08C9111968C93AB
:103FE000119785E08C930280F381E02DCD01099437
:103FF00008952091890230918A022817390771F0BB
:1040000090938A0280938902E0918B02F0918C0256
:10401000309721F00680F781E02D099408952091D2
:104020008702309188022817390771F0909388022F
:1040300080938702E0918B02F0918C02309721F0FF
:104040000084F185E02D09940895FC013296809159
:104050001F01882321F08091B3029EE187FF96E043
:1040600080E0915008F4089521912223D1F38F5FCD
:10407000F8CF9C01662301F180911F018823F1F0A4
:104080008091B30287FF1AC0462F46954695469504
:10409000603F90F4677081E090E002C0880F991F44
:1040A0006A95E2F7240F311DF901228130E02823BF
:1040B000392381E0232B71F480E00895F9013296D1
:1040C000285F3F4F8191861721F0E217F307D1F760
:1040D000F3CF81E008959C01FC0132968FEF90E0D0
:1040E0004191461751F08F3F19F4411101C0892FBA
:1040F0009F5F9630A9F78F3F09F40895280F311D6F
:1041000087FD3A95F901628308959C01FC0132967E
:10411000285F3F4F8191861303C0DF0111971C92E6
:10412000E217F307B9F70895FC01862F8695869567
:104130008695603F60F4E80FF11D677021E030E084
:1041400001C0220F6A95EAF78281822B828308954B
:10415000FC01862F869586958695603F68F4E80F6A
:10416000F11D677081E090E001C0880F6A95EAF761
:104170008095928189238283089520911F012223B3
:1041800029F02091B30227FD0C9494200C946B200D
:1041900020911F01222329F02091B30227FD0C94C6
:1041A000A8200C948520FC01329680911F01882361
:1041B00051F08091B30287FF06C08EE1DF011D92AE
:1041C0008A95E9F7089586E0F9CF0895089508954E
:1041D0000C94E72080910B03843009F42EC00E94D8
:1041E000E82080E00E944D1D80E00E9447040E946C
:1041F000211A10928D0288E190E020E40FB6F89425
:10420000A895809360000FBE2093600083B7817FE4
:10421000846083BF83B7816083BF7894889583B7B8
:104220008E7F83BF0FB6F894A89580916000886157
:1042300080936000109260000FBE08950895CF93A0
:104240000E94E6200E9438140E941E21C0E08C2F9C
:104250000E945D13892B31F4CF5FC630C1F780E037
:10426000CF91089581E0FCCF08950C9434210E94F1
:1042700042080E944A1C0E94D21F0E9447040E94CA
:10428000051B0C9435211F921FB61F9211248F938A
:104290009F93AF93BF9380918D02811113C0809142
:1042A000030390910403A0910503B0910603419686
:1042B000A11DB11D8093030390930403A0930503F4
:1042C000B0930603BF91AF919F918F911F901FBE36
:1042D0001F90189582E084BD93E095BD9AEF97BD3D
:1042E00080936E0008952FB7F89480910303909106
:1042F0000403A0910503B09106032FBF0895CF9347
:10430000DF9300D000D0CDB7DEB78FB7F8942091FF
:104310000303309104034091050350910603298360
:104320003A834B835C838FBF69817A818B819C81C7
:104330000F900F900F900F90DF91CF9108959C01F7
:104340004FB7F8948091030390910403A091050363
:10435000B09106034FBF821B930B089578941F9270
:104360001FB61F9211248F939F93AF93BF93809199
:10437000030390910403A0910503B09106030196F5
:10438000A11DB11D8093030390930403A093050323
:10439000B0930603BF91AF919F918F911F901FBE65
:1043A0001F90189581E08093E00080E28093D80010
:1043B0001092C9008FE19EE40197F1F700C0000060
:1043C00087E090EBDC018093140390931503A09396
:1043D0001603B093170388E19CE00FB6F894A895F4
:1043E000809360000FBE90936000FFCF9093B9015F
:1043F0008093B80108958091B102089590910B03C4
:10440000943031F580938E0260938F027093900206
:1044100082E08093E9008FEF9091E800815095FD54
:1044200006C095ED9A95F1F700008111F5CF8091C6
:10443000E80085FF0DC050E040E063E070E08EE8EA
:1044400092E00E9401248091E8008E778093E8003A
:104450000895BC0184E00C94FE21BC0183E00C941F
:10446000FE21CF93DF93D82FC92F80911F0188237E
:10447000C1F18091B30287FF34C060E282E0809393
:10448000E9008FEF9091E800815095FD06C095ED11
:104490009A95F1F700008111F5CF8091E80085FF32
:1044A0001DC080911F0170E050E040E0811104C008
:1044B00050E040E068E070E08D2F9C2F0E940124C6
:1044C0008091E8008E778093E80080E2ED2FFC2F4A
:1044D000A1E9B2E001900D928A95E1F7DF91CF91C9
:1044E000089568E081E0CBCF089580910A0381119F
:1044F00009C00E9489250E94E6258091E20084601F
:104500008093E200089510920A0308950895089593
:10451000089542E061EC81E00E94052542E261ECF1
:1045200082E00C94052580910D03893089F148F4CF
:10453000823009F49DC0833009F458C0813041F0C5
:1045400008958A3009F484C08B3009F46AC0089554
:1045500080910C03813A09F048C08091E800877F80
:104560008093E8008091100390911103892B61F4EE
:1045700060E281E992E070E00E9450248091E800BE
:104580008B778093E800089560E090E080E0F3CFBF
:1045900080910C03813249F58091100390911103B1
:1045A000029718F58091E800877F8093E80080915A
:1045B000E80082FF16C09091F3008091F20002970C
:1045C00029F48091F1008B7F813021F48091F100FA
:1045D0008093B1028091E8008B778093E8000C947F
:1045E000392580910B038111E2CF089580910C034E
:1045F000813AD9F78091100390911103892BA9F783
:104600008091E800877F8093E8008091E80080FF38
:10461000FCCF80911F018093F1008091E8008E779C
:10462000DCCF80910C03813201F7809110039091CF
:104630001103892BD1F68091E800877F8093E800F1
:104640000E94392580910E0380931F010C9442082B
:1046500080910C03813249F68091E800877F809336
:10466000E8000E94392580910F038093B2020895DB
:1046700080910C03813A09F0B8CF8091E800877FE0
:104680008093E8008091E80080FFFCCF8091B20227
:10469000C2CF84B7877F84BF0FB6F894A895809166
:1046A0006000886180936000109260000FBE80E817
:1046B00090E00FB6F89480936100909361000FBE74
:1046C0000C942F100E9489250E94E625E2EEF0E06E
:1046D00080818460808378940E946D280E944310BA
:1046E00085E191E00C94CD1F80910B03853031F46E
:1046F00080910B03853021F00E9437210C944D10DE
:104700000E94EA2080910903882391F30E941F21CF
:10471000882371F30E94EB230E944208E9CF0C9496
:104720009123FC01CB01DA012F2F332723303105F0
:10473000D1F070F42130310509F43EC0223031054A
:1047400069F48BE390E02DE235E02D933C930895DE
:1047500021323105E9F02232310521F190E080E08B
:1047600030E020E0F2CFCF019927E13059F08230DC
:10477000910559F0E9E2F5E0892B81F7849190E009
:104780009F01E3CFE1E1F5E0F9CFE3E0F5E0F6CF1B
:10479000892BB9F06130710509F789E090E028E5CF
:1047A00035E0D3CF892B91F061307105B9F68DE6F4
:1047B00090E02AE735E0C9CF82E190E028E635E0D5
:1047C000C4CF89E090E02FE335E0BFCF80E490E0F4
:1047D00027EE35E0BACF80E189BD82E189BD09B419
:1047E00000FEFDCF8091D8008F7D8093D80080910E
:1047F000E00082608093E0008091E00081FDFCCFCA
:104800000895AF92BF92CF92DF92FF920F931F93C2
:10481000CF93DF936C01EB018A010E945825F82E9B
:10482000811123C00115110539F0F80180819181B2
:10483000C81BD90BC80ED91EB12CA12C2097A9F0EA
:104840008091E80085FD22C08091E8008E778093FA
:10485000E80001151105A1F0F80180819181A80EF1
:10486000B91EB182A08285E0F82E8F2DDF91CF9105
:104870001F910F91FF90DF90CF90BF90AF90089560
:104880000E9458258823D1F2F82EEFCFF6018191AE
:104890006F018093F1002197FFEFAF1ABF0ACECFCF
:1048A000FC01CB0120911203309113032617370727
:1048B00090F0009729F42091E8002E772093E800EB
:1048C00040E0009751F4411108C08091E80082FF58
:1048D00031C080E00895C901F3CF20910B0322235A
:1048E000A9F12530A9F12091E80023FD2DC02091E8
:1048F000E80022FDEACF2091E80020FFE2CF3091CE
:10490000F3002091F200009719F02830310558F09B
:1049100041E02830310509F040E02091E8002E7791
:104920002093E800CECF41914093F10001972F5F93
:104930003F4FE9CF80910B03882341F0853041F050
:104940008091E80083FFC1CF81E0089582E008955F
:1049500083E00895FC01CB012091120330911303F1
:104960002617370790F0009729F42091E8002E775A
:104970002093E80040E0009751F4411108C0809175
:10498000E80082FF32C080E00895C901F3CF209192
:104990000B032223B1F12530B1F12091E80023FD72
:1049A0002EC02091E80022FDEACF2091E80020FFF0
:1049B000E2CF3091F3002091F200009719F02830F7
:1049C000310558F041E02830310509F040E02091F0
:1049D000E8002E772093E800CECF44914093F10079
:1049E000319601972F5F3F4FE8CF80910B038823CB
:1049F00041F0853041F08091E80083FFC0CF81E035
:104A0000089582E0089583E00895982F973028F064
:104A10008F708093E90081E008959093E900242F3E
:104A2000762F50E0981731F07091EC002091ED0056
:104A30005091F00021FD02C09F5FE8CF3091EB0064
:104A40003E7F3093EB003091ED003D7F3093ED00E1
:104A50003091EB0031603093EB007093EC002093C9
:104A6000ED005093F0002091EE0027FDE5CF80E0AF
:104A7000089580910C0387FF13C08091E80082FFA6
:104A800006C08091E8008B778093E80004C0809195
:104A90000B038111F2CF089580910B038823D9F382
:104AA0008091E80080FFF8CF8091E8008E77ECCF0E
:104AB0002091E4003091E50095E6A9012091EC00F9
:104AC000822F817020FF06C08091E80080FF06C021
:104AD00080E008952091E80022FD1AC080910B0328
:104AE000882389F0853089F08091EB0085FD0FC027
:104AF0002091E4003091E50042175307F9F29150FC
:104B0000E1F684E0089582E0089583E0089581E06D
:104B100008950E94F7250E94FF25E0EEF0E08081D5
:104B200081608083E8EDF0E080818F77808319BC1D
:104B3000A7EDB0E08C918E7F8C9380818F7E8083F7
:104B400010920A0308950F931F93CF93DF930E944F
:104B5000F7250E94FF25C8EDD0E088818F778883F4
:104B600088818068888388818F7D888319BC1092B2
:104B70000B0310920703109209031092080300EE32
:104B800010E0F80180818B7F808388818160888339
:104B900042E060E080E00E940525E1EEF0E08081E7
:104BA0008E7F8083E2EEF0E080818160808380816F
:104BB00088608083F80180818E7F80838881806116
:104BC0008883DF91CF911F910F910895E8EDF0E078
:104BD00080818F7E8083E7EDF0E08081816080833B
:104BE00084E082BF81E080930A030C94A325E8ED62
:104BF000F0E080818E7F80831092E2000895109211
:104C0000DA001092E10008951F920F920FB60F92F2
:104C100011242F933F934F935F936F937F938F93C1
:104C20009F93AF93BF93EF93FF938091E10082FF37
:104C30000BC08091E20082FF07C08091E1008B7F72
:104C40008093E1000E946C288091DA0080FF19C0F7
:104C50008091D80080FF15C08091DA008E7F80930C
:104C6000DA008091D90080FF94C080E189BD82E1A3
:104C700089BD09B400FEFDCF81E080930B030E9443
:104C800075228091E10080FF19C08091E20080FFD1
:104C900015C08091E2008E7F8093E2008091E20057
:104CA00080618093E2008091D80080628093D80078
:104CB00019BC85E080930B030E9487228091E1005C
:104CC00084FF29C08091E20084FF25C080E189BD76
:104CD00082E189BD09B400FEFDCF8091D8008F7DAF
:104CE0008093D8008091E1008F7E8093E1008091D5
:104CF000E2008F7E8093E2008091E20081608093E9
:104D0000E20080910703882309F449C084E080937E
:104D10000B030E9488228091E10083FF29C08091CB
:104D2000E20083FF25C08091E100877F8093E1004E
:104D300082E080930B03109207038091E1008E7F45
:104D40008093E1008091E2008E7F8093E200809169
:104D5000E20080618093E20042E060E080E00E9437
:104D600005258091F00088608093F0000E948622E3
:104D7000FF91EF91BF91AF919F918F917F916F9133
:104D80005F914F913F912F910F900FBE0F901F9009
:104D9000189519BC10920B030E94832272CF809148
:104DA000E30087FD02C081E0B2CF83E0B0CF1F9265
:104DB0000F920FB60F9211242F933F934F935F934F
:104DC0006F937F938F939F93AF93BF93CF93DF9313
:104DD000EF93FF93D091E900DF708091EC00C82F32
:104DE000C17080FDC0E81092E9008091F000877FDB
:104DF0008093F00078940E941B271092E900809124
:104E0000F00088608093F000CD2BCF70C093E90054
:104E1000FF91EF91DF91CF91BF91AF919F918F91D2
:104E20007F916F915F914F913F912F910F900FBEA6
:104E30000F901F9018951F93CF93DF93CDB7DEB7D8
:104E4000AA970FB6F894DEBF0FBECDBF8CE093E0FB
:104E5000FC0101962091F100208323E08431920728
:104E6000B9F70E9493228091E80083FF1DC18091D1
:104E70000C0390910D039A3008F016C1E92FF0E071
:104E8000E554F64D0C94E228803899F0823809F008
:104E90000BC1809110038F70873008F005C180939B
:104EA000E9008091EB0085FB882780F91092E900EA
:104EB00006C080910803909109039111826090913E
:104EC000E800977F9093E8008093F1001092F10042
:104ED0008091E8008E77E4C0882309F4D2C0823044
:104EE00009F0E2C080910E038111D5C080911003BA
:104EF0008F702FEF280F263008F0D6C08093E9007E
:104F00002091EB0020FFC7C0933031F48091EB007B
:104F100080628093EB00BFC09091EB009061909312
:104F2000EB0021E030E001C0220F8A95EAF72093E0
:104F3000EA001092EA008091EB008860EACF8111CC
:104F4000B3C010910E031F778091E3008078812B0E
:104F50008093E3008091E800877F8093E8000E94BF
:104F600039258091E80080FFFCCF8091E3008068C4
:104F70008093E30082E0111183E080930B0394C0DF
:104F80008058823008F090C080910E0390910F03FA
:104F90008C3D23E0920799F583E08A838AE2898336
:104FA0004FB7F894DE01139620E03EE051E2E32F84
:104FB000F0E050935700849120FF03C082958F70DA
:104FC0003F5F8F708A30C8F0895C90E08D939D932D
:104FD0002F5F243161F74FBF8091E800877F809376
:104FE000E8006AE270E0CE0101960E9450248091B0
:104FF000E8008B778093E80057C0805DE6CF609132
:10500000100370911103AE014F5F5F4F0E948F2319
:10501000BC01892B09F448C08091E800877F809308
:10502000E80089819A810E94AA24E1CF8038E1F5C5
:105030008091E800877F8093E80080910703809348
:10504000F10046CF811130C090910E03923060F58F
:105050008091E800877F8093E800909307030E9487
:10506000392580910703882311F084E005C08091E1
:10507000E30087FDFACF81E080930B030E94892231
:1050800013C080910E03813079F481E0933009F0F0
:1050900080E0809309031092E9008091E800877F07
:1050A0008093E8000E9439258091E80083FF0AC0C0
:1050B0008091E800877F8093E8008091EB00806218
:1050C0008093EB00AA960FB6F894DEBF0FBECDBF5B
:1050D000DF91CF911F9108950895CF9380910B0395
:1050E0008823A1F0C091E900CF709091EC00892F46
:1050F000817090FD80E8C82B1092E9008091E80053
:1051000083FD0E941B27CF70C093E900CF910895C3
:10511000DB018F939F930E940629BF91AF91A29FBD
:10512000800D911DA39F900DB29F900D11240895A5
:10513000AA1BBB1B51E107C0AA1FBB1FA617B707BD
:1051400010F0A61BB70B881F991F5A95A9F78095D9
:105150009095BC01CD01089597FB072E16F400949D
:1051600007D077FD09D00E94982807FC05D03EF4AF
:10517000909581959F4F0895709561957F4F089503
:10518000A1E21A2EAA1BBB1BFD010DC0AA1FBB1F4B
:10519000EE1FFF1FA217B307E407F50720F0A21BBD
:1051A000B30BE40BF50B661F771F881F991F1A942A
:1051B00069F760957095809590959B01AC01BD0154
:1051C000CF010895EE0FFF1F0590F491E02D099493
:1051D0000E94F028332312F48A1B9B0B0C940129A4
:1051E000A29FB001B39FC001A39F700D811D112428
:1051F000911DB29F700D811D1124911D08950E9473
:10520000F028B7FF0895821B930B08950E94F028A1
:10521000A59F900DB49F900DA49F800D911D11240A
:105220000895B7FF0C9406290E940629821B930B50
:105230000895FC014150504030F001900616D1F71E
:105240003197CF010895882799270895FB01DC0144
:1052500004C08D910190801921F441505040C8F74D
:10526000881B990B0895F999FECF92BD81BDF89ADC
:10527000992780B50895A6E1B0E044E050E00C9491
:105280006D29A8E1B0E042E050E00C946D29262F92
:10529000F999FECF92BD81BDF89A019700B402162C
:1052A00039F01FBA20BD0FB6F894FA9AF99A0FBEDA
:1052B00008950396272F0E9448290E944729252FE9
:1052C0000E944829242F0C9448290196272F0E94D8
:1052D00048290C944729DC01CB01FC01F999FECF48
:1052E00006C0F2BDE1BDF89A319600B40D9241506E
:1052F0005040B8F70895F894FFCFD805D8053A067E
:105300003A068F06080608060806AB06600771070E
:105310007107D10708060806DA07E71BEE1BF31B27
:10532000F81BFD1B021C071C0C1C111C161C1B1C53
:105330001F1C241C271C2A1C2D1C301C321C351C35
:10534000181F1E1F221F301F341F381F3C1F421FF3
:105350004A1F4E1F521F561F621F661F6A1F6E1F75
:10536000741F921F7C1F2C1F5A1F5E1F461F781F21
:10537000881F9B1F9F1F44276C2754286C27542885
:0A5380009F27C02754281628222872
:10538A003902010102001000101001191A1B1C1D1C
:10539A001E1F202122FB21312274222D22292201C3
:1053AA00E200E900EA00B500B600B700CD008301CB
:1053BA00CC008A01920194012102230224022502CF
:1053CA00260227022A02B300B4006F007000E2002E
:1053DA00E900EA00B500B600B700CD008301CC00B1
:1053EA008A01920194012102230224022502260243
:1053FA0027022A02B300B4006F007000F0F1C667FA
:10540A0066F59431303534979633F4F69091929349
:10541A00953700010202020206060609090909096E
:10542A00090F0F0F0F0F0F1515151819191919193B
:08543A001919191919232400A6
:00000001FF
