:100000000C9408030C944F030C944F030C944F036F
:100010000C944F030C944F030C944F030C944F0318
:100020000C944F030C944F030C944A240C941D25FC
:100030000C94891F0C944F030C944F030C944F03A2
:100040000C944F030C944F030C944F030C944F03E8
:100050000C944F030C94F41F0C944F030C944F0317
:100060000C944F030C944F030C944F030C944F03C8
:100070000C944F030C944F030C944F030C944F03B8
:100080000C944F030C944F030C944F030C944F03A8
:100090000C944F030C944F030C944F030C944F0398
:1000A0000C944F030C944F030C944F0329003A0017
:1000B0003B003C003D003E003F004000410042004C
:1000C00043004400450046004C0035001E001F0060
:1000D0002000210022002300240025002600270004
:1000E0002D002E002A004A002B0014001A000800E0
:1000F000150017001C0018000C00120013002F0040
:10010000300031004D00394104621661076409680E
:100110000A000B000D780E740F7133723400490021
:1001200028004B00E1001D001B000600190005001F
:1001300011001000360037003800E50000005200C2
:100140004E00E000E300E200000000002C00000090
:100150000000E600E700E4005000000051004F00FE
:100160002942000000000000000000000000000024
:100170000000000000000000000048000000000037
:10018000000000000000000000000000000000006F
:100190000000000000000000000000000000A900B6
:1001A000000000000000000000000000000000004F
:1001B0000000AC00AB00AE0000000000AA00000090
:1001C000000000000000000000000000000000002F
:1001D000000000000000000001000100A800000075
:1001E000000000000000000000000000000001000E
:1001F00000000000000001000100010000000000FC
:1002000000000000000001000100010000000000EB
:1002100000000000000000000000000000000000DE
:10022000000000000000000000000000005C000072
:10023000A600000000000000000000000000000018
:1002400000000000000000000000000000000000AE
:100250000000C35CC45CC75CC65CC95CC85CCB5CAA
:10026000CA5C000000000000000000000000000068
:10027000000000000000000000000000000000007E
:10028000000000000000000000000000010001006C
:10029000C05CC25CBE5CBF5C0000000000000000EF
:1002A000000001000000000000000100010001004A
:1002B000000000000000000000000100010001003B
:1002C00000000000000000001E0F0500047F3F1F1B
:1002D000643214643214783C1E1E140A052223254D
:1002E0002628292A2C2D2F3032333536383A3B3DFB
:1002F0003E4042434547494A4C4E50515355575949
:100300005A5C5E6062646668696B6D6F7173757765
:10031000797B7D7F81838587898A8C8E9092949664
:10032000989A9C9E9FA1A3A5A7A8AAACAEAFB1B373
:10033000B4B6B8B9BBBCBEBFC1C2C3C5C6C7C9CAC3
:10034000CBCCCDCED0D1D2D2D3D4D5D6D7D7D8D985
:10035000D9DADADBDBDBDCDCDCDCDCDDDDDDDDDCE3
:10036000DCDCDCDCDBDBDBDADAD9D9D8D7D7D6D5F5
:10037000D4D3D2D2D1D0CECDCCCBCAC9C7C6C5C3B7
:10038000C2C1BFBEBCBBB9B8B6B4B3B1AFAEACAA04
:10039000A8A7A5A3A19F9E9C9A98969492908E8CB4
:1003A0008A89878583817F7D7B79777573716F6D8E
:1003B0006B6968666462605E5C5A59575553515068
:1003C0004E4C4A4947454342403E3D3B3A3836351C
:1003D0003332302F2D2C2A292826252322FFAA7FCD
:1003E0005540000101010101010101010202020267
:1003F00002020202020303030303030303040404CF
:100400000404040405050505050606060606070797
:1004100007070708080808090909090A0A0A0B0B4F
:100420000B0C0C0C0D0D0D0E0E0E0F0F0F101011EE
:100430001111121213131414151516161717181874
:1004400019191A1A1B1B1C1D1D1E1E1F20202122DC
:1004500022232424252626272829292A2B2C2D2D22
:100460002E2F30313232333435363738393A3B3C3F
:100470003D3E3F404142434445464748494A4C4D32
:100480004E4F50515354555658595A5B5D5E5F61FB
:100490006264656668696B6C6D6F7072737577788E
:1004A0007A7B7D7E8082838587888A8C8E8F9193EC
:1004B0009596989A9C9EA0A2A3A5A7A9ABADAFB113
:1004C000B3B5B7BABCBEC0C2C4C6C9CBCDCFD1D4F8
:1004D000D6D8DBDDDFE2E4E7E9EBEEF0F3F5F8FA9E
:1004E000FDFF1C034B0042004400370035005F0055
:1004F00048004F00540053005700410050000000D6
:1005000010034B0042004400460041004E005300DF
:1005100000000403090409023B00020100A0FA09DB
:100520000400000103010100092111010001224022
:10053000000705810308000A090401000103000007
:1005400000092111010001226D000705820320002E
:100550000A1201000200000008424B626003000121
:1005600002000105010980A101850319012AB700D4
:10057000150126B700950175108100C0050C090111
:10058000A101850419012AA002150126A0029501E6
:1005900075108100C005010906A10185050507192F
:1005A000E029E71500250195087501810205071965
:1005B0000029EF1500250195F07501810205081944
:1005C000012905950575019102950175039101C0F9
:1005D00005010906A101050719E029E71500250114
:1005E00095087501810295017508810105071900BB
:1005F00029FF150026FF00950675088100050819DA
:10060000012905950575019102950175039101C0B8
:1006100011241FBECFEFDAE0DEBFCDBF04B603FE6C
:1006200027C080917B0390917C03A0917D03B091C2
:100630007E038730904BA740B04BD1F410927B03E0
:1006400010927C0310927D0310927E0314BE84B737
:10065000877F84BF0FB6F894A89580916000886169
:1006600080936000109260000FBEE0E0F8E309950F
:1006700011E0A0E0B1E0E8E3F1E502C005900D92E1
:10068000A03CB107D9F723E0A0ECB1E001C01D9276
:10069000AB37B207E1F70E94A9130C9462280C94BF
:1006A000000080FD06C083E50E94840483E50C946D
:1006B000C804089581E0089581E008950C945C03D6
:1006C00008950C9460031F93CF93DF9300D000D064
:1006D0000F92CDB7DEB749835A836B833091C20145
:1006E00089819A8131111DC06623B9F02223A9F0B6
:1006F0000E94300A182F682F89819A810E94D90997
:1007000069817A81812F0F900F900F900F900F9039
:10071000DF91CF911F910C94FB100E94070A182FB4
:10072000EFCF0E94300A69817A81EDCFFC01262F3C
:10073000408151816281738184810C94630381E0E3
:100740000895CF93DF93D82FC92F60E00E949603BE
:100750006D2F7C2FDF91CF910C9461030E940812C2
:100760000E942F040C9441120C94441208950E948C
:10077000B2070E94B6032FEF84E39CE02150804033
:100780009040E1F700C000000C9418200F931F93D5
:10079000CF93DF938C0161E00E949603EC01B801D6
:1007A0000E945E038823D9F1B801CE010E94B11CDA
:1007B0008823A9F1B801CE010E94061D882379F192
:1007C000B801CE010E94EF1D882349F1B801CE0186
:1007D0000E94981B882319F1F8018281882361F017
:1007E000CB35FDE5DF0721F170F4C115ECE5DE073F
:1007F000A1F0CF3DDC45C9F0C801DF91CF911F9139
:100800000F910C945A03CC358DE5D807A1F0CD3566
:10081000DD4591F70E94A80DEFCF0E94B70380E05D
:10082000DF91CF911F910F9108950E94140FF7CF80
:100830000E94B10DE1CF0E94B40DDECF0C945103A4
:1008400081E00895CF93C82F0E942004882319F0D7
:10085000C1FF03C0469ACF9108954698FCCF3E9AB7
:1008600046980895CF93C82F0E941E048C2FCF91D5
:100870000C942204EF92FF920F931F93CF93DF9378
:10088000CDB7DEB72B970FB6F894DEBF0FBECDBF46
:10089000042F4F83152F588769877A878B87EA84BF
:1008A000FB8461110E94D90D1E8285E0FE013796FE
:1008B000DE01119601900D928A95E1F7EF28A9F4D7
:1008C00049815A816B817C818D819E810E94D70CE8
:1008D0002B960FB6F894DEBF0FBECDBFDF91CF9140
:1008E0001F910F91FF90EF90089510231F3F41F348
:1008F000CE0101960E949F038111E2CFE9CFFC0156
:10090000808191810C94720ACF93C82F8823F1F1D2
:100910008CEF8C0F813AA0F46C2F809104019091A0
:1009200005010E94851E882329F08C2F0E94780DD6
:100930000E94FC0D8C2F0E94710DCF910C94FC0D28
:1009400080E28C0F883048F4C77081E001C0880FC6
:10095000CA95EAF70E94BA0DF0CF8BE58C0F833071
:1009600038F42C2F2452330BC901CF910C94451E1F
:10097000C85AC73158F4EC2FF0E0EE0FFF1FEC5DC2
:10098000FE4F80819181CF910C945B1ECF91089591
:10099000882329F19CEF980F913A20F40E94780D5A
:1009A0000C94FC0D90E2980F983050F4877091E011
:1009B00001C0990F8A95EAF7892F0E94C00DF0CFE8
:1009C0009BE5980F933020F490E080E00C94451E56
:1009D000885A873120F490E080E00C945B1E0895E3
:1009E0001F93CF93DF93182FEB010E94840420976D
:1009F00031F4812FDF91CF911F910C94C8048FE9BE
:100A00009FE00197F1F700C000002197F0CF70E060
:100A100060E0893311F460E570E00C94F004882301
:100A200021F00E94BA0D0C94FC0D0895882321F04A
:100A30000E94C00D0C94FC0D0895CF92DF92EF92AE
:100A4000FF920F931F93CF93DF9300D000D00F92AC
:100A5000CDB7DEB77C016D837983FC0112810581FE
:100A600002950F700E948F0DC82E8823A1F0C12E11
:100A7000112389F08981807F803429F08D81805E07
:100A8000C12C883040F082E00E944D0E0E948F0DF4
:100A900091E0C82EC926D980D2948FE0D822F8E000
:100AA000DF1609F4F4C0FD1508F44EC023E02D153F
:100AB000E8F08981807F39813F70398391E09D150D
:100AC00008F055C0803221F029812295207F2983AA
:100AD0003D81332309F482C0313009F49FC01123D2
:100AE00009F4A7C0002309F49EC058C0E4E0DE1654
:100AF00009F4B1C0ED2DE850FF0B349720F40E94AB
:100B00001E1E0E943204CC2009F4CDC10E948B0D20
:100B100080FDC9C1F70112820E94850D0E94C9089B
:100B2000C7010E9478070E94850D0F900F900F90CB
:100B30000F900F90DF91CF911F910F91FF90EF9049
:100B4000DF90CF900C94FA08F9E0DF1609F44BC15E
:100B500086E08D0D8F70823068F62D81223F09F07E
:100B600053C189818F71112309F481C14AC188233E
:100B700021F009810295007F09831123B9F01981C1
:100B8000112361F08D81805E883018F00D81011194
:100B900009C089810E94BA0D0E94FC0D8D810E94BE
:100BA0008404A8CF89810E94CB0DF6CF8D810E944D
:100BB000C8041981112309F49DCF8D81805E88308E
:100BC00018F00D81011106C089810E94C00D0E949C
:100BD000FC0D90CF89810E94D10DF9CF112391F0A6
:100BE000011107C00E94DF0D0981802B0E940F05B3
:100BF00081CF0130B9F70E94DF0D1981812B0E944E
:100C0000E50D78CF011106C00E94F20D89810E9486
:100C1000160570CF013009F46DCFF6CF112329F0FE
:100C2000063008F067CF8981E1CF053008F062CF48
:100C3000EDCF002359F31D81193349F42FEF37EE1F
:100C400083E0215030408040E1F700C000008D81FA
:100C50000E94C8044FCF898186958695837069F07C
:100C6000813009F047CF8D8199819370111102C0B5
:100C700090E080E00E945B1E3DCF8D819981937052
:100C8000111102C090E080E00E94451E33CF89819F
:100C9000837009F050C011112DCF2D81229526951A
:100CA0002770220F220F8D818F7090E0B0E0A0E0BE
:100CB000022E04C0880F991FAA1FBB1F0A94D2F7E7
:100CC0000D8140E050E0BA0104FF0FC04FE050E05A
:100CD00060E070E004C0440F551F661F771F2A951F
:100CE000D2F7409550956095709519811695169597
:100CF00013701D838A019B01082B192B2A2B3B2B78
:100D000009831A832B833C831D8169817A818B81BE
:100D10009C81123051F0133059F0113019F00E94BB
:100D20003F08E8CE0E941708E5CE0E946708E2CE91
:100D30000E941508DFCE112309F448C0098100FF85
:100D4000D9CE2D81229526952770220F220F8D81D5
:100D50008F7090E0B0E0A0E0022E04C0880F991FD1
:100D6000AA1FBB1F0A94D2F70D8140E050E0BA01E0
:100D700004FF0FC04FE050E060E070E004C0440F9B
:100D8000551F661F771F2A95D2F74095509560959D
:100D9000709519811695169513701D838A019B0114
:100DA000082B192B2A2B3B2B09831A832B833C837B
:100DB0001D8169817A818B819C81123071F01330A1
:100DC00079F0113039F00E94880994CE198111FF11
:100DD00091CEB7CF0E9460098DCE0E94B0098ACE15
:100DE0000E94930887CE09810F700983112329F08F
:100DF000802F0E94C9088D81F9CE8D810E94160531
:100E000089810E94FA0876CE2D81233F60F4203F2D
:100E1000E1F0213F41F1112309F440C00111BECEA0
:100E200089818F7124C03D81333F21F1343F99F78F
:100E3000112351F109810F710983802F0E94C90884
:100E400063E089810E94320E55CE112341F00530B6
:100E500008F050CE89818F710E942F094BCE063049
:100E600008F048CEF7CF89818F71112351F20E948B
:100E7000C90840CE112329F089818F710E94A408EE
:100E800039CE0E949F0836CE81E00E944D0E02307E
:100E900008F430CE82E00E944D0E2CCE0111CBCE54
:100EA00089818F71AECF0F900F900F900F900F90A0
:100EB000DF91CF911F910F91FF90EF90DF90CF9036
:100EC00008950F931F93CF93DF93EC01688179818D
:100ED0008A810E947E0A8C010E94D8090E9414080F
:100EE000B801CE01DF91CF911F910F910C941D0598
:100EF000CF93DF93EC018B819C81892B29F0898131
:100F0000988189238F3F59F4DF91CF910895CE01C5
:100F10000E946107CE01DF91CF910C94A103CE0115
:100F20000E94C6038111F3CF0E948F0D882361F3C5
:100F30008A81882349F382E0DF91CF910C944D0E92
:100F400090E080E00E94451E90E080E00E945B1EE1
:100F50000E94D90D0E94DC0D0C94FC0D0E947F0DA7
:100F60000C94A0070E94C80D0C94AE07282F892F5F
:100F700082958F70903C80F48A30B0F4843020F4F5
:100F8000823090F480E008958630E1F781E0283ED9
:100F900088F0213FB9F70EC08C3011F08F3091F7F7
:100FA00093FB882780F9089581E0203F39F018F4F9
:100FB000283E40F70895243F29F7FCCF0895FC010F
:100FC000808191810E94720A0C94B607CF93DF93BF
:100FD00000D000D00F92CDB7DEB70F900F900F90DA
:100FE0000F900F90DF91CF910895CF93DF9300D0B2
:100FF00000D000D0CDB7DEB726960FB6F894DEBF8E
:101000000FBECDBFDF91CF91089508950C940508D0
:101010000E94060860930302709304028093050205
:10102000909306020C94A00708950C940808CF939F
:10103000DF9300D000D0CDB7DEB769837A838B838E
:101040009C838091030290910402A0910502B091CB
:10105000060229813A814B815C81282B392B4A2B4E
:101060005B2B29833A834B835C83CA01B9010F90C0
:101070000F900F900F90DF91CF910C940808CF93B1
:10108000DF9300D000D0CDB7DEB769837A838B833E
:101090009C838091030290910402A0910502B0917B
:1010A000060229813A814B815C81282339234A2316
:1010B0005B2329833A834B835C83CA01B9010F9078
:1010C0000F900F900F90DF91CF910C940808CF9361
:1010D000DF9300D000D0CDB7DEB769837A838B83EE
:1010E0009C838091030290910402A0910502B0912B
:1010F000060229813A814B815C81282739274A27BA
:101100005B2729833A834B835C83CA01B9010F9023
:101110000F900F900F90DF91CF910C9408080C94D2
:1011200005080C948F080E9491086093FF0170934A
:10113000000280930102909302020C94A00760E0E9
:1011400070E0CB010C9493080F931F93CF93DF9320
:1011500000D000D0CDB7DEB741E050E060E070E0F5
:101160008A019B0104C0000F111F221F331F8A95A3
:10117000D2F709831A832B833C83C901B8010F90EE
:101180000F900F900F90DF91CF911F910F910C94C2
:1011900093080F931F93CF93DF9300D000D0CDB768
:1011A000DEB741E050E060E070E004C0440F551F3E
:1011B000661F771F8A95D2F78091FF0190910002F8
:1011C000A0910102B09102028A019B01082B192B08
:1011D0002A2B3B2B09831A832B833C83C901B8013B
:1011E0000F900F900F900F90DF91CF911F910F9163
:1011F0000C9493080F931F93CF93DF9300D000D0EC
:10120000CDB7DEB741E050E060E070E004C0440FCD
:10121000551F661F771F8A95D2F7409550956095A8
:1012200070958091FF0190910002A0910102B09110
:1012300002028A019B01082319232A233B230983E5
:101240001A832B833C83C901B8010F900F900F9034
:101250000F90DF91CF911F910F910C9493080F93F2
:101260001F93CF93DF9300D000D0CDB7DEB741E01E
:1012700050E060E070E004C0440F551F661F771F08
:101280008A95D2F78091FF0190910002A09101020E
:10129000B09102028A019B01082719272A273B27C0
:1012A00009831A832B833C83C901B8010F900F90E7
:1012B0000F900F90DF91CF911F910F910C94930895
:1012C000CF93DF9300D000D0CDB7DEB769837A83A8
:1012D0008B839C838091FF0190910002A091010279
:1012E000B091020229813A814B815C81282B392BF4
:1012F0004A2B5B2B29833A834B835C83CA01B90158
:101300000F900F900F900F90DF91CF910C94930856
:10131000CF93DF9300D000D0CDB7DEB769837A8357
:101320008B839C838091FF0190910002A091010228
:10133000B091020229813A814B815C8128233923B3
:101340004A235B2329833A834B835C83CA01B90117
:101350000F900F900F900F90DF91CF910C94930806
:10136000CF93DF9300D000D0CDB7DEB769837A8307
:101370008B839C838091FF0190910002A0910102D8
:10138000B091020229813A814B815C81282739275B
:101390004A275B2729833A834B835C83CA01B901BF
:1013A0000F900F900F900F90DF91CF910C949308B6
:1013B0000895E82F2FE0929FE00D11248E2F877063
:1013C00041E001C0440F8A95EAF7E695E695E69577
:1013D00085E0E89FF0011124ED53FE4F30E020E05E
:1013E00070E05191DF011197CB01022E02C096955A
:1013F00087950A94E2F78170819585278423852754
:101400008C932F5F3F4F2530310559F70895E82F12
:101410002FE0929FE00D11249E2F9770E695E695A0
:10142000E69585E0E89FF0011124ED53FE4F50E072
:1014300040E080E0219130E0092E02C036952795EA
:101440000A94E2F721703327042E01C0220F0A9478
:10145000EAF7822B4F5F5F4F4530510559F70895EA
:10146000BF92CF92DF92EF92FF920F931F93CF9391
:10147000DF938C01C090FF01D0900002E090010248
:10148000F09002028091030290910402A091050263
:10149000B0910602C82AD92AEA2AFB2ACFE1D0E075
:1014A000BC2ED701C6010C2E04C0B695A795979502
:1014B00087950A94D2F780FD0EC0219788F7B12C4A
:1014C0008B2DDF91CF911F910F91FF90EF90DF90C7
:1014D000CF90BF900895B8018C2F0E940F110197F3
:1014E00061F3EECFCF93DF93D82FC92F0E94300A3C
:1014F0006D2F7C2FDF91CF910C940F111F93CF9301
:10150000DF93162FD72F9091C201992339F0862FA0
:10151000972FDF91CF911F910C94720A882391F03D
:10152000862F972F0E94300AC82F682F812F9D2F5A
:101530000E94D909612F7D2F8C2FDF91CF911F91B0
:101540000C940F11862F972F0E94070AC82FF2CFF5
:101550001F93CF93DF93E091070216E0809108027A
:101560008E1304C0DF91CF911F910895CE2FD0E04C
:101570001E9FF0011124E75FFD4F40815181628180
:101580007381848195810E94F507FE013196E77091
:10159000E5CF4091390250913A0260913B0270913F
:1015A0003C0280913D0290913E020C94F5071F93FE
:1015B000CF93DF9380913E02807FA9F480913B021C
:1015C000882389F080910702C09108027091390246
:1015D00060913A02A0913C02B0913D02D62FD723F0
:1015E00016E0C81304C0DF91CF911F91089590E0D9
:1015F000109711F0DF3F19F401968770F2CF189F12
:101600009001199F300D1124F901E75FFD4F4181D1
:101610006413F2CF40814713EFCF42814111ECCFE9
:10162000438154814A1B5B0B483C510528F780914C
:101630003E028F70806180933E02F901E25FFD4FB0
:1016400080818F708061808389E392E00E947807B7
:10165000DF91CF911F910C94A80AAF92BF92CF92C5
:10166000DF92EF92FF920F931F93CF93DF93CDB74B
:10167000DEB72B970FB6F894DEBF0FBECDBF8C013F
:1016800085E0F801DE01179601900D928A95E1F749
:10169000D8011296EC9099E3C92E92E0D92E609170
:1016A0003C0270913D026115710549F020913902AB
:1016B00090913A02892F82238F3F09F060C1EE207A
:1016C00009F471C1C8010E94DF07F82E882309F4CC
:1016D0006AC186E0F801A9E3B2E001900D928A9513
:1016E000E1F789E392E00E947F040E94D70A26C1B5
:1016F00080913E02382F307F683C710508F0CEC0E3
:10170000311109C1FE2C951324C0241322C0E1100D
:1017100020C08F70806180933E020E94C90A89E3D5
:1017200092E00E94780780913E02F80185838F2D18
:101730002B960FB6F894DEBF0FBECDBFDF91CF91D1
:101740001F910F91FF90EF90DF90CF90BF90AF90DF
:1017500008954F835887A114B10429F0842F85235D
:101760008F3F09F0D5C080E080FF08C0E0910702FC
:101770002091080286E0D82EE2131BC0AB2829F086
:10178000842F85238F3F09F0B5C080E0F82FF170DA
:10179000DF2EE09107022091080236E080FD30C084
:1017A000EE2029F280913E02816080933E02F12C6E
:1017B000BECF8E2F90E0DE9EF0011124E75FFD4F3B
:1017C0003181351306C03081341303C03281E312F6
:1017D00094C0FC013196E770CFCF8E2F90E03E9FF2
:1017E000F0011124E75FFD4F6181651306C0608140
:1017F000641303C06281E612D3CFFC013196E77017
:10180000E213EBCF8F8198850E94720A292F2295CF
:101810002F70903268F0225F2F70223080F49F701A
:1018200059F0D80115969C91907F31F4D12C0AC0C3
:101830009F7011F08823D1F3805E8830B8F3C8011F
:101840000E947807FD2C73CFC8010E94DF07882310
:1018500009F4A9C0EE2009F4A6C080913E028032AE
:1018600070F02091390230913A023A8329831B8229
:10187000BD82AC828E83CE0101960E94780786E0FD
:10188000F801A9E3B2E001900D928A95E1F70E9478
:10189000D70A0E94C90AFF24F39449CF311151C0DD
:1018A0006E2D7A858B850E94E60789E392E00E947F
:1018B000780786E0D6011D928A95E9F70E94C90A49
:1018C00076CFC8010E94DF078111D9CF80913E02F7
:1018D000816080933E02C8010E94780728CF6E2D58
:1018E0007A858B850E94E60786E0F60111928A953B
:1018F000E9F724C081E08E2549CF89E392E00E9478
:101900007807E9E3F2E0DF011D92DA94E9F7D6CF38
:1019100081E08E2529CF951397CF241395CFE11021
:1019200093CFF8018583C8010E94780786E0F8010B
:10193000A9E3B2E001900D928A95E1F70E94C90AED
:10194000F6CE951381CF24137FCFE1107DCFF80120
:101950008583C8010E94780786E0D6011D928A958A
:10196000E9F7E5CE9513ADCF2413ABCF86E0F801B0
:10197000A9E3B2E001900D928A95E1F7D8CEF80183
:1019800040815181A380B480F0903B02D501A61B19
:10199000B70BBD01F110ACCE683C710508F09FCFCC
:1019A000FE2CE110DFCFC8010E94780774CF1F938F
:1019B000CF93DF93CDB7DEB72C970FB6F894DEBF89
:1019C0000FBECDBF4F83588769877A878B879C87E7
:1019D000CE0107960E942D0B882369F08A859B858E
:1019E000892B39F058854F81852F84238F3F09F04B
:1019F00071C016E05FC086E0FE013796DE011196E9
:101A000001900D928A95E1F78A859B85892B89F350
:101A10008F81988589238F3F61F32091080230E000
:101A2000C901019687709927409107024817190646
:101A300071F40E94B207109208021092070286E029
:101A4000E9E3F2E0DF011D928A95E9F7D2CF96E053
:101A5000929FD001939FB00D1124A75FBD4FFE014F
:101A6000319601900D929A95E1F7809308020E94B9
:101A7000A80ABFCF819FC0011124875F9D4F0E949C
:101A80002D0B8823E9F0E09107021E9FF00111243D
:101A9000E75FFD4F4081518162817381848195812F
:101AA0000E94F5078091070290E0019687709927C0
:101AB0008093070280910702909108028913DACF80
:101AC0002C960FB6F894DEBF0FBECDBFDF91CF913D
:101AD0001F91089569857A858B859C850E94F507FD
:101AE00088CF682F80910401909105010C94091F03
:101AF000682F80910401909105010C94141F80912E
:101B00000401909105010C941F1F80913F0285955F
:101B100085958595089580913F02877008959091ED
:101B20003F02977081E009F480E0089590911603D8
:101B300092FB222720F9281751F080FB92F990930D
:101B4000160380911503909116030C94900E08953E
:101B50008091160382FB882780F991E089270C94F5
:101B6000960D81E00C94960D80E00C94960D80917A
:101B70006302089590916302982B909363020895F5
:101B8000982F909580916302892380936302089532
:101B900010926302089590916202982B90936202D2
:101BA0000895982F90958091620289238093620214
:101BB0000895109262020895109261020895809132
:101BC0004002089508950C94E20D9091160392FD41
:101BD00008C090914002981721F0809340020C9425
:101BE000E30D089580914002882329F0109240026D
:101BF00080E00C94E30D0895E0910401F09105015B
:101C0000809163028083E0910401F091050180815D
:101C100090916202892B8083E0910401F09105018B
:101C2000808190916102892B808390914002992359
:101C300081F0E0910401F09105018081892B80837E
:101C400080910401909105010E94711E81110E94F2
:101C5000F20D80910401909105010C942A1E0895C3
:101C60000C942F0E9091160392FD10C098E0899F5E
:101C700090011124622B60933F020E94C908809159
:101C80003F028595859585950C94300E0C94C90876
:101C900010923F0280E00C94300E90913F028095AC
:101CA000892380933F02282F277039F4282F082E8C
:101CB000000C330B9217130621F49091160392FF38
:101CC00007C08595859585950E94FA080C94480E65
:101CD00008956FEF7FEF90E080E00C942D2890E066
:101CE00080E00E9409289C0181E0293E3E4F09F0D6
:101CF00080E0089582E090E00C94FB2783E090E080
:101D00000C94FB27CF9384E090E00E94FB27C82F20
:101D100082E290E00E94FB27982F8C2FCF910895AC
:101D2000CF93682FC92F84E090E00E940F286C2F7A
:101D300082E290E0CF910C940F28AB01BC018FE0C0
:101D400090E00C942128AB01BC0183E190E00C945D
:101D5000212860E070E0CB010C94A30E60E070E0FD
:101D6000CB010E949D0E0C94A90E69EE7EEF90E0CF
:101D700080E00E942D2860E082E090E00E940F2821
:101D800060E083E090E00E940F281092030210921E
:101D90000402109205021092060260E084E090E0D6
:101DA0000E940F2860E082E290E00E940F2860E02D
:101DB00085E090E00E940F2860E086E090E00E94BD
:101DC0000F286FEF87E090E00E940F2840E050E07E
:101DD000BA0188E090E00E94212860E08DE090E068
:101DE0000E940F2840E050E0BA0188E190E00E9494
:101DF000212860E087E190E00E940F2840E050E059
:101E0000BA018CE190E00E94212870E060E080E25D
:101E100090E00E942D2840E050E0BA0188E190E077
:101E20000E9421280C94AE0E0C94B50E682F8EE003
:101E300090E00C940F280E94C51F60937502709368
:101E40007602809377029093780260937102709388
:101E500072028093730290937402089585B780682C
:101E600085BF85B7806885BF0895089508950C944F
:101E7000350F08950C94390F0E942E0F8EEE91E1CC
:101E80000E943C200E94360F0C94370F81E0089589
:101E90000C94460F089508950E944A0F0C944B0F1E
:101EA0000E94B01F0E940C130E94961AE5E1F3E015
:101EB00080818068808380911503909116030E9431
:101EC000900E0C943A0F8F929F92AF92BF92CF9246
:101ED000DF92EF92FF920F931F93CF93DF9300D087
:101EE00000D00F92CDB7DEB70E94211381110E945E
:101EF0001B0F55E6852E52E0952E10E000E0A02E37
:101F0000802F0E9446127C01F401C190D1904F01B4
:101F1000C816D90609F45BC08091790281FD0E9440
:101F20004F12C6018E259F25B12CCC24C394D12CF1
:101F30009C012C213D21232B09F443C00E94480F12
:101F40008823A9F0B982AA82EC20FD2081E0EF2845
:101F500009F480E08B830E94B91F8160782F9D83F4
:101F60008C8349815A816B818D810E943A04000FD4
:101F7000111FF801EB59FD4F80819181C826D926A8
:101F8000D182C0820E94DA1A0E941E1E90916402C1
:101F90008917A1F10E941E1E809364020F900F907A
:101FA0000F900F900F90DF91CF911F910F91FF90A5
:101FB000EF90DF90CF90BF90AF909F908F900C9458
:101FC0003204B394CC0CDD1CFFE0BF12B1CF0F5F25
:101FD0001F4F0630110509F092CF8FEF89838A8356
:101FE0001B820E94B91F8160782F9D838C83498159
:101FF0005A816B818D810E943A04C4CF0F900F905B
:102000000F900F900F90DF91CF911F910F91FF9044
:10201000EF90DF90CF90BF90AF909F908F900895FA
:10202000CF93DF930E941311EC01811522E59207F3
:1020300008F054C0811531E5930708F0AFC08F3B1D
:102040009105B8F4883A910508F09AC0853A91054F
:1020500068F4049738F481E0219709F080E0C82FF4
:1020600040E0D42FCE01DF91CF910895A497D064A2
:10207000F9CFC11580E5D807A0F4C11590E4D907C0
:1020800008F089C0C83ED10530F4C03ED10550F7F4
:10209000D0E0C0E0E7CFCE019A9581159F4110F3C3
:1020A000F7CFCE01F4E096958795FA95E1F7837026
:1020B0002C2F26952695237040E2249F9001112411
:1020C000382B8C2F8370C1E0D0E002C0CC0FDD1F15
:1020D0008A95E2F7C22BD32BDC68C4CFC11586E505
:1020E000D80730F5C11595E5D90708F06BC0C115C3
:1020F00024E5D207C0F48C2F869586959E01237027
:102100003327C115D34508F04EC0C1E0D0E002C06E
:10211000CC0FDD1F2A95E2F720E2829FC001112437
:10212000C82BD92BD9CFDC2FCC27C46FD06A9ACF3C
:10213000C1153AE5D30788F4C11549E5D40708F07D
:102140004CC0CE0198558F3F910511F008F0A0CFFB
:10215000DC2FCC27C06FD06A85CFCE019056811579
:10216000904208F095CF8D2F8F710E94AB1190E0B7
:10217000982F882788279F719C012C2BE9012BC061
:10218000C85AD0E0CC0FDD1FCE5ADE4F0990D8815F
:10219000C02DD46467CFDF70D06A64CFD82FCC272E
:1021A000C16FD06A5FCFC1E0D0E002C0CC0FDD1FAD
:1021B0002A95E2F730E2839FC0011124C82BD92B66
:1021C000DA6850CF8C2F0E94AB11C82FD0E0DC2FE3
:1021D000CC27CC27DF71D06245CF8C2F8F700E9427
:1021E000AB1134E0D695C7953A95E1F7CF70DC2F67
:1021F000C82FD06937CF972F70E02FE0929F600DE6
:10220000711D1124FB019AE5899FE00DF11D112438
:10221000EE0FFF1FE455FF4F8591949108950E94A2
:10222000FB100C941010803E910599F1C8F4813395
:10223000910509F476C048F48932910509F46AC021
:102240008A32910509F474C0089589339105D1F05B
:1022500082389105B9F08533910509F454C0089589
:10226000843E910599F138F4823E9105F9F0833E60
:10227000910509F10895863E910599F1873E9105F2
:10228000B9F10895209115032370A1F080EE90E03C
:1022900008952091150320FD52C03091160330FFA0
:1022A00009C024FF4FC090E080E004C020911503D6
:1022B00022FDF7CF08952091150322FD46C03091ED
:1022C000160330FDE3CF24FFF5CFEDCF20911603A9
:1022D00021FFF0CF8091150384FDE5CF87EE90E0DC
:1022E00008952091150323FFE5CF24FDDCCFF6CF21
:1022F0002091150323FD2CC03091160331FFE3CF4D
:1023000084EE90E008952091150325FFD3CF89E254
:1023100090E008952091150325FFCCCF85E390E050
:1023200008952091150326FFC5CF8AE290E0089515
:102330002091150326FFBECF81E390E0089589E345
:1023400090E0089583EE90E0089582EE90E0089585
:1023500086EE90E008959091150392FF06C0282F15
:1023600028712830F9F4877F846093FF06C0282FF6
:1023700028712831F1F4877E84612091160320FFB3
:1023800006C0382F38713830D9F4877F816021FF3B
:1023900006C0282F28712831D1F4877E816194FDF1
:1023A000877E0895282F24712430F9F68B7F88606A
:1023B000DCCF282F2471243101F78B7E8861DDCF9B
:1023C000382F3171313019F78E7F8860E0CF282F98
:1023D0002171213121F78E7E8861E1CF80E008955F
:1023E0000C94690E0E9421138FE39CE90197F1F789
:1023F00000C000000E94211380E00E94461280FF6E
:1024000004C00E94F0110C94182008950C94F2114D
:10241000CF93DF9300D000D0CDB7DEB70E946F0E10
:10242000811102C00E94140F0E947A0E80937902DB
:102430000E94820E90931603809315030E94061249
:102440000E947E0E282F30E050E040E0CA01B90122
:102450000E9415088091FF0190910002A091010255
:10246000B091020289839A83AB83BC83BC01CD0106
:102470000F900F900F900F90DF91CF910C949108D7
:1024800008950C94401208950C944312E82FF0E044
:10249000EE0FFF1FED5DFC4F80819181089508953F
:1024A00080EA8A95F1F7089500C008950C945012BF
:1024B000F894E82FE295EF70A1E2AE0FB0E04C91F6
:1024C0008F7021E030E0B90102C0660F771F8A9556
:1024D000E2F7CB01962F909594239C93EE5DF0E06C
:1024E0009081892B808378940895CF93DF93CFE8F0
:1024F000D1E089918F3F11F00E94581281E0C539D7
:10250000D807B9F7C0E8D1E089918F3F11F00E9458
:10251000581281E0CF38D807B9F7DF91CF910895ED
:10252000AF92BF92CF92DF92EF92FF920F931F93E1
:10253000CF93DF93EC01D62E062F10E0C801815710
:102540009E4F7C01FC0180818F3F09F457C0F894B5
:10255000E82FE295EF70A1E2AE0FB0E09C918F7092
:1025600021E030E001C0220F8A95EAF7892F822B03
:102570008C93EE5DF0E08081209528232083789471
:102580000E945412E0E8F1E050E040E0B12CA12CB0
:1025900061E070E081918F3FE1F1A82FA295AF70CB
:1025A000A05EB0E02C9130E08F7002C03595279589
:1025B0008A95E2F720FD2DC09B01042E02C0220F58
:1025C000331F0A94E2F7A22AB32A4F5F5F4F4F30BE
:1025D000510501F7F70180818F3F11F00E945812D9
:1025E00061E0A114B10409F460E08D2D0E9456123F
:1025F000000F111FC00FD11FB982A882DF91CF91A8
:102600001F910F91FF90EF90DF90CF90BF90AF9010
:10261000089520E030E0D7CF0E9475128CE0E7E10A
:10262000F3E0DF01982F1D929A95E9F7E3E2F3E0DA
:10263000DF011D928A95E9F786E00E946F130C94E2
:10264000AE03FF920F931F93CF93DF93CDB7DEB707
:102650002C970FB6F894DEBF0FBECDBFFE013196AA
:102660008CE0DF011D928A95E9F710E0FE2E0F2F16
:10267000612F8F2D902F0E9490121F5F1630C1F78F
:102680004CE050E06F2D702F87E193E00E94EE2721
:102690009C0111E0892B09F410E0232B49F08CE018
:1026A000EF2DF02FA7E1B3E001900D928A95E1F7AD
:1026B000212F46E063E273E087E193E00E9470130C
:1026C0000E94B403812F2C960FB6F894DEBF0FBE84
:1026D000CDBFDF91CF911F910F91FF900895089585
:1026E000FF920F931F93CF93DF93F82E092F162F8E
:1026F000D72FC42F222349F081E080937C020E94CF
:10270000B91F90937B0280937A0280917C02882388
:10271000A1F080917A0290917B020E94E51F0597BB
:1027200060F0EF2DF02FA12FBD2F90E080E0D0E0E2
:102730008C179D0744F010927C02DF91CF911F917E
:102740000F91FF900895219131912D933D93019622
:10275000EFCF0E94311F0E948F210E94A8210E946A
:10276000BA210E944C0FFBCFCF92DF92EF92FF92E3
:102770000F931F93CF93DF93D62FC72F982F7111ED
:1027800013C0442329F0E82FF0E0EE51FC4F949160
:10279000692F792F892FDF91CF911F910F91FF9092
:1027A000EF90DF90CF900895272F30E0E82FF0E0F2
:1027B000442321F0EE51FC4FE491F0E086E0D89FF5
:1027C000700111240FEF10E0C701B8010E94E82644
:1027D0008D2F90E0880F991FA5E5A69FA001A79FC8
:1027E000500D1124841B950BD82EDD0CD80EC8017A
:1027F000821B930B8E9FA0018F9F500D9E9F500DAB
:102800001124952FDC9EE0011124CD2FDD27D80166
:10281000AC1BBD0BED01CE9FD001CF9FB00DDE9F55
:10282000B00D11248B2FE801CD19D1096E01C29E84
:10283000E001C39ED00DD29ED00D1124CD2FDD27F7
:102840000C1B1D0B0E9FE0010F9FD00D1E9FD00D86
:1028500011242E2F63307105D9F03CEFE31633E0DD
:10286000F30668F461307105B9F062307105C1F0AA
:10287000AFEFEA16F10448F4852F9D2F06C06430AF
:10288000710589F066307105B9F3692F722F83CF16
:102890009B2F8E2F252FF9CF9E2F2B2F852FF5CFF6
:1028A0008D2F9E2FF7CF8E2F2D2FEFCF41E00C9441
:1028B000B41308950C945614CF93DF93982F762F6A
:1028C000842FE901692F0E945A14798368838A83CF
:1028D000DF91CF91089580912F03982F9E7F29F447
:1028E0008170826080932F0308958635E8F38170AC
:1028F0008465F8CF88E090E00C9403280F931F9331
:10290000CF93DF938B01D82FC92F0E946B14A8019E
:102910006D2F7C2F88E090E0DF91CF911F910F9178
:102920000C942128EFE2F3E08DE0808311828FEF99
:10293000828383838FE084836DE070E08FEF9FEF6D
:102940000C947E1480912F0380FF02C08695089519
:1029500080E00895CF93DF9300D000D0CDB7DEB7ED
:1029600090913303933018F49F5F9093330388233F
:10297000B1F080912F0390913003A0913103B09179
:10298000320389839A83AB83BC83BC01CD010F9052
:102990000F900F900F90DF91CF910C947E140F90B9
:1029A0000F900F900F90DF91CF91089581E00C94DC
:1029B000AA14CF93DF9300D000D0CDB7DEB79091AB
:1029C0003303992319F09150909333038823B1F086
:1029D00080912F0390913003A0913103B091320385
:1029E00089839A83AB83BC83BC01CD010F900F9088
:1029F0000F900F90DF91CF910C947E140F900F9059
:102A00000F900F90DF91CF91089581E00C94D9142D
:102A100070E00C94171C60910A0180912F0380FFD5
:102A20000AC08091090123E0829FC00111248C5CBF
:102A30009C4F0C94081580910B0190910C0123E0A0
:102A4000829FF0011124EC5CFC4F891750F7118232
:102A5000108212828F5F3396F8CF90912F0390FFF0
:102A600014C090910B0120910C0133E0939FF00171
:102A70001124EC5CFC4F921710F00C940B15818321
:102A8000608342839F5F3396F6CF0895CF93DF93A1
:102A900000D00F92CDB7DEB790912F0390FF0AC000
:102AA0009E012F5F3F4F0E945C144B8169818A8198
:102AB0000E942D150F900F900F90DF91CF910895E8
:102AC000CF93DF93EC01EC81F0E0E352FD4F4491B2
:102AD000EFE2F3E0628181810E9446158C818F5F75
:102AE0008C83DF91CF910895CF93DF93EC01EFE2D8
:102AF000F3E0438162818C810E9446158C818F5F57
:102B00008C83DF91CF9108950F931F93CF93DF9321
:102B100000D00F92CDB7DEB78C0180917D0281117C
:102B20000AC09E012F5F3F4F4FEF6FEF0E945C1472
:102B30008A8180937D02F8016481613049F06230BE
:102B4000F1F080917D0240E0662331F040E019C051
:102B500060917D0240E080E00E942D15F8018481A3
:102B600090E0019663E070E00E94FC2684830F9061
:102B70000F900F90DF91CF911F910F910895409189
:102B80007D0280E060E0E8CFAF92BF92CF92DF920B
:102B9000EF92FF920F931F93CF93DF9300D000D05B
:102BA00000D00F92CDB7DEB7182FF62E042FD22EFD
:102BB00090912F0390FF83C0E92FE695AE2FB0E0F0
:102BC000AB56BE4F8C918093E3029E7F9230A1F56D
:102BD0009E012F5F3F4F812F0E945C144B816981C2
:102BE0008A810E942D1510933003F09231030093D7
:102BF0003203DD2009F463C080912F0390913003EC
:102C0000A0913103B09132038C839D83AE83BF8347
:102C1000BC01CD0127960FB6F894DEBF0FBECDBF25
:102C2000DF91CF911F910F91FF90EF90DF90CF90A8
:102C3000BF90AF900C947E14823019F4009132034F
:102C4000D2CF863019F410913003CDCF8930D9F32B
:102C5000893149F6E9518E2F8170C82EE695F0E052
:102C6000E352FC4FA590B490E12CBB2460910D0180
:102C7000E61618F00E940B15B6CF2E2D30E0EA9C18
:102C8000C001EB9C900D112470E00E94E826812F7A
:102C9000C11013C0860F90910B01A901490F511D5E
:102CA0009A01220F331F240F351F2C5C3C4F402FFD
:102CB0006F2D0E945C14E394D9CF861BECCF27962E
:102CC0000FB6F894DEBF0FBECDBFDF91CF911F913D
:102CD0000F91FF90EF90DF90CF90BF90AF9008954D
:102CE000282FEFE2F3E0818143816281865F0C94BB
:102CF000C41581E00C947016282FEFE2F3E0818177
:102D0000438162818A500C94C41581E00C947C1636
:102D1000282FEFE2F3E062813AE0630F08F46FEFEF
:102D2000438181810C94C41581E00C948816282F6E
:102D3000EFE2F3E062813AE0631B08F460E0438174
:102D400081810C94C41581E00C949716282FEFE232
:102D5000F3E043813AE0430F08F44FEF6281818151
:102D60000C94C41581E00C94A616282FEFE2F3E032
:102D700043813AE0431B08F440E0628181810C9476
:102D8000C41581E00C94B51620E00C94C415EF92A4
:102D9000FF921F93CF93DF93EC0110E0EE24EA94AF
:102DA000F12C60910D01161770F00E940B159A819D
:102DB0008C8190FF27C08F5F8C83DF91CF911F9113
:102DC000FF90EF90089520910B01422F410F55275E
:102DD000551FCA019A01220F331F280F391F2C5C7F
:102DE0003C4F70E0C7010E94FC26962F8C814091D9
:102DF000320360913103199F800D11240E945C14ED
:102E00001F5FCFCF8150D8CFBF92CF92DF92EF928A
:102E1000FF920F931F93CF93DF93FC0182810FEFFB
:102E200080FF01E010E080910D011817C0F00E94B2
:102E30000B1580917F02013009F054C0811102C04E
:102E400080910D01815080937F02DF91CF911F917E
:102E50000F91FF90EF90DF90CF90BF9008958091F9
:102E60000B01C12ED12C8C0D9D2D911DEC01CC0F91
:102E7000DD1FC80FD91FCC5CDC4F198218821A8263
:102E800034E0E32EF12CB12C80917F028B0D833145
:102E90001CF162E10E94DA26892F082E000C990BA2
:102EA000C816D90691F4809132038E9DA0018F9DA2
:102EB000500D112455954795559547959E01609164
:102EC0003103809130030E945C14B00EF1E0EF1AE0
:102ED000F108D1F61F5FA7CF87FFDFCF90910D01DB
:102EE000890FDBCF90E0019660910D0170E00E94A8
:102EF000FC26A9CF0F931F93CF93DF9380910B01F3
:102F000090910C0123E0829FF0011124EC5CFC4FB6
:102F1000891740F1C0E0D3E060910D01C61740F180
:102F20000E940B152091070180917E02820F8093F1
:102F30007E0290910801920F90930801191654F4A3
:102F4000082E000C990B40910D014150550B841730
:102F500095071CF0219520930701DF91CF911F91D8
:102F60000F9108951182108212828F5F3396D0CF15
:102F70000C2F10E070E0C8010E94FC2620910B018C
:102F8000820F482F50E020917E02022E000C330B5E
:102F900002171307BCF020910801022E000C330B1E
:102FA000201731077CF08D9F900111242C5C3C4F41
:102FB0004091320360913103809130030E945C1490
:102FC000CF5FAACFFA01EE0FFF1FE40FF51FEC5CF5
:102FD000FC4F118210821282F3CFEF92FF920F9377
:102FE0001F93CF93DF93CDB7DEB72E970FB6F8942C
:102FF000DEBF0FBECDBF8D879E87AD85BE85149683
:103000001C91212F30E0D9010E9440279B01AC0187
:103010000E94562769837A838B839C83E0E2F0E0E9
:10302000E11BF109A5E5B0E09B01AC010E94562728
:1030300069877A878B879C879F01DF010E943827E9
:103040006D837E838F8398879B01AC010E946127EB
:103050009B01AC0169817A818B819C81260F371F8E
:10306000481F591F69857A858B859C850E9410278A
:10307000F22E822F90E079E2721788F183E0289F88
:103080009001112435952795122F109500E085E5C4
:10309000E82EEF1880910D01081780F10E940B15A2
:1030A000AD85BE8514969C9181E0992319F09032EC
:1030B00019F48FEF8093060180910601890FED8549
:1030C000FE8584832E960FB6F894DEBF0FBECDBF6B
:1030D000DF91CF911F910F91FF90EF90089525E51B
:1030E00030E0D901A81BB90B9D01220F331F2A0F15
:1030F0003B1F37FFC7CF2F5F3F4FC4CF8E2D01FD42
:103100008F2D20910B01E22FE00FFF27FF1F9F0162
:10311000220F331F2E0F3F1F2C5C3C4F412F60911D
:1031200031030E945C140F5FB5CF0F931F93CF93B1
:10313000DF93EC0110E000E090910D019017110673
:1031400009F06CF40E940B158C8190E0019681705F
:1031500099278C83DF91CF911F910F9108958091D2
:103160000B01A801480F511D9A01220F331F240F94
:10317000351F2C5C3C4F4C816091310380913003B2
:1031800096959017110651F04CF0442349F0409168
:1031900032030E945C140F5F1F4FCECF4423B9F35C
:1031A00040E0F7CF4F925F926F927F928F929F9203
:1031B000AF92BF92CF92DF92EF92FF920F931F9345
:1031C000CF93DF93FC016280448081E08483EDED46
:1031D000F2E07490ECE5F3E0E491812C75E0972E39
:1031E000F2E0CF2EDD24D394AA24AA94B12C552446
:1031F0005A94E7190E2F10E080910D01881690F077
:10320000DF91CF911F910F91FF90EF90DF90CF90C2
:10321000BF90AF909F908F907F906F905F904F90F6
:103220000C940B15E82CF12C82E0861568F09E9C1E
:10323000F0019F9CF00D1124E058FD4F8091300368
:103240008083809131038183411023C09E9CF001D3
:103250009F9CF00D1124E058FD4F13821282809143
:103260000B018E0D9F2D911D9C01220F331F280FE6
:10327000391F2C5C3C4F9E9CF0019F9CF00D11244B
:10328000E058FD4F4281618180810E945C148394EB
:10329000B3CF9E9CE0019F9CD00D1124C058DD4F00
:1032A0008B818823E9F081508B83859DC001112497
:1032B0006C8170E00E94E826FB01FF27E352FD4F7E
:1032C0008491E82FE719E59DC0011124B8010E94FF
:1032D000E82680913203689FB00111247A83BFCF22
:1032E0000E94D127AC0190913203969591589C9DF4
:1032F00090019D9D300D1124232F33274217530732
:103300000CF0ADCF82E0861588F40E94D127B5017C
:103310000E94FC2688830E94D127209131032695A4
:10332000622F70E00E94FC26280F29839E9CF001EA
:103330009F9CF00D1124E058FD4F128280913203C2
:10334000893C58F088EC9E9CF0019F9CF00D112464
:10335000E058FD4F8483838382CF8431A0F784E1DA
:10336000F2CFCF93DF9300D000D0CDB7DEB7EFE23E
:10337000F3E080818E7F808380819181A281B381FF
:1033800089839A83AB83BC83BC01CD010E947E14E8
:103390001092E4029FEFA0E7B2E09150A040B0404D
:1033A000E1F700C000000F900F900F900F90DF9199
:1033B000CF910C940B15EFE2F3E080818E7F808338
:1033C0001092E4022FEF80E792E02150804090407D
:1033D000E1F700C000000C940B151092E4028091FC
:1033E000E10281110AC081E08093E10280912F0304
:1033F00081708093E0020C94DB19089560912F0393
:10340000669570E04BE050E08EE091E00E94E1278D
:10341000892B19F481E08093E4020E94B91F9093F4
:10342000DB028093DA020895CF93DF9300D000D0BF
:10343000CDB7DEB790912F0390FF41C091708111FD
:1034400034C0926090932F03662381F080912F0304
:1034500090913003A0913103B091320389839A8314
:10346000AB83BC83BC01CD010E947E1460912F030D
:10347000669570E04BE050E08EE091E00E94E1271D
:10348000892BD1F01092E40281E08093DD0240911B
:10349000320360913103809130030F900F900F90B1
:1034A0000F90DF91CF910C94C4168B3210F094657D
:1034B000C9CF880F982BC6CF0E94FE19E5CF0F9079
:1034C0000F900F900F90DF91CF910895682F80910A
:1034D0002F0386958F5F8B3208F081E00C94141ACD
:1034E00081E00C94661A682F90912F0396958FEFC8
:1034F000890F913009F48AE20C94141A81E00C943B
:10350000731A61E00C94141AEFE2F3E08081816099
:10351000808386950C94811A80912F0380FD0C94F2
:10352000B1190C94841A60E00C94141A8091E20290
:1035300081112EC00E946F0E811104C00E94140FD1
:103540000E9492140E947A1460932F0370933003A8
:1035500080933103909332036E7F61F40E94921442
:103560000E947A1460932F03709330038093310389
:10357000909332030E946B141092E40280912F0307
:1035800080FF03C086950E94931A81E08093E20237
:103590000895EFE2F3E080818160808386950C944A
:1035A000931A1092E1028091E00281110E94C91ADF
:1035B0000C94FE190F931F93CF93DF938091E40235
:1035C000882309F496C08091E302E0912F03E695E9
:1035D000E81BE093DC02823091F5F0E0E752FD4F0A
:1035E000E491CE2FD0E000E615E18091DD02882342
:1035F00061F01092DD020E94B91F9093DB0280936C
:10360000DA021092DF021092DE020E94B91FE091EE
:10361000DA02F091DB028E1B9F0B8F3F9F4708F071
:1036200068C0EC0FFD1FF093DB02E093DA028AED35
:1036300092E0F801DF91CF911F910F9109948630AC
:1036400049F4F0E0EA52FD4FE491CE2FD0E004E7D8
:1036500015E1CBCF893051F4E695F0E0ED52FD4F06
:10366000E491CE2FD0E007EC16E1BFCF8F3051F4BC
:10367000E695F0E0E053FD4FE491CE2FD0E004E07A
:1036800017E1B3CF853149F4F0E0E353FD4FE49106
:10369000CE2FD0E00AE717E1A8CFC8E2D0E00DEEC8
:1036A00017E1883109F4A1CF833239F4EBECF2E071
:1036B000C591D49104E815E198CFC4EFD1E005E9B4
:1036C00018E1843209F491CFC0EDD7E009E514E1A7
:1036D000853209F08ACF8E2F63E00E94CE26E92F33
:1036E000F0E0E853FD4FE491CE2FD0E002ED18E179
:1036F0007CCFDF91CF911F910F910895FA01811135
:103700000994FB01FDCFCF93DF93C82FD62F0E94E2
:10371000A2148C1740F00E94A2148D1720F4DF91A0
:10372000CF910C94701A8C2FDF91CF910C94811A49
:103730000F931F93CF938C01FB01C281CC2309F41B
:1037400074C00E94B70D8272073DFCE51F0770F43C
:10375000033C9CE5190780F0F801E45CFC45E3318B
:10376000F10578F4EC59F74D0C9432276AE285E2C2
:103770000E351D4509F443C08C2FCF911F910F9139
:1037800008950E948C1AC0E0F7CF4EE75AE160E737
:103790007AE10E947E1BF7CF40E75AE16EE77AE1BB
:1037A000F8CF45E856E169E776E1F3CF49E756E11E
:1037B00065E876E1EECF43EA56E164E976E1E9CFE8
:1037C00044E956E163EA76E1E4CF41EC56E162EB8D
:1037D00076E1DFCF42EB56E161EC76E1DACF45E00E
:1037E00055E166ED74E1D5CF46ED54E165E075E154
:1037F000D0CF81E00E94811AC6CF65E082E00E94AE
:10380000831BC1CF68E086E0FACF6EE089E0F7CF96
:1038100064E18FE0F4CF67E185E1F1CF88E1EACFA1
:1038200062E289E1ECCF83E2E5CFC1E0A5CF9C0164
:10383000AB01809A61B36E7F71B37160EFB7F8949A
:10384000CA01880F991F840F951F820F931F82173B
:10385000930741F4EFBF8FE594E00197F1F700C0C3
:1038600000000895D9014D919D0158E071BB000001
:1038700000C047FF61BB440F000000C000C000C093
:1038800061BB00C05A9591F7E2CF0F931F93CF937E
:10389000DF93C42FD22FFC0182818823C9F040938B
:1038A000E7020E94B91F9093E6028093E50280E24E
:1038B0008C0F883008F050C0C77081E001C0880FBD
:1038C000CA95EAF7DF91CF911F910F910C940F05E4
:1038D0001091E702141335C08091E5029091E60241
:1038E0000E94E51F883C910560F5C0E2CD0F1D17D1
:1038F000B9F080E2810F883040F4177081E001C098
:10390000880F1A95EAF70E941605C83048F481E03E
:103910009D2F977001C0880F9A95EAF70E940F05B6
:10392000802F0E940705C830B8F4D77081E001C02D
:10393000880FDA95EAF7DF91CF911F910F910C94E0
:10394000160580E28C0F883038F4C77081E001C022
:10395000880FCA95EAF7EFCFDF91CF911F910F91B2
:1039600008950F939C01CB01243F4CE53407A1F14E
:1039700090F4293DFCE53F0749F12A3D4CE5340729
:10398000E9F1283D3C45C1F0FC0182818823E1F149
:103990001092E70219C0263FFCE53F0719F1273FC7
:1039A0004CE5340729F1253F3C4571F707E225EE48
:1039B00044EE65EF7CE505C006E221EE41EE68EDE0
:1039C0007CE50E94451C80E00F91089507E225EEFA
:1039D00045EE69ED7CE5F5CF06E221EE40EE64EFC1
:1039E0007CE5EFCF06E221EE42EE66EF7CE5E9CF23
:1039F00007E225EE46EE67EF7CE5E3CF08E221E043
:103A000045EE6AED7CE5DDCF81E0DECFCF93DF933D
:103A1000EC01FB018281882309F4DFC0C430FDE59D
:103A2000DF0710F5CB3F9CE5D90730F49E0122500B
:103A30003C4524313105E0F40E94820E9093160338
:103A400080931503C631FCE5DF0710F5C2308CE525
:103A5000D80788F480911503909116030E94900E68
:103A60000E94B20780E004C0C236EDE5DE0721F314
:103A7000DF91CF910895FE01E350FC45809115033D
:103A80008160E331F10518F5E958F74D0C943227C0
:103A9000C4309DE5D90770F4CB3FECE5DE07D0F2EA
:103AA000FE01EC5FFC45E830F105E0F4E657F74D28
:103AB0000C943227C236DD4569F690911503892FA3
:103AC0008F7E94FF806103C0809115038260809394
:103AD0001503C0CF809115038460F9CF8091150341
:103AE0008860F5CF80911603816080931603B2CF72
:103AF000809116038260F9CF809115038061E7CF32
:103B0000809115038062E3CF809115038064DFCF3D
:103B10000E94B207809115038068D9CF8091150368
:103B20008C60D5CF809116038360DFCF8091150321
:103B30008E7FCDCF809115038D7FC9CF80911503E6
:103B40008B7FC5CF80911503877FC1CF80911603EE
:103B50008E7FCBCF809116038D7FC7CF80911503C9
:103B60008F7EB5CF809115038F7DB1CF80911503E6
:103B70008F7BADCF0E94B207809115038F77A7CFBF
:103B800080911503837FA3CF809116038C7FADCFE7
:103B90008091150382FB992790F921E0922790FBF1
:103BA00082F990FB83F993CF80911603982F90951B
:103BB00091708E7F892B90FB81F997CF0E94B2077D
:103BC00090911503892F97FB87F9805880CF81E06A
:103BD0000E94160F3FCF80E0FBCF81E049CFCF930B
:103BE000DF93EB0186319C4511F50E94B70D9A8158
:103BF000992399F08A7A91E009F490E09093E80291
:103C0000811109C089E20E94710D0E94FC0D80E0C3
:103C1000DF91CF91089585E3F6CF8091E80281117D
:103C200004C089E20E94780DF0CF85E3FBCF81E0EC
:103C3000EFCF9093EE028093ED020895E091ED02B4
:103C4000F091EE02309721F00190F081E02D09947F
:103C500080E00895DC01E091ED02F091EE023097F2
:103C600099F080912301882351F08091150387FFFB
:103C700006C08C9111968C93119785E08C930280ED
:103C8000F381E02DCD01099408952091EB0230914C
:103C9000EC022817390771F09093EC028093EB0245
:103CA000E091ED02F091EE02309721F00680F7816D
:103CB000E02D099408952091E9023091EA02281735
:103CC000390771F09093EA028093E902E091ED02E6
:103CD000F091EE02309721F00084F185E02D0994F7
:103CE0000895FC01329680912301882321F0809170
:103CF00015039EE187FF96E080E0915008F4089557
:103D000021912223D1F38F5FF8CF9C01662301F12B
:103D1000809123018823F1F08091150387FF1AC059
:103D2000462F469546954695603F90F4677081E032
:103D300090E002C0880F991F6A95E2F7240F311DA9
:103D4000F901228130E02823392381E0232B71F40B
:103D500080E00895F9013296285F3F4F81918617E0
:103D600021F0E217F307D1F7F3CF81E008959C012A
:103D7000FC0132968FEF90E04191461751F08F3F52
:103D800019F4411101C0892F9F5F9630A9F78F3F29
:103D900009F40895280F311D87FD3A95F9016283D2
:103DA00008959C01FC013296285F3F4F8191861354
:103DB00003C0DF0111971C92E217F307B9F70895CA
:103DC000FC01862F869586958695603F60F4E80F06
:103DD000F11D677021E030E001C0220F6A95EAF71B
:103DE0008281822B82830895FC01862F8695869599
:103DF0008695603F68F4E80FF11D677081E090E000
:103E000001C0880F6A95EAF78095928189238283A1
:103E1000089520912301222329F02091150327FDE5
:103E20000C94E01E0C94B71E20912301222329F04C
:103E30002091150327FD0C94F41E0C94D11EFC0157
:103E4000329680912301882351F08091150387FFDA
:103E500006C08EE1DF011D928A95E9F7089586E09C
:103E6000F9CF0895089508950C94331F809172033B
:103E7000843059F10E94341F80E00E9432040E9475
:103E8000ED191092EF0288E190E020E40FB6F8946B
:103E9000A895809360000FBE2093600083B7817F58
:103EA000846083BF83B7816083BF7894889583B72C
:103EB0008E7F83BF0FB6F894A895809160008861CB
:103EC00080936000109260000FBE08950895CF9314
:103ED0000E94321F0E9421130E94661FC0E08C2F97
:103EE0000E944612892B31F4CF5FC630C1F780E0C3
:103EF000CF91089581E0FCCF08950C947C1F0E941F
:103F0000B2070E941E1E0E9432040E94D11A0C9415
:103F10007D1F1F921FB61F9211248F939F93AF9303
:103F2000BF938091EF02811113C080916A03909139
:103F30006B03A0916C03B0916D034196A11DB11D5F
:103F400080936A0390936B03A0936C03B0936D030B
:103F5000BF91AF919F918F911F901FBE1F90189599
:103F600082E084BD93E095BD9AEF97BD80936E008B
:103F700008952FB7F89480916A0390916B03A091F4
:103F80006C03B0916D032FBF0895CF93DF9300D0E2
:103F900000D0CDB7DEB78FB7F89420916A03309187
:103FA0006B0340916C0350916D0329833A834B83DB
:103FB0005C838FBF69817A818B819C810F900F9088
:103FC0000F900F90DF91CF9108959C014FB7F89417
:103FD00080916A0390916B03A0916C03B0916D0383
:103FE0004FBF821B930B089578941F921FB61F92A8
:103FF00011248F939F93AF93BF9380916A03909105
:104000006B03A0916C03B0916D030196A11DB11DCE
:1040100080936A0390936B03A0936C03B0936D033A
:10402000BF91AF919F918F911F901FBE1F901895C8
:1040300081E08093E00080E28093D8001092C90074
:104040008FE19EE40197F1F700C0000087E090EB5C
:10405000DC0180937B0390937C03A0937D03B0935A
:104060007E0388E19CE00FB6F894A89580936000E9
:104070000FBE90936000FFCF9093C1018093C00169
:10408000089580911303089590917203943031F54F
:104090008093F0026093F1027093F20282E08093C9
:1040A000E9008FEF9091E800815095FD06C095EDF5
:1040B0009A95F1F700008111F5CF8091E80085FF16
:1040C0000DC050E040E063E070E080EF92E00E94BD
:1040D00047228091E8008E778093E8000895BC0124
:1040E00084E00C944420BC0183E00C944420CF93E2
:1040F000DF93D82FC92F809123018823C1F18091AC
:10410000150387FF34C060E282E08093E9008FEFFF
:104110009091E800815095FD06C095ED9A95F1F7D4
:1041200000008111F5CF8091E80085FF1DC08091CE
:10413000230170E050E040E0811104C050E040E015
:1041400068E070E08D2F9C2F0E9447228091E8004C
:104150008E778093E80080E2ED2FFC2FA3EFB2E092
:1041600001900D928A95E1F7DF91CF91089568E073
:1041700081E0CBCF089580917103811109C00E9425
:10418000CF230E942C248091E20084608093E2007F
:10419000089510927103089508950895089542E0D6
:1041A00061EC81E00E944B2342E261EC82E00C94DE
:1041B0004B2380917403893089F148F4823009F4EB
:1041C0009DC0833009F458C0813041F008958A3091
:1041D00009F484C08B3009F46AC008958091730398
:1041E000813A09F048C08091E800877F8093E80019
:1041F0008091770390917803892B61F460E283EFDB
:1042000092E070E00E9496228091E8008B77809384
:10421000E800089560E090E080E0F3CF80917303C0
:10422000813249F58091770390917803029718F5D0
:104230008091E800877F8093E8008091E80082FF0A
:1042400016C09091F3008091F200029729F48091BA
:10425000F1008B7F813021F48091F1008093130372
:104260008091E8008B778093E8000C947F23809105
:1042700072038111E2CF089580917303813AD9F7D7
:104280008091770390917803892BA9F78091E800BA
:10429000877F8093E8008091E80080FFFCCF8091C9
:1042A00023018093F1008091E8008E77DCCF80912C
:1042B0007303813201F78091770390917803892B02
:1042C000D1F68091E800877F8093E8000E947F23E9
:1042D00080917503809323010C94B207809173033E
:1042E000813249F68091E800877F8093E8000E9440
:1042F0007F23809176038093140308958091730344
:10430000813A09F0B8CF8091E800877F8093E80078
:104310008091E80080FFFCCF80911403C2CF84B766
:10432000877F84BF0FB6F894A8958091600088615C
:1043300080936000109260000FBE80E890E00FB69E
:10434000F89480936100909361000FBE0C943C0F31
:104350000E94CF230E942C24E2EEF0E08081846052
:10436000808378940E94B3260E94500F89E191E0E7
:104370000C94191E80917203853031F48091720380
:10438000853021F00E947F1F0C94630F0E94361F1E
:1043900080917003882391F30E94671F882371F333
:1043A0000E9431220E94B207E9CF0C94D721FC0170
:1043B000CB01DA012F2F332723303105D1F070F4F0
:1043C0002130310509F43EC02230310569F48BE318
:1043D00090E026E135E02D933C930895213231059C
:1043E000E9F02232310521F190E080E030E020E078
:1043F000F2CFCF019927E13059F08230910559F081
:10440000E2E1F5E0892B81F7849190E09F01E3CF11
:10441000E0E0F5E0F9CFE2EEF4E0F6CF892BB9F079
:104420006130710509F789E090E021E435E0D3CFF0
:10443000892B91F061307105B9F68DE690E023E6A5
:1044400035E0C9CF82E190E021E535E0C4CF89E0D5
:1044500090E028E235E0BFCF80E490E020ED35E049
:10446000BACF80E189BD82E189BD09B400FEFDCFEC
:104470008091D8008F7D8093D8008091E000826089
:104480008093E0008091E00081FDFCCF0895AF9221
:10449000BF92CF92DF92FF920F931F93CF93DF9340
:1044A0006C01EB018A010E949E23F82E811123C02A
:1044B0000115110539F0F80180819181C81BD90BD4
:1044C000C80ED91EB12CA12C2097A9F08091E8002C
:1044D00085FD22C08091E8008E778093E800011569
:1044E0001105A1F0F80180819181A80EB91EB18259
:1044F000A08285E0F82E8F2DDF91CF911F910F9133
:10450000FF90DF90CF90BF90AF9008950E949E23C0
:104510008823D1F2F82EEFCFF60181916F018093BD
:10452000F1002197FFEFAF1ABF0ACECFFC01CB01FC
:104530002091790330917A032617370790F000977E
:1045400029F42091E8002E772093E80040E00097BE
:1045500051F4411108C08091E80082FF31C080E031
:104560000895C901F3CF209172032223A9F12530C8
:10457000A9F12091E80023FD2DC02091E80022FD43
:10458000EACF2091E80020FFE2CF3091F3002091A4
:10459000F200009719F02830310558F041E028303A
:1045A000310509F040E02091E8002E772093E800E3
:1045B000CECF41914093F10001972F5F3F4FE9CF5C
:1045C00080917203882341F0853041F08091E800AA
:1045D00083FFC1CF81E0089582E0089583E00895CC
:1045E000FC01CB012091790330917A03261737071C
:1045F00090F0009729F42091E8002E772093E800AE
:1046000040E0009751F4411108C08091E80082FF1A
:1046100032C080E00895C901F3CF209172032223B4
:10462000B1F12530B1F12091E80023FD2EC0209199
:10463000E80022FDEACF2091E80020FFE2CF309190
:10464000F3002091F200009719F02830310558F05E
:1046500041E02830310509F040E02091E8002E7754
:104660002093E800CECF44914093F100319601971A
:104670002F5F3F4FE8CF80917203882341F0853050
:1046800041F08091E80083FFC0CF81E0089582E08F
:10469000089583E00895982F973028F08F708093C5
:1046A000E90081E008959093E900242F762F50E0EF
:1046B000981731F07091EC002091ED005091F000CE
:1046C00021FD02C09F5FE8CF3091EB003E7F309329
:1046D000EB003091ED003D7F3093ED003091EB0029
:1046E00031603093EB007093EC002093ED00509319
:1046F000F0002091EE0027FDE5CF80E00895809145
:10470000730387FF13C08091E80082FF06C0809189
:10471000E8008B778093E80004C0809172038111D8
:10472000F2CF0895809172038823D9F38091E80035
:1047300080FFF8CF8091E8008E77ECCF2091E400E5
:104740003091E50095E6A9012091EC00822F81705F
:1047500020FF06C08091E80080FF06C080E0089539
:104760002091E80022FD1AC080917203882389F00D
:10477000853089F08091EB0085FD0FC02091E40029
:104780003091E50042175307F9F29150E1F684E0C9
:10479000089582E0089583E0089581E008950E94DD
:1047A0003D240E944524E0EEF0E08081816080831A
:1047B000E8EDF0E080818F77808319BCA7EDB0E051
:1047C0008C918E7F8C9380818F7E80831092710379
:1047D00008950F931F93CF93DF930E943D240E946F
:1047E0004524C8EDD0E088818F77888388818068F0
:1047F000888388818F7D888319BC10927203109200
:104800006E031092700310926F0300EE10E0F80137
:1048100080818B7F808388818160888342E060E033
:1048200080E00E944B23E1EEF0E080818E7F808368
:10483000E2EEF0E080818160808380818860808307
:10484000F80180818E7F8083888180618883DF91F9
:10485000CF911F910F910895E8EDF0E080818F7E58
:104860008083E7EDF0E080818160808384E082BF17
:1048700081E0809371030C94E923E8EDF0E08081FE
:104880008E7F80831092E20008951092DA001092D9
:10489000E10008951F920F920FB60F9211242F93EB
:1048A0003F934F935F936F937F938F939F93AF93B8
:1048B000BF93EF93FF938091E10082FF0BC0809143
:1048C000E20082FF07C08091E1008B7F8093E100CE
:1048D0000E94B2268091DA0080FF19C08091D80032
:1048E00080FF15C08091DA008E7F8093DA0080917E
:1048F000D90080FF94C080E189BD82E189BD09B4FF
:1049000000FEFDCF81E0809372030E94BB20809166
:10491000E10080FF19C08091E20080FF15C0809106
:10492000E2008E7F8093E2008091E20080618093BC
:10493000E2008091D80080628093D80019BC85E0A5
:10494000809372030E94CD208091E10084FF29C0F2
:104950008091E20084FF25C080E189BD82E189BDAC
:1049600009B400FEFDCF8091D8008F7D8093D800E0
:104970008091E1008F7E8093E1008091E2008F7E44
:104980008093E2008091E20081608093E200809158
:104990006E03882309F449C084E0809372030E9467
:1049A000CE208091E10083FF29C08091E20083FF47
:1049B00025C08091E100877F8093E10082E08093B1
:1049C000720310926E038091E1008E7F8093E1006C
:1049D0008091E2008E7F8093E2008091E20080610E
:1049E0008093E20042E060E080E00E944B238091EF
:1049F000F00088608093F0000E94CC20FF91EF913E
:104A0000BF91AF919F918F917F916F915F914F91E6
:104A10003F912F910F900FBE0F901F90189519BCCA
:104A2000109272030E94C92072CF8091E30087FD2B
:104A300002C081E0B2CF83E0B0CF1F920F920FB6D9
:104A40000F9211242F933F934F935F936F937F9314
:104A50008F939F93AF93BF93CF93DF93EF93FF9386
:104A6000D091E900DF708091EC00C82FC17080FD0B
:104A7000C0E81092E9008091F000877F8093F000F9
:104A800078940E9461251092E9008091F00088607E
:104A90008093F000CD2BCF70C093E900FF91EF9190
:104AA000DF91CF91BF91AF919F918F917F916F9146
:104AB0005F914F913F912F910F900FBE0F901F90DC
:104AC00018951F93CF93DF93CDB7DEB7AA970FB694
:104AD000F894DEBF0FBECDBF83E793E0FC010196E3
:104AE0002091F100208323E08B379207B9F70E94D1
:104AF000D9208091E80083FF1DC1809173039091BC
:104B000074039A3008F016C1E92FF0E0EE56F74D25
:104B10000C943227803899F0823809F00BC18091CB
:104B200077038F70873008F005C18093E90080918A
:104B3000EB0085FB882780F91092E90006C0809180
:104B40006F0390917003911182609091E800977FBC
:104B50009093E8008093F1001092F1008091E800BA
:104B60008E77E4C0882309F4D2C0823009F0E2C015
:104B7000809175038111D5C0809177038F702FEFDD
:104B8000280F263008F0D6C08093E9002091EB0072
:104B900020FFC7C0933031F48091EB008062809396
:104BA000EB00BFC09091EB0090619093EB0021E08F
:104BB00030E001C0220F8A95EAF72093EA001092B4
:104BC000EA008091EB008860EACF8111B3C01091B8
:104BD00075031F778091E3008078812B8093E30039
:104BE0008091E800877F8093E8000E947F23809176
:104BF000E80080FFFCCF8091E30080688093E300B1
:104C000082E0111183E08093720394C08058823057
:104C100008F090C080917503909176038C3D23E05D
:104C2000920799F583E08A838AE289834FB7F894E3
:104C3000DE01139620E03EE051E2E32FF0E05093D6
:104C40005700849120FF03C082958F703F5F8F7063
:104C50008A30C8F0895C90E08D939D932F5F24315A
:104C600061F74FBF8091E800877F8093E8006AE298
:104C700070E0CE0101960E9496228091E8008B7729
:104C80008093E80057C0805DE6CF60917703709114
:104C90007803AE014F5F5F4F0E94D521BC01892B85
:104CA00009F448C08091E800877F8093E8008981FB
:104CB0009A810E94F022E1CF8038E1F58091E800EE
:104CC000877F8093E80080916E038093F10046CF48
:104CD000811130C090917503923060F58091E800A9
:104CE000877F8093E80090936E030E947F238091DA
:104CF0006E03882311F084E005C08091E30087FDF6
:104D0000FACF81E0809372030E94CF2013C080917C
:104D10007503813079F481E0933009F080E080936D
:104D200070031092E9008091E800877F8093E8008B
:104D30000E947F238091E80083FF0AC08091E800F1
:104D4000877F8093E8008091EB0080628093EB0086
:104D5000AA960FB6F894DEBF0FBECDBFDF91CF91FC
:104D60001F9108950895CF93809172038823A1F035
:104D7000C091E900CF709091EC00892F817090FD77
:104D800080E8C82B1092E9008091E80083FD0E9422
:104D90006125CF70C093E900CF910895991B79E008
:104DA00004C0991F961708F0961B881F7A95C9F7BB
:104DB0008095089587FB082E062687FD819567FD5F
:104DC00061950E94CE260EF4919507FC8195089579
:104DD000AA1BBB1B51E107C0AA1FBB1FA617B70721
:104DE00010F0A61BB70B881F991F5A95A9F780953D
:104DF0009095BC01CD01089597FB072E16F4009401
:104E000007D077FD09D00E94E82607FC05D03EF4C4
:104E1000909581959F4F0895709561957F4F089566
:104E2000A1E21A2EAA1BBB1BFD010DC0AA1FBB1FAE
:104E3000EE1FFF1FA217B307E407F50720F0A21B20
:104E4000B30BE40BF50B661F771F881F991F1A948D
:104E500069F760957095809590959B01AC01BD01B7
:104E6000CF010895EE0FFF1F0590F491E02D0994F6
:104E70000E944027332312F48A1B9B0B0C9451276A
:104E8000A29FB001B39FC001A39F700D811D11248B
:104E9000911DB29F700D811D1124911D08950E94D6
:104EA0004027B7FF0895821B930B08950E94402767
:104EB000A59F900DB49F900DA49F800D911D11246E
:104EC0000895B7FF0C9456270E945627821B930B18
:104ED0000895CF92DF92EF92FF92CF93DF93CDB7F9
:104EE000DEB72A970FB6F894DEBF0FBECDBF898715
:104EF0009A87A985BA852D913D914D915C91298321
:104F00003A834B835C83232B242B252B41F424E20F
:104F100039ED4BE557E029833A834B835C83698104
:104F20007A818B819C812DE133EF41E050E00E943A
:104F3000432869017A01A7EAB1E49B01AC010E9410
:104F4000562769837A838B839C83ACEEB4EFA701E9
:104F500096010E9464279B01AC0189819A81AB81F3
:104F6000BC81820F931FA41FB51FB7FF03C0019719
:104F7000A109B048E985FA8580839183A283B38330
:104F80009F772A960FB6F894DEBF0FBECDBFDF9194
:104F9000CF91FF90EF90DF90CF9008950E94692706
:104FA000089580E091E00E9469270895B0E0A0E0B4
:104FB0008093000190930101A0930201B09303013B
:104FC0000895FC014150504030F001900616D1F791
:104FD0003197CF010895882799270895FB01DC01B7
:104FE00004C08D910190801921F441505040C8F7C0
:104FF000881B990B0895F999FECF92BD81BDF89A4F
:10500000992780B50895A6E1B0E044E050E00C9403
:105010003528A8E1B0E042E050E00C943528262F76
:10502000F999FECF92BD81BDF89A019700B402169E
:1050300039F01FBA20BD0FB6F894FA9AF99A0FBE4C
:1050400008950396272F0E9410280E940F28252FCD
:105050000E941028242F0C9410280196272F0E94BC
:1050600010280C940F28DC01CB01FC01F999FECF2C
:1050700006C0F2BDE1BDF89A319600B40D924150E0
:105080005040B8F70895052E97FB1EF400940E9437
:105090005A2857FD07D00E94102707FC03D04EF472
:1050A0000C945A2850954095309521953F4F4F4F7D
:1050B0005F4F089590958095709561957F4F8F4FC4
:1050C0009F4F0895F894FFCFC51BCC1BD11BD61B57
:1050D000DB1BE01BE51BEA1BEF1BF41BF91BFD1B95
:1050E000021C051C081C0B1C0E1C101C131C641D30
:1050F0006A1D6E1D7C1D801D841D881D8E1D961DC4
:105100009A1D9E1DA21DAE1DB21DB61DBA1DC01D4D
:10511000DE1DC81D781DA61DAA1D921DC41DD41D0F
:10512000E71DEB1D8A25B2259A26B2259A26E5258C
:0851300006269A265C2668267B
:1051380001000000410201010200120012120119CF
:105148001A1B1C1D1E1F20212241207720BA207304
:10515800206F2001E200E900EA00B500B600B700C0
:10516800CD008301CC008A0192019401210223021F
:1051780024022502260227022A02B300B4006F0087
:105188007000E200E900EA00B500B600B700CD0003
:105198008301CC008A019201940121022302240296
:1051A8002502260227022A02B300B4006F0070000D
:1051B800F7F6F5F4F190919293959496973435C655
:1051C80030313233360001020202020606060909AE
:1051D800090909090F0F0F0F0F0F151515181919C0
:1051E80019191919191919192324252525252525CA
:00000001FF
