:100000000C9408030C944F030C944F030C944F036F
:100010000C944F030C944F030C944F030C944F0318
:100020000C944F030C944F030C9472290C94452AA2
:100030000C948A240C944F030C944F030C944F039C
:100040000C944F030C944F030C944F030C944F03E8
:100050000C944F030C941C250C944F030C944F03E9
:100060000C944F030C944F030C944F030C944F03C8
:100070000C944F030C944F030C944F030C944F03B8
:100080000C944F030C944F030C944F030C944F03A8
:100090000C944F030C944F030C944F030C944F0398
:1000A0000C944F030C944F030C944F0329003A0017
:1000B0003B003C003D003E003F004000410042004C
:1000C00043004400450046004C0035001E001F0060
:1000D0002000210022002300240025002600270004
:1000E0002D002E002A004A002B0014001A000800E0
:1000F000150017001C0018000C00120013002F0040
:10010000300031004D003941046216640761090076
:100110000A000B000D000E710F7433723400490099
:1001200028004B0000571D001B00060019000500A9
:10013000110010003600370038000157000052004F
:100140004E00E000E300E200000000002C00000090
:100150000000E600E700E4005000000051004F00FE
:100160002942000000000000000000000000000024
:100170000000000000000000000048000000000037
:10018000000000000000000000000000000000006F
:100190000000000000000000000000000000A900B6
:1001A000000000000000000000000000000000004F
:1001B0000000AC00AB00AE0000000000AA00000090
:1001C000000000000000000000000000000000002F
:1001D000000000000000000001000100A800000075
:1001E000000000000000000000000000000001000E
:1001F00000000000000001000100010000000000FC
:1002000000000000000001000100010000000000EB
:1002100000000000000000000000000000000000DE
:10022000000000000000000000000000005C000072
:10023000A600000000000000000000000000000018
:1002400000000000000000000000000000000000AE
:100250000000C35CC45CC75CC65CC95CC85CCB5CAA
:10026000CA5C000000000000000000000000000068
:10027000000000000000000000000000000000007E
:10028000000000000000000000000000010001006C
:10029000C05CC25CBE5CBF5C0000000000000000EF
:1002A000000001000000000000000100010001004A
:1002B000000000000000000000000100010001003B
:1002C00000000000000000001E0F0500047F3F1F1B
:1002D000643214643214783C1E1E140A052223254D
:1002E0002628292A2C2D2F3032333536383A3B3DFB
:1002F0003E4042434547494A4C4E50515355575949
:100300005A5C5E6062646668696B6D6F7173757765
:10031000797B7D7F81838587898A8C8E9092949664
:10032000989A9C9E9FA1A3A5A7A8AAACAEAFB1B373
:10033000B4B6B8B9BBBCBEBFC1C2C3C5C6C7C9CAC3
:10034000CBCCCDCED0D1D2D2D3D4D5D6D7D7D8D985
:10035000D9DADADBDBDBDCDCDCDCDCDDDDDDDDDCE3
:10036000DCDCDCDCDBDBDBDADAD9D9D8D7D7D6D5F5
:10037000D4D3D2D2D1D0CECDCCCBCAC9C7C6C5C3B7
:10038000C2C1BFBEBCBBB9B8B6B4B3B1AFAEACAA04
:10039000A8A7A5A3A19F9E9C9A98969492908E8CB4
:1003A0008A89878583817F7D7B79777573716F6D8E
:1003B0006B6968666462605E5C5A59575553515068
:1003C0004E4C4A4947454342403E3D3B3A3836351C
:1003D0003332302F2D2C2A292826252322FFAA7FCD
:1003E0005540000101010101010101010202020267
:1003F00002020202020303030303030303040404CF
:100400000404040405050505050606060606070797
:1004100007070708080808090909090A0A0A0B0B4F
:100420000B0C0C0C0D0D0D0E0E0E0F0F0F101011EE
:100430001111121213131414151516161717181874
:1004400019191A1A1B1B1C1D1D1E1E1F20202122DC
:1004500022232424252626272829292A2B2C2D2D22
:100460002E2F30313232333435363738393A3B3C3F
:100470003D3E3F404142434445464748494A4C4D32
:100480004E4F50515354555658595A5B5D5E5F61FB
:100490006264656668696B6C6D6F7072737577788E
:1004A0007A7B7D7E8082838587888A8C8E8F9193EC
:1004B0009596989A9C9EA0A2A3A5A7A9ABADAFB113
:1004C000B3B5B7BABCBEC0C2C4C6C9CBCDCFD1D4F8
:1004D000D6D8DBDDDFE2E4E7E9EBEEF0F3F5F8FA9E
:1004E000FDFF1C034B0042004400370035005F0055
:1004F00048004F00540053005700410050000000D6
:1005000010034B0042004400460041004E005300DF
:1005100000000403090409023B00020100A0FA09DB
:100520000400000103010100092111010001224022
:10053000000705810308000A090401000103000007
:1005400000092111010001226D000705820320002E
:100550000A1201000200000008424B626003000121
:1005600002000105010980A101850319012AB700D4
:10057000150126B700950175108100C0050C090111
:10058000A101850419012AA002150126A0029501E6
:1005900075108100C005010906A10185050507192F
:1005A000E029E71500250195087501810205071965
:1005B0000029EF1500250195F07501810205081944
:1005C000012905950575019102950175039101C0F9
:1005D00005010906A101050719E029E71500250114
:1005E00095087501810295017508810105071900BB
:1005F00029FF150026FF00950675088100050819DA
:10060000012905950575019102950175039101C0B8
:1006100011241FBECFEFDAE0DEBFCDBF04B603FE6C
:1006200027C08091F1039091F203A091F303B09160
:10063000F4038730904BA740B04BD1F41092F103F4
:100640001092F2031092F3031092F40314BE84B7D5
:10065000877F84BF0FB6F894A89580916000886169
:1006600080936000109260000FBEE0E0F8E309950F
:1006700012E0A0E0B1E0E8E8FBE502C005900D92D1
:10068000AC31B107D9F723E0ACE1B2E001C01D9273
:10069000A13FB207E1F70E9444140C948A2D0C94F8
:1006A0000000FC018285882339F082E00E94B505B4
:1006B00081E080931F0208958081813049F486E0B3
:1006C0000E94B50587E20E94AD0586E00C94BC054A
:1006D000089580911F02882329F010921F0282E062
:1006E0000C94BC050895FC018285882339F080E2D2
:1006F0000E94B50581E080931E02089580818130BB
:1007000049F486E00E94B50584E20E94AD0586E0CA
:100710000C94BC05089580911E02882329F0109244
:100720001E0280E20C94BC05089580FD03C083E5A1
:100730000C94AD0508959C019A9581159F4150F543
:10074000D901AA27B170F901EE27F270B901662725
:100750007470A9014427587034FF0EC080E1AB2BA0
:1007600009F480E0EF2B09F08062672B09F08064C8
:10077000452B89F08068089581E0AB2B09F480E077
:10078000EF2B09F08260672B09F08460452B19F08C
:100790008860089580E00895CF93DF93EB010E9475
:1007A0009B03FE01DF91CF910994CF93DF93EC017E
:1007B000805E9109089720F066E478E0209711F4B4
:1007C00065EB75E0CE010E94CC038C2FDF91CF91B9
:1007D0000C942A0581E0089581E008950C94EC03BF
:1007E00008950C94F0031F93CF93DF9300D000D0B3
:1007F0000F92CDB7DEB749835A836B8330912002C5
:1008000089819A8131111DC06623B9F02223A9F094
:100810000E94DD0A182F682F89819A810E94860A1A
:1008200069817A81812F0F900F900F900F900F9018
:10083000DF91CF911F910C9496110E94B40A182F4A
:10084000EFCF0E94DD0A69817A81EDCFFC01262F6E
:10085000408151816281738184810C94F30381E032
:100860000895CF93DF93D82FC92F60E00E9426040C
:100870006D2F7C2FDF91CF910C94F1030E94A31276
:100880000E94D5040C94DC120E949A1F0E94C82278
:100890000C94DF1208950E945F080E944A042FEF13
:1008A00084E39CE0215080409040E1F700C00000CC
:1008B0000C9440250F931F93CF93DF938C0161E03D
:1008C0000E942604EC01B8010E942322B801CE0147
:1008D0000E94EE03882309F448C0B801CE010E94AB
:1008E000E81F882309F441C0B801CE010E946D229F
:1008F0008823D9F1B801CE010E944C1D8823A9F1AB
:10090000B801CE010E94A11D882379F1B801CE0162
:100910000E948A1E882349F1B801CE010E94331C2F
:10092000882319F1F8018281882361F0CB35FDE538
:10093000DF0721F170F4C115ECE5DE07A1F0CF3D32
:10094000DC45C9F0C801DF91CF911F910F910C9444
:10095000EA03CC358DE5D807A1F0CD35DD4591F71B
:100960000E94200EEFCF0E944B0480E0DF91CF91D8
:100970001F910F9108950E94AF0FF7CF0E94290E8B
:10098000E1CF0E942C0EDECF0C94950381E00895F8
:10099000CF93C82F0E94C604882319F0C1FF03C05B
:1009A000469ACF9108954698FCCF3E9A469808956E
:1009B000CF93C82F0E94C4048C2FCF910C94C804ED
:1009C000EF92FF920F931F93CF93DF93CDB7DEB7D4
:1009D0002B970FB6F894DEBF0FBECDBF042F4F8309
:1009E000152F588769877A878B87EA84FB84611182
:1009F0000E94540E1E8285E0FE013796DE0111969C
:100A000001900D928A95E1F7EF28A9F449815A8166
:100A10006B817C818D819E810E944C0D2B960FB63F
:100A2000F894DEBF0FBECDBFDF91CF911F910F9124
:100A3000FF90EF90089510231F3F41F3CE010196E0
:100A40000E942F048111E2CFE9CFFC0180819181C6
:100A50000C941F0BCF93C82F8823F1F18CEF8C0FD0
:100A6000813AA0F46C2F80913801909139010E9455
:100A70008623882329F08C2F0E94ED0D0E94830E7F
:100A80008C2F0E94E60DCF910C94830E80E28C0F88
:100A9000883048F4C77081E001C0880FCA95EAF732
:100AA0000E94320EF0CF8BE58C0F833038F42C2F60
:100AB0002452330BC901CF910C944623C85AC73135
:100AC00058F4EC2FF0E0EE0FFF1FE158FE4F80814D
:100AD0009181CF910C945C23CF910895882329F1C3
:100AE0009CEF980F913A20F40E94ED0D0C94830E28
:100AF00090E2980F983050F4877091E001C0990F00
:100B00008A95EAF7892F0E94380EF0CF9BE5980F5F
:100B1000933020F490E080E00C944623885A87318B
:100B200020F490E080E00C945C2308951F93CF9311
:100B3000DF93182FEB010E942A05209731F4812FB3
:100B4000DF91CF911F910C946E058FE99FE0019783
:100B5000F1F700C000002197F0CF70E060E089332A
:100B600011F460E570E00C949605882321F00E9452
:100B7000320E0C94830E0895882321F00E94380EC3
:100B80000C94830E0895CF92DF92EF92FF920F9311
:100B90001F93CF93DF9300D000D00F92CDB7DEB775
:100BA0007C016D837983FC011281058102950F70B0
:100BB0000E94070EC82E8823A1F0C12E112389F0B0
:100BC0008981807F803429F08D81805EC12C8830BE
:100BD00040F082E00E94E80E0E94070E91E0C82ECD
:100BE000C926D980D2948FE0D822F8E0DF1609F424
:100BF000F4C0FD1508F44EC023E02D15E8F08981FE
:100C0000807F39813F70398391E09D1508F055C090
:100C1000803221F029812295207F29833D81332351
:100C200009F482C0313009F49FC0112309F4A7C030
:100C3000002309F49EC058C0E4E0DE1609F4B1C0F8
:100C4000ED2DE850FF0B349720F40E941F230E94E3
:100C5000D804CC2009F4CDC10E94030E80FDC9C187
:100C6000F70112820E94FD0D0E947609C7010E94C1
:100C70001E080E94FD0D0F900F900F900F900F9087
:100C8000DF91CF911F910F91FF90EF90DF90CF9068
:100C90000C94A709F9E0DF1609F44BC186E08D0D2D
:100CA0008F70823068F62D81223F09F053C189810F
:100CB0008F71112309F481C14AC1882321F0098170
:100CC0000295007F09831123B9F01981112361F086
:100CD0008D81805E883018F00D81011109C08981F5
:100CE0000E94320E0E94830E8D810E942A05A8CF99
:100CF00089810E94460EF6CF8D810E946E05198172
:100D0000112309F49DCF8D81805E883018F00D810C
:100D1000011106C089810E94380E0E94830E90CF77
:100D200089810E944C0EF9CF112391F0011107C067
:100D30000E94660E0981802B0E94B50581CF01308B
:100D4000B9F70E94660E1981812B0E946C0E78CF34
:100D5000011106C00E94790E89810E94BC0570CFE6
:100D6000013009F46DCFF6CF112329F0063008F0D9
:100D700067CF8981E1CF053008F062CFEDCF002346
:100D800059F31D81193349F42FEF37EE83E02150D9
:100D900030408040E1F700C000008D810E946E0568
:100DA0004FCF898186958695837069F0813009F0EF
:100DB00047CF8D8199819370111102C090E080E03E
:100DC0000E945C233DCF8D8199819370111102C0E7
:100DD00090E080E00E94462333CF8981837009F040
:100DE00050C011112DCF2D81229526952770220FED
:100DF000220F8D818F7090E0B0E0A0E0022E04C041
:100E0000880F991FAA1FBB1F0A94D2F70D8140E0DB
:100E100050E0BA0104FF0FC04FE050E060E070E026
:100E200004C0440F551F661F771F2A95D2F74095BF
:100E300050956095709519811695169513701D83C0
:100E40008A019B01082B192B2A2B3B2B09831A8320
:100E50002B833C831D8169817A818B819C81123037
:100E600051F0133059F0113019F00E94EC08E8CE1F
:100E70000E94C408E5CE0E941409E2CE0E94C20876
:100E8000DFCE112309F448C0098100FFD9CE2D819E
:100E9000229526952770220F220F8D818F7090E06A
:100EA000B0E0A0E0022E04C0880F991FAA1FBB1F4C
:100EB0000A94D2F70D8140E050E0BA0104FF0FC060
:100EC0004FE050E060E070E004C0440F551F661F23
:100ED000771F2A95D2F740955095609570951981A6
:100EE0001695169513701D838A019B01082B192BEB
:100EF0002A2B3B2B09831A832B833C831D81698119
:100F00007A818B819C81123071F0133079F011302D
:100F100039F00E94350A94CE198111FF91CEB7CFD6
:100F20000E940D0A8DCE0E945D0A8ACE0E94400961
:100F300087CE09810F700983112329F0802F0E9429
:100F400076098D81F9CE8D810E94BC0589810E9430
:100F5000A70976CE2D81233F60F4203FE1F0213FA9
:100F600041F1112309F440C00111BECE89818F7176
:100F700024C03D81333F21F1343F99F7112351F1D2
:100F800009810F710983802F0E94760963E08981AE
:100F90000E94CD0E55CE112341F0053008F050CE01
:100FA00089818F710E94DC094BCE063008F048CE53
:100FB000F7CF89818F71112351F20E94760940CEBB
:100FC000112329F089818F710E94510939CE0E9425
:100FD0004C0936CE81E00E94E80E023008F430CE93
:100FE00082E00E94E80E2CCE0111CBCE89818F7158
:100FF000AECF0F900F900F900F900F90DF91CF9189
:101000001F910F91FF90EF90DF90CF9008950F9375
:101010001F93CF93DF93EC01688179818A810E94CD
:101020002B0B8C010E94850A0E94C108B801CE01D9
:10103000DF91CF911F910F910C94C305CF93DF9354
:10104000EC018B819C81892B29F0898198818923EE
:101050008F3F59F4DF91CF910895CE010E94070888
:10106000CE01DF91CF910C943104CE010E945A043D
:101070008111F3CF0E94070E882361F38A818823B0
:1010800049F382E0DF91CF910C94E80E882321F0A0
:101090000E94460E0C94830E089590E080E00E941A
:1010A000462390E080E00E945C230E94540E0E9440
:1010B000630E0C94830E0E94F40D0C944D080E9454
:1010C000400E0C945B08282F892F82958F70903CDE
:1010D00080F48A30B0F4843020F4823090F480E0E0
:1010E00008958630E1F781E0283E88F0213FB9F786
:1010F0000EC08C3011F08F3091F793FB882780F968
:10110000089581E0203F39F018F4283E40F7089513
:10111000243F29F7FCCF0895FC01808191810E9432
:101120001F0B0C946308CF93DF9300D000D00F9275
:10113000CDB7DEB70F900F900F900F900F90DF910B
:10114000CF910895CF93DF9300D000D000D0CDB7DA
:10115000DEB726960FB6F894DEBF0FBECDBFDF9187
:10116000CF91089508950C94B2080E94B30860933B
:1011700061027093620280936302909364020C9404
:101180004D0808950C94B508CF93DF9300D000D09C
:10119000CDB7DEB769837A838B839C8380916102AC
:1011A00090916202A0916302B091640229813A8118
:1011B0004B815C81282B392B4A2B5B2B29833A836B
:1011C0004B835C83CA01B9010F900F900F900F9071
:1011D000DF91CF910C94B508CF93DF9300D000D06E
:1011E000CDB7DEB769837A838B839C83809161025C
:1011F00090916202A0916302B091640229813A81C8
:101200004B815C81282339234A235B2329833A833A
:101210004B835C83CA01B9010F900F900F900F9020
:10122000DF91CF910C94B508CF93DF9300D000D01D
:10123000CDB7DEB769837A838B839C83809161020B
:1012400090916202A0916302B091640229813A8177
:101250004B815C81282739274A275B2729833A83DA
:101260004B835C83CA01B9010F900F900F900F90D0
:10127000DF91CF910C94B5080C94B2080C943C0902
:101280000E943E0960935D0270935E0280935F024C
:10129000909360020C944D0860E070E0CB010C94D8
:1012A00040090F931F93CF93DF9300D000D0CDB7A9
:1012B000DEB741E050E060E070E08A019B0104C0CD
:1012C000000F111F221F331F8A95D2F709831A833B
:1012D0002B833C83C901B8010F900F900F900F90A2
:1012E000DF91CF911F910F910C9440090F931F93A1
:1012F000CF93DF9300D000D0CDB7DEB741E050E010
:1013000060E070E004C0440F551F661F771F8A9588
:10131000D2F780915D0290915E02A0915F02B09140
:1013200060028A019B01082B192B2A2B3B2B098376
:101330001A832B833C83C901B8010F900F900F9043
:101340000F90DF91CF911F910F910C9440090F9353
:101350001F93CF93DF9300D000D0CDB7DEB741E02D
:1013600050E060E070E004C0440F551F661F771F17
:101370008A95D2F7409550956095709580915D0261
:1013800090915E02A0915F02B09160028A019B0180
:10139000082319232A233B2309831A832B833C83A5
:1013A000C901B8010F900F900F900F90DF91CF916E
:1013B0001F910F910C9440090F931F93CF93DF93CC
:1013C00000D000D0CDB7DEB741E050E060E070E083
:1013D00004C0440F551F661F771F8A95D2F780916E
:1013E0005D0290915E02A0915F02B09160028A015D
:1013F0009B01082719272A273B2709831A832B8358
:101400003C83C901B8010F900F900F900F90DF91AE
:10141000CF911F910F910C944009CF93DF9300D08F
:1014200000D0CDB7DEB769837A838B839C838091AC
:101430005D0290915E02A0915F02B09160022981ED
:101440003A814B815C81282B392B4A2B5B2B2983DA
:101450003A834B835C83CA01B9010F900F900F90C0
:101460000F90DF91CF910C944009CF93DF9300D080
:1014700000D0CDB7DEB769837A838B839C8380915C
:101480005D0290915E02A0915F02B091600229819D
:101490003A814B815C81282339234A235B232983AA
:1014A0003A834B835C83CA01B9010F900F900F9070
:1014B0000F90DF91CF910C944009CF93DF9300D030
:1014C00000D0CDB7DEB769837A838B839C8380910C
:1014D0005D0290915E02A0915F02B091600229814D
:1014E0003A814B815C81282739274A275B2729834A
:1014F0003A834B835C83CA01B9010F900F900F9020
:101500000F90DF91CF910C9440090895E82F2FE0C0
:10151000929FE00D11248E2F877041E001C0440F8F
:101520008A95EAF7E695E695E69585E0E89FF0016D
:101530001124EF5DFD4F30E020E070E05191DF01BC
:101540001197CB01022E02C0969587950A94E2F777
:10155000817081958527842385278C932F5F3F4F4A
:101560002530310559F70895E82F2FE0929FE00DBF
:1015700011249E2F9770E695E695E69585E0E89F05
:10158000F0011124EF5DFD4F50E040E080E021913B
:1015900030E0092E02C0369527950A94E2F72170B3
:1015A0003327042E01C0220F0A94EAF7822B4F5FE3
:1015B0005F4F4530510559F70895BF92CF92DF92A2
:1015C000EF92FF920F931F93CF93DF938C01C09004
:1015D0005D02D0905E02E0905F02F0906002809128
:1015E000610290916202A0916302B0916402C82AE4
:1015F000D92AEA2AFB2ACFE1D0E0BC2ED701C601C6
:101600000C2E04C0B695A795979587950A94D2F7A6
:1016100080FD0EC0219788F7B12C8B2DDF91CF91E3
:101620001F910F91FF90EF90DF90CF90BF900895A2
:10163000B8018C2F0E94AA11019761F3EECFCF93CE
:10164000DF93D82FC92F0E94DD0A6D2F7C2FDF91E9
:10165000CF910C94AA111F93CF93DF93162FD72FFE
:1016600090912002992339F0862F972FDF91CF9107
:101670001F910C941F0B882391F0862F972F0E94A7
:10168000DD0AC82F682F812F9D2F0E94860A612FA7
:101690007D2F8C2FDF91CF911F910C94AA11862F53
:1016A000972F0E94B40AC82FF2CF1F93CF93DF93D6
:1016B000E091650216E0809166028E1304C0DF910E
:1016C000CF911F910895CE2FD0E01E9FF0011124DD
:1016D000E959FD4F408151816281738184819581F7
:1016E0000E94A208FE013196E770E5CF4091970273
:1016F000509198026091990270919A0280919B0298
:1017000090919C020C94A2081F93CF93DF93809139
:101710009C02807FA9F480919902882389F08091AE
:101720006502C09166027091970260919802A09143
:101730009A02B0919B02D62FD72316E0C81304C09B
:10174000DF91CF911F91089590E0109711F0DF3F46
:1017500019F401968770F2CF189F9001199F300DF0
:101760001124F901E959FD4F41816413F2CF408101
:101770004713EFCF42814111ECCF438154814A1B83
:101780005B0B483C510528F780919C028F7080616B
:1017900080939C02F901E459FD4F80818F70806134
:1017A000808387E992E00E941E08DF91CF911F910C
:1017B0000C94550BAF92BF92CF92DF92EF92FF92B3
:1017C0000F931F93CF93DF93CDB7DEB72B970FB651
:1017D000F894DEBF0FBECDBF8C0185E0F801DE01BD
:1017E000179601900D928A95E1F7F801E28087E95A
:1017F000A82E82E0B82E60919A0270919B0261152A
:10180000710549F02091970290919802892F8223C7
:101810008F3F09F02AC1EE2009F43AC1C8010E94A5
:101820008C08F82E882309F433C186E0F801A7E973
:10183000B2E001900D928A95E1F787E992E00E946B
:1018400025050E94840BF0C080919C02382F307FC8
:10185000683C710508F0A6C03111D3C0FE2C951369
:1018600024C0241322C0E11020C08F7080618093B7
:101870009C020E94760B87E992E00E941E088091EC
:101880009C02F80185838F2D2B960FB6F894DEBF4E
:101890000FBECDBFDF91CF911F910F91FF90EF90C1
:1018A000DF90CF90BF90AF9008954F835887CD2899
:1018B00029F0842F85238F3F09F0A0C080E0F82F06
:1018C000F170DF2EE09165022091660236E080FD26
:1018D0001CC0EE20C1F280919C02816080939C022A
:1018E000F12CD1CF8E2F90E03E9FF0011124E959C9
:1018F000FD4F6181651306C06081641303C062817E
:101900006E11E7CFFC013196E770E213EBCF8F81C8
:1019100098850E941F0B292F22952F70903260F01E
:10192000225F2F70223078F49F7051F0F80195817A
:10193000907F31F4D12C0AC09F7011F08823D1F32D
:10194000805E8830B8F3C8010E941E08FD2C9BCF32
:10195000C8010E948C08882309F49AC0EE2009F47B
:1019600097C080919C02803270F020919702309154
:1019700098023A8329831B82DD82CC828E83CE013A
:1019800001960E941E0886E0F801A7E9B2E00190E6
:101990000D928A95E1F70E94840B0E94760BFF243A
:1019A000F39471CF311143C06E2D7A858B850E94DF
:1019B000930887E992E00E941E0886E0F5011192E3
:1019C0008A95E9F70E94760B8BCFC8010E948C089C
:1019D0008111D9CF80919C02816080939C02C801C3
:1019E0000E941E0850CF6E2D7A858B850E94930829
:1019F00086E0F50111928A95E9F716C081E08E25FF
:101A00005ECF9513A5CF2413A3CFE110A1CFF8018A
:101A10008583C8010E941E0886E0F801A7E9B2E0AC
:101A200001900D928A95E1F70E94760B2CCF9513C9
:101A30008FCF24138DCFE1108BCFF8018583C801A0
:101A40000E941E0886E0F50111928A95E9F71BCFE6
:101A50009513BBCF2413B9CF86E0F801A7E9B2E014
:101A600001900D928A95E1F70ECF40815181C3809C
:101A7000D480F0909902F601E61BF70BBF01F1103C
:101A8000E3CE683C710508F0AECFFE2CE110E0CF4C
:101A9000C8010E941E0883CF1F93CF93DF93CDB759
:101AA000DEB72C970FB6F894DEBF0FBECDBF4F83C5
:101AB000588769877A878B879C87CE0107960E9413
:101AC000DA0B882369F08A859B85892B39F0588544
:101AD0004F81852F84238F3F09F071C016E05FC0CE
:101AE00086E0FE013796DE01119601900D928A95EF
:101AF000E1F78A859B85892B89F38F8198858923D6
:101B00008F3F61F32091660230E0C9010196877032
:101B10009927409165024817190671F40E945F08E1
:101B2000109266021092650286E0E7E9F2E0DF01BA
:101B30001D928A95E9F7D2CF96E0929FD001939FAC
:101B4000B00D1124A959BD4FFE01319601900D929F
:101B50009A95E1F7809366020E94550BBFCF819F53
:101B6000C001112489599D4F0E94DA0B8823E9F0A6
:101B7000E09165021E9FF0011124E959FD4F40815B
:101B8000518162817381848195810E94A208809134
:101B9000650290E001968770992780936502809195
:101BA0006502909166028913DACF2C960FB6F894ED
:101BB000DEBF0FBECDBFDF91CF911F910895698524
:101BC0007A858B859C850E94A20888CF682F80919A
:101BD0003801909139010C940A24682F80913801C2
:101BE000909139010C94152480913801909139011C
:101BF0000C94202480919E02089580919D028595E9
:101C000085958595089580919D028770089590919E
:101C10009D02977081E009F480E0089590918C0313
:101C200092FB222720F9281751F080FB92F990931C
:101C30008C0380918B0390918C030C942B0F08954F
:101C400080918C0382FB882780F991E089270C948E
:101C50000E0E81E00C940E0E80E00C940E0E80911E
:101C6000C40208959091C402982B9093C4020895E1
:101C7000982F90958091C40289238093C40208957F
:101C80001092C40208958091C30208959091C302F6
:101C9000982B9093C3020895982F90958091C3023A
:101CA00089238093C30208951092C30208958093FC
:101CB000C10208951092C10208958093C002089550
:101CC0001092C00208951092C202089580919F025E
:101CD000089508950C94690E90918C0392FD08C0AC
:101CE00090919F02981721F080939F020C946A0EA6
:101CF000089580919F02882329F010929F0280E02E
:101D00000C946A0E0895E0913801F09139018091A8
:101D1000C4028083E0913801F09139018081909173
:101D2000C302892B8083E0913801F09139018081D1
:101D30009091C202892B808390919F02992381F018
:101D4000E0913801F09139018081892B8083809165
:101D50003801909139010E94722381110E94790EFD
:101D6000E0913801F09139018091C002982F90954F
:101D7000808189238083E0913801F091390180814D
:101D80009091C102892B8083809138019091390113
:101D90000C942B2308950C94CA0E90918C0392FD01
:101DA00010C098E0899F90011124622B60939D02DE
:101DB0000E94760980919D028595859585950C9464
:101DC000CB0E0C94760910929D0280E00C94CB0E01
:101DD00090919D028095892380939D02282F2770E2
:101DE00039F4282F082E000C330B9217130621F418
:101DF00090918C0392FF07C08595859585950E94EB
:101E0000A7090C94E30E08956FEF7FEF90E080E058
:101E10000C94552D90E080E00E94312D9C0181E0D2
:101E2000293E3E4F09F080E0089582E090E00C9456
:101E3000232D83E090E00C94232DCF9384E090E059
:101E40000E94232DC82F82E290E00E94232D982F1C
:101E50008C2FCF910895CF93682FC92F84E090E005
:101E60000E94372D6C2F82E290E0CF910C94372D99
:101E7000AB01BC018FE090E00C94492DAB01BC019B
:101E800083E190E00C94492D60E070E0CB010C946C
:101E90003E0F60E070E0CB010E94380F0C94440FBD
:101EA00069EE7EEF90E080E00E94552D60E082E0D8
:101EB00090E00E94372D60E083E090E00E94372D93
:101EC00010926102109262021092630210926402F8
:101ED00060E084E090E00E94372D60E082E290E0D4
:101EE0000E94372D60E085E090E00E94372D60E091
:101EF00086E090E00E94372D6FEF87E090E00E942F
:101F0000372D40E050E0BA0188E090E00E94492D72
:101F100060E08DE090E00E94372D40E050E0BA0193
:101F200088E190E00E94492D60E087E190E00E9406
:101F3000372D40E050E0BA018CE190E00E94492D3D
:101F400070E060E080E290E00E94552D40E050E0BB
:101F5000BA0188E190E00E94492D0C94490F0C943D
:101F6000500F682F8EE090E00C94372D0E94C6240D
:101F70006093D6027093D7028093D8029093D902CF
:101F80006093D2027093D3028093D4029093D502CF
:101F9000089585B7806885BF85B7806885BF089537
:101FA000089508950C94D00F08950C94D40F0E94B6
:101FB000C90F89E892E10E9464250E94D10F0C9418
:101FC000D20F81E008950C94E10F089508950E94C6
:101FD000E50F0C94E60F0E94B1240E94A7130E9403
:101FE000311BEBE8F3E080818068808380918B0374
:101FF00090918C030E942B0F0C94D50F8F929F927F
:10200000AF92BF92CF92DF92EF92FF920F931F9306
:10201000CF93DF9300D000D00F92CDB7DEB70E94F0
:10202000BC1381110E94B60F56EC852E52E0952EFE
:1020300010E000E0A02E802F0E94E1127C01F4014C
:10204000C190D1904F01C816D90609F45BC08091A8
:10205000DA0281FD0E94EA12C6018E259F25B12C6D
:10206000CC24C394D12C9C012C213D21232B09F499
:1020700043C00E94E30F8823A9F0B982AA82EC2012
:10208000FD2081E0EF2809F480E08B830E94BA24D0
:102090008160782F9D838C8349815A816B818D81EA
:1020A0000E94E004000F111FF801EA53FD4F8081E8
:1020B0009181C826D926D182C0820E94751B0E94B8
:1020C0001F239091C5028917A1F10E941F238093BD
:1020D000C5020F900F900F900F900F90DF91CF914E
:1020E0001F910F91FF90EF90DF90CF90BF90AF9036
:1020F0009F908F900C94D804B394CC0CDD1CFFE01F
:10210000BF12B1CF0F5F1F4F0630110509F092CFFC
:102110008FEF89838A831B820E94BA248160782F83
:102120009D838C8349815A816B818D810E94E0045B
:10213000C4CF0F900F900F900F900F90DF91CF9121
:102140001F910F91FF90EF90DF90CF90BF90AF90D5
:102150009F908F900895CF93DF930E94AE11EC0172
:10216000811522E5920708F054C0811531E59307E7
:1021700008F0AFC08F3B9105B8F4883A910508F09C
:102180009AC0853A910568F4049738F481E0219764
:1021900009F080E0C82F40E0D42FCE01DF91CF912D
:1021A0000895A497D064F9CFC11580E5D807A0F4AD
:1021B000C11590E4D90708F089C0C83ED10530F4B4
:1021C000C03ED10550F7D0E0C0E0E7CFCE019A95F0
:1021D00081159F4110F3F7CFCE01F4E096958795D6
:1021E000FA95E1F783702C2F26952695237040E20F
:1021F000249F90011124382B8C2F8370C1E0D0E0F4
:1022000002C0CC0FDD1F8A95E2F7C22BD32BDC680E
:10221000C4CFC11586E5D80730F5C11595E5D907B6
:1022200008F06BC0C11524E5D207C0F48C2F869549
:1022300086959E0123703327C115D34508F04EC003
:10224000C1E0D0E002C0CC0FDD1F2A95E2F720E20A
:10225000829FC0011124C82BD92BD9CFDC2FCC27CA
:10226000C46FD06A9ACFC1153AE5D30788F4C11577
:1022700049E5D40708F04CC0CE0198558F3F910531
:1022800011F008F0A0CFDC2FCC27C06FD06A85CF2B
:10229000CE0190568115904208F095CF8D2F8F7109
:1022A0000E94461290E0982F882788279F719C01F2
:1022B0002C2BE9012BC0C85AD0E0CC0FDD1FC35531
:1022C000DE4F0990D881C02DD46467CFDF70D06A0B
:1022D00064CFD82FCC27C16FD06A5FCFC1E0D0E0E8
:1022E00002C0CC0FDD1F2A95E2F730E2839FC001C8
:1022F0001124C82BD92BDA6850CF8C2F0E9446129C
:10230000C82FD0E0DC2FCC27CC27DF71D06245CF9F
:102310008C2F8F700E94461234E0D695C7953A955F
:10232000E1F7CF70DC2FC82FD06937CF972F70E03F
:102330002FE0929F600D711D1124FB019AE5899F8A
:10234000E00DF11D1124EE0FFF1FE455FF4F8591A5
:10235000949108950E9496110C94AB10803E9105C3
:1023600099F1C8F48133910509F476C048F48932B3
:10237000910509F46AC08A32910509F474C0089580
:1023800089339105D1F082389105B9F085339105F3
:1023900009F454C00895843E910599F138F4823EC1
:1023A0009105F9F0833E910509F10895863E910566
:1023B00099F1873E9105B9F1089520918B0323701F
:1023C000A1F080EE90E0089520918B0320FD52C093
:1023D00030918C0330FF09C024FF4FC090E080E0B3
:1023E00004C020918B0322FDF7CF089520918B0329
:1023F00022FD46C030918C0330FDE3CF24FFF5CFA2
:10240000EDCF20918C0321FFF0CF80918B0384FDD1
:10241000E5CF87EE90E0089520918B0323FFE5CF71
:1024200024FDDCCFF6CF20918B0323FD2CC030910F
:102430008C0331FFE3CF84EE90E0089520918B036D
:1024400025FFD3CF89E290E0089520918B0325FFEB
:10245000CCCF85E390E0089520918B0326FFC5CF74
:102460008AE290E0089520918B0326FFBECF81E39E
:1024700090E0089589E390E0089583EE90E0089558
:1024800082EE90E0089586EE90E0089590918B039F
:1024900092FF06C0282F28712830F9F4877F8460C6
:1024A00093FF06C0282F28712831F1F4877E8461BC
:1024B00020918C0320FF06C0382F38713830D9F4B2
:1024C000877F816021FF06C0282F28712831D1F431
:1024D000877E816194FD877E0895282F24712430A2
:1024E000F9F68B7F8860DCCF282F2471243101F727
:1024F0008B7E8861DDCF382F3171313019F78E7FB7
:102500008860E0CF282F2171213121F78E7E8861EC
:10251000E1CF80E008950C94040F0E94BC138FE378
:102520009CE90197F1F700C000000E94BC1380E015
:102530000E94E11280FF04C00E948B120C9440257F
:1025400008950C948D12CF93DF9300D000D0CDB7B7
:10255000DEB70E940A0F811102C00E94AF0F0E94D5
:10256000150F8093DA020E941D0F90938C038093C5
:102570008B030E94A1120E94190F282F30E050E017
:1025800040E0CA01B9010E94C20880915D029091A9
:102590005E02A0915F02B091600289839A83AB834F
:1025A000BC83BC01CD010F900F900F900F90DF9175
:1025B000CF910C943E0908950C94DB1208950C946D
:1025C000DE12E82FF0E0EE0FFF1FE756FC4F808190
:1025D00091810895089580EA8A95F1F7089500C0E1
:1025E00008950C94EB12F894E82FE295EF70A1E2B5
:1025F000AE0FB0E04C918F7021E030E0B90102C025
:10260000660F771F8A95E2F7CB01962F909594235A
:102610009C93EE5DF0E09081892B808378940895FF
:10262000CF93DF93CAEED1E089918F3F11F00E94E2
:10263000F31281E0C03FD807B9F7CBEDD1E0899123
:102640008F3F11F00E94F31281E0CA3ED807B9F71C
:10265000DF91CF910895AF92BF92CF92DF92EF9228
:10266000FF920F931F93CF93DF93EC01D62E062F8B
:1026700010E0C80186519E4F7C01FC0180818F3F94
:1026800009F457C0F894E82FE295EF70A1E2AE0F7D
:10269000B0E09C918F7021E030E001C0220F8A955C
:1026A000EAF7892F822B8C93EE5DF0E080812095F4
:1026B0002823208378940E94EF12EBEDF1E050E0A4
:1026C00040E0B12CA12C61E070E081918F3FE1F1FD
:1026D000A82FA295AF70A05EB0E02C9130E08F7073
:1026E00002C0359527958A95E2F720FD2DC09B0104
:1026F000042E02C0220F331F0A94E2F7A22AB32A43
:102700004F5F5F4F4F30510501F7F70180818F3FD9
:1027100011F00E94F31261E0A114B10409F460E029
:102720008D2D0E94F112000F111FC00FD11FB98211
:10273000A882DF91CF911F910F91FF90EF90DF90D2
:10274000CF90BF90AF90089520E030E0D7CF0E94A7
:1027500010138CE0EDE8F3E0DF01982F1D929A95BD
:10276000E9F7E9E9F3E0DF011D928A95E9F786E0F0
:102770000E940A140C943E04FF920F931F93CF9370
:10278000DF93CDB7DEB72C970FB6F894DEBF0FBE40
:10279000CDBFFE0131968CE0DF011D928A95E9F7ED
:1027A00010E0FE2E0F2F612F8F2D902F0E942B13E4
:1027B0001F5F1630C1F74CE050E06F2D702F8DE891
:1027C00093E00E94162D9C0111E0892B09F410E082
:1027D000232B49F08CE0EF2DF02FADE8B3E0019012
:1027E0000D928A95E1F7212F46E069E973E08DE8C3
:1027F00093E00E940B140E944404812F2C960FB684
:10280000F894DEBF0FBECDBFDF91CF911F910F9126
:10281000FF9008950895FF920F931F93CF93DF9336
:10282000F82E092F162FD72FC42F222349F081E02D
:102830008093DD020E94BA249093DC028093DB0235
:102840008091DD028823A1F08091DB029091DC026F
:102850000E94E624059760F0EF2DF02FA12FBD2FE9
:1028600090E080E0D0E08C179D0744F01092DD02EC
:10287000DF91CF911F910F91FF9008952191319198
:102880002D933D930196EFCF0E9432240E94B726EC
:102890000E94D0260E94E2260E94E70FFBCFCF9233
:1028A000DF92EF92FF920F931F93CF93DF93D62F78
:1028B000C72F982F711113C0442329F0E82FF0E09F
:1028C000EE51FC4F9491692F792F892FDF91CF9191
:1028D0001F910F91FF90EF90DF90CF900895272FD9
:1028E00030E0E82FF0E0442321F0EE51FC4FE4917A
:1028F000F0E086E0D89F700111240FEF10E0C701CF
:10290000B8010E94102C8D2F90E0880F991FA5E52B
:10291000A69FA001A79F500D1124841B950BD82EB4
:10292000DD0CD80EC801821B930B8E9FA0018F9FD8
:10293000500D9E9F500D1124952FDC9EE001112417
:10294000CD2FDD27D801AC1BBD0BED01CE9FD001F3
:10295000CF9FB00DDE9FB00D11248B2FE801CD1954
:10296000D1096E01C29EE001C39ED00DD29ED00D52
:102970001124CD2FDD270C1B1D0B0E9FE0010F9F97
:10298000D00D1E9FD00D11242E2F63307105D9F06C
:102990003CEFE31633E0F30668F461307105B9F0FB
:1029A00062307105C1F0AFEFEA16F10448F4852FEB
:1029B0009D2F06C06430710589F066307105B9F34A
:1029C000692F722F83CF9B2F8E2F252FF9CF9E2F0C
:1029D0002B2F852FF5CF8D2F9E2FF7CF8E2F2D2FBD
:1029E000EFCF41E00C944F1408950C94F114CF9361
:1029F000DF93982F762F842FE901692F0E94F51419
:102A0000798368838A83DF91CF9108958091A503AC
:102A1000982F9E7F29F4817082608093A50308958A
:102A20008635E8F381708465F8CF88E090E00C94F7
:102A30002B2D0F931F93CF93DF938B01D82FC92F8B
:102A40000E940615A8016D2F7C2F88E090E0DF9191
:102A5000CF911F910F910C94492DE5EAF3E08DE0A1
:102A6000808311828FEF828383838FE084836DE084
:102A700070E08FEF9FEF0C9419158091A50380FFF4
:102A800002C08695089580E00895CF93DF9300D02B
:102A900000D0CDB7DEB79091A903933018F49F5FB3
:102AA0009093A9038823B1F08091A5039091A60388
:102AB000A091A703B091A80389839A83AB83BC83B9
:102AC000BC01CD010F900F900F900F90DF91CF912F
:102AD0000C9419150F900F900F900F90DF91CF91DC
:102AE000089581E00C944515CF93DF9300D000D07A
:102AF000CDB7DEB79091A903992319F09150909327
:102B0000A9038823B1F08091A5039091A603A09119
:102B1000A703B091A80389839A83AB83BC83BC01CC
:102B2000CD010F900F900F900F90DF91CF910C94EB
:102B300019150F900F900F900F90DF91CF9108957E
:102B400081E00C94741570E00C94B21C60913E010D
:102B50008091A50380FF0AC080913D0123E0829F00
:102B6000C001112486559C4F0C94A31580913F0100
:102B70009091400123E0829FF0011124E655FC4F23
:102B8000891750F71182108212828F5F3396F8CF27
:102B90009091A50390FF14C090913F0120914001B6
:102BA00033E0939FF0011124E655FC4F921710F08B
:102BB0000C94A6158183608342839F5F3396F6CF82
:102BC0000895CF93DF9300D00F92CDB7DEB79091E9
:102BD000A50390FF0AC09E012F5F3F4F0E94F7148C
:102BE0004B8169818A810E94C8150F900F900F90C8
:102BF000DF91CF910895CF93DF93EC01EC81F0E06A
:102C0000E352FD4F4491E5EAF3E0628181810E9445
:102C1000E1158C818F5F8C83DF91CF910895CF93E5
:102C2000DF93EC01E5EAF3E0438162818C810E944D
:102C3000E1158C818F5F8C83DF91CF9108950F9385
:102C40001F93CF93DF9300D00F92CDB7DEB78C01E7
:102C50008091DE0281110AC09E012F5F3F4F4FEF2E
:102C60006FEF0E94F7148A818093DE02F80164817D
:102C7000613049F06230F1F08091DE0240E066237D
:102C800031F040E019C06091DE0240E080E00E9437
:102C9000C815F801848190E0019663E070E00E941D
:102CA000242C84830F900F900F90DF91CF911F9170
:102CB0000F9108954091DE0280E060E0E8CFAF928E
:102CC000BF92CF92DF92EF92FF920F931F93CF9319
:102CD000DF9300D000D000D00F92CDB7DEB7182F11
:102CE000F62E042FD22E9091A50390FF83C0E92FDA
:102CF000E695AE2FB0E0A051BE4F8C918093440377
:102D00009E7F9230A1F59E012F5F3F4F812F0E9441
:102D1000F7144B8169818A810E94C8151093A6031C
:102D2000F092A7030093A803DD2009F463C080910B
:102D3000A5039091A603A091A703B091A8038C834B
:102D40009D83AE83BF83BC01CD0127960FB6F89457
:102D5000DEBF0FBECDBFDF91CF911F910F91FF90CE
:102D6000EF90DF90CF90BF90AF900C941915823008
:102D700019F40091A803D2CF863019F41091A6035C
:102D8000CDCF8930D9F3893149F6E9518E2F817041
:102D9000C82EE695F0E0E352FC4FA590B490E12CEC
:102DA000BB2460914101E61618F00E94A615B6CF2B
:102DB0002E2D30E0EA9CC001EB9C900D112470E0B8
:102DC0000E94102C812FC11013C0860F90913F01DB
:102DD000A901490F511D9A01220F331F240F351FDE
:102DE00026553C4F402F6F2D0E94F714E394D9CF06
:102DF000861BECCF27960FB6F894DEBF0FBECDBF73
:102E0000DF91CF911F910F91FF90EF90DF90CF90C6
:102E1000BF90AF900895282FE5EAF3E081814381C8
:102E20006281865F0C945F1681E00C940B17282F4B
:102E3000E5EAF3E08181438162818A500C945F1658
:102E400081E00C941717282FE5EAF3E062813AE05D
:102E5000630F08F46FEF438181810C945F1681E06A
:102E60000C942317282FE5EAF3E062813AE0631B14
:102E700008F460E0438181810C945F1681E00C943A
:102E80003217282FE5EAF3E043813AE0430F08F4D4
:102E90004FEF628181810C945F1681E00C944117A1
:102EA000282FE5EAF3E043813AE0431B08F440E0D1
:102EB000628181810C945F1681E00C94501720E0B0
:102EC0000C945F16EF92FF921F93CF93DF93EC0168
:102ED00010E0EE24EA94F12C60914101161770F095
:102EE0000E94A6159A818C8190FF27C08F5F8C83EA
:102EF000DF91CF911F91FF90EF90089520913F01B6
:102F0000422F410F5527551FCA019A01220F331F27
:102F1000280F391F26553C4F70E0C7010E94242C12
:102F2000962F8C814091A8036091A703199F800D73
:102F300011240E94F7141F5FCFCF8150D8CFBF92CA
:102F4000CF92DF92EF92FF920F931F93CF93DF9375
:102F5000FC0182810FEF80FF01E010E080914101D0
:102F60001817C0F00E94A6158091E002013009F008
:102F700054C0811102C08091410181508093E002D0
:102F8000DF91CF911F910F91FF90EF90DF90CF9045
:102F9000BF90089580913F01C12ED12C8C0D9D2DA5
:102FA000911DEC01CC0FDD1FC80FD91FC655DC4F9A
:102FB000198218821A8234E0E32EF12CB12C809110
:102FC000E0028B0D83311CF162E10E94022C892FFB
:102FD000082E000C990BC816D90691F48091A8030D
:102FE0008E9DA0018F9D500D1124559547955595A7
:102FF00047959E016091A7038091A6030E94F71454
:10300000B00EF1E0EF1AF108D1F61F5FA7CF87FFEE
:10301000DFCF90914101890FDBCF90E00196609165
:10302000410170E00E94242CA9CF0F931F93CF93EE
:10303000DF9380913F019091400123E0829FF00156
:103040001124E655FC4F891740F1C0E0D3E06091B0
:103050004101C61740F10E94A61520913B018091C5
:10306000DF02820F8093DF0290913C01920F9093D8
:103070003C01191654F4082E000C990B40914101A3
:103080004150550B841795071CF0219520933B0167
:10309000DF91CF911F910F910895118210821282BA
:1030A0008F5F3396D0CF0C2F10E070E0C8010E94E4
:1030B000242C20913F01820F482F50E02091DF0205
:1030C000022E000C330B02171307BCF020913C01B9
:1030D000022E000C330B201731077CF08D9F9001DE
:1030E000112426553C4F4091A8036091A70380917D
:1030F000A6030E94F714CF5FAACFFA01EE0FFF1FBD
:10310000E40FF51FE655FC4F118210821282F3CFB7
:10311000EF92FF920F931F93CF93DF93CDB7DEB75C
:103120002E970FB6F894DEBF0FBECDBF8D879E875A
:10313000AD85BE8514961C91212F30E0D9010E94E7
:10314000682C9B01AC010E947E2C69837A838B835F
:103150009C83E0E2F0E0E11BF109A5E5B0E09B0112
:10316000AC010E947E2C69877A878B879C879F01A0
:10317000DF010E94602C6D837E838F8398879B0183
:10318000AC010E94892C9B01AC0169817A818B8101
:103190009C81260F371F481F591F69857A858B85AB
:1031A0009C850E94382CF22E822F90E079E27217D3
:1031B00088F183E0289F9001112435952795122FDF
:1031C000109500E085E5E82EEF1880914101081781
:1031D00080F10E94A615AD85BE8514969C9181E074
:1031E000992319F0903219F48FEF80933A0180916E
:1031F0003A01890FED85FE8584832E960FB6F894EB
:10320000DEBF0FBECDBFDF91CF911F910F91FF9019
:10321000EF90089525E530E0D901A81BB90B9D0179
:10322000220F331F2A0F3B1F37FFC7CF2F5F3F4FA0
:10323000C4CF8E2D01FD8F2D20913F01E22FE00F95
:10324000FF27FF1F9F01220F331F2E0F3F1F265501
:103250003C4F412F6091A7030E94F7140F5FB5CF39
:103260000F931F93CF93DF93EC0110E000E0909158
:1032700041019017110609F06CF40E94A6158C818B
:1032800090E00196817099278C83DF91CF911F91F7
:103290000F91089580913F01A801480F511D9A0197
:1032A000220F331F240F351F26553C4F4C81609150
:1032B000A7038091A60396959017110651F04CF044
:1032C000442349F04091A8030E94F7140F5F1F4F59
:1032D000CECF4423B9F340E0F7CF4F925F926F9285
:1032E0007F928F929F92AF92BF92CF92DF92EF9296
:1032F000FF920F931F93CF93DF93FC016280448072
:1033000081E08483EDEDF2E07490ECE5F3E0E4918C
:10331000812C75E0972EF2E0CF2EDD24D394AA24E1
:10332000AA94B12C55245A94E7190E2F10E08091DD
:103330004101881690F0DF91CF911F910F91FF907E
:10334000EF90DF90CF90BF90AF909F908F907F9045
:103350006F905F904F900C94A615E82CF12C82E0B2
:10336000861568F09E9CF0019F9CF00D1124EF5192
:10337000FD4F8091A60380838091A7038183411034
:1033800023C09E9CF0019F9CF00D1124EF51FD4F36
:103390001382128280913F018E0D9F2D911D9C0101
:1033A000220F331F280F391F26553C4F9E9CF001DA
:1033B0009F9CF00D1124EF51FD4F4281618180816E
:1033C0000E94F7148394B3CF9E9CE0019F9CD00D84
:1033D0001124CF51DD4F8B818823E9F081508B83FD
:1033E000859DC00111246C8170E00E94102CFB01AE
:1033F000FF27E352FD4F8491E82FE719E59DC001B7
:103400001124B8010E94102C8091A803689FB0017C
:1034100011247A83BFCF0E94F92CAC019091A803AC
:10342000969591589C9D90019D9D300D1124232FC0
:103430003327421753070CF0ADCF82E0861588F48E
:103440000E94F92CB5010E94242C88830E94F92C3B
:103450002091A7032695622F70E00E94242C280F4C
:1034600029839E9CF0019F9CF00D1124EF51FD4F8C
:1034700012828091A803893C58F088EC9E9CF00150
:103480009F9CF00D1124EF51FD4F8483838382CFE5
:103490008431A0F784E1F2CFCF93DF9300D000D046
:1034A000CDB7DEB7E5EAF3E080818E7F808380814F
:1034B0009181A281B38189839A83AB83BC83BC0150
:1034C000CD010E941915109245039FEFA0E7B2E0CD
:1034D0009150A040B040E1F700C000000F900F9065
:1034E0000F900F90DF91CF910C94A615E5EAF3E0D1
:1034F00080818E7F8083109245032FEF80E792E0DA
:10350000215080409040E1F700C000000C94A615C7
:10351000109245038091420381110AC081E080939B
:1035200042038091A5038170809341030C94761A25
:1035300008956091A503669570E04BE050E082E449
:1035400091E00E94092D892B19F481E080934503B5
:103550000E94BA2490933C0380933B030895CF9339
:10356000DF9300D000D0CDB7DEB79091A50390FFD8
:1035700041C09170811134C092609093A50366237D
:1035800081F08091A5039091A603A091A703B0912B
:10359000A80389839A83AB83BC83BC01CD010E94BD
:1035A00019156091A503669570E04BE050E082E448
:1035B00091E00E94092D892BD1F01092450381E002
:1035C00080933E034091A8036091A7038091A603D6
:1035D0000F900F900F900F90DF91CF910C945F1789
:1035E0008B3210F09465C9CF880F982BC6CF0E94FC
:1035F000991AE5CF0F900F900F900F90DF91CF9118
:103600000895682F8091A50386958F5F8B3208F00F
:1036100081E00C94AF1A81E00C94011B682F90910B
:10362000A50396958FEF890F913009F48AE20C94E7
:10363000AF1A81E00C940E1B61E00C94AF1AE5EA1E
:10364000F3E080818160808386950C941C1B8091BF
:10365000A50380FD0C944C1A0C941F1B60E00C9485
:10366000AF1A8091430381112EC00E940A0F81116D
:1036700004C00E94AF0F0E942D150E941515609383
:10368000A5037093A6038093A7039093A8036E7F6E
:1036900061F40E942D150E9415156093A503709387
:1036A000A6038093A7039093A8030E940615109287
:1036B00045038091A50380FF03C086950E942E1BC1
:1036C00081E0809343030895E5EAF3E0808181601F
:1036D000808386950C942E1B1092420380914103A7
:1036E00081110E94641B0C94991A0F931F93CF931E
:1036F000DF9380914503882309F496C080914403A9
:10370000E091A503E695E81BE0933D03823091F537
:10371000F0E0E752FD4FE491CE2FD0E00BEF15E142
:1037200080913E03882361F010923E030E94BA24E8
:1037300090933C0380933B031092400310923F030D
:103740000E94BA24E0913B03F0913C038E1B9F0B37
:103750008F3F9F4708F068C0EC0FFD1FF0933C03BC
:10376000E0933B038BE393E0F801DF91CF911F914E
:103770000F910994863049F4F0E0EA52FD4FE4914C
:10378000CE2FD0E00FE016E1CBCF893051F4E69593
:10379000F0E0ED52FD4FE491CE2FD0E002E617E1CC
:1037A000BFCF8F3051F4E695F0E0E053FD4FE49148
:1037B000CE2FD0E00FE917E1B3CF853149F4F0E027
:1037C000E353FD4FE491CE2FD0E005E118E1A8CFFF
:1037D000C8E2D0E008E818E1883109F4A1CF8332CB
:1037E00039F4EBECF2E0C591D4910FE116E198CFFA
:1037F000C4EFD1E000E319E1843209F491CFC0EDC8
:10380000D7E004EF14E1853209F08ACF8E2F63E010
:103810000E94F62BE92FF0E0E853FD4FE491CE2F04
:10382000D0E00DE619E17CCFDF91CF911F910F9190
:103830000895FA0181110994FB01FDCFCF93DF9325
:10384000C82FD62F0E943D158C1740F00E943D15C1
:103850008D1720F4DF91CF910C940B1B8C2FDF91EF
:10386000CF910C941C1B0F931F93CF938C01FB01E2
:10387000C281CC2309F474C00E942F0E8272073DCE
:10388000FCE51F0770F4033C9CE5190780F0F80184
:10389000E45CFC45E331F10578F4E457F24D0C9417
:1038A0005A2C6AE285E20E351D4509F443C08C2F7F
:1038B000CF911F910F9108950E94271BC0E0F7CF71
:1038C00049E15BE16BE07BE10E94191CF7CF4BE023
:1038D0005BE169E17BE1F8CF40E257E164E177E148
:1038E000F3CF44E157E160E277E1EECF4EE357E1F9
:1038F0006FE277E1E9CF4FE257E16EE377E1E4CFA2
:103900004CE557E16DE477E1DFCF4DE457E16CE53D
:1039100077E1DACF40EA55E161E775E1D5CF41E7DC
:1039200055E160EA75E1D0CF81E00E941C1BC6CF53
:1039300065E082E00E941E1CC1CF68E086E0FACFFD
:103940006EE089E0F7CF64E18FE0F4CF67E185E1D5
:10395000F1CF88E1EACF62E289E1ECCF83E2E5CF03
:10396000C1E0A5CF9C01AB01809A61B36E7F71B3BA
:103970007160EFB7F894CA01880F991F840F951FE3
:10398000820F931F8217930741F4EFBF8FE594E0F6
:103990000197F1F700C000000895D9014D919D01F4
:1039A00058E071BB000000C047FF61BB440F00003E
:1039B00000C000C000C061BB00C05A9591F7E2CFC3
:1039C0000F931F93CF93DF93C42FD22FFC018281DB
:1039D0008823C9F0409348030E94BA249093470378
:1039E0008093460380E28C0F883008F050C0C77087
:1039F00081E001C0880FCA95EAF7DF91CF911F914E
:103A00000F910C94B50510914803141335C08091A3
:103A10004603909147030E94E624883C910560F597
:103A2000C0E2CD0F1D17B9F080E2810F883040F45D
:103A3000177081E001C0880F1A95EAF70E94BC0553
:103A4000C83048F481E09D2F977001C0880F9A9587
:103A5000EAF70E94B505802F0E94AD05C830B8F482
:103A6000D77081E001C0880FDA95EAF7DF91CF9136
:103A70001F910F910C94BC0580E28C0F883038F4B4
:103A8000C77081E001C0880FCA95EAF7EFCFDF91D8
:103A9000CF911F910F9108950F939C01CB01243F6B
:103AA0004CE53407A1F190F4293DFCE53F0749F1CD
:103AB0002A3D4CE53407E9F1283D3C45C1F0FC01C5
:103AC00082818823E1F11092480319C0263FFCE56A
:103AD0003F0719F1273F4CE5340729F1253F3C45C5
:103AE00071F707E225EE44EE65EF7CE505C006E2DE
:103AF00021EE41EE68ED7CE50E94E01C80E00F9134
:103B0000089507E225EE45EE69ED7CE5F5CF06E286
:103B100021EE40EE64EF7CE5EFCF06E221EE42EECF
:103B200066EF7CE5E9CF07E225EE46EE67EF7CE540
:103B3000E3CF08E221E045EE6AED7CE5DDCF81E0F0
:103B4000DECFCF93DF93EC01FB018281882309F460
:103B5000DFC0C430FDE5DF0710F5CB3F9CE5D9079A
:103B600030F49E0122503C4524313105E0F40E949E
:103B70001D0F90938C0380938B03C631FCE5DF0708
:103B800010F5C2308CE5D80788F480918B039091B2
:103B90008C030E942B0F0E945F0880E004C0C23695
:103BA000EDE5DE0721F3DF91CF910895FE01E350AB
:103BB000FC4580918B038160E331F10518F5E156F6
:103BC000F24D0C945A2CC4309DE5D90770F4CB3FCC
:103BD000ECE5DE07D0F2FE01EC5FFC45E830F105D4
:103BE000E0F4EE54F24D0C945A2CC236DD4569F6E1
:103BF00090918B03892F8F7E94FF806103C0809109
:103C00008B03826080938B03C0CF80918B03846091
:103C1000F9CF80918B038860F5CF80918C03816010
:103C200080938C03B2CF80918C038260F9CF809116
:103C30008B038061E7CF80918B038062E3CF80911B
:103C40008B038064DFCF0E945F0880918B038068C4
:103C5000D9CF80918B038C60D5CF80918C0383600A
:103C6000DFCF80918B038E7FCDCF80918B038D7FB3
:103C7000C9CF80918B038B7FC5CF80918B03877FCA
:103C8000C1CF80918C038E7FCBCF80918C038D7FB1
:103C9000C7CF80918B038F7EB5CF80918B038F7DB3
:103CA000B1CF80918B038F7BADCF0E945F08809155
:103CB0008B038F77A7CF80918B03837FA3CF8091D6
:103CC0008C038C7FADCF80918B0382FB992790F979
:103CD00021E0922790FB82F990FB83F993CF8091AA
:103CE0008C03982F909591708E7F892B90FB81F992
:103CF00097CF0E945F0890918B03892F97FB87F9DC
:103D0000805880CF81E00E94B10F3FCF80E0FBCF91
:103D100081E049CFCF93DF93EB0186319C4511F5CC
:103D20000E942F0E9A81992399F08A7A91E009F4E2
:103D300090E090934903811109C089E20E94E60D49
:103D40000E94830E80E0DF91CF91089585E3F6CF46
:103D500080914903811104C089E20E94ED0DF0CFEA
:103D600085E3FBCF81E0EFCFFC018781862351F40F
:103D700082818823B9F06823938593FF05C081E091
:103D800061110FC080E00895282F2F7082958F70E9
:103D9000282B962F9F7062956F70692B81E02613F8
:103DA000F1CF089581E0FDCFCF93DF9300D000D015
:103DB00000D0CDB7DEB78E839D8380915403909160
:103DC0005503A0915603B0915703BC01CD010E9449
:103DD000F524643F71408105910558F580915403A5
:103DE00090915503A0915603B091570380935003CF
:103DF00090935103A0935203B093530384EF91E047
:103E0000A0E0B0E080934C0390934D03A0934E0349
:103E1000B0934F03BE81B0934A032D8120934B038F
:103E200026960FB6F894DEBF0FBECDBFDF91CF91BF
:103E300008950E94C62460935003709351038093A9
:103E400052039093530382E390E0A0E0B0E0DACF16
:103E50001F93CF93DF93182F80915B0390915C03A6
:103E6000892B09F44CC010924B0310924A030E9414
:103E7000600E0E945A0EA0915B03B0915C031996EC
:103E8000CD91DC911A97CE019A9581159F4108F446
:103E9000D07ED1E0C11101C0D0E01C96ED91FC9123
:103EA0001D97309731F01E966D917C9180E00995B9
:103EB000D823DD2339F08CEF8C0F813A20F58C2F3D
:103EC0000E94ED0D112399F0E0915B03F0915C03EA
:103ED000838584FD0CC080915A03882341F0808142
:103EE00091819C012150310922363D4590F00E947C
:103EF000830E10925C0310925B0310925A03DF91C1
:103F0000CF911F9108950E94830E8C2F0E946E0501
:103F1000D9CF0E94D41EEBCF10924D0180E00C94BB
:103F2000281F80914D0181110C948C1F81E080939A
:103F30004D010895CF93DF9300D000D0CDB7DEB709
:103F400080914A0390914B03892BD9F12091500322
:103F5000309151034091520350915303CA01B9016A
:103F60000E94F52469837A838B839C8380914C0320
:103F700090914D03A0914E03B0914F0329813A8156
:103F80004B815C81281739074A075B07D0F0809185
:103F90004A0390914B030E94D50310924B03109259
:103FA0004A03109250031092510310925203109240
:103FB000530310924C0310924D0310924E03109233
:103FC0004F030F900F900F900F90DF91CF910895B6
:103FD0002F923F924F925F926F927F928F929F9219
:103FE000AF92BF92CF92DF92EF92FF920F931F9307
:103FF000CF93DF9300D000D000D0CDB7DEB78C01D7
:1040000069837A83A981BA8112968C908820B1F055
:104010008036BDE59B0759F08136EDE59E0759F0E6
:104020008F359D4559F40E94911F312C0DC081E0C0
:1040300080934D01FACF0E948C1FF7CF30904D0135
:1040400031101CC033243394832D26960FB6F89478
:10405000DEBF0FBECDBFDF91CF911F910F91FF90BB
:10406000EF90DF90CF90BF90AF909F908F907F9018
:104070006F905F904F903F902F900895680120EED1
:10408000C21AD1080E942F0EE82E0E94FA0D982E17
:104090000E94660E982A9E2838E0C316D10408F0C4
:1040A0006AC098012770332781E090E001C0880F33
:1040B0002A95EAF7882009F45BC0982AA981BA8179
:1040C0008D919C910E94B40AA0900401B0900501CA
:1040D000A114B10409F4E7C044244394512C02C054
:1040E000440C551C8A95E2F7052C000C66087708ED
:1040F000E0915B03F0915C03FA83E983209158031C
:10410000309159033C832B83212CE22DF0E0EE0FFC
:10411000FF1FEA0DFB1D808191819E838D83009797
:1041200009F4C1C0911005C0DC0112968C91811177
:104130001DC0ED81FE8183819481A581B68184219A
:104140009521A621B721892B8A2B8B2B79F083858A
:10415000982F977009F487E0F8E0CF16D10428F57E
:104160008820F9F086958170811123C02394CDCFEA
:1041700080959822A3CF882009F47EC0109359031C
:10418000009358030E94C624609354037093550310
:10419000809356039093570310924B0310924A0357
:1041A0008DCF82FB882780F9DFCF8820F9F280FF4E
:1041B000DDCFAD81BE81ED90FC900E151F0511F491
:1041C0008820A1F2ED81FE8129813A81E217F3076F
:1041D00069F20088F189E02D309719F080818823F9
:1041E00029F2692D8D819E810E94B41E882309F4D5
:1041F000BDCF0E151F0509F06AC00115110509F4A0
:104200006BC081106BC08B819C81E816F90609F0A8
:10421000ADCF812C63C00E946E0580C00497813AA7
:10422000910548F4802F0E94E60D882009F40ACFFA
:104230000E94830EFACE0E94830E8FE39CE90197C1
:10424000F1F700C00000802F0E942A05EECFFC018C
:10425000208131812017310731F4811007C010927D
:104260005A0380E031C0882009F4ECCEDC011B96B3
:104270008C9185FDE7CEF5CF80915803909159033D
:104280008017910781F410925903109258031092ED
:104290005403109255031092560310925703109234
:1042A0004B0310924A0380915B0390915C0300974B
:1042B00009F4C8CEA8E0CA16D10448F6692D0E94B8
:1042C000B41E8111BFCE81E00E94281FBDCEE11433
:1042D000F10409F098CF812CF12CE12C80E00E94B0
:1042E000281FED81FE81F0935C03E0935B0381E086
:1042F00080935A0380850E945D0E81100FC0EF28C5
:1043000069F0AD81BE818D919C919C012450310951
:10431000213A310508F07FCF0E94ED0DED81FE813D
:1043200001851285C8019A9581159F4108F4107E78
:10433000FF24F394C801019782369D4508F0F12CC3
:10434000AD81BE811C96ED91FC911D97309731F0A7
:104350001E966D917C9181E00995F822FF2081F0F5
:10436000ED81FE81818592850E949B030E94570EFC
:10437000C801F8E0CF16D10408F050CF0E94D41E37
:104380000E94830E52CFCF93DF93EC0181E0898BA3
:104390008F810E94320E88850E94460E0E94830EF5
:1043A000EA81FB81309739F06C897D89CE010696D0
:1043B000DF91CF910994DF91CF910895EF92FF9211
:1043C0000F931F93CF93DF93EC018A85811134C043
:1043D000EB80FC8087E5F81A26E12E9DC0012F9D19
:1043E000900D1124DC01A45FBE4F1496ED91FC9159
:1043F0001597309731F054966D917C918E5E9E4F5B
:10440000099586E18E9D80018F9D100D1124045F1A
:104410001E4FF80187810E94380EF80180850E94A6
:104420004C0E0E94830E188219861B861E821D82E6
:1044300010925E0310925D03DF91CF911F910F9157
:10444000FF90EF900895DF92EF92FF920F931F93EA
:10445000CF93DF938C01FB018281882399F08091B7
:104460004E0190914F01019669F0CCE0D1E0F12C22
:10447000E12CDD24D39480914E0190914F018E1553
:104480009F0544F4DF91CF911F910F91FF90EF9022
:10449000DF9008958E818823D9F089859A858017C9
:1044A000910739F480915D0390915E038017910725
:1044B00079F0DF861C870B878989811103C0CE01C3
:1044C0000E94C321CE0106960E94DE210E94540E56
:1044D0002FEFE21AF20A6696CECFEF92FF920F9379
:1044E0001F93CF93DF938C01FB0197558F3F91056D
:1044F00009F0D8F520914E0130914F012817390766
:1045000024F490934F0180934E01228136E1389F2D
:104510007001399FF00C1124E701C45FDE4F288B36
:1045200092818E81992349F11A8709878F5F8E8343
:104530000E94BA249E878D870E94660E8F830E94F8
:104540002F0E88870E94430E9885982B9887E881C4
:10455000F981309731F06C897D89C7018E5E9E4F5D
:10456000099510935E0300935D0381E0DF91CF9185
:104570001F910F91FF90EF9008958823B1F38989DF
:10458000882399F3C7018E5E9E4F0E94DE21EDCFF6
:10459000EF92FF920F931F93CF93DF9380914E0181
:1045A00090914F01019609F041C0DF91CF911F9189
:1045B0000F91FF90EF900895E89EF001E99EF00DB5
:1045C0001124E45FFE4F028913890115110511F4CE
:1045D00008EC10E0E89EE001E99ED00D1124C45FD4
:1045E000DE4F8E818823B9F08D859E850E94E6245A
:1045F0000817190780F4FE9C800111248989811114
:1046000005C0C801845F9E4F0E94C321C8018E5E11
:104610009E4F0E94DE21F3948F2D90E020914E0159
:1046200030914F01281739073CF6BFCFF12C86E1B6
:10463000E82EF2CF90936403809363030895E09192
:104640006303F0916403309721F00190F081E02D35
:10465000099480E00895DC01E0916303F091640324
:10466000309799F080915A01882351F080918B0303
:1046700087FF06C08C9111968C93119785E08C93DF
:104680000280F381E02DCD0109940895209161030A
:10469000309162032817390771F090936203809379
:1046A0006103E0916303F0916403309721F0068089
:1046B000F781E02D0994089520915F033091600304
:1046C0002817390771F09093600380935F03E0919E
:1046D0006303F0916403309721F00084F185E02DAD
:1046E00009940895FC01329680915A01882321F0A3
:1046F00080918B039EE187FF96E080E0915008F463
:10470000089521912223D1F38F5FF8CF9C01662376
:1047100001F180915A018823F1F080918B0387FF8A
:104720001AC0462F469546954695603F90F46770AF
:1047300081E090E002C0880F991F6A95E2F7240F8C
:10474000311DF901228130E02823392381E0232B18
:1047500071F480E00895F9013296285F3F4F81910E
:10476000861721F0E217F307D1F7F3CF81E0089520
:104770009C01FC0132968FEF90E04191461751F079
:104780008F3F19F4411101C0892F9F5F9630A9F71F
:104790008F3F09F40895280F311D87FD3A95F901DF
:1047A000628308959C01FC013296285F3F4F8191FE
:1047B000861303C0DF0111971C92E217F307B9F7C4
:1047C0000895FC01862F869586958695603F60F456
:1047D000E80FF11D677021E030E001C0220F6A95FB
:1047E000EAF78281822B82830895FC01862F8695C9
:1047F00086958695603F68F4E80FF11D677081E04B
:1048000090E001C0880F6A95EAF78095928189232C
:104810008283089520915A01222329F020918B034D
:1048200027FD0C94E1230C94B82320915A012223F4
:1048300029F020918B0327FD0C94F5230C94D223AF
:10484000FC01329680915A01882351F080918B03AC
:1048500087FF06C08EE1DF011D928A95E9F7089572
:1048600086E0F9CF0895089508950C94342480913A
:10487000E803843059F10E94352480E00E94D80476
:104880000E94881A1092650388E190E020E40FB638
:10489000F894A895809360000FBE2093600083B7C2
:1048A000817F846083BF83B7816083BF789488955C
:1048B00083B78E7F83BF0FB6F894A8958091600070
:1048C000886180936000109260000FBE0895089583
:1048D000CF930E9433240E94BC130E946724C0E03F
:1048E0008C2F0E94E112892B31F4CF5FC630C1F7C3
:1048F00080E0CF91089581E0FCCF08950C947D2451
:104900000E945F080E941F230E94D8040E946C1B13
:104910000C947E241F921FB61F9211248F939F9395
:10492000AF93BF9380916503811113C08091E00321
:104930009091E103A091E203B091E3034196A11DA0
:10494000B11D8093E0039093E103A093E203B09341
:10495000E303BF91AF919F918F911F901FBE1F9056
:10496000189582E084BD93E095BD9AEF97BD809342
:104970006E0008952FB7F8948091E0039091E103C1
:10498000A091E203B091E3032FBF0895CF93DF938B
:1049900000D000D0CDB7DEB78FB7F8942091E003F8
:1049A0003091E1034091E2035091E30329833A837C
:1049B0004B835C838FBF69817A818B819C810F904F
:1049C0000F900F900F90DF91CF9108959C014FB7FA
:1049D000F8948091E0039091E103A091E203B091FB
:1049E000E3034FBF821B930B08950F931F93CF9345
:1049F000DF9300D000D0CDB7DEB7462F572FBC01D4
:104A00002FB7F8948091E0039091E103A091E20325
:104A1000B091E3032FBF8C019D01041B150B260BE6
:104A2000370BC901B8010F900F900F900F90DF91D5
:104A3000CF911F910F91089578941F921FB61F92E6
:104A400011248F939F93AF93BF938091E003909134
:104A5000E103A091E203B091E3030196A11DB11D12
:104A60008093E0039093E103A093E203B093E30308
:104A7000BF91AF919F918F911F901FBE1F9018956E
:104A800081E08093E00080E28093D8001092C9001A
:104A90008FE19EE40197F1F700C0000087E090EB02
:104AA000DC018093F1039093F203A093F303B0939E
:104AB000F40388E19CE00FB6F894A8958093600019
:104AC0000FBE90936000FFCF90931D0280931C0255
:104AD00008958091890308959091E803943031F509
:104AE00080936603609367037093680382E080930A
:104AF000E9008FEF9091E800815095FD06C095ED9B
:104B00009A95F1F700008111F5CF8091E80085FFBB
:104B10000DC050E040E063E070E086E693E00E9464
:104B20006F278091E8008E778093E8000895BC019C
:104B300084E00C946C25BC0183E00C946C25CF932D
:104B4000DF93D82FC92F80915A018823C1F180911A
:104B50008B0387FF34C060E282E08093E9008FEF2F
:104B60009091E800815095FD06C095ED9A95F1F77A
:104B700000008111F5CF8091E80085FF1DC0809174
:104B80005A0170E050E040E0811104C050E040E084
:104B900068E070E08D2F9C2F0E946F278091E800C5
:104BA0008E778093E80080E2ED2FFC2FA9E6B3E03A
:104BB00001900D928A95E1F7DF91CF91089568E019
:104BC00081E0CBCF08958091E703811109C00E9455
:104BD000F7280E9454298091E20084608093E200CB
:104BE00008951092E703089508950895089542E006
:104BF00061EC81E00E94732842E261EC82E00C9457
:104C000073288091EA03893089F148F4823009F4ED
:104C10009DC0833009F458C0813041F008958A3036
:104C200009F484C08B3009F46AC008958091E903C7
:104C3000813A09F048C08091E800877F8093E800BE
:104C40008091ED039091EE03892B61F460E289E697
:104C500093E070E00E94BE278091E8008B778093FC
:104C6000E800089560E090E080E0F3CF8091E903F0
:104C7000813249F58091ED039091EE03029718F58A
:104C80008091E800877F8093E8008091E80082FFB0
:104C900016C09091F3008091F200029729F4809160
:104CA000F1008B7F813021F48091F10080938903A2
:104CB0008091E8008B778093E8000C94A72880917E
:104CC000E8038111E2CF08958091E903813AD9F791
:104CD0008091ED039091EE03892BA9F78091E80074
:104CE000877F8093E8008091E80080FFFCCF80916F
:104CF0005A018093F1008091E8008E77DCCF80919B
:104D0000E903813201F78091ED039091EE03892B45
:104D1000D1F68091E800877F8093E8000E94A72861
:104D20008091EB0380935A010C945F088091E90312
:104D3000813249F68091E800877F8093E8000E94E5
:104D4000A7288091EC0380938A0308958091E9035A
:104D5000813A09F0B8CF8091E800877F8093E8001E
:104D60008091E80080FFFCCF80918A03C2CF84B796
:104D7000877F84BF0FB6F894A89580916000886102
:104D800080936000109260000FBE80E890E00FB644
:104D9000F89480936100909361000FBE0C94D70F3C
:104DA0000E94F7280E945429E2EEF0E0808184609E
:104DB000808378940E94DB2B0E94EB0F80E591E0CA
:104DC0000C941A238091E803853031F48091E80334
:104DD000853021F00E9480240C94FE0F0E9437241D
:104DE0008091E603882391F30E946824882371F35D
:104DF0000E9459270E945F08E9CF0C94FF26FC010E
:104E0000CB01DA012F2F332723303105D1F070F495
:104E10002130310509F43EC02230310569F48BE3BD
:104E200090E026E135E02D933C9308952132310541
:104E3000E9F02232310521F190E080E030E020E01D
:104E4000F2CFCF019927E13059F08230910559F026
:104E5000E2E1F5E0892B81F7849190E09F01E3CFB7
:104E6000E0E0F5E0F9CFE2EEF4E0F6CF892BB9F01F
:104E70006130710509F789E090E021E435E0D3CF96
:104E8000892B91F061307105B9F68DE690E023E64B
:104E900035E0C9CF82E190E021E535E0C4CF89E07B
:104EA00090E028E235E0BFCF80E490E020ED35E0EF
:104EB000BACF80E189BD82E189BD09B400FEFDCF92
:104EC0008091D8008F7D8093D8008091E00082602F
:104ED0008093E0008091E00081FDFCCF0895AF92C7
:104EE000BF92CF92DF92FF920F931F93CF93DF93E6
:104EF0006C01EB018A010E94C628F82E811123C0A3
:104F00000115110539F0F80180819181C81BD90B79
:104F1000C80ED91EB12CA12C2097A9F08091E800D1
:104F200085FD22C08091E8008E778093E80001150E
:104F30001105A1F0F80180819181A80EB91EB182FE
:104F4000A08285E0F82E8F2DDF91CF911F910F91D8
:104F5000FF90DF90CF90BF90AF9008950E94C62839
:104F60008823D1F2F82EEFCFF60181916F01809363
:104F7000F1002197FFEFAF1ABF0ACECFFC01CB01A2
:104F80002091EF033091F0032617370790F0009738
:104F900029F42091E8002E772093E80040E0009764
:104FA00051F4411108C08091E80082FF31C080E0D7
:104FB0000895C901F3CF2091E8032223A9F12530F8
:104FC000A9F12091E80023FD2DC02091E80022FDE9
:104FD000EACF2091E80020FFE2CF3091F30020914A
:104FE000F200009719F02830310558F041E02830E0
:104FF000310509F040E02091E8002E772093E80089
:10500000CECF41914093F10001972F5F3F4FE9CF01
:105010008091E803882341F0853041F08091E800D9
:1050200083FFC1CF81E0089582E0089583E0089571
:10503000FC01CB012091EF033091F00326173707D5
:1050400090F0009729F42091E8002E772093E80053
:1050500040E0009751F4411108C08091E80082FFC0
:1050600032C080E00895C901F3CF2091E8032223E4
:10507000B1F12530B1F12091E80023FD2EC020913F
:10508000E80022FDEACF2091E80020FFE2CF309136
:10509000F3002091F200009719F02830310558F004
:1050A00041E02830310509F040E02091E8002E77FA
:1050B0002093E800CECF44914093F10031960197C0
:1050C0002F5F3F4FE8CF8091E803882341F0853080
:1050D00041F08091E80083FFC0CF81E0089582E035
:1050E000089583E00895982F973028F08F7080936B
:1050F000E90081E008959093E900242F762F50E095
:10510000981731F07091EC002091ED005091F00073
:1051100021FD02C09F5FE8CF3091EB003E7F3093CE
:10512000EB003091ED003D7F3093ED003091EB00CE
:1051300031603093EB007093EC002093ED005093BE
:10514000F0002091EE0027FDE5CF80E008958091EA
:10515000E90387FF13C08091E80082FF06C08091B9
:10516000E8008B778093E80004C08091E803811108
:10517000F2CF08958091E8038823D9F38091E80065
:1051800080FFF8CF8091E8008E77ECCF2091E4008B
:105190003091E50095E6A9012091EC00822F817005
:1051A00020FF06C08091E80080FF06C080E00895DF
:1051B0002091E80022FD1AC08091E803882389F03D
:1051C000853089F08091EB0085FD0FC02091E400CF
:1051D0003091E50042175307F9F29150E1F684E06F
:1051E000089582E0089583E0089581E008950E9483
:1051F00065290E946D29E0EEF0E080818160808366
:10520000E8EDF0E080818F77808319BCA7EDB0E0F6
:105210008C918E7F8C9380818F7E80831092E703A8
:1052200008950F931F93CF93DF930E9465290E94E7
:105230006D29C8EDD0E088818F7788838881806868
:10524000888388818F7D888319BC1092E80310922F
:10525000E4031092E6031092E50300EE10E0F8017B
:1052600080818B7F808388818160888342E060E0D9
:1052700080E00E947328E1EEF0E080818E7F8083E1
:10528000E2EEF0E0808181608083808188608083AD
:10529000F80180818E7F8083888180618883DF919F
:1052A000CF911F910F910895E8EDF0E080818F7EFE
:1052B0008083E7EDF0E080818160808384E082BFBD
:1052C00081E08093E7030C941129E8EDF0E0808100
:1052D0008E7F80831092E20008951092DA0010927F
:1052E000E10008951F920F920FB60F9211242F9391
:1052F0003F934F935F936F937F938F939F93AF935E
:10530000BF93EF93FF938091E10082FF0BC08091E8
:10531000E20082FF07C08091E1008B7F8093E10073
:105320000E94DA2B8091DA0080FF19C08091D800AA
:1053300080FF15C08091DA008E7F8093DA00809123
:10534000D90080FF94C080E189BD82E189BD09B4A4
:1053500000FEFDCF81E08093E8030E94E325809169
:10536000E10080FF19C08091E20080FF15C08091AC
:10537000E2008E7F8093E2008091E2008061809362
:10538000E2008091D80080628093D80019BC85E04B
:105390008093E8030E94F5258091E10084FF29C0F5
:1053A0008091E20084FF25C080E189BD82E189BD52
:1053B00009B400FEFDCF8091D8008F7D8093D80086
:1053C0008091E1008F7E8093E1008091E2008F7EEA
:1053D0008093E2008091E20081608093E2008091FE
:1053E000E403882309F449C084E08093E8030E9421
:1053F000F6258091E10083FF29C08091E20083FFC0
:1054000025C08091E100877F8093E10082E0809356
:10541000E8031092E4038091E1008E7F8093E10025
:105420008091E2008E7F8093E2008091E2008061B3
:105430008093E20042E060E080E00E947328809167
:10544000F00088608093F0000E94F425FF91EF91B6
:10545000BF91AF919F918F917F916F915F914F918C
:105460003F912F910F900FBE0F901F90189519BC70
:105470001092E8030E94F12572CF8091E30087FD2E
:1054800002C081E0B2CF83E0B0CF1F920F920FB67F
:105490000F9211242F933F934F935F936F937F93BA
:1054A0008F939F93AF93BF93CF93DF93EF93FF932C
:1054B000D091E900DF708091EC00C82FC17080FDB1
:1054C000C0E81092E9008091F000877F8093F0009F
:1054D00078940E94892A1092E9008091F0008860F7
:1054E0008093F000CD2BCF70C093E900FF91EF9136
:1054F000DF91CF91BF91AF919F918F917F916F91EC
:105500005F914F913F912F910F900FBE0F901F9081
:1055100018951F93CF93DF93CDB7DEB7AA970FB639
:10552000F894DEBF0FBECDBF89EE93E0FC0101967B
:105530002091F100208323E0813F9207B9F70E9478
:1055400001268091E80083FF1DC18091E9039091BD
:10555000EA039A3008F016C1E92FF0E0E654F24D64
:105560000C945A2C803899F0823809F00BC1809144
:10557000ED038F70873008F005C18093E9008091BA
:10558000EB0085FB882780F91092E90006C0809126
:10559000E5039091E603911182609091E800977F76
:1055A0009093E8008093F1001092F1008091E80060
:1055B0008E77E4C0882309F4D2C0823009F0E2C0BB
:1055C0008091EB038111D5C08091ED038F702FEF97
:1055D000280F263008F0D6C08093E9002091EB0018
:1055E00020FFC7C0933031F48091EB00806280933C
:1055F000EB00BFC09091EB0090619093EB0021E035
:1056000030E001C0220F8A95EAF72093EA00109259
:10561000EA008091EB008860EACF8111B3C010915D
:10562000EB031F778091E3008078812B8093E30068
:105630008091E800877F8093E8000E94A7288091EE
:10564000E80080FFFCCF8091E30080688093E30056
:1056500082E0111183E08093E80394C08058823087
:1056600008F090C08091EB039091EC038C3D23E017
:10567000920799F583E08A838AE289834FB7F89489
:10568000DE01139620E03EE051E2E32FF0E050937C
:105690005700849120FF03C082958F703F5F8F7009
:1056A0008A30C8F0895C90E08D939D932F5F243100
:1056B00061F74FBF8091E800877F8093E8006AE23E
:1056C00070E0CE0101960E94BE278091E8008B77A2
:1056D0008093E80057C0805DE6CF6091ED03709144
:1056E000EE03AE014F5F5F4F0E94FD26BC01892B88
:1056F00009F448C08091E800877F8093E8008981A1
:105700009A810E941828E1CF8038E1F58091E80065
:10571000877F8093E8008091E4038093F10046CF77
:10572000811130C09091EB03923060F58091E800D8
:10573000877F8093E8009093E4030E94A7288091DC
:10574000E403882311F084E005C08091E30087FD25
:10575000FACF81E08093E8030E94F72513C080917F
:10576000EB03813079F481E0933009F080E080939D
:10577000E6031092E9008091E800877F8093E800BB
:105780000E94A7288091E80083FF0AC08091E8006A
:10579000877F8093E8008091EB0080628093EB002C
:1057A000AA960FB6F894DEBF0FBECDBFDF91CF91A2
:1057B0001F9108950895CF938091E8038823A1F065
:1057C000C091E900CF709091EC00892F817090FD1D
:1057D00080E8C82B1092E9008091E80083FD0E94C8
:1057E000892ACF70C093E900CF910895991B79E081
:1057F00004C0991F961708F0961B881F7A95C9F761
:105800008095089587FB082E062687FD819567FD04
:1058100061950E94F62B0EF4919507FC81950895F1
:10582000AA1BBB1B51E107C0AA1FBB1FA617B707C6
:1058300010F0A61BB70B881F991F5A95A9F78095E2
:105840009095BC01CD01089597FB072E16F40094A6
:1058500007D077FD09D00E94102C07FC05D03EF43C
:10586000909581959F4F0895709561957F4F08950C
:10587000A1E21A2EAA1BBB1BFD010DC0AA1FBB1F54
:10588000EE1FFF1FA217B307E407F50720F0A21BC6
:10589000B30BE40BF50B661F771F881F991F1A9433
:1058A00069F760957095809590959B01AC01BD015D
:1058B000CF010895EE0FFF1F0590F491E02D09949C
:1058C0000E94682C332312F48A1B9B0B0C94792CB6
:1058D000A29FB001B39FC001A39F700D811D112431
:1058E000911DB29F700D811D1124911D08950E947C
:1058F000682CB7FF0895821B930B08950E94682CB3
:10590000A59F900DB49F900DA49F800D911D112413
:105910000895B7FF0C947E2C0E947E2C821B930B63
:105920000895CF92DF92EF92FF92CF93DF93CDB79E
:10593000DEB72A970FB6F894DEBF0FBECDBF8987BA
:105940009A87A985BA852D913D914D915C912983C6
:105950003A834B835C83232B242B252B41F424E2B5
:1059600039ED4BE557E029833A834B835C836981AA
:105970007A818B819C812DE133EF41E050E00E94E0
:105980006B2D69017A01A7EAB1E49B01AC010E9489
:105990007E2C69837A838B839C83ACEEB4EFA70162
:1059A00096010E948C2C9B01AC0189819A81AB816C
:1059B000BC81820F931FA41FB51FB7FF03C00197BF
:1059C000A109B048E985FA8580839183A283B383D6
:1059D0009F772A960FB6F894DEBF0FBECDBFDF913A
:1059E000CF91FF90EF90DF90CF9008950E94912C7F
:1059F000089580E091E00E94912C0895B0E0A0E02D
:105A00008093000190930101A0930201B0930301E0
:105A10000895FC014150504030F001900616D1F736
:105A20003197CF010895882799270895FB01DC015C
:105A300004C08D910190801921F441505040C8F765
:105A4000881B990B0895F999FECF92BD81BDF89AF4
:105A5000992780B50895A6E1B0E044E050E00C94A9
:105A60005D2DA8E1B0E042E050E00C945D2D262FC2
:105A7000F999FECF92BD81BDF89A019700B4021644
:105A800039F01FBA20BD0FB6F894FA9AF99A0FBEF2
:105A900008950396272F0E94382D0E94372D252F19
:105AA0000E94382D242F0C94382D0196272F0E9408
:105AB000382D0C94372DDC01CB01FC01F999FECF78
:105AC00006C0F2BDE1BDF89A319600B40D92415086
:105AD0005040B8F70895052E97FB1EF400940E94DD
